:100000000C9440000C9468000C9468000C946800F8
:100010000C94EA020C9468000C9468000C9468003C
:100020000C9468000C9468000C9468000C946800B0
:100030000C9468000C9468000C9468000C946800A0
:100040000C9459020C9468000C9468000C9468009D
:100050000C94CA010C9468000C9468000C9468001D
:100060000C9468000C9468000C9468000C94680070
:100070000C9468000C9468000C946800EE0039043D
:1000800011241FBECFEFD4E0DEBFCDBF11E0A0E052
:10009000B1E0E8ECF8E002C005900D92AE33B10794
:1000A000D9F722E0AEE3B1E001C01D92AE32B20753
:1000B000E1F710E0C0E4D0E004C02197FE010E9407
:1000C0005304CE33D107C9F70E9489030C9462040C
:1000D0000C940000109285001092840083E08093BD
:1000E000800089E08093810010928200559A0D9AD9
:1000F000549A5C9A10928900109288000895009793
:1001000061F41598809180008F77809380008091B2
:1001100080008F7B80938000089597FD0CC0159818
:1001200020918000206820938000209180002F7B08
:10013000209380000EC0159A2091800020682093A3
:100140008000209180002F7B2093800091958195E5
:100150009109811524E0920714F08FEF93E09093BA
:1001600089008093880008950E9A169808950E9A33
:10017000169A0895FC018081823019F128F48823B1
:1001800059F08130B1F028C0833001F1843021F57D
:1001900081818093430120C08181882329F00E94BE
:1001A000B400569A5E9818C00E94B700569A5E9A9C
:1001B00013C081E09181911101C080E080933E01E4
:1001C0000BC0818192810E947F0006C08181928153
:1001D000909312028093110281E00895EEE3F1E022
:1001E000108285E090E0928381839483838384E608
:1001F000858308950F931F9392E09093C000882306
:1002000011F080E101C080E0611188608093C1003D
:10021000237080E1289F90011124822F8668442357
:1002200011F0822F8E688093C2001093C500009356
:10023000C4001F910F9108959091C00095FFFCCFCD
:100240008093C60008950F931F93CF93DF93EC0123
:100250008C01060F171FC017D10721F089910E944A
:100260001C01F9CFDF91CF911F910F9108950F934A
:100270001F93CF93DF9300D0CDB7DEB78C01FC0185
:1002800001900020E9F73197E81BF90BFA83E98325
:1002900089E60E941C0162E070E0CE0101960E9496
:1002A000230169817A81C8010E94230186E90E94A5
:1002B0001C010F900F90DF91CF911F910F91089526
:1002C0000F931F93CF93DF9300D0CDB7DEB78C0190
:1002D0007A83698389E60E941C0162E070E0CE01A6
:1002E00001960E94230169817A81C8010E9423013D
:1002F00086E90E941C010F900F90DF91CF911F9112
:100300000F910895109244011092460110924501F8
:100310001092480110924701E1ECF0E08081806882
:10032000808308952091470130914801B9016F5FA2
:100330007F4F7093480160934701F901E355FE4FE9
:1003400080839091AD01993601F56430710508F113
:100350004091AF0150E0542F44279091AE01492BBA
:100360004C5F5F4F91F04617570799F4863969F44F
:10037000509346014093450160EB71E089E491E0C0
:100380000E94590481E08093440110924801109228
:10039000470108951F920F920FB60F9211242F93C9
:1003A0003F934F935F936F937F938F939F93AF93FD
:1003B000BF93EF93FF938091C6000E949201FF913B
:1003C000EF91BF91AF919F918F917F916F915F91CD
:1003D0004F913F912F910F900FBE0F901F90189546
:1003E000AF92BF92CF92DF92EF92FF920F931F9343
:1003F000CF938091210290912202A0912302B0918B
:100400002402E0911102F09112026C017D01FF0CB7
:10041000CC08DC2C76011F2F110F110B9C01AD01B4
:100420006C2D7C2D8C2D9C2D5F01C12ED12EE12EAB
:10043000F12E012F0E944A04F22FE32F2130CCEF3E
:100440003C07CFEF4C075C076C077C078C079C07C9
:100450006CF02F3F33404105510561057105810561
:10046000910531F02CF0FFEFE3E002C0F1E0ECEF9A
:100470008F2F9E2FCF911F910F91FF90EF90DF90C4
:10048000CF90BF90AF900C947F0010922A021092F0
:100490002B0210922C0210922D0216BC82E084BD19
:1004A00085BD87EC87BDEEE6F0E0808182608083C9
:1004B00008951F920F920FB60F9211242F933F931E
:1004C0008F939F93AF93BF9380912A0290912B02B9
:1004D000A0912C02B0912D020196A11DB11D809317
:1004E0002A0290932B02A0932C02B0932D028091AC
:1004F0002802909129020196909329028093280264
:1005000020913F01309140018217930738F081E03C
:1005100080931602109229021092280280912502DF
:1005200090912602019690932602809325022091B5
:100530004101309142018217930738F081E08093A6
:100540001502109226021092250280917A0086FDF3
:100550000DC0809178009091790090930101809373
:10056000000180917A00806480937A00BF91AF91FE
:100570009F918F913F912F910F900FBE0F901F90E1
:10058000189580E480937C0010927B0087EC809328
:100590007A0008955F98579A08955F9A579A089538
:1005A00012980A9A0895129A0A9A08950E94CA0205
:1005B00000C000C000000E94CD020E94D302EBE602
:1005C000F0E0808180688083E8E6F0E080818160EF
:1005D000808308951F920F920FB60F9211242F93CC
:1005E0003F934F935F936F937F938F939F93AF93BB
:1005F000BF93EF93FF9381E0809314020E94CA029D
:1006000000C00E94CD02FF91EF91BF91AF919F91E9
:100610008F917F916F915F914F913F912F910F90AB
:100620000FBE0F901F90189580912A0290912B0277
:10063000A0912C02B0912D02409117025091180206
:100640006091190270911A02841B950BA60BB70BCF
:1006500080931D0290931E02A0931F02B09320026C
:1006600080912A0290912B02A0912C02B0912D0230
:100670008093170290931802A0931902B0931A0264
:1006800014B817B80E94D00200C083B126B190E020
:10069000922B90931C0280931B02019B0BC08091B4
:1006A0001B0290911C0291958195910990931C02D7
:1006B00080931B0280911402882351F0109214023F
:1006C0001092210210922202109223021092240210
:1006D00080911B0290911C024091210250912202B4
:1006E0006091230270912402092E000CAA0BBB0B0F
:1006F000840F951FA61FB71F80932102909322029B
:10070000A0932302B09324020E94CA0200C00C945A
:10071000CD02CF93DF93CDB7DEB762970FB6F894D3
:10072000DEBF0FBECDBF01E010E020E040E061E0A1
:1007300081E00E94FA000E94820182E091E00E9422
:1007400037010E94D6020E94C1020E946A000E94E4
:10075000450283E090E0569A5E982FEF36E741E03D
:10076000215030404040E1F700C00000569A5E9AA8
:100770002FEF36E741E0215030404040E1F700C024
:100780000000019741F7789411E0809116028823C8
:1007900031F00E94140310921602109327028091E8
:1007A0001502882341F080913E01882321F00E94A8
:1007B000F0011092150280912702882309F449C0A4
:1007C00010922702809113028F5F80931302909101
:1007D000430189133EC01092130280911702909139
:1007E0001802A0911902B0911A0289839A83AB83EF
:1007F000BC838091210290912202A0912302B091AA
:1008000024028D839E83AF83B88780911B029091D1
:100810001C02092E000CAA0BBB0B89879A87AB8799
:10082000BC8780911D0290911E02A0911F02B09181
:1008300020028D879E87AF87B88B809100019091B1
:1008400001019A8B898B62E170E0CE0101960E94D2
:10085000600180914401882309F497CF609145019C
:100860007091460189E491E00E94BA00109244011F
:100870008CCFE7E1F2E0108211821282138215829E
:1008800014821682178210861186128613861486A9
:10089000158608952A193B094C095D096E097F09DF
:1008A000800B910B0895EE0FFF1F0590F491E02D42
:1008B0000994FB01DC0102C001900D9241505040AF
:0808C000D8F70895F894FFCF6A
:1008C80001005374656572696E6720436F6E7472B8
:1008D8006F6C204669726D776172652D4275696C1F
:1008E8006420547565204D61792030362030393ABE
:0E08F80031353A353020323031340D0A0000EF
:00000001FF
