:100000000C944F000C9477000C9477000C947700BC
:100010000C9477000C9477000C9477000C94770084
:100020000C9477000C9477000C9477000C94770074
:100030000C9477000C9477000C9477000C94770064
:100040000C9477000C9477000C9477000C94770054
:100050000C9477000C9477000C9477000C94770044
:100060000C9477000C9477000C9477000C94770034
:100070000C9477000C9477000C947700000020001B
:1000800023002600290000002200250028002B0064
:1000900000002100240027002A0074040107112415
:1000A0001FBECFEFD4E0DEBFCDBF11E0A0E0B1E0D6
:1000B000E8E3FFE002C005900D92AC30B107D9F73C
:1000C00021E0ACE0B1E001C01D92A53BB207E1F731
:1000D00010E0CFE4D0E004C02197FE010E94940715
:1000E000CD34D107C9F70E94DF010C949A070C9414
:1000F0000000ECE7F0E080818064808380818F776E
:100100008083EAE7F0E08081876080838081806877
:10011000808308959FEF980F903260F4282F30E08D
:10012000215031092770332781E001C0880F2A95BB
:10013000EAF7089580E008951F93CF93DF939FEF30
:10014000980F9032A0F5C82FD0E0219723E0D595E5
:10015000C7952A95E1F7209751F1162F0E948A0042
:10016000CC0FDD1FFE01E057FF4FA591B491CA5798
:10017000DF4FFE01C591D4912FB7F894113099F05B
:1001800050F0123099F43C91982F909593239C93C2
:100190009881892B06C09C91809598239C93988187
:1001A0008923888303C09C91892B8C932FBFDF9177
:1001B000CF911F9108951F93CF93DF939FEF980FD7
:1001C0009032F8F4C82FD0E0219723E0D595C79559
:1001D0002A95E1F72097A9F0162F0E948A00FE01C8
:1001E000EE0FFF1FEA57FF4FA591B4919FB7F89408
:1001F0002C91112311F0822B02C0809582238C93C5
:100200009FBFDF91CF911F910895CF93DF939FEF11
:10021000980F9032B8F4C82FD0E0219723E0D595FD
:10022000C7952A95E1F7209769F00E948A00FE01A0
:10023000EE0FFF1FE458FF4FA591B4919C919823B6
:1002400081E009F480E0DF91CF91089561E08EE1D3
:100250000E949C0060E08EE10C94DB0061E08EE186
:100260000E949C0061E08EE10C94DB00EF92FF9213
:100270000F931F93CF93DF937C018B01C0E0D0E0FD
:10028000CE15DF0514F50E94260120E030E020178E
:10029000310749F087E893E10197F1F700C00000CA
:1002A0002F5F3F4FF4CF0E942E0120E030E0201757
:1002B000310749F087E893E10197F1F700C00000AA
:1002C0002F5F3F4FF4CF2196DBCFDF91CF911F916E
:1002D0000F91FF90EF900895F89460910C01709148
:1002E0000D0180910E0190910F0178940895109264
:1002F0000C0110920D0110920E0110920F0187EC6B
:100300008093B30082E08093B000E0E7F0E080816A
:10031000826080830895EF920F93CF93DF93C42F71
:10032000D22F9B01AC0183E0220F331F441F551FC6
:100330008A95D1F760E07DE281E391E00E94720747
:100340002150310982E08093C000DD2311F080E16B
:1003500001C080E0011188608093C100C37080E11A
:10036000C89FA0011124842F8668EE2011F0842FED
:100370008E688093C2003093C5002093C400DF9143
:10038000CF910F91EF9008959091C00095FFFCCF11
:100390008093C60008950F931F93CF93DF93EC01D2
:1003A0008C01060F171FC017D10721F089910E94F9
:1003B000C401F9CFDF91CF911F910F910895E12CE6
:1003C00001E021E040E060E072EC81E090E00E941A
:1003D0008B010E947701789462E070E083E090E006
:1003E0000E9436010E941C070E9406020E946E06AF
:1003F0000E941A050E94ED03F5CF61E089E00E949A
:10040000DB0061E089E00C949C000895CF92DF92BC
:10041000EF92FF920F931F93CF93DF93CDB7DEB789
:1004200069970FB6F894DEBF0FBECDBF80911C0157
:10043000882309F453C00E946C01009110011091AF
:10044000110120911201309113016B017C01C01A3E
:10045000D10AE20AF30A9701860140910001509106
:1004600001016A01E12CF12C0C151D052E053F053B
:10047000A8F1609310017093110180931201909381
:10048000130189E6898382E98A8384E18B8386E983
:10049000898F0E946C016C837D838E839F83FE0114
:1004A0003896CE01489611921192E817F907D9F7BC
:1004B0002B81FE01349640E050E080E030E04217AE
:1004C000530728F49191890F4F5F5F4FF8CF888FC2
:1004D00069E170E0CE0101960E94CB0169960FB6EA
:1004E000F894DEBF0FBECDBFDF91CF911F910F916A
:1004F000FF90EF90DF90CF900895CF93DF9300D0DF
:1005000000D01F92CDB7DEB7FE01319695E0DF0136
:100510001D929A95E9F799E6998396E99D838A83D6
:1005200065E070E0CF010E94CB010F900F900F901B
:100530000F900F90DF91CF910895DF92EF92FF928D
:100540000F931F93CF93DF93CDB7DEB72C970FB6E2
:10055000F894DEBF0FBECDBF962F813209F4C9C01B
:1005600080F4813109F45CC028F48823F9F08031EB
:1005700011F122C1823109F467C0803209F48AC0C6
:100580001BC1813309F4F3C038F4853209F4B7C0D4
:10059000803309F4D7C010C1803409F4FAC0813423
:1005A00009F00AC11092740181EB07C1613009F0B2
:1005B000CBC080E702C1643009F0C6C0DA011396EF
:1005C000EC901397E0FAEE24E0F8FC901196DC90A2
:1005D000119712961C9180911D01811105C00E94F6
:1005E000FD0181E080931D01612F70E07D298F2D39
:1005F0000E940502EE2091F0B3E0BF1578F081E093
:10060000809363010E946C0124E0F29EF0011124AA
:10061000EC59FE4F608371838283938380E8CDC061
:10062000623009F091C0DA01FC9011961C9161E0F2
:100630008F2D0E949C0061E0111101C060E08F2DA0
:100640000E94DB0081E8B9C0613009F07DC0FA0189
:10065000108160E0812F9C870E949C00812F0E9466
:100660000501FE01319627E0DF011D922A95E9F789
:1006700029E6298322E82A839C859B8396E99F8328
:100680001C838D83180F1E8367E070E0CF010E94EA
:10069000CB0195C06B3009F057C08BE0FA01DE0149
:1006A000119601900D928A95E1F7FA0140855185E6
:1006B000228510921C01E4E1F1E0DE01119680E058
:1006C00010829D9197FD02C090838F5F319691E0DB
:1006D000EC31F907A9F780931C0150930101409375
:1006E000000181E0211101C080E00E94790080E9D1
:1006F00064C0613049F510921C0181E95EC063302D
:1007000019F5DA011296FC901297F0FAFF24F0F82E
:100710001C9161E0812F0E949C00FF2089F0103124
:1007200078F481E0809322010E946C01B4E01B9F69
:10073000F0011124E25EFE4F658376838783908704
:1007400085E93BC0683011F08DEF37C088E0FA01D1
:10075000DE01119601900D928A95E1F7CE01019686
:100760000E948C0581E08093910180EA26C08AEF87
:1007700090E098878F831D821B8219821E821C82C3
:100780001A82CE0101960E948C051092910181EA95
:1007900014C06530C9F6FA01238134814281618138
:1007A00080810E949004882329F081E08093740165
:1007B00080EB03C08CEF01C08EEF0E947D022C966F
:1007C0000FB6F894DEBF0FBECDBFDF91CF911F9162
:1007D0000F91FF90EF90DF9008958F929F92AF92CC
:1007E000BF92CF92DF92EF92FF920F931F93CF931E
:1007F000DF930E946C016B017C0180916301811188
:1008000013C090912201992309F461C01092220132
:1008100000911E0110911F012091200130912101B2
:10082000EEE1F1E080E033C01092630104E611E0F4
:10083000C0E0D1E0F80180819181A281B38100976D
:10084000A105B105F1F0D0936301B701A601481BE2
:10085000590B6A0B7B0B80911E0190911F01A09197
:100860002001B091210184179507A607B70748F426
:10087000108211821282138260E070E08C2F0E943D
:100880000502CF5F0C5F1F4FC430A1F6BACF458180
:10089000568167817085411551056105710581F0AB
:1008A00046015701841A950AA60AB70A08151905C0
:1008B0002A053B0520F41582168217821086892F9F
:1008C000349641E0EE35F40711F780932201DF9171
:1008D000CF911F910F91FF90EF90DF90CF90BF903D
:1008E000AF909F908F900895EEE1F1E088EE93E055
:1008F000A0E0B0E080839183A283B383148210923E
:10090000630180E4E3E2F1E0DF011D928A95E9F7FB
:1009100080E1E4E6F1E0DF011D928A95E9F70895B0
:10092000E82F082E000CFF0BF0930901E09308015B
:10093000062E000C770B7093070160930601042EBE
:10094000000C550B509305014093040130930301B3
:10095000209302011E161F06FCF416161706E4F477
:1009600014161506CCF461E00E949C0061E08091B1
:1009700006010E949C0060E0809104010E949C009E
:1009800061E0809106010E94DB0061E08091080136
:100990000E94DB0081E0089580E008950F931F938B
:1009A000CF93DF9361E0809108010E949C0061E099
:1009B000809106010E949C0060E0809104010E94E9
:1009C0009C0060E0809108010E94DB0086E08A952F
:1009D000F1F700C086E08A95F1F700C000E110E071
:1009E000C0E0D0E060E0809106010E94DB0086E07C
:1009F0008A95F1F700C061E0809106010E94DB005A
:100A000086E08A95F1F700C0CC0FDD1F80910401CC
:100A10000E9405018111C1600150110919F761E0BF
:100A2000809108010E94DB00CE01DF91CF911F91E0
:100A30000F910895CF92DF92EF92FF92CF93DF93C1
:100A4000CDB7DEB72C970FB6F894DEBF0FBECDBF83
:100A500080917401882309F452C00E946C016B01DB
:100A60007C018091750190917601A0917701B09100
:100A70007801B701A601481B590B6A0B7B0B8091CB
:100A8000020190910301A0E0B0E0481759076A07FE
:100A90007B07A8F1C0927501D0927601E0927701B0
:100AA000F09278010E94CE0429E6298324E92A8362
:100AB00027E02B8326E92C87CC82DD82EE82FF8221
:100AC0009C0196E0369527959A95E1F73987288716
:100AD0008F738A87FE013496AE01455F5F4F20E039
:100AE000819190E0820F911D282FE417F507C1F73F
:100AF0008B876CE070E0CE0101960E94CB012C96B2
:100B00000FB6F894DEBF0FBECDBFDF91CF91FF903F
:100B1000EF90DF90CF900895BF92CF92DF92EF9247
:100B2000FF920F931F93CF93DF93CDB7DEB72C9730
:100B30000FB6F894DEBF0FBECDBFDC0116962D9127
:100B40003C91179730930B0120930A0109E711E0BC
:100B5000BC016C5F7F4F40E050E07B01ACE0DA2EDF
:100B6000CC24C394BB24B39419821A821B821C82A6
:100B70001D821E821F82188619861A861B861C8675
:100B8000FE013196D8012D2D01900D922A95E1F7A5
:100B9000FC01DC012D91CD01D49ED001D59EB00D7C
:100BA0001124A758BE4F2C93208112160CF07CC044
:100BB000FB013297208112169CF53FEF320F303245
:100BC00060F430E02150310927703327BB2D01C07C
:100BD000BB0F2A95EAF72B2F01C020E0D49ED0014D
:100BE000D59EB00D1124A758BE4F12962C9320818C
:100BF0003FEF320F303248F430E021503109F3E05A
:100C000035952795FA95E1F701C020E0D49EF001D3
:100C1000D59EF00D1124E758FE4F2383C18202C0F8
:100C200011961C92E114F104A9F1FB0120813FEF20
:100C3000320F303260F430E0215031092770332711
:100C4000FB2D01C0FF0F2A95EAF72F2F01C020E0EE
:100C5000D49EF001D59EF00D1124E758FE4F258358
:100C6000DB012C913FEF320F303248F430E021505D
:100C70003109E3E035952795EA95E1F701C020E0D9
:100C8000D49EF001D59EF00D1124E758FE4F268327
:100C9000C4820AC0D49EF001D59EF00D1124E758FD
:100CA000FE4F148216821582045F1F4F6F5F7F4FC5
:100CB0004130510519F041E050E056CF2C960FB667
:100CC000F894DEBF0FBECDBFDF91CF911F910F9182
:100CD000FF90EF90DF90CF90BF900895CF92DF927A
:100CE000EF92FF920F931F93CF93DF93CDB7DEB7B1
:100CF00065970FB6F894DEBF0FBECDBF809191010E
:100D0000882309F46FC00E946C0100919201109138
:100D1000930120919401309195016B017C01C01ADF
:100D2000D10AE20AF30A9701860140910A01509123
:100D30000B016A01E12CF12C0C151D052E053F0558
:100D400008F450C0609392017093930180939401D2
:100D50009093950189E6898383E98A8380E18B8377
:100D600086E98D8BF8948091810190918201A09108
:100D70008301B091840188879987AA87BB87809176
:100D80008D0190918E01A0918F01B09190018C877F
:100D90009D87AE87BF8778940E946C016C837D83AA
:100DA0008E839F8380910A0190910B01A0E0B0E0B7
:100DB000888B998BAA8BBB8B2B81FE01349640E0EC
:100DC00050E080E030E04217530728F49191890FFA
:100DD0004F5F5F4FF8CF8C8B65E170E0CE010196DD
:100DE0000E94CB0165960FB6F894DEBF0FBECDBF53
:100DF000DF91CF911F910F91FF90EF90DF90CF90F7
:100E00000895E9E7F1E010821182128213821482C0
:100E10001582168217821086118612861386148612
:100E2000158616861786108A118A128A138A148AE2
:100E3000158A168A178A0895CF93DF93C9E9D1E0FE
:100E40008091C00087FD06C080E09091C000815075
:100E500097FF42C08091C600E091B401E11106C045
:100E6000893621F01092B4018BEF2CC021E02E0FB7
:100E70002093B401F0E0EA56FE4F808330E06091A9
:100E80009801862F90E0059628173907C9F62A564B
:100E90003E4FF90131978081863921F78091970182
:100EA000E9E9F1E090E04E2F4C1B461718F4419110
:100EB000940FF9CFF90132972081291731F0109260
:100EC000B4018AEF0E947D02BBCF49E951E00E9444
:100ED0009D021092B401B4CF813009F0B6CFDF91FA
:100EE000CF910895A1E21A2EAA1BBB1BFD010DC0D4
:100EF000AA1FBB1FEE1FFF1FA217B307E407F507CA
:100F000020F0A21BB30BE40BF50B661F771F881FA5
:100F1000991F1A9469F760957095809590959B013B
:100F2000AC01BD01CF010895EE0FFF1F0590F491B4
:080F3000E02D0994F894FFCFB5
:0C0F3800C800C8000B000A000900F4010A
:00000001FF
