S01F00005374656572696E67436F6E74726F6C4669726D776172652E73726563A6
S11300000C9436000C945E000C945E000C945E001C
S11300100C945E000C945E000C945E000C945E00E4
S11300200C945E000C945E000C945E000C945E00D4
S11300300C945E000C945E000C9470020C945E00B0
S11300400C945E000C945E000C945E000C945E00B4
S11300500C945E000C945E000C945E000C945E00A4
S11300600C945E000C945E0028018E0311241FBEC4
S1130070CFEFD8E0DEBFCDBF11E0A0E0B1E0EEEFFE
S1130080FBE002C005900D92A234B107D9F721E03C
S1130090A2E4B1E001C01D92A23DB207E1F710E075
S11300A0C6E3D0E004C02197FE010E94F705C433E3
S11300B0D107C9F70E94CE020C94FD050C940000F0
S11300C0109285001092840083E08093800089E080
S11300D08093810010928200219A219A229A2C9A6C
S11300E010928900109288000895662321F090935D
S11300F0430180934201009751F44598E0E8F0E011
S113010080818F77808380818F7B8083089599237A
S113011054F04598E0E8F0E02081206820832081B5
S11301202F7B20830CC0459AE0E8F0E02081206812
S1130130208320812F7B20839195819591098115BE
S113014024E0920714F08FEF93E09093890080935A
S113015088000895529A5A980895529A5A9A08957E
S1130160CF93DF93EC019881923009F440C028F4D6
S1130170992359F09130B1F067C0943009F45BC011
S113018008F450C09530B1F05FC08981882329F00C
S11301900E94AA00569A5E9857C00E94AD00569AD3
S11301A05E9A52C081E09981911101C080E08093F0
S11301B044014AC020E030E040E854E469817A8197
S11301C08B819C810E94910420E030E040EA50E45D
S11301D00E949F030E94110470930501609304011F
S11301E08D819E8190930301809302012DC08091A3
S11301F0CD01882321F189819A81AB81BC8100974B
S1130200A105B10561F02091CC01222319F0BB2393
S1130210DCF405C0181619061A061B06ACF4109275
S1130220CD010DC01092CD0189819A819093B401C2
S11302308093B30109C089818093490105C061E0BD
S113024089819A810E94750081E0DF91CF910895A0
S1130250E4E4F1E0108285E090E09283818394836A
S1130260838384E6858308950F931F9392E090938C
S1130270C000882311F080E101C080E06111886032
S11302808093C100237080E1289F90011124266887
S1130290411128602093C2001093C5000093C4004C
S11302A01F910F910895E0ECF0E0908195FFFDCF50
S11302B08093C60008950F931F93CF93DF93611526
S11302C0710551F08C01EC01060F171F89910E94F2
S11302D05301C017D107D1F7DF91CF911F910F912F
S11302E008950F931F93CF93DF9300D0CDB7DEB75C
S11302F08C01FC0101900020E9F73197E81BF90B10
S1130300FA83E98389E60E94530162E070E0CE013A
S113031001960E945B0169817A81C8010E945B0198
S113032086E90E9453010F900F90DF91CF911F91A6
S11303300F91089510924A0110924C0110924B01B2
S113034010924E0110924D01E1ECF0E08081806842
S1130350808308958F929F92AF92BF92CF92DF9243
S1130360EF92FF920F931F93CF93DF938091CD0170
S113037081118AC08091C0019091C101A091C201F4
S1130380B091C301E091B301F091B4016C017D011E
S1130390FF0CCC08DC2C76011F2F110F110B282F1A
S11303A0392F4A2F5B2F6C2D7C2D8C2D9C2DAE2E3E
S11303B0BF2EC12ED12EE12EF12E012F0E94EE056B
S11303C0822E932ED42FC52FB62FA72FF82FE92FC7
S11303D006E00E94D505A82CB92CCD2EDC2EEB2EE0
S11303E0FA2E0F2F1E2F0E94EE0501E00E94D50564
S11303F00F2F0E94EE0503E00E94D5050F2EF8EEA4
S1130400AF2EF02D0F2EF3E0BF2EF02DC12CD12CEA
S1130410E12CF12C00E010E00E940005F22FE32F04
S1130420E42EF52E062F172FD82FC92F21303C4F3D
S11304304F4F5F4F6F4F7F4F8F4F9F4F54F4F1E0FB
S1130440ECEFEE24EA94FF24FA940FEF1FEFDFEFB2
S1130450CFEFBF2FAE2F2F2F3E2F4E2D5F2D602FAE
S1130460712F8D2F9C2F2F3F33404105510561057E
S113047071058105910519F014F0BFEFA3E061E067
S11304808B2F9A2F0E947500DF91CF911F910F91AE
S1130490FF90EF90DF90CF90BF90AF909F908F90A0
S11304A00895F8946091CE017091CF018091D001AC
S11304B09091D101789408951092CE011092CF01B9
S11304C01092D0011092D10116BC82E084BD85BD8A
S11304D087EC87BDEEE6F0E080818260808308953A
S11304E01F920F920FB60F9211242F933F938F9365
S11304F09F93AF93BF93EF93FF938091CE0190911D
S1130500CF01A091D001B091D1010196A11DB11DDF
S11305108093CE019093CF01A093D001B093D101E9
S11305208091C4019091C50101969093C501809377
S1130530C40120914701309148018217930738F094
S113054081E08093B5011092C5011092C40180919D
S11305507A0086FD0DC08091780090917900909387
S1130560010180930001EAE7F0E0808180648083E8
S1130570FF91EF91BF91AF919F918F913F912F91F7
S11305800F900FBE0F901F90189580E480937C000D
S113059010927B0087EC80937A00089500E110E0CC
S11305A020E040E061E081E00E9434010E949A0171
S11305B086E091E00E9471010E94C5020E946000E1
S11305C00E945C0283E090E0569A5E982FEF36E733
S11305D041E0215030404040E1F700C00000569A0D
S11305E05E9A5FEF26E731E0515020403040E1F75A
S11305F000C00000019741F77894C4E4D1E0FF24DF
S1130600F39400E012E08091B501882339F08881E9
S1130610882321F00E94AA011092B50180914A0119
S1130620882351F060914B0170914C018FE491E06B
S11306300E94B00010924A018091CD01811168C0DE
S113064080910401909105012091000130910101F4
S1130650AC015E5F4217530758F0209100013091BE
S11306600101A801481B590B2417350708F04BC09A
S11306700E9451028090C8019090C901A090CA01C3
S1130680B090CB01681579058A059B0591F02091FE
S1130690C6013091C7012F5F3F4F3093C7012093AC
S11306A0C6016093C8017093C9018093CA019093F5
S11306B0CB0180910201909103019C01220F331F11
S11306C0880F991F880F991F880F991F820F931FF6
S11306D02091C6013091C7012817390708F493CF38
S11306E0F092CD018F2D20914201309143011216D9
S11306F013060CF080E08093CC0160E080E090E091
S11307000E94750080CF1092C7011092C6017BCF62
S113071060E080E090E00E94750075CFE6EBF1E0C8
S11307201082118212821382158214821682178219
S113073010861186128613861486158608950E94E3
S1130740B3030C9457040E94500458F00E944904C7
S113075040F029F45F3F29F00C94400451110C94AB
S11307608B040C9446040E94680468F39923B1F343
S1130770552391F3951B550BBB27AA2762177307C3
S1130780840738F09F5F5F4F220F331F441FAA1F57
S1130790A9F335D00E2E3AF0E0E832D09150504013
S11307A0E695001CCAF72BD0FE2F29D0660F771FC1
S11307B0881FBB1F261737074807AB07B0E809F0A7
S11307C0BB0B802DBF01FF2793585F4F3AF09E3F2C
S11307D0510578F00C9440040C948B045F3FE4F3CF
S11307E0983ED4F3869577956795B795F7959F5F6F
S11307F0C9F7880F911D9695879597F90895E1E0BB
S1130800660F771F881FBB1F621773078407BA0719
S113081020F0621B730B840BBA0BEE1F88F7E09574
S113082008950E94700488F09F5798F0B92F992773
S1130830B751B0F0E1F0660F771F881F991F1AF0C7
S1130840BA95C9F714C0B13091F00E948A04B1E09E
S113085008950C948A04672F782F8827B85F39F09D
S1130860B93FCCF3869577956795B395D9F73EF460
S113087090958095709561957F4F8F4F9F4F089508
S113088097F99F6780E870E060E008959FEF80EC3F
S1130890089500240A9416161706180609060895E2
S11308A000240A9412161306140605060895092E48
S11308B00394000C11F4882352F0BB0F40F4BF2BB7
S11308C011F460FF04C06F5F7F4F8F4F9F4F0895F7
S11308D057FD9058440F551F59F05F3F71F04795ED
S11308E0880F97FB991F61F09F3F79F087950895D2
S11308F0121613061406551FF2CF4695F1DF08C0F1
S1130900161617061806991FF1CF8695710561050D
S113091008940895E894BB2766277727CB0197F9B5
S113092008950E94A4040C9457040E94490438F0CA
S11309300E94500420F0952311F00C9440040C9470
S1130940460411240C948B040E94680470F3959F50
S1130950C1F3950F50E0551F629FF001729FBB27B2
S1130960F00DB11D639FAA27F00DB11DAA1F649F4E
S11309706627B00DA11D661F829F2227B00DA11D01
S1130980621F739FB00DA11D621F839FA00D611D87
S1130990221F749F3327A00D611D231F849F600DA8
S11309A0211D822F762F6A2F11249F5750409AF0D1
S11309B0F1F088234AF0EE0FFF1FBB1F661F771F5D
S11309C0881F91505040A9F79E3F510580F00C9428
S11309D040040C948B045F3FE4F3983ED4F3869573
S11309E077956795B795F795E7959F5FC1F7FE2BC8
S11309F0880F911D9695879597F90895689401C07D
S1130A00E894F92FF12B12F00C943205A0E0B0E039
S1130A10ECE0F5E00C94A405092E059422F40E9460
S1130A208E05112392F4F0E80F26FFEFE094F09482
S1130A3000951095B094C094D094A194BF0ACF0AA5
S1130A40DF0AEF0AFF0A0F0B1F0B0E943D0507FC8C
S1130A500E948E05CDB7DEB7ECE00C94C005689417
S1130A6001C0E8948F929F92CF93DF930E943D053B
S1130A70DF91CF919F908F90089588249924F40159
S1130A80E401B0E49F93AA279A158B049C04ED0516
S1130A90FE05CF05D007A10798F4AD2FDC2FCF2F8B
S1130AA0FE2FE92D982C892E982F872F762F652FCE
S1130AB0542F432F322F2227B85031F7BF9127C02C
S1130AC01B2EBF91BB27220F331F441F551F661FC8
S1130AD0771F881F991F881C991CEE1FFF1FCC1FAE
S1130AE0DD1FAA1FBB1F8A149B04EC05FD05CE0560
S1130AF0DF05A007B10748F08A189B08EC09FD0937
S1130B00CE09DF09A00BB10B21601A94E1F62EF493
S1130B109401AF01BE01CD01000C0895609570955C
S1130B208095909530954095509521953F4F4F4F26
S1130B305F4F6F4F7F4F8F4F9F4F08952F923F927C
S1130B404F925F926F927F928F929F92AF92BF92D9
S1130B50CF92DF92EF92FF920F931F93CF93DF9385
S1130B60CDB7DEB7CA1BDB0B0FB6F894DEBF0FBEE2
S1130B70CDBF09942A88398848885F846E847D842F
S1130B808C849B84AA84B984C884DF80EE80FD8031
S1130B900C811B81AA81B981CE0FD11D0FB6F894A7
S1130BA0DEBF0FBECDBFED0108950F93083090F066
S1130BB0982F872F762F652F542F432F322F2227DC
S1130BC00850F4CF220F331F441F551F661F771F91
S1130BD0881F991F0A95B2F70F9108952A193B09A6
S1130BE04C095D096E097F09800B910B0895EE0F86
S1110BF0FF1F0590F491E02D0994F894FFCFB7
S1130BFE01002C0133015374656572696E672043DD
S1130C0E6F6E74726F6C204669726D776172652DAA
S1130C1E4275696C6420546875204D6179203138B1
S1130C2E2031303A33393A333220323031370D0AEB
S1050C3E0000B0
S9030000FC
