:100000000C94A7000C94DD0F0C9406100C942F1088
:100010000C94CF000C94CF000C94CF000C94CF0024
:100020000C94CF000C94CF000C94CF000C94CF0014
:100030000C94CF000C9403110C94CF000C94CF00BF
:100040000C94CF000C94CF000C94CF000C94CF00F4
:100050000C9459130C94CF000C94CF000C94CF0047
:100060000C94CF000C94CF000C94CF000C94CF00D4
:100070000C94CF000C94CF000C94CF004803B8042C
:10008000B804B804B804B804B804B804B804B80490
:10009000B804B804B804B804B804B80452038E0312
:1000A000A603B804B804B804B804B804B804B80483
:1000B000B804B804B804B804B804B804CE03F30311
:1000C000B804B804B804B804B804B804B804B80450
:1000D000B804B804B804B804B804B804FF0318049A
:1000E000B804B804B804B804B804B804B804B80430
:1000F000B804B804B804B804B804B8042C0447041D
:10010000B804B804B804B804B804B804B804B8040F
:10011000B804B804B804B804B804B8044D045E04C4
:100120007104840490049C04AA04000020002300AD
:100130002600290000002200250028002B000000D6
:100140002100240027002A004405F5136E15112410
:100150001FBECFEFD4E0DEBFCDBF11E0A0E0B1E025
:10016000E2E6FBE202C005900D92A834B107D9F790
:1001700022E0A8E4B1E001C01D92A33DB207E1F77F
:1001800010E0C7EAD0E004C02197FE010E94A91543
:10019000C43AD107C9F70E9445010C94AF150C94DD
:1001A00000000F931F93CF93DF938B019C01FA0103
:1001B00087859089A189B289800F911FA21FB31FE3
:1001C0008787908BA18BB28B438554856585768517
:1001D000401751076207730720F4038714872587A8
:1001E0003687478150856185728504171507260774
:1001F000370720F4078310872187328723893489C2
:100200002F5F3F4F348B238B2F3F3105C9F1C0F156
:10021000EF01892F9A2FAB2FBB278787908BA18B5C
:10022000B28B0E9428116B837C838D839E839E01F9
:100230002D5F3F4F8A8190E0009751F0F901280F20
:10024000391F90E08191980FE217F307D9F701C0A9
:1002500090E09D8B67E170E0CE010E94DF138FEF8D
:100260009FEFDC018F839887A987BA871F86188A3A
:10027000198A1A8A1B861C861D861E861C8A1B8A62
:10028000DF91CF911F910F910895CF93DF93CDB759
:10029000DEB767970FB6F894DEBF0FBECDBFE12C77
:1002A00001E021E040E060E271EA87E090E00E9436
:1002B0009A130E943411789464E670E083E090E031
:1002C0000E94AC1080E00E94820680E00E948506B9
:1002D0000E941C0689E6898380EA8A8382E18B83F7
:1002E00086E98F8B8FEF9FEFDC0188879987AA873C
:1002F000BB87188A198A1A8A1B8A1C861D861E8645
:100300001F861D8A1C8A0E9428114B015C010E94D5
:100310002B0C0E9461020E9477050E94A9010E9495
:10032000E6070E943E070E94C9040E9428116B0143
:100330007C01C818D908EA08FB080E9428114B0163
:100340005C01AE014F5F5F4FC701B6010E94D10053
:10035000DECFCF92DF92EF92FF92CF93DF93CDB7B4
:10036000DEB72C970FB6F894DEBF0FBECDBF8091DD
:100370005001882309F468C00E9428116B017C0198
:100380008091510190915201A0915301B09154017B
:10039000B701A601481B590B6A0B7B0B80913C01EE
:1003A00090913D01A0E0B0E0481759076A077B072C
:1003B00008F44AC0C0925101D0925201E092530118
:1003C000F09254010E94DE119C0189E6898384E940
:1003D0008A8387E08B8386E98C87909148019F5FB1
:1003E0009B3018F49093480126C010924801CC82AB
:1003F000DD82EE82FF82C9010024880F991F001C54
:10040000880F991F001C892F902D998788872F733B
:100410002A87FE0134969E01255F3F4F80E091912F
:10042000890FE217F307D9F78B876CE070E0CE01F4
:1004300001960E94DF1387E0FE013496A9E4B1E043
:1004400001900D928A95E1F72C960FB6F894DEBFD5
:100450000FBECDBFDF91CF91FF90EF90DF90CF9097
:100460000895CF93DF93EC0110927601EEE6F1E070
:10047000DC019C01285F3F4F10829D91992334F04D
:100480009083909176019F5F909376013196A217A9
:10049000B30791F7888599859093010180930001B6
:1004A00080917601882339F081E09A85911101C00D
:1004B00080E00E94280FDF91CF910895109276017D
:1004C0000895CF92DF92EF92FF920F931F93CF93F5
:1004D000DF93CDB7DEB769970FB6F894DEBF0FBED6
:1004E000CDBF80917601882309F489C00E9428112C
:1004F00000916A0110916B0120916C0130916D01A6
:100500006B017C01C01AD10AE20AF30A9701860145
:1005100040910001509101016A01E12CF12C0C1570
:100520001D052E053F0508F46AC060936A017093AB
:100530006B0180936C0190936D0189E6898382E958
:100540008A8384E18B8386E9898FFE013896CE0108
:10055000489611921192E817F907D9F78091760120
:100560008823D1F0F12C0F2D10E0F801E259FE4F55
:1005700080810E94440FF8013296EE0FFF1F21E0A8
:1005800030E02C0F3D1FE20FF31F94838383F3941D
:1005900080917601F81638F3809155018F5F8B308A
:1005A00018F48093550122C0109255010E94281121
:1005B0006C837D838E839F832B8130E021153105F1
:1005C00069F0FE0134962C0F3D1F2C5F3F4F80E0F9
:1005D0009191890FE217F307D9F701C080E0888F66
:1005E00069E170E0CE0101960E94DF1384E1FE0113
:1005F0003496A6E5B1E001900D928A95E1F76996EF
:100600000FB6F894DEBF0FBECDBFDF91CF911F9123
:100610000F91FF90EF90DF90CF900895CF93DF93ED
:1006200000D000D01F92CDB7DEB7FE01319695E025
:10063000DF011D929A95E9F799E6998396E99D83E2
:100640008A8365E070E0CF010E94DF130F900F9066
:100650000F900F900F90DF91CF910895DF92EF925E
:10066000FF920F931F93CF93DF93CDB7DEB7E09741
:100670000FB6F894DEBF0FBECDBF8A0190E087357C
:10068000910508F075C1FC01E25CFF4F0C94A915BF
:10069000662321F08DEF0E940E036DC180E70E945A
:1006A0000E0369C1643021F08DEF0E940E0363C117
:1006B000DA011396EC901397E0FAEE24E0F8FC9040
:1006C0001196DC90119712961C91809177018111FF
:1006D00005C00E946E1181E080937701612F70E068
:1006E0007D298F2D0E948B11EE20A1F0B3E0BF1564
:1006F00088F081E0809385010E942811EF2DF0E0C1
:10070000EE0FFF1FEE0FFF1FE858FE4F668777873B
:10071000808B918B80E80E940E032DC1623021F006
:100720008DEF0E940E0327C1FA01F080118161E074
:100730008F2D0E94570F61E0111101C060E08F2DD5
:100740000E94960F81E80E940E0315C1613021F0CE
:100750008DEF0E940E030FC1DA011C9160E0812F22
:100760000E94570F812F0E94BB0FFE01319697E028
:10077000DF011D929A95E9F799E6998392E89A83A9
:1007800091E09B8396E99F831C838D83180F1E83C2
:1007900067E070E0CF010E94DF13EDC06B3021F005
:1007A0008DEF0E940E03E7C080ED97E09A8789875E
:1007B0001B86FE0131969E01275F3F4F8FEF81938D
:1007C000E217F307E1F78BE0F801DE0111960190E3
:1007D0000D928A95E1F7CE0101960E94310280E9DF
:1007E0000E940E03C8C0613021F08DEF0E940E03FD
:1007F000C2C00E945E0281E90E940E03BCC0683044
:1008000021F08DEF0E940E03B6C088E0FA01DE01F0
:10081000119601900D928A95E1F7CE0101960E9402
:100820005F0581E08093A70180EA0E940E03A3C0C8
:1008300084EC99E098878F831D821B8219821E8227
:100840001C821A82CE0101960E945F051092A701B8
:1008500081EA0E940E038FC0653021F08DEF0E9467
:100860000E0389C0FA012381348142816181808134
:100870000E949811882339F081E08093500180EB29
:100880000E940E0378C08CEF0E940E0374C0109279
:10089000500181EB0E940E036EC0623021F08DEF9B
:1008A0000E940E0368C0DA011196FC9011978C919A
:1008B0000E9482068F2D0E9485065DC0603321F064
:1008C0008DEF0E940E0357C080E3FA01DE011196FE
:1008D00001900D928A95E1F7CE0101960E9488065B
:1008E0004AC06F3021F08DEF0E940E0344C08FE0AC
:1008F000FA01DE01119601900D928A95E1F7CE0181
:1009000001960E94CF0637C0623021F08DEF0E9421
:100910000E0331C0FA01808191810E9409072BC02A
:10092000623021F08DEF0E940E0325C0DA018D9117
:100930009C910E94FA061FC0643021F08DEF0E9446
:100940000E0319C0FA0160817181828193810E9436
:10095000180711C0643021F08DEF0E940E030BC008
:10096000DA016D917D918D919C910E942B0703C0BE
:100970008EEF0E940E03E0960FB6F894DEBF0FBE16
:10098000CDBFDF91CF911F910F91FF90EF90DF903E
:1009900008958F929F92AF92BF92EF92FF920F9322
:1009A0001F93CF93DF930E9428114B015C0180912C
:1009B0008501882369F110928501C8E7D1E010E034
:1009C0007E0101E08E859F85A889B9890097A105E0
:1009D000B105D1F0F7010587B501A401481B590BFA
:1009E0006A0B7B0B80819181A281B381841795076B
:1009F000A607B70748F41E861F86188A198A60E082
:100A000070E0812F0E948B111F5F24961430D1F665
:100A100080917C01882369F110927C01C8E7D1E0C4
:100A200010E07E0101E08D819E81AF81B885009745
:100A3000A105B105D1F0F7010483B501A401481B5C
:100A4000590B6A0B7B0B80819181A281B381841742
:100A50009507A607B70748F41D821E821F821886D5
:100A600040E0612F80E00E94AA121F5F249612309E
:100A7000D1F6DF91CF911F910F91FF90EF90BF9032
:100A8000AF909F908F900895E8E7F1E088EE93E0B3
:100A9000A0E0B0E080839183A283B38314821586A3
:100AA00088E0EDE7F1E0DF011D928A95E9F780E14A
:100AB000E6E8F1E0DF011D928A95E9F70895CF930A
:100AC000DF93EC018E819F8190930301809302015B
:100AD0002C814A81688180E00E94CE142D814B8157
:100AE000698181E00E94CE14DF91CF910895CF9269
:100AF000DF92EF92FF920F931F93CF93DF93CDB7C7
:100B0000DEB765970FB6F894DEBF0FBECDBF8091FC
:100B1000A701882309F481C00E9428110091A8012F
:100B20001091A9012091AA013091AB016B017C01C8
:100B3000C01AD10AE20AF30A970186014091020124
:100B4000509103016A01E12CF12C0C151D052E05B5
:100B50003F0508F462C06093A8017093A9018093D7
:100B6000AA019093AB0189E6898383E98A8380E1B6
:100B70008B8386E98D8B8FB7F894EDEBF2E047819C
:100B8000508561857285488759876A877B87428946
:100B90005389648975894C875D876E877F878FBF8E
:100BA0000E9428116C837D838E839F838091020134
:100BB00090910301A0E0B0E0888B998BAA8BBB8B4E
:100BC000809196018F5F8B3018F4809396011CC042
:100BD000109296012B8130E02115310569F0FE015C
:100BE00034962C0F3D1F2C5F3F4F80E09191890F71
:100BF000E217F307D9F701C080E08C8B65E170E064
:100C0000CE0101960E94DF1380E1FE013496A7E930
:100C1000B1E001900D928A95E1F765960FB6F894D0
:100C2000DEBF0FBECDBFDF91CF911F910F91FF901F
:100C3000EF90DF90CF900895CF93DF93CDB7DEB7DD
:100C40002B970FB6F894DEBF0FBECDBF1D821E825C
:100C50001C821A8282E4898383E48B8384E690E099
:100C600098878F83CE0101960E945F051B86FE0147
:100C700031969E01275F3F4F8FEF8193E217F30775
:100C8000E1F7198284E690E09A878987CE01019680
:100C90000E94310224E630E042E261E280E20E94FA
:100CA000981181E0809350010E946E1161E086E40A
:100CB0000E94570F61E082E00E94701240E061E004
:100CC00082E00E94AA1261E087E40E94570F60E070
:100CD00087E40E94960F61E081E10E94570F60E077
:100CE00081E10E94960F84E290E090933B01809313
:100CF0003A012B960FB6F894DEBF0FBECDBFDF9141
:100D0000CF9108958093DC0108958093DB010895CD
:100D10000F931F93CF93DF938C01FC0184E291E04A
:100D2000A8E1B1E09801245F3F4F41915191619159
:100D30007191EC014993599369937993CE01408560
:100D40005185628573854D935D936D937D93E21715
:100D5000F30759F7F8017896A4E0B1E0C8018C9642
:100D600041915191619171914D935D936D937D93FB
:100D7000E817F907A9F7ABECB1E0F80186A58C9369
:100D8000EDECF1E0E8018CA580838FA511968C93A2
:100D90008DA58183DF91CF911F910F910895FC0163
:100DA0004081518162817381AFECB1E04D935D93DD
:100DB0006D937C9313974481558166817781149656
:100DC0004D935D936D937C93179740855185628514
:100DD000738518964D935D936D937C931B97A9EC47
:100DE000B1E084858C93858511968C93868580935C
:100DF000C80108959093C5018093C4010E942811F1
:100E00006093B4017093B5018093B6019093B701DC
:100E100008959093C7018093C6010E9428116093A2
:100E2000B8017093B9018093BA019093BB01089502
:100E30006093C0017093C1018093C2019093C3017C
:100E40000E9428116093B0017093B1018093B201A8
:100E50009093B30108956093BC017093BD0180939A
:100E6000BE019093BF010E9428116093AC01709362
:100E7000AD018093AE019093AF010895CF92DF92C0
:100E8000EF92FF920F931F930E9428110091DD01B2
:100E90001091DE012091DF013091E0016B017C01B6
:100EA000C01AD10AE20AF30A970186014091300183
:100EB000509131016A01E12CF12C0C151D052E0514
:100EC0003F0508F472C06093DD017093DE018093EA
:100ED000DF019093E0018091DB01811111C08091CD
:100EE000C0019091C101A091C201B091C301809352
:100EF000E5019093E601A093E701B093E80116C0E5
:100F000020E030E048E451E46091BC017091BD0103
:100F10008091BE019091BF010E940F0D6093E50189
:100F20007093E6018093E7019093E80120E030E0C0
:100F3000A9016091E5017091E6018091E70190912E
:100F4000E8010E940A0D88232CF461E081E10E94EF
:100F5000960F04C060E081E10E94960F6091E50168
:100F60007091E6018091E7019091E8010E94810D66
:100F70009B01772324F422273327261B370BB90143
:100F8000660F771F660F771F072E000C880B990BD3
:100F90000E94B90D20E030E040E85FE30E949E0C23
:100FA0000E94880D80E00E948B111F910F91FF908D
:100FB000EF90DF90CF900895FC01408151816281D4
:100FC0007381448355836683778308952F923F927C
:100FD0004F925F926F927F928F929F92AF92BF9249
:100FE000CF92DF92EF92FF920F931F93CF93DF93F5
:100FF000CDB7DEB728970FB6F894DEBF0FBECDBFD2
:101000000E9428110091E1011091E2012091E30179
:101010003091E4016B017C01C01AD10AE20AF30AA3
:101020009701860140913001509131016A01E12C14
:10103000F12C0C151D052E053F0508F4F3C3609334
:10104000E1017093E2018093E3019093E401C09089
:101050009B01D0909C01E0909D01F0909E018091B9
:10106000E9018F5F893C18F48093E90124C0109254
:10107000E90160914D0170914E0180E090E00E9485
:10108000B70D4B015C01C701B6010E94B90D2CEAF6
:101090003BE84BED5BE30E946E0E9B01AC01C5018A
:1010A000B4010E949D0C6093EA017093EB01809360
:1010B000EC019093ED01C701B6010E94B90D2CEA35
:1010C0003BE84BED5BE30E946E0E2091EA0130910C
:1010D000EB014091EC015091ED010E949E0C69835F
:1010E0007A838B839C8327E332E0D9016D937D93D0
:1010F0008D939C9313971496CD90DD90ED90FC907A
:101100001797CD82DE82EF82F886409036015090AC
:10111000370160903801709039010FE312E0F80157
:1011200084819581A681B781BC01CD0190580F2E95
:10113000F4E02F2EF1E03F2EF02DD1011C962D91E1
:101140003D914D915C911F970E946E0E6B017C0149
:10115000F1012089318942895389D80118966D910E
:101160007D918D919C911B970E946E0E9B01AC010D
:10117000C701B6010E949D0C4B015C010F2EFFE1DF
:10118000EF2EF2E0FF2EF02DF70120893189428900
:101190005389D1016D917D918D919C910E946E0E2C
:1011A0009B01AC01C501B4010E949E0C4B015C0186
:1011B000F7012489358946895789D10114966D91A3
:1011C0007D918D919C9117970E946E0E9B01AC01B1
:1011D000C501B4010E949E0CF10120853185428534
:1011E00053850E940F0D6B017C01D8016D937D9397
:1011F0008D939C9313978091DC018111A8C060911D
:10120000C4017091C50180E090E00E94B70D2B01F0
:101210003C0160931F0270932002809321029093FF
:10122000220269817A818B819C810E94810D9B01C0
:10123000772324F422273327261B370BB901330FDA
:10124000880B990B0E94B90D6B017C0180903201D3
:1012500090903301A0903401B0903501A501940124
:101260000E94690E8823A4F081E08093EE0120E0C3
:1012700030E040EA50E4C501B4010E949D0C9B019E
:10128000AC01C701B6010E940A0D1816B4F41DC0C6
:1012900020E030E040EA50E4C501B4010E949D0C1A
:1012A0009B01AC01C701B6010E940A0D181644F05B
:1012B0008091EE01882309F424C21092EE0121C22C
:1012C0008091EE01882309F41CC220E030E0A901DE
:1012D00069817A818B819C810E94690E181694F431
:1012E00020E030E0A901C301B2010E94690E181686
:1012F0004CF410921F0210922002109221021092C0
:101300002202FFC120E030E0A90169817A818B814E
:101310009C810E940A0D88230CF0F3C120E030E08C
:10132000A90160911F027091200280912102909189
:1013300022020E940A0D88230CF0E3C110921F02C2
:10134000109220021092210210922202DAC16091C2
:10135000C6017091C701072E000C880B990B0E94E3
:10136000B90DE7E1F2E06083718382839383848027
:101370009580A680B780A50194010E949D0CA301D1
:1013800092010E940F0D20E030E048EC52E40E94F0
:10139000690E882384F020E030E048EC52E4C50177
:1013A000B4010E949E0C6093170270931802809300
:1013B000190290931A02E7E1F2E080819181A28103
:1013C000B381BC01CD019058608371838283938384
:1013D00029813A814B815C810E949D0CE3E0F2E01F
:1013E00060837183828393830F2EFFE02F2EF2E0C0
:1013F0003F2EF02D08E111E0D8012D913D914D9146
:101400005C910E946E0EF1012481358146815781E5
:101410000E949E0C4B015C01209107023091080252
:101420004091090250910A02D80114966D917D9164
:101430008D919C9117970E946E0E9B01AC01C50186
:10144000B4010E949E0C4B015C0120910B02309173
:101450000C0240910D0250910E02F80160857185D9
:10146000828593850E946E0E9B01AC01C501B4017B
:101470000E949E0CD1016D937D938D939C93139745
:10148000A70196010E949D0C6B017C012D813E817C
:101490004F81588569817A818B819C810E949D0C46
:1014A000A30192010E940F0D20914B0230914C023A
:1014B00040914D0250914E020E949D0C9B01AC0147
:1014C000C701B6010E949D0C0F2EF7EFEF2EF1E041
:1014D000FF2EF02DF70160837183828393830F2E9B
:1014E000FFE12F2EF2E03F2EF02D04E211E0D801B3
:1014F0002D913D914D915C910E946E0EF1012481E0
:101500003581468157810E949E0C4B015C01D701B9
:1015100014962D913D914D915C911797F80164813E
:101520007581868197810E946E0E9B01AC01C50179
:10153000B4010E949E0C4B015C01D70118962D91BD
:101540003D914D915C911B97F80160857185828575
:1015500093850E946E0E9B01AC01C501B4010E94EF
:101560009E0C6B017C010BEC11E0D8016C9170E0DA
:1015700080E090E00E94B90D9B01AC01C701B6016B
:101580000E949E0C6B017C01F801618170E080E09B
:1015900090E00E94B90D9B01AC01C701B6010E9409
:1015A0009E0C6B017C010DEC11E0D8016C9170E098
:1015B00080E090E00E94B90D9B01AC01C701B6012B
:1015C0000E949E0C6B017C01F801618170E080E05B
:1015D00090E00E94B90D9B01AC01C701B6010E94C9
:1015E0009E0C6B017C01D1016D937D938D939C9337
:1015F00013970E94DB0E4B015C0120E030E04EE7C8
:1016000053E4C701B6010E94690E18160CF0FEC023
:1016100080E090E0AEE7B3E480931F029093200255
:10162000A0932102B09322020CC080E090E0AEE7CC
:10163000B3EC80931F0290932002A0932102B093F9
:101640002202C501B4010E94810D072E000C880BF7
:10165000990B0E94B90D9B01AC0160911F02709122
:10166000200280912102909122020E949D0C22E78B
:1016700033E44CE25EE30E940F0D6093EF01709340
:10168000F0018093F1019093F20108C01092EF01F4
:101690001092F0011092F1011092F2010FE112E0AC
:1016A000F80160817181828193819B01AC010E946C
:1016B0009E0C6B017C01EFEEF1E0248135814681C7
:1016C000578160817181828193810E949E0C9B0170
:1016D000AC01C301B2010E946E0E9B01AC01C701B7
:1016E000B6010E949E0C20E030E040E05FE30E94E3
:1016F0006E0E0E94DB0ED8016D937D938D939C93AB
:10170000139787E192E00E94DC078FEE91E00E9440
:10171000DC07E3E0F2E084819581A681B7818087D0
:101720009187A287B38780819181A281B3818483CD
:101730009583A683B7838FE092E00E94DC07E7EFF2
:10174000F1E084819581A681B78180879187A28706
:10175000B38780819181A281B38184839583A6839D
:10176000B78387E392E00E94DC07EFE3F2E0808535
:101770009185A285B38584879587A687B78784815D
:101780009581A681B78180879187A287B387808161
:101790009181A281B38184839583A683B783E3E398
:1017A000F2E02FE132E0B291A29192918291848392
:1017B0009583A683B783E217F307A9F7C0901F02AA
:1017C000D0902002E0902102F0902202C701B601E1
:1017D0000E94810DAB01772324F444275527461B33
:1017E000570B61E082E00E94AA1220E030E0A901DC
:1017F000C701B6010E940A0D881F8827881F91E043
:10180000682F692787E40E94960F0CC020E030E023
:101810004EE753ECC701B6010E940A0D88230CF471
:1018200004CF34CF28960FB6F894DEBF0FBECDBFDD
:10183000DF91CF911F910F91FF90EF90DF90CF90AC
:10184000BF90AF909F908F907F906F905F904F90E0
:101850003F902F900895FF920F931F93CF93DF93A4
:101860001F92CDB7DEB719820FE412E0FF24F39484
:1018700050C0E0916D02E1110AC08981893609F4F6
:101880004FC010926D028BEF0E940E0342C021E008
:101890002E0F20936D02F0E0E15BFD4F8981808384
:1018A0002330B8F130E0F8016281862F90E0059690
:1018B0002817390771F5F901E25BFD4F8081863900
:1018C00031F010926D028BEF0E940E0322C0F801DE
:1018D0008181662359F0A2E5B2E0FD0190E04191DB
:1018E000940F4E2F4A1B4617D0F301C090E0F90128
:1018F000E35BFD4F2081291731F010926D028AEFD2
:101900000E940E0306C042E552E00E942E03109290
:101910006D02CE0101960E947E138111AACF06C0EE
:10192000F0926D028981F8018083F3CF0F90DF91EF
:10193000CF911F910F91FF9008955058BB27AA2770
:101940000E94B50C0C942F0E0E94210E38F00E94BC
:10195000280E20F039F49F3F19F426F40C941E0E43
:101960000EF4E095E7FB0C94180EE92F0E94400E50
:1019700058F3BA17620773078407950720F079F4C4
:10198000A6F50C94620E0EF4E0950B2EBA2FA02D46
:101990000B01B90190010C01CA01A0011124FF271C
:1019A000591B99F0593F50F4503E68F11A16F04017
:1019B000A22F232F342F4427585FF3CF4695379516
:1019C0002795A795F0405395C9F77EF41F16BA0BDB
:1019D000620B730B840BBAF09150A1F0FF0FBB1F89
:1019E000661F771F881FC2F70EC0BA0F621F731FD2
:1019F000841F48F4879577956795B795F7959E3F2F
:101A000008F0B0CF9395880F08F09927EE0F9795BF
:101A1000879508950E94F40D08F481E008950E94CE
:101A2000230D0C942F0E0E94280E58F00E94210EB8
:101A300040F029F45F3F29F00C94180E51110C94DA
:101A4000630E0C941E0E0E94400E68F39923B1F3AE
:101A5000552391F3951B550BBB27AA2762177307D4
:101A6000840738F09F5F5F4F220F331F441FAA1F68
:101A7000A9F335D00E2E3AF0E0E832D09150504024
:101A8000E695001CCAF72BD0FE2F29D0660F771FD2
:101A9000881FBB1F261737074807AB07B0E809F0B8
:101AA000BB0B802DBF01FF2793585F4F3AF09E3F3D
:101AB000510578F00C94180E0C94630E5F3FE4F31C
:101AC000983ED4F3869577956795B795F7959F5F80
:101AD000C9F7880F911D9695879597F90895E1E0CC
:101AE000660F771F881FBB1F621773078407BA072B
:101AF00020F0621B730B840BBA0BEE1F88F7E09586
:101B000008950E94880D6894B1110C94630E089595
:101B10000E94480E88F09F5798F0B92F9927B75127
:101B2000B0F0E1F0660F771F881F991F1AF0BA9581
:101B3000C9F714C0B13091F00E94620EB1E008956F
:101B40000C94620E672F782F8827B85F39F0B93F61
:101B5000CCF3869577956795B395D9F73EF4909534
:101B60008095709561957F4F8F4F9F4F0895E894B2
:101B700009C097FB3EF490958095709561957F4FD5
:101B80008F4F9F4F9923A9F0F92F96E9BB27939583
:101B9000F695879577956795B795F111F8CFFAF493
:101BA000BB0F11F460FF1BC06F5F7F4F8F4F9F4FC4
:101BB00016C0882311F096E911C0772321F09EE822
:101BC000872F762F05C0662371F096E8862F70E088
:101BD00060E02AF09A95660F771F881FDAF7880F62
:101BE0009695879597F90895990F0008550FAA0BB8
:101BF000E0E8FEEF16161706E807F907C0F0121620
:101C00001306E407F50798F0621B730B840B950B22
:101C100039F40A2661F0232B242B252B21F4089577
:101C20000A2609F4A140A6958FEF811D811D089514
:101C300097F99F6780E870E060E008959FEF80EC7F
:101C4000089500240A941616170618060906089522
:101C500000240A9412161306140605060895092E88
:101C60000394000C11F4882352F0BB0F40F4BF2BF7
:101C700011F460FF04C06F5F7F4F8F4F9F4F089537
:101C800057FD9058440F551F59F05F3F71F047952D
:101C9000880F97FB991F61F09F3F79F08795089512
:101CA000121613061406551FF2CF4695F1DF08C031
:101CB000161617061806991FF1CF8695710561054E
:101CC00008940895E894BB2766277727CB0197F9F6
:101CD00008950E94F40D08F48FEF08950E94810E7C
:101CE0000C942F0E0E94210E38F00E94280E20F036
:101CF000952311F00C94180E0C941E0E11240C94C4
:101D0000630E0E94400E70F3959FC1F3950F50E053
:101D1000551F629FF001729FBB27F00DB11D639F9D
:101D2000AA27F00DB11DAA1F649F6627B00DA11D43
:101D3000661F829F2227B00DA11D621F739FB00DE9
:101D4000A11D621F839FA00D611D221F749F332759
:101D5000A00D611D231F849F600D211D822F762FF2
:101D60006A2F11249F5750409AF0F1F088234AF0CF
:101D7000EE0FFF1FBB1F661F771F881F915050403B
:101D8000A9F79E3F510580F00C94180E0C94630E39
:101D90005F3FE4F3983ED4F3869577956795B795C2
:101DA000F795E7959F5FC1F7FE2B880F911D9695DC
:101DB000879597F908950E94480EE8F09E37E8F05D
:101DC0009639B8F49E3848F4672F782F8827985FA3
:101DD000F9CF86957795679593959539D0F3B62F7A
:101DE000B1706B0F711D811D20F4879577956795F4
:101DF00093950C94FF0E0C941A0F0C94630E882389
:101E000071F4772321F09850872B762F07C0662333
:101E100011F499270DC09051862B70E060E02AF0F4
:101E20009A95660F771F881FDAF7880F9695879522
:101E300097F908959F3F31F0915020F48795779559
:101E40006795B795880F911D9695879597F9089591
:101E5000882349F0ECE7F0E0808180648083808112
:101E60008F67808308C0ECE7F0E080818064808326
:101E700080818F778083EAE7F0E0808187608083CC
:101E80008081806880830895ECE7F0E09081907F06
:101E9000892B8083EAE7F0E0808180648083808101
:101EA00086FDFDCF80917800909179000895CF93C1
:101EB000DF93882309F437C0E82FE295EF7099F19A
:101EC0008F7021E030E002C0220F331F8A95E2F7C5
:101ED0008E2F90E0880F991FFC01E25CFE4FA591C8
:101EE000B491FC01EC5CFE4FC591D4918FB7F8948E
:101EF0006130A9F018F0623049F014C09C9120952F
:101F000092239C939881292328830CC03C91922F83
:101F1000909593239C939881292B288303C09C91AF
:101F2000292B2C938FBFDF91CF910895882311F136
:101F3000E82FE295EF70F1F08F7021E030E0A90119
:101F400002C0440F551F8A95E2F7CA01F0E0EE0F78
:101F5000FF1FEC5CFE4FA591B4912FB7F894662358
:101F600021F09C91892B8C9304C09C9180958923AE
:101F70008C932FBF08958823E1F0E82FE295EF704E
:101F8000D1F0F0E0EE0FFF1FE65DFE4FA591B4919A
:101F90004C918F7021E030E0B90102C0660F771FCD
:101FA0008A95E2F7CB01942F982381E029F480E011
:101FB000089580E0089580E008951F920F920FB673
:101FC0000F9211242F933F934F935F936F937F93BF
:101FD0008F939F93AF93BF93EF93FF93E0916E0224
:101FE000F0916F02309709F00995FF91EF91BF9141
:101FF000AF919F918F917F916F915F914F913F91A1
:102000002F910F900FBE0F901F9018951F920F9257
:102010000FB60F9211242F933F934F935F936F93BB
:102020007F938F939F93AF93BF93EF93FF93E09131
:102030007002F0917102309709F00995FF91EF91CC
:10204000BF91AF919F918F917F916F915F914F91D0
:102050003F912F910F900FBE0F901F9018951F92D8
:102060000F920FB60F9211242F933F934F935F93CC
:102070006F937F938F939F93AF93BF93EF93FF9350
:10208000E0917202F0917302309709F00995FF9187
:10209000EF91BF91AF919F918F917F916F915F91E0
:1020A0004F913F912F910F900FBE0F901F90189559
:1020B000823449F0833419F08232D1F502C091E0C4
:1020C00003C092E001C090E08DB3E92FF0E021E081
:1020D00030E002C0220F331F9A95E2F7922F9095BD
:1020E00089238DBBEE0FFF1FDF01A259BD4F6D93FA
:1020F0007C93A9E6B0E03C9183E090E00E2E02C014
:10210000880F991F0A94E2F7809583238C939C9102
:10211000842F8370482F50E002C0440F551FEA956A
:10212000E2F7492B4C938DB3282B2DBB81E008950A
:1021300080E0089561E085E40E94570F60E085E447
:102140000E94960F089561E085E40E94570F61E0B8
:1021500085E40E94960F08958F929F92AF92BF924E
:10216000CF92DF92EF92FF920F931F93CF93DF9363
:102170007C015B0118161906CCF5C0E0D0E06B01BC
:1021800081E0C81AD108862E9B2C1C161D0684F4EB
:102190008601A114B10439F1282D392D87E893E186
:1021A0000197F1F700C0000021503109B9F718C0BC
:1021B0000E949A108601A114B10459F087E893E1B6
:1021C0000197F1F700C00000C80101501109892BE7
:1021D000A9F70E94A3102196CE15DF05B1F606C01F
:1021E0000E949A10EBCF0E949A10F3CFDF91CF910B
:1021F0001F910F91FF90EF90DF90CF90BF90AF9025
:102200009F908F9008951F920F920FB60F921124F6
:102210008F939F93AF93BF938091740290917502B7
:10222000A0917602B09177020196A11DB11D809315
:10223000740290937502A0937602B0937702BF91D7
:10224000AF919F918F910F900FBE0F901F90189597
:102250002FB7F894609174027091750280917602A4
:10226000909177022FBF0895109274021092750218
:10227000109276021092770289EF90E09093890095
:10228000809388008AE080938100EFE6F0E080810F
:102290008260808308950F931F93CF93DF938C0107
:1022A0000E943413CAE3D1E060E088810E94960F57
:1022B00086E08A95F1F700C0C8010E943B1386E0D2
:1022C0008A95F1F700C061E088810E94960F0E9414
:1022D0005813DF91CF911F910F910895CF93DF9302
:1022E0000E94001320E041E060E072E18AE790E0A4
:1022F0000E94C312CAE3D1E061E088810E94960F78
:1023000061E088810E94570F80E090E80E944B11A5
:10231000DF91CF9108957F70706390E090E4899F82
:10232000902D88271124862B972B0E944B110895FE
:10233000CF93DF93E82F082E000CFF0BF09343019F
:10234000E0934201062E000C770B709341016093DD
:102350004001042E000C550B50933F0140933E0169
:1023600030933D0120933C011E161F06FCF4161607
:102370001706F4F414161506ECF461E00E94570FEA
:10238000C0E4D1E061E088810E94570F60E0809155
:102390003E010E94570F61E088810E94960F61E024
:1023A000809142010E94960F81E005C080E003C049
:1023B00080E001C080E0DF91CF910895CF92DF925D
:1023C000EF92FF920F931F93CF93DF93C2E4D1E07C
:1023D00061E088810E94570F61E0809140010E9476
:1023E000570F60E080913E010E94570F60E08881A6
:1023F0000E94960F86E08A95F1F700C0E6E0EA9524
:10240000F1F700C000E110E0C0E0D0E00F2EF0E4F2
:10241000EF2EF1E0FF2EF02D0F2EFEE3CF2EF1E098
:10242000DF2EF02D60E0F70180810E94960FF6E02C
:10243000FA95F1F700C061E0F70180810E94960FE4
:10244000F6E0FA95F1F700C0CC0FDD1FF6018081B0
:102450000E94BB0F8111C1600150110919F761E0A1
:10246000809142010E94960FCE01DF91CF911F9182
:102470000F91FF90EF90DF90CF900895813071F031
:1024800028F0823099F08330C9F020C0662301F132
:10249000613011F484E2089580E008956623D1F05C
:1024A000613011F484E4089580E008956623A1F07A
:1024B000613011F486E4089580E00895662371F098
:1024C000613011F487E2089580E0089580E0089576
:1024D00083E2089585E4089587E4089586E20895E7
:1024E0000F931F93CF93DF93C82F062F60E00E94B6
:1024F0003E12182F61E08C2F0E943E12D82F60E010
:10250000812F0E94960F61E0812F0E94570F60E09B
:102510008D2F0E94960F61E08D2F0E94570FCC23C4
:1025200019F0C23041F011C017BC18BC81EA84BD5B
:10253000037005BD0AC01092B3001092B40081EA86
:102540008093B00003700093B100DF91CF911F9191
:102550000F910895882319F0823051F00895662371
:1025600019F0613019F0089547BD089548BD0895E8
:10257000662319F0613021F008954093B300089567
:102580004093B40008950F931F93522F603826E9AB
:10259000720728E98207910550F0E0E017C03695F0
:1025A000279517950795EF5FE63031F40EC0E1E00F
:1025B00000E41BE42CE430E0601771078207930706
:1025C00070F3E63019F4E7E001C0E7E091E08E2F08
:1025D0008927442311F040E501C040E7282F30E06F
:1025E00035952795922F9370252F2C70292B242B0E
:1025F000209379028170809378021F910F91089542
:10260000CF93CFB7F89480917A0281111DC0E2E494
:10261000F1E0A591B4918C9184FD04C061E084E265
:102620000E94960F61E084E20E94570F8CB5806192
:102630008CBD8CB580648CBD61E087E20E94570F31
:1026400061E085E20E94570F80917A028F5F80934C
:102650007A02CFBF20E041E060E079E08DE390E0D6
:102660000E94C312CF910895809179028CBD809110
:1026700078028DBD08950CB405FC0DC09EBD000010
:102680000DB407FEFDCF9EB58EBD00000DB407FE54
:10269000FDCF8EB508958EBD00000DB407FEFDCFB1
:1026A0008EB59EBD00000DB407FEFDCF9EB508950A
:1026B00008951F920F920FB60F9211242F938F93AC
:1026C0009F93EF93FF932091C600E091BC0281E0BD
:1026D0008E0F8F739091BB02891731F0F0E0E558AF
:1026E000FD4F20838093BC02FF91EF919F918F91CA
:1026F0002F910F900FBE0F901F901895CF93DF93DF
:10270000EC01E091BB029091BC02E91779F0ABEBD0
:10271000B2E081E08E0F8C93F0E0E558FD4F8081B0
:1027200088838C918F738C9381E001C080E0DF916E
:10273000CF910895EF920F93CF93DF93C42FD22FB1
:10274000DC01CB01880F991FAA1FBB1F880F991F9F
:10275000AA1FBB1F9C01AD01220F331F441F551F31
:1027600060E07DE281E391E00E948715215031090C
:1027700082E08093C000DD2311F080E901C080E891
:10278000011188608093C100C37080E1C89FA001DF
:1027900011244668E11048604093C2003093C500A0
:1027A0002093C400DF91CF910F91EF900895E0EC5A
:1027B000F0E0908195FFFDCF8093C60008950F93C0
:1027C0001F93CF93DF936115710551F08C01EC01DC
:1027D000060F171F89910E94D713C017D107D1F791
:1027E000DF91CF911F910F9108951092BB0210922B
:1027F000BC020895CF93DF938091BE02882391F1AC
:10280000ADEBB2E01396EC911397EE0FFF0BE65D84
:10281000FE4FC591D491288112968C91129730E089
:10282000082E000C990B82239323892B69F0FD015C
:1028300087819085A185B2850197A109B109878318
:102840009087A187B2871BC0EDEBF2E0878190856E
:10285000A185B2850196A11DB11D87839087A187AF
:10286000B2870DC0EDEBF2E087819085A185B2853E
:102870000196A11DB11D87839087A187B2878091A2
:10288000C1028823F1F0ADEBB2E01696EC911697F9
:10289000EE0FFF0BE65DFE4FC591D4912881159692
:1028A0008C9130E0082E000C990B82239323892B06
:1028B00041F01092C4021092C5021092C60210920A
:1028C000C702DF91CF910895CF93DF938091C90222
:1028D000882391F1ADEBB2E01E96EC911E97EE0FBE
:1028E000FF0BE65DFE4FC591D49128811D968C911A
:1028F0001D9730E0082E000C990B82239323892B1F
:1029000069F0FD0182899389A489B5890197A1099C
:10291000B109828B938BA48BB58B1BC0EDEBF2E0DE
:1029200082899389A489B5890196A11DB11D828BE5
:10293000938BA48BB58B0DC0EDEBF2E0828993896C
:10294000A489B5890196A11DB11D828B938BA48B9F
:10295000B58B8091CC028823F1F0ADEBB2E05196BB
:10296000EC915197EE0FFF0BE65DFE4FC591D491B0
:10297000288150968C9130E0082E000C990B822310
:102980009323892B41F01092CF021092D002109223
:10299000D1021092D202DF91CF910895DF92EF928F
:1029A000FF920F931F93CF93DF93CDB7DEB72B9793
:1029B0000FB6F894DEBF0FBECDBF823008F080C0E6
:1029C00019821A821B821C821D821E821F82188617
:1029D00019861A861B86E82EF12C9BE0899F8001C0
:1029E000112403541D4F8BE0FE013196D801019054
:1029F0000D928A95E1F7F8016083662309F460C0BF
:102A0000D22E042F162F62E0812F0E94570F002331
:102A1000E9F062E0802F0E94570F202F2F7081E095
:102A200090E002C0880F991F2A95E2F79BE09E9DD7
:102A3000F0019F9DF00D1124E354FD4F8283402F40
:102A400042954F70438381E0818309C08BE08E9D66
:102A5000F0018F9DF00D1124E354FD4F1182DD2014
:102A6000C9F02D2D2F7081E090E002C0880F991FD2
:102A70002A95E2F79BE09E9DF0019F9DF00D1124A9
:102A8000E354FD4F85832D2D22952F70268381E001
:102A900084830BC08BE08E9DF0018F9DF00D11247F
:102AA000E354FD4F148216821582F701EE0FFF1FCB
:102AB000EC5BFE4F6081718143E0812F0E945810D2
:102AC0002B960FB6F894DEBF0FBECDBFDF91CF912E
:102AD0001F910F91FF90EF90DF900895EDEBF2E0E2
:102AE000108211821282138214821582168217823A
:102AF000108611861286138614861586168617860A
:102B0000108A118A128A138A148A158A0895A1E2FA
:102B10001A2EAA1BBB1BFD010DC0AA1FBB1FEE1F57
:102B2000FF1FA217B307E407F50720F0A21BB30BA2
:102B3000E40BF50B661F771F881F991F1A9469F71E
:102B400060957095809590959B01AC01BD01CF017A
:102B50000895EE0FFF1F0590F491E02D0994F8946D
:022B6000FFCFA5
:102B6200D0078813226C983E000000000000803FCE
:102B7200EFC933BF00000000F2B03A42B535B642A9
:102B820011C731423C4E91BECC5D4B3E000000006D
:102B9200F4010000FA430AD7233C2400D0071200B4
:082BA20011001000FA13641485
:00000001FF
