:100000000C9452000C94790E0C94A20E0C94CB0E0E
:100010000C947A000C947A000C947A000C947A0078
:100020000C947A000C947A000C947A000C947A0068
:100030000C947A000C947A0F0C947A000C947A0049
:100040000C947A000C947A000C947A000C947A0048
:100050000C9486120C947A000C947A000C947A001A
:100060000C947A000C947A000C947A000C947A0028
:100070000C947A000C947A000C947A000000200012
:1000800023002600290000002200250028002B0064
:1000900000002100240027002A009101BD04D80A95
:1000A000CC11181311241FBECFEFD4E0DEBFCDBF9B
:1000B00011E0A0E0B1E0EEEDF6E202C005900D9295
:1000C000AE33B107D9F722E0AEE3B1E001C01D9233
:1000D000A13BB207E1F710E0C2E5D0E004C02197F0
:1000E000FE010E946713CD34D107C9F70E94580161
:1000F0000C946D130C940000CF92DF92EF92FF925C
:100100000F931F93C0905101D0905201E090530182
:10011000F0905401C60ED71EE81EF91EC092510180
:10012000D0925201E0925301F092540100914D019E
:1001300010914E0120914F01309150010617170781
:100140002807390740F460934D0170934E01809366
:100150004F01909350010091490110914A01209163
:100160004B0130914C01601771078207930740F4EF
:100170006093490170934A0180934B0190934C0125
:1001800080913E0190913F01A0914001B0914101C9
:100190000196A11DB11D80933E0190933F01A09354
:1001A0004001B093410120912A0130912B0140E0A0
:1001B00050E0281739074A075B0708F072C0109211
:1001C0003E0110923F011092400110924101C7017F
:1001D000B6010E9431132093510130935201409394
:1001E0005301509354010E949F0F609345017093F7
:1001F0004601809347019093480120914401E2E435
:10020000F1E080E030E0AF01425451404217530723
:1002100020F49381890F3196F6CF80935701CC2437
:10022000CA94DC2C7601C0924901D0924A01E09236
:100230004B01F0924C011092510110925201109218
:1002400053011092540110924D0110924E011092E0
:100250004F0110925001109256011092550167E122
:1002600070E082E491E00E940413C0924901D092B0
:100270004A01E0924B01F0924C0110925101109210
:100280005201109253011092540110924D0110929C
:100290004E0110924F01109250011092560110928F
:1002A00055011F910F91FF90EF90DF90CF9008952F
:1002B000E12C01E021E040E060E271EA87E090E0BB
:1002C0000E94C4120E94AB0F789464E670E083E051
:1002D00090E00E94430F80E00E940E060E949A0563
:1002E0000E949F0F4B015C010E94EF0A0E94500286
:1002F0000E94F3040E949C010E94A1060E943804FF
:100300000E949F0F6B017C01C818D908EA08FB08FE
:100310000E949F0F4B015C01C701B6010E947C0047
:10032000E3CFE2E4F1E089E6808380EA818382E141
:10033000828386E9868B0895CF92DF92EF92FF92B7
:10034000CF93DF93CDB7DEB72C970FB6F894DEBF0F
:100350000FBECDBF80916101882309F464C00E9463
:100360009F0F6B017C018091620190916301A091CC
:100370006401B0916501B701A601481B590B6A0BD6
:100380007B0B8091320190913301A0E0B0E04817DF
:1003900059076A077B0708F446C0C0926201D092F1
:1003A0006301E0926401F09265010E942A1029E63F
:1003B000298324E92A8327E02B8326E92C872091AF
:1003C00059012F5F2093590130912901321710F5FF
:1003D00010925901CC82DD82EE82FF829C0196E070
:1003E000369527959A95E1F7398728878F738A87FD
:1003F000FE0134969E01255F3F4F80E09191890F69
:10040000E217F307D9F78B876CE070E0CE01019615
:100410000E94041387E0FE013496AAE5B1E0019042
:100420000D928A95E1F72C960FB6F894DEBF0FBEB9
:10043000CDBFDF91CF91FF90EF90DF90CF900895E7
:10044000CF93DF93DC0110928701EFE7F1E0EC013D
:1004500090E01082899187FD02C080839F5F319672
:1004600081E0E738F807A9F79093870118962D9156
:100470003C9119973093010120930001992351F089
:1004800081E01A969C91911101C080E0DF91CF919B
:100490000C94CA0DDF91CF910895109287010895B1
:1004A000CF92DF92EF92FF920F931F93CF93DF9340
:1004B000CDB7DEB769970FB6F894DEBF0FBECDBFDC
:1004C00080918701882309F484C00E949F0F0091C6
:1004D0007B0110917C0120917D0130917E016B01A7
:1004E0007C01C01AD10AE20AF30A97018601409101
:1004F0000001509101016A01E12CF12C0C151D0540
:100500002E053F0508F465C060937B0170937C0164
:1005100080937D0190937E0189E6898382E98A83B5
:1005200084E18B8386E9898FFE013896CE01489657
:1005300011921192E817F907D9F7F12C80918701F0
:10054000F816B0F40F2D10E0F801E158FE4F80814D
:100550000E94EA0DF8013296EE0FFF1F21E030E015
:100560002C0F3D1FE20FF31F94838383F394E6CF98
:10057000809166018F5F80936601909128019817A2
:10058000E8F4109266010E949F0F6C837D838E8336
:100590009F834B81CE010196FC0120E050E0BF011A
:1005A000681B790B6417750720F43381230F31968C
:1005B000F6CF288F69E170E00E940413F89484E17B
:1005C000FE013496A7E6B1E001900D928A95E1F71D
:1005D000789469960FB6F894DEBF0FBECDBFDF9159
:1005E000CF911F910F91FF90EF90DF90CF900895E2
:1005F000CF93DF9300D000D01F92CDB7DEB7FE01BE
:10060000319695E0DF011D929A95E9F799E6998375
:1006100096E99D838A8365E070E0CF010E94041310
:100620000F900F900F900F900F90DF91CF91089542
:100630000F931F93CF93DF93CDB7DEB7EA970FB633
:10064000F894DEBF0FBECDBF162FFA01803409F437
:10065000B0C0B0F4803209F468C040F4813179F15F
:10066000823109F43EC08111F5C025C0803309F400
:100670007BC0813309F48BC0813209F0EBC06DC0BF
:10068000823509F4AEC068F4893409F4C6C08035F7
:1006900009F4A1C0813409F0DDC01092610181EB41
:1006A000DAC0883509F4ABC0803609F4BFC085359F
:1006B00009F0D0C0ABC06111BBC080E7CCC06230D4
:1006C00009F0B6C01081018161E0812F0E94FE0D0A
:1006D00061E0011101C060E0812F0E943C0E81E8C1
:1006E000BAC0613009F0A4C0008160E0802F0E9490
:1006F000FE0D802F0E945D0E982FFE01319687E03F
:10070000DF011D928A95E9F789E6898382E88A8369
:100710001B8386E98F830C839D83900F9E8367E004
:1007200070E0CF010E94041398C06B3009F080C0C4
:10073000DE0111969E01275F3F4FCD014FEF4D9394
:100740002A173B07E1F72BE0DC0101900D922A9577
:10075000E1F70E94200280E97EC0613009F068C0A4
:100760000E944D0281E977C0683009F061C088E0DD
:10077000DE01119601900D928A95E1F7CE01019666
:100780000E94D80481E08093B70180EA64C084ECC1
:1007900099E098878F831D821B8219821E821C829A
:1007A0001A82CE0101960E94D8041092B70181EA04
:1007B00052C06530E9F523813481428161818081B5
:1007C0000E94EC0F882329F081E08093610180EB87
:1007D00042C08CEF40C0613059F580810E940E0606
:1007E0003CC06A3329F58AE3DE01119601900D922F
:1007F0008A95E1F7CE0101960E9411062EC0623063
:10080000B9F4808191810E94880627C0623081F40A
:10081000808191810E94790620C0643049F4608112
:100820007181828193810E94660617C0663011F043
:100830008DEF11C086E0DE01119601900D928A9530
:10084000E1F749815A816B817C818D819E810E9473
:10085000EF0503C08EEF0E94F802EA960FB6F894F7
:10086000DEBF0FBECDBFDF91CF911F910F910895D5
:10087000CF92DF92EF92FF920F931F93CF93DF936C
:100880000E949F0F6B017C018091950181110CC02A
:1008900080918C01882309F467C010928C0108E8CC
:1008A00011E0C0E0D1E056C01092950108E811E0D7
:1008B000C0E0D1E0F80186859785A089B1890097CD
:1008C000A105B105F1F0D0939501B701A601481B30
:1008D000590B6A0B7B0B8091880190918901A09143
:1008E0008A01B0918B0184179507A607B70748F4D2
:1008F00016861786108A118A60E070E08C2F0E949D
:10090000E00FCF5F0C5F1F4FC430A1F6C1CFD09373
:100910008C01B701A601481B590B6A0B7B0B809118
:10092000880190918901A0918A01B0918B0184176F
:100930009507A607B70748F4158216821782108616
:1009400040E06C2F80E00E944812CF5F0C5F1F4F89
:10095000C23051F0F80185819681A781B08500975A
:10096000A105B10591F3D3CFDF91CF911F910F91E5
:10097000FF90EF90DF90CF900895E8E8F1E088EEE7
:1009800093E0A0E0B0E080839183A283B3831482DC
:10099000158688E0EDE8F1E0DF011D928A95E9F720
:1009A00080E1E6E9F1E0DF011D928A95E9F708951B
:1009B000CF93DF93EC018E819F819093030180930D
:1009C00002012C814A81688180E00E9422112D81E0
:1009D0004B81698181E00E94221181E08093B701FF
:1009E000DF91CF910895CF92DF92EF92FF920F9314
:1009F0001F93CF93DF93CDB7DEB765970FB6F8940B
:100A0000DEBF0FBECDBF8091B701882309F483C03C
:100A10000E949F0F0091B8011091B9012091BA0175
:100A20003091BB016B017C01C01AD10AE20AF30AC2
:100A30009701860140910201509103016A01E12C66
:100A4000F12C0C151D052E053F0508F464C06093BC
:100A5000B8017093B9018093BA019093BB0189E604
:100A6000898383E98A8380E18B8386E98D8B8FB7C5
:100A7000F89440915E0250915F0260916002709123
:100A80006102488759876A877B8740916902509144
:100A90006A0260916B0270916C024C875D876E8771
:100AA0007F878FBF0E949F0F6C837D838E839F8380
:100AB0008091020190910301A0E0B0E0888B998BB6
:100AC000AA8BBB8B8091A6018F5F8093A60190912A
:100AD0002D019817B8F41092A6014B81CE01019612
:100AE000FC0120E050E0BF01681B790B641775071B
:100AF00020F43381230F3196F6CF2C8B65E170E023
:100B00000E94041380E1FE013496A7EAB1E001904F
:100B10000D928A95E1F765960FB6F894DEBF0FBE89
:100B2000CDBFDF91CF911F910F91FF90EF90DF909C
:100B3000CF900895CF93DF93CDB7DEB72B970FB645
:100B4000F894DEBF0FBECDBF1D821E821C821A82AA
:100B500082E4898383E48B8388EE93E098878F8394
:100B6000CE0101960E94D8041B86FE013196CE016B
:100B700009962FEF21938E179F07E1F7198288EED0
:100B800093E09A878987CE0101960E94200224E68D
:100B900030E042E261E280E20E94EC0F81E080936B
:100BA000610161E086E40E94FE0D61E082E00E9446
:100BB0000F1240E061E082E00E94481261E084E4AC
:100BC0000E94FE0D60E084E40E943C0E2B960FB65E
:100BD000F894DEBF0FBECDBFDF91CF910895CF93C4
:100BE000DF9300D000D000D0CDB7DEB749835A8361
:100BF0006B837C838D839E8386E0FE013196A8E221
:100C0000B1E001900D928A95E1F726960FB6F8941F
:100C1000DEBF0FBECDBFDF91CF9108958093D90184
:100C200008950F931F93CF93DF93FC01DC0180E1C4
:100C300091E004E011E09F01245F3F4F4D915D91F1
:100C40006D917D91EC014993599369937993CE010C
:100C500018964D915D916D917C911B97E801499398
:100C60005993699379938E01A217B30739F784A931
:100C700095A9909327018093260186A997A9A0ADF5
:100C8000B1AD80931E0190931F01A0932001B093FA
:100C9000210180A991A99093D2018093D10184A5CB
:100CA00095A59093D6018093D50182A993A990939D
:100CB000D4018093D30186A597A59093D801809302
:100CC000D701DF91CF911F910F9108956093C101DA
:100CD0007093C2018093C3019093C4010E949F0F3F
:100CE0006093BD017093BE018093BF019093C001DA
:100CF00008959093CE018093CD010E949F0F609341
:100D0000C5017093C6018093C7019093C8010895EF
:100D10009093D0018093CF010E949F0F6093C901EF
:100D20007093CA018093CB019093CC010895FC018C
:100D300040815181628173814483558366837783C7
:100D400008954F925F926F927F928F929F92AF928F
:100D5000BF92CF92DF92EF92FF920F931F93CF93A8
:100D6000DF93CDB7DEB7E2970FB6F894DEBF0FBEC4
:100D7000CDBF0E949F0F2B013C018091DA01909121
:100D8000DB01A091DC01B091DD01B301A201481BA0
:100D9000590B6A0B7B0B80911C0190911D01A0E007
:100DA000B0E0481759076A077B0708F4EAC3409286
:100DB000DA015092DB016092DC017092DD01F8945F
:100DC0002091AB013091AC014091AD015091AE0149
:100DD0002FA338A749A75AA7789460915E01709114
:100DE0005F0172508091260190912701681B790B59
:100DF00080E090E00E94590C2DE434EF49E65DE379
:100E00000E94EC0C0E94230C6F8F78A389A39AA3F5
:100E10000F8D18A18091E6019091E701A801481B70
:100E2000590BCA0181509E4F8F3F934020F410937D
:100E3000E7010093E6016FA178A589A59AA50E9414
:100E40005B0C2AE436ED49EC59E30E94EC0C4B01B3
:100E50005C016091E6017091E701072E000C880BA0
:100E6000990B0E945B0C6B017C012091DE0130919B
:100E7000DF014091E0015091E101C501B4010E9400
:100E8000450B9B01AC01C701B6010E94440B0E94B7
:100E9000230C9B0177FF04C022273327261B370B27
:100EA0002630310574F0A5019401C701B6010E94F6
:100EB000440B6093DE017093DF018093E001909317
:100EC000E101AF8DB8A1BD01BB0F880B990B0E944A
:100ED0005B0C6B017C01609325027093260280936A
:100EE0002702909328028091D90181111EC0809120
:100EF000C5019091C601A091C701B091C801805F62
:100F0000984DAF4FBF4F84159505A605B70520F442
:100F10001092CE011092CD018091CD019091CE0121
:100F200090931A0280931902E2C120912902309114
:100F30002A0240912B0250912C022FA738AB49ABCB
:100F40005AAB80912E0190912F01A0913001B09168
:100F500031018BA39CA3ADA3BEA38091C901909145
:100F6000CA01A091CB01B091CC01805F984DAF4FE9
:100F7000BF4F84159505A605B70520F41092D00142
:100F80001092CF016091CF017091D001072E000C1B
:100F9000880B990B0E945B0C905860931102709320
:100FA0001202809313029093140280901502909085
:100FB0001602A0901702B09018022091E201309121
:100FC000E3014091E4015091E5012BA73CA74DA717
:100FD0005EA7A50194010E94440B2BA13CA14DA149
:100FE0005EA10E94B10B2BA53CA54DA55EA50E945C
:100FF000E70C87FD10C02BA53CA54DA55EA5C5013E
:10100000B4010E94450B6093110270931202809309
:10101000130290931402A70196016091110270913E
:10102000120280911302909114020E94440B60936B
:10103000FD017093FE018093FF01909300022091C7
:1010400004013091050140910601509107010E9471
:10105000EC0C20910D0230910E0240910F02509144
:1010600010020E94450B4B015C012091010230915E
:1010700002024091030250910402609108017091B4
:10108000090180910A0190910B010E94EC0C9B01D7
:10109000AC01C501B4010E94450B4B015C012091DC
:1010A00005023091060240910702509108026091BA
:1010B0000C0170910D0180910E0190910F010E9421
:1010C000EC0C9B01AC01C501B4010E94450B4B0126
:1010D0005C016093090270930A0280930B02909363
:1010E0000C022FA538A949A95AA9C701B6010E9427
:1010F000440B2BA13CA14DA15EA10E94B10B9B0111
:10110000AC01C501B4010E94440B6093F1017093DE
:10111000F2018093F3019093F4012091100130913A
:10112000110140911201509113010E94EC0C6B01CE
:101130007C0160911B0270911C02072E000C880B31
:10114000990B0E945B0C9B01AC01C701B6010E9488
:10115000450B6B017C012091F5013091F601409126
:10116000F7015091F801609114017091150180917F
:101170001601909117010E94EC0C9B01AC01C70174
:10118000B6010E94450B6B017C012091F901309161
:10119000FA014091FB015091FC016091180170919E
:1011A000190180911A0190911B010E94EC0C9B0186
:1011B000AC01C701B6010E94450B0E94230C10929E
:1011C000D2011092D101E090D301F090D4016E0DC4
:1011D0007F1D8091D5019091D601680F791FE09015
:1011E000D701F090D801E60EF71EF0921A02E092B5
:1011F0001902B7010F2C000C880B990B0E945B0C95
:101200000E94590D9701F7FE04C0222733272E199B
:101210003F09293131050CF4ABC138EEE3163FEF3D
:10122000F3061CF428EE3FEF02C028E130E03093D3
:101230001A02209319020E94230C20911902309166
:101240001A02D901A61BB70BBD01072E000C880B93
:10125000990B0E945B0C20911E0130911F0140915F
:101260002001509121010E94B10B6093E90170931C
:10127000EA018093EB019093EC012091ED01309114
:10128000EE014091EF015091F0016091E901709100
:10129000EA018091EB019091EC010E94450B2BA19A
:1012A0003CA14DA15EA10E94EC0C6B017C01609100
:1012B000190270911A02660F771F072E000C880B17
:1012C000990B0E945B0C9B01AC01C701B6010E9407
:1012D000450B20E030E040E05FE30E94EC0C0E9410
:1012E000590D0E94230C70931A0260931902809189
:1012F000E8016F8D78A1882331F117FF03C0719544
:1013000061957109072E000C880B990B0E945B0CEC
:101310004B015C0120E030E040EA50E460912201A2
:101320007091230180912401909125010E94440B2A
:101330009B01AC01FF24F394C501B4010E94E70CAA
:101340001816D4F018C017FF03C071956195710984
:10135000072E000C880B990B0E945B0CFF24F39462
:1013600020912201309123014091240150912501C7
:101370000E94E70C87FDF12CF092E801FF20B9F004
:101380001016110644F48091190290911A02181651
:1013900019064CF00CC0012B51F08091190290916C
:1013A0001A0297FF04C010921A021092190281E1EA
:1013B00092E00E94970689EE91E00E949706809144
:1013C000010290910202A0910302B0910402809365
:1013D000050290930602A0930702B0930802809141
:1013E000FD019091FE01A091FF01B0910002809358
:1013F000010290930202A0930302B093040289E0D9
:1014000092E00E9497068091F5019091F601A091DB
:10141000F701B091F8018093F9019093FA01A0933C
:10142000FB01B093FC018091F1019091F201A09138
:10143000F301B091F4018093F5019093F601A0932C
:10144000F701B093F80185E292E00E949706E3E28B
:10145000F2E0929182919383828342E0E931F40732
:10146000C1F710911A0220911902312F37FF03C0E2
:101470003195219531094FEF429FC001439F900D57
:10148000112468E170E00E941D13462F61E082E0A4
:101490000E944812612F6095661F6627661F84E4CC
:1014A0000E943C0E89E6898385E98A8389E18B83E2
:1014B00086E98E8F8091BC018F5F8093BC019091F3
:1014C0002C01981708F05DC01092BC014C825D821F
:1014D0006E827F828091190290911A029987888783
:1014E0008091E6019091E701092E000CAA0BBB0B3D
:1014F0008E879F87A88BB98B8FA198A5A9A5BAA520
:101500008A879B87AC87BD878091250290912602B0
:10151000A0912702B09128028A8B9B8BAC8BBD8B4C
:1015200080916B0190916C019F8B8E8B8091E80173
:10153000888F8091DE019091DF01A091E001B09150
:10154000E101898F9A8FAB8FBC8FFE0134969E018B
:10155000235E3F4F80E09191890F2E173F07D9F707
:101560008D8F6EE170E0CE0101960E94041309C0D8
:101570001092E9011092EA011092EB011092EC0135
:101580007CCEE2960FB6F894DEBF0FBECDBFDF91E2
:10159000CF911F910F91FF90EF90DF90CF90BF9070
:1015A000AF909F908F907F906F905F904F90089535
:1015B00020912E0130912F01409130015091310145
:1015C00060E070E080E491E40E94B10B6093E2017E
:1015D0007093E3018093E4019093E5010895CF9324
:1015E000DF931F92CDB7DEB71982CE0101960E941C
:1015F000AB12882309F444C0E0914B029981E111B8
:1016000006C0993621F010924B028BEF2DC081E07D
:101610008E0F80934B02F0E0E35DFD4F90838330AB
:1016200020F390E040912F02242F30E02B5F3F4FBA
:1016300082179307D1F6835D9D4FFC01319720817E
:10164000263909F7E0E3F2E060E020E0641721F0DA
:101650003191230F6F5FFACFFC01329780812817F9
:1016600031F010924B028AEF0E94F802BECF40E3A5
:1016700052E080912E020E94180310924B02B5CFC7
:101680000F90DF91CF9108955058BB27AA270E9451
:101690005C0B0C94AD0C0E949F0C38F00E94A60CC1
:1016A00020F039F49F3F19F426F40C949C0C0EF4AE
:1016B000E095E7FB0C94960CE92F0E94BE0C58F3C2
:1016C000BA17620773078407950720F079F4A6F527
:1016D0000C94E00C0EF4E0950B2EBA2FA02D0B010C
:1016E000B90190010C01CA01A0011124FF27591B67
:1016F00099F0593F50F4503E68F11A16F040A22F6D
:10170000232F342F4427585FF3CF469537952795DD
:10171000A795F0405395C9F77EF41F16BA0B620BDC
:10172000730B840BBAF09150A1F0FF0FBB1F661F23
:10173000771F881FC2F70EC0BA0F621F731F841F66
:1017400048F4879577956795B795F7959E3F08F08C
:10175000B0CF9395880F08F09927EE0F979587954E
:1017600008950E94C50B0C94AD0C0E94A60C58F075
:101770000E949F0C40F029F45F3F29F00C94960CD6
:1017800051110C94E10C0C949C0C0E94BE0C68F35B
:101790009923B1F3552391F3951B550BBB27AA272A
:1017A00062177307840738F09F5F5F4F220F331F64
:1017B000441FAA1FA9F335D00E2E3AF0E0E832D02C
:1017C00091505040E695001CCAF72BD0FE2F29D02F
:1017D000660F771F881FBB1F261737074807AB0701
:1017E000B0E809F0BB0B802DBF01FF2793585F4F76
:1017F0003AF09E3F510578F00C94960C0C94E10C55
:101800005F3FE4F3983ED4F3869577956795B79557
:10181000F7959F5FC9F7880F911D9695879597F962
:101820000895E1E0660F771F881FBB1F62177307DB
:101830008407BA0720F0621B730B840BBA0BEE1FF0
:1018400088F7E09508950E942A0C6894B1110C94D1
:10185000E10C08950E94C60C88F09F5798F0B92FAC
:101860009927B751B0F0E1F0660F771F881F991FD5
:101870001AF0BA95C9F714C0B13091F00E94E00C8B
:10188000B1E008950C94E00C672F782F8827B85F9B
:1018900039F0B93FCCF3869577956795B395D9F72D
:1018A0003EF490958095709561957F4F8F4F9F4F37
:1018B0000895E89409C097FB3EF490958095709543
:1018C00061957F4F8F4F9F4F9923A9F0F92F96E98C
:1018D000BB279395F695879577956795B795F11101
:1018E000F8CFFAF4BB0F11F460FF1BC06F5F7F4F9E
:1018F0008F4F9F4F16C0882311F096E911C07723B0
:1019000021F09EE8872F762F05C0662371F096E8B8
:10191000862F70E060E02AF09A95660F771F881F87
:10192000DAF7880F9695879597F9089597F99F6745
:1019300080E870E060E008959FEF80EC0895002457
:101940000A941616170618060906089500240A9424
:1019500012161306140605060895092E0394000CAA
:1019600011F4882352F0BB0F40F4BF2B11F460FF39
:1019700004C06F5F7F4F8F4F9F4F089557FD905862
:10198000440F551F59F05F3F71F04795880F97FB43
:10199000991F61F09F3F79F08795089512161306FD
:1019A0001406551FF2CF4695F1DF08C0161617062C
:1019B0001806991FF1CF8695710561050894089561
:1019C000E894BB2766277727CB0197F908950E94F3
:1019D0007D0D08F48FEF08950E94FF0C0C94AD0C60
:1019E0000E949F0C38F00E94A60C20F0952311F065
:1019F0000C94960C0C949C0C11240C94E10C0E94F9
:101A0000BE0C70F3959FC1F3950F50E0551F629F78
:101A1000F001729FBB27F00DB11D639FAA27F00D47
:101A2000B11DAA1F649F6627B00DA11D661F829F6E
:101A30002227B00DA11D621F739FB00DA11D621F53
:101A4000839FA00D611D221F749F3327A00D611D70
:101A5000231F849F600D211D822F762F6A2F112452
:101A60009F5750409AF0F1F088234AF0EE0FFF1F85
:101A7000BB1F661F771F881F91505040A9F79E3FDC
:101A8000510580F00C94960C0C94E10C5F3FE4F34C
:101A9000983ED4F3869577956795B795F795E79532
:101AA0009F5FC1F7FE2B880F911D9695879597F93B
:101AB00008950E94C60CE8F09E37E8F09639B8F415
:101AC0009E3848F4672F782F8827985FF9CF86953E
:101AD0007795679593959539D0F3B62FB1706B0FC5
:101AE000711D811D20F487957795679593950C94CA
:101AF000A10D0C94BC0D0C94E10C990F0008550F2E
:101B0000AA0BE0E8FEEF16161706E807F907C0F083
:101B100012161306E407F50798F0621B730B840B8B
:101B2000950B39F40A2661F0232B242B252B21F465
:101B300008950A2609F4A140A6958FEF811D811D05
:101B40000895882371F4772321F09850872B762FFE
:101B500007C0662311F499270DC09051862B70E0C1
:101B600060E02AF09A95660F771F881FDAF7880FD2
:101B70009695879597F908959F3F31F0915020F4FD
:101B8000879577956795B795880F911D9695879559
:101B900097F90895882349F080917C0080648093B0
:101BA0007C0080917C008F6708C080917C008064FD
:101BB00080937C0080917C008F7780937C00809163
:101BC0007A00876080937A0080917A0080688093A1
:101BD0007A00089590917C00907F892B80937C00FF
:101BE00080917A00806480937A0080917A0086FDEB
:101BF000FCCF80917800909179000895CF93DF9386
:101C0000882309F436C0282F22952F7091F18F7008
:101C100041E050E0FA0102C0EE0FFF1F8A95E2F7A3
:101C2000CF0130E0220F331FF901E057FF4FA5919C
:101C3000B491F901EA57FF4FC591D4912FB7F894A9
:101C4000613099F050F0623099F49C91382F3095C2
:101C500093239C939881892B06C09C91809598230F
:101C60009C9398818923888303C09C91892B8C93B2
:101C70002FBFDF91CF9108958823F1F0E82FE295EF
:101C8000EF70D1F0282F2F7081E090E001C0880F15
:101C90002A95EAF7F0E0EE0FFF1FEA57FF4FA591F4
:101CA000B4912FB7F8949C91662311F0892B02C050
:101CB000809589238C932FBF08958823C1F0E82F46
:101CC000E295EF70A1F0F0E0EE0FFF1FE458FF4F38
:101CD000A591B4913C91282F2F7081E090E001C034
:101CE000880F2A95EAF7932F982381E009F480E082
:101CF00008951F920F920FB60F9211242F933F93C6
:101D00004F935F936F937F938F939F93AF93BF9303
:101D1000EF93FF93E0914C02F0914D02309709F060
:101D20000995FF91EF91BF91AF919F918F917F9115
:101D30006F915F914F913F912F910F900FBE0F9038
:101D40001F9018951F920F920FB60F9211242F9388
:101D50003F934F935F936F937F938F939F93AF9333
:101D6000BF93EF93FF93E0914E02F0914F023097B3
:101D700009F00995FF91EF91BF91AF919F918F91DC
:101D80007F916F915F914F913F912F910F900FBE77
:101D90000F901F9018951F920F920FB60F9211245B
:101DA0002F933F934F935F936F937F938F939F9363
:101DB000AF93BF93EF93FF93E0915002F0915102E4
:101DC000309709F00995FF91EF91BF91AF919F91E5
:101DD0008F917F916F915F914F913F912F910F90D4
:101DE0000FBE0F901F901895823441F0833421F07C
:101DF0008232B9F582E003C081E001C080E09DB38A
:101E0000E82FF0E021E030E001C0220F8A95EAF7E8
:101E1000822F809589238DBBEE0FFF1FDF01A45B0E
:101E2000BD4F6D937C933091690083E090E00E2E5E
:101E300001C0880F0A94EAF7809583238093690094
:101E400090916900842F8370482F01C0440FEA9558
:101E5000EAF7492B409369008DB3282B2DBB81E015
:101E6000089580E0089561E085E40E94FE0D60E041
:101E700085E40C943C0E61E085E40E94FE0D61E077
:101E800085E40C943C0EEF92FF920F931F93CF9337
:101E9000DF937C018B01C0E0D0E0CE15DF051CF59F
:101EA0001C161D066CF480E090E00817190741F03D
:101EB000E7E8F3E13197F1F700C000000196F5CFB4
:101EC0000E94330F80E090E00817190741F0E7E81F
:101ED000F3E13197F1F700C000000196F5CF0E94C1
:101EE0003B0F2196DACFDF91CF911F910F91FF9099
:101EF000EF9008951F920F920FB60F9211248F93B7
:101F00009F93AF93BF938091520290915302A091FF
:101F10005402B09155020196A11DB11D8093520249
:101F200090935302A0935402B0935502BF91AF9186
:101F30009F918F910F900FBE0F901F9018952FB704
:101F4000F8946091520270915302809154029091E2
:101F500055022FBF08951092520210925302109210
:101F600054021092550289EF90E09093890080937B
:101F700088008AE080938100EFE6F0E08081826053
:101F800080830895CF93DF93EC010E94611260E09B
:101F9000809156020E943C0E86E08A95F1F700C0BF
:101FA000CE010E94681286E08A95F1F700C061E0D8
:101FB000809156020E943C0EDF91CF910C948512C5
:101FC0007F70706390E090E4899F902D88271124A2
:101FD000862B972B0C94C20FE82F082E000CFF0BBA
:101FE000F0933901E0933801062E000C770B7093C3
:101FF000370160933601042E000C550B50933501C8
:102000004093340130933301209332011E161F0692
:10201000FCF416161706E4F414161506CCF461E069
:102020000E94FE0D61E0809136010E94FE0D60E08D
:10203000809134010E94FE0D61E0809136010E9482
:102040003C0E61E0809138010E943C0E81E00895D1
:1020500080E008950F931F93CF93DF9361E0809109
:1020600038010E94FE0D61E0809136010E94FE0D54
:1020700060E0809134010E94FE0D60E080913801A3
:102080000E943C0E86E08A95F1F700C086E08A95B2
:10209000F1F700C000E110E0C0E0D0E060E0809126
:1020A00036010E943C0E86E08A95F1F700C061E09F
:1020B000809136010E943C0E86E08A95F1F700C0BF
:1020C000CC0FDD1F809134010E945D0E8111C16033
:1020D0000150110919F761E0809138010E943C0E0E
:1020E000CE01DF91CF911F910F91089580915802F9
:1020F0008823F9F0E0915A02EE0FFF0BE458FF4FEE
:10210000A591B4912C918091590230E0082E000CD9
:10211000990B82239323892B61F080915E02909129
:102120005F02A0916002B09161020197A109B1091B
:102130000BC080915E0290915F02A0916002B0910D
:1021400061020196A11DB11D80935E0290935F0212
:10215000A0936002B093610280915B028823D9F062
:10216000E0915D02EE0FFF0BE458FF4FA591B49193
:102170002C9180915C0230E0082E000C990B822398
:102180009323892B41F010925E0210925F0210920D
:102190006002109261020895809163028823F9F031
:1021A000E0916502EE0FFF0BE458FF4FA591B4914B
:1021B0002C918091640230E0082E000C990B822350
:1021C0009323892B61F08091690290916A02A0911A
:1021D0006B02B0916C020197A109B1090BC080910B
:1021E000690290916A02A0916B02B0916C02019613
:1021F000A11DB11D8093690290936A02A0936B02A6
:10220000B0936C02809166028823D9F0E091680255
:10221000EE0FFF0BE458FF4FA591B4912C918091E4
:10222000670230E0082E000C990B82239323892B40
:1022300041F01092690210926A0210926B021092A1
:102240006C020895BF92CF92DF92EF92FF920F93AC
:102250001F93CF93DF93CDB7DEB72B970FB6F894CC
:10226000DEBF0FBECDBF823008F086C0082F10E061
:1022700019821A821B821C821D821E821F8218866E
:1022800019861A861B868BE0809FF001819FF00DD6
:102290001124DF01A95ABD4F7D01FE013196019045
:1022A0000D928A95E1F7F7016083662309F464C013
:1022B000C22ED42EB62E62E08B2D0E94FE0DDD20A4
:1022C000D1F062E08D2D0E94FE0D2D2D2F7081E04A
:1022D00090E001C0880F2A95EAF7D70112968C93F7
:1022E0001297D2942FE0D2221396DC92139781E0BA
:1022F00011968C9302C0F7011182CC20C1F02C2DD5
:102300002F7081E090E001C0880F2A95EAF79BE0EA
:10231000909FF001919FF00D1124E95AFD4F8583A4
:10232000C2949FE0C922C68281E084830BC08BE007
:10233000809FF001819FF00D1124E95AFD4F148216
:1023400016821582000F111FF801E65CFE4F6081B6
:10235000718143E08B2D2B960FB6F894DEBF0FBE34
:10236000CDBFDF91CF911F910F91FF90EF90DF9044
:10237000CF90BF900C94F40E2B960FB6F894DEBF5E
:102380000FBECDBFDF91CF911F910F91FF90EF90C6
:10239000DF90CF90BF900895E7E5F2E010821182C0
:1023A0001282138214821582168217821086118679
:1023B000128613861486158616861786108A118A49
:1023C000128A138A148A158A0895813061F028F0E0
:1023D000823079F0833099F018C06623C1F0613003
:1023E000A1F484E208956623A1F0613071F484E4DD
:1023F0000895662381F0613041F486E408956623F0
:1024000061F0613011F487E2089580E0089583E27D
:10241000089585E4089587E4089586E208950F936A
:102420001F93CF93DF93D82FC62F60E00E94E51152
:10243000082F61E08D2F0E94E511182F60E0802F9A
:102440000E943C0E61E0802F0E94FE0D60E0812F13
:102450000E943C0E61E0812F0E94FE0DDD2369F099
:10246000D23089F41092B3001092B40081EA8093C4
:10247000B000C370C093B10006C017BC18BC81EA9D
:1024800084BDC370C5BDDF91CF911F910F91089599
:10249000882319F0823051F00895662319F06130D5
:1024A00019F0089547BD089548BD0895662319F0B1
:1024B000613021F008954093B30008954093B40033
:1024C000089580916E028CBD80916D028DBD08953E
:1024D0000CB405FC0DC09EBD00000DB407FEFDCF81
:1024E0009EB58EBD00000DB407FEFDCF8EB50895DC
:1024F0008EBD00000DB407FEFDCF8EB59EBD000061
:102500000DB407FEFDCF9EB5089508951F920F925A
:102510000FB60F9211242F938F939F93EF93FF93F6
:102520009091C600E091B00281E08E0F8F732091F0
:10253000AF02821731F0F0E0E159FD4F90838093B4
:10254000B002FF91EF919F918F912F910F900FBE4D
:102550000F901F901895E091AF022091B002E21702
:1025600089F021E02E0F2093AF02F0E0E159FD4FFA
:102570002081FC0120838091AF028F738093AF0292
:1025800081E0089580E00895EF920F93CF93DF9359
:10259000C42FD22F9B01AC0183E0220F331F441FB5
:1025A000551F8A95D1F760E07DE281E391E00E94BA
:1025B00031132150310982E08093C000DD2311F0F6
:1025C00080E901C080E8011188608093C100C37078
:1025D00080E1C89FA0011124842F8668EE2011F0AD
:1025E000842F8E688093C2003093C5002093C4006E
:1025F000DF91CF910F91EF9008959091C00095FFDA
:10260000FCCF8093C60008950F931F93CF93DF9361
:10261000EC018C01060F171FC017D10721F089911B
:102620000E94FD12F9CFDF91CF911F910F91089574
:102630001092AF021092B002089597FB072E16F485
:10264000009407D077FD09D00E94531307FC05D0F2
:102650003EF4909581959F4F0895709561957F4FB9
:102660000895A1E21A2EAA1BBB1BFD010DC0AA1FD3
:10267000BB1FEE1FFF1FA217B307E407F50720F0EB
:10268000A21BB30BE40BF50B661F771F881F991F66
:102690001A9469F760957095809590959B01AC01AF
:1026A000BD01CF010895AA1BBB1B51E107C0AA1FA2
:1026B000BB1FA617B70710F0A61BB70B881F991FE3
:1026C0005A95A9F780959095BC01CD010895EE0F1C
:0E26D000FF1F0590F491E02D0994F894FFCFC0
:1026DE00D0078813000010410000803F000000006A
:1026EE004469BFBFE63F64BEEF3805BFF40189E41D
:1026FE009C3E00000242D9000A0A10270A0A0AD795
:0E270E00233CD0071200110010007610CC10F2
:00000001FF
