:100000000C9450000C9429010C9452010C947B0127
:100010000C9478000C9478000C9478000C94780080
:100020000C9478000C9478000C9478000C94780070
:100030000C9478000C942A020C9478000C947800AC
:100040000C9478000C9478000C9478000C94780050
:100050000C9475030C9478000C9478000C94780040
:100060000C9478000C9478000C9478000C94780030
:100070000C9478000C9478000C9478000000200018
:1000800023002600290000002200250028002B0064
:1000900000002100240027002A000704E9074D0B77
:1000A00011241FBECFEFD4E0DEBFCDBF11E0A0E032
:1000B000B1E0ECEDF6E202C005900D92AC34B10770
:1000C000D9F722E0ACE4B1E001C01D92A73AB20733
:1000D000E1F710E0C0E5D0E004C02197FE010E94E6
:1000E0006613CD34D107C9F70E947D040C946C13BC
:1000F0000C940000882349F080917C0080648093F8
:100100007C0080917C008F6708C080917C008064B7
:1001100080937C0080917C008F7780937C0080911D
:100120007A00876080937A0080917A00806880935B
:100130007A00089590917C00907F892B80937C00B9
:1001400080917A00806480937A0080917A0086FDA5
:10015000FCCF80917800909179000895CF93DF9340
:10016000882309F436C0282F22952F7091F18F70C3
:1001700041E050E0FA0102C0EE0FFF1F8A95E2F75E
:10018000CF0130E0220F331FF901E057FF4FA59157
:10019000B491F901EA57FF4FC591D4912FB7F89464
:1001A000613099F050F0623099F49C91382F30957D
:1001B00093239C939881892B06C09C9180959823CA
:1001C0009C9398818923888303C09C91892B8C936D
:1001D0002FBFDF91CF9108958823F1F0E82FE295AA
:1001E000EF70D1F0282F2F7081E090E001C0880FD0
:1001F0002A95EAF7F0E0EE0FFF1FEA57FF4FA591AF
:10020000B4912FB7F8949C91662311F0892B02C00A
:10021000809589238C932FBF08958823C1F0E82F00
:10022000E295EF70A1F0F0E0EE0FFF1FE458FF4FF2
:10023000A591B4913C91282F2F7081E090E001C0EE
:10024000880F2A95EAF7932F982381E009F480E03C
:1002500008951F920F920FB60F9211242F933F9380
:100260004F935F936F937F938F939F93AF93BF93BE
:10027000EF93FF93E0914C01F0914D01309709F01D
:100280000995FF91EF91BF91AF919F918F917F91D0
:100290006F915F914F913F912F910F900FBE0F90F3
:1002A0001F9018951F920F920FB60F9211242F9343
:1002B0003F934F935F936F937F938F939F93AF93EE
:1002C000BF93EF93FF93E0914E01F0914F01309770
:1002D00009F00995FF91EF91BF91AF919F918F9197
:1002E0007F916F915F914F913F912F910F900FBE32
:1002F0000F901F9018951F920F920FB60F92112416
:100300002F933F934F935F936F937F938F939F931D
:10031000AF93BF93EF93FF93E0915001F0915101A0
:10032000309709F00995FF91EF91BF91AF919F919F
:100330008F917F916F915F914F913F912F910F908E
:100340000FBE0F901F901895823441F0833421F036
:100350008232B9F582E003C081E001C080E09DB344
:10036000E82FF0E021E030E001C0220F8A95EAF7A3
:10037000822F809589238DBBEE0FFF1FDF01A45BC9
:10038000BE4F6D937C933091690083E090E00E2E18
:1003900001C0880F0A94EAF780958323809369004F
:1003A00090916900842F8370482F01C0440FEA9513
:1003B000EAF7492B409369008DB3282B2DBB81E0D0
:1003C000089580E0089561E085E40E94AE0060E059
:1003D00085E40C94EC0061E085E40E94AE0061E0ED
:1003E00085E40C94EC00EF92FF920F931F93CF9350
:1003F000DF937C018B01C0E0D0E0CE15DF051CF55A
:100400001C161D066CF480E090E00817190741F0F7
:10041000E7E8F3E13197F1F700C000000196F5CF6E
:100420000E94E30180E090E00817190741F0E7E837
:10043000F3E13197F1F700C000000196F5CF0E947B
:10044000EB012196DACFDF91CF911F910F91FF90B1
:10045000EF9008951F920F920FB60F9211248F9371
:100460009F93AF93BF938091520190915301A091BC
:100470005401B09155010196A11DB11D8093520107
:1004800090935301A0935401B0935501BF91AF9144
:100490009F918F910F900FBE0F901F9018952FB7BF
:1004A000F8946091520170915301809154019091A0
:1004B00055012FBF089510925201109253011092CE
:1004C00054011092550189EF90E090938900809338
:1004D00088008AE080938100EFE6F0E0808182600E
:1004E00080830895813061F028F0823079F0833084
:1004F00099F018C06623C1F06130A1F484E2089538
:100500006623A1F0613071F484E40895662381F0DC
:10051000613041F486E40895662361F0613011F49E
:1005200087E2089580E0089583E2089585E40895C0
:1005300087E4089586E208950F931F93CF93DF9386
:10054000D82FC62F60E00E947202082F61E08D2F25
:100550000E947202182F60E0802F0E94EC0061E080
:10056000802F0E94AE0060E0812F0E94EC0061E0CD
:10057000812F0E94AE00DD2369F0D23089F4109201
:10058000B3001092B40081EA8093B000C370C093AE
:10059000B10006C017BC18BC81EA84BDC370C5BDDC
:1005A000DF91CF911F910F910895882319F0823028
:1005B00051F00895662319F0613019F0089547BD90
:1005C000089548BD0895662319F0613021F008951B
:1005D0004093B30008954093B4000895CF92DF9202
:1005E000EF92FF92E0E8CE2EE6E9DE2EE8E9EE2E6D
:1005F000F12C30E06C157D058E059F0540F4F694D6
:10060000E794D794C7943F5F3630A1F737E081E095
:100610008327442311F090E501C090E72C70382F18
:100620003695232B292B20935701817080935601F7
:10063000FF90EF90DF90CF900895CF93CFB7F894CD
:100640008091580181111DC0E4E9F0E0A591B491B9
:100650008C9184FD04C061E084E20E94EC0061E0C2
:1006600084E20E94AE008CB580618CBD8CB5806444
:100670008CBD61E087E20E94AE0061E085E20E94ED
:10068000AE00809158018F5F80935801CFBF20E06A
:1006900041E060E079E08DE390E0CF910C94EE02D0
:1006A000809157018CBD809156018DBD08950CB489
:1006B00005FC0DC09EBD00000DB407FEFDCF9EB52C
:1006C0008EBD00000DB407FEFDCF8EB508958EBD22
:1006D00000000DB407FEFDCF8EB59EBD00000DB429
:1006E00007FEFDCF9EB5089508951F920F920FB695
:1006F0000F9211242F938F939F93EF93FF939091D9
:10070000C600E0919A0181E08E0F8F7320919901CC
:10071000821731F0F0E0E75AFE4F908380939A0100
:10072000FF91EF919F918F912F910F900FBE0F909E
:100730001F901895E091990120919A01E21789F094
:1007400021E02E0F20939901F0E0E75AFE4F20811F
:10075000FC012083809199018F738093990181E03E
:10076000089580E00895EF920F93CF93DF93C42F05
:10077000D22F9B01AC0183E0220F331F441F551F72
:100780008A95D1F760E07DE281E391E00E94441315
:100790002150310982E08093C000DD2311F080E90F
:1007A00001C080E8011188608093C100C37080E1BE
:1007B000C89FA0011124842F8668EE2011F0842F99
:1007C0008E688093C2003093C5002093C400DF91EF
:1007D000CF910F91EF9008959091C00095FFFCCFBD
:1007E0008093C60008950F931F93CF93DF93EC017E
:1007F0008C01060F171FC017D10721F089910E94A5
:10080000EC03F9CFDF91CF911F910F9108951092D2
:10081000990110929A0108950F931F93CF93DF933C
:100820008B019C01EA018F859889A989BA89800F7B
:10083000911FA21FB31F8F87988BA98BBA8B4B85F3
:100840005C856D857E85401751076207730720F42C
:100850000B871C872D873E874F81588569857A8550
:10086000041715072607370720F40F8318872987F1
:100870003A872B893C892F5F3F4F3C8B2B8B2F3F37
:100880003105B1F1A8F1892F9A2FAB2FBB278F87A4
:10089000988BA98BBA8B0E944F026B837C838D83CC
:1008A0009E832A81AE014D5F5F4FFA0180E030E008
:1008B000BF01641B750B6217730718F49191890FC0
:1008C000F7CF8D8B67E170E0CE010E94F3038FEFCD
:1008D0009FEFDC018F839887A987BA871F86188AC4
:1008E000198A1A8A1B861C861D861E861C8A1B8AEC
:1008F000DF91CF911F910F910895CF93DF93CDB7E3
:10090000DEB767970FB6F894DEBF0FBECDBFE12C00
:1009100001E021E040E060E271EA87E090E00E94BF
:10092000B3030E945B02789464E670E083E090E099
:100930000E94F30180E00E94CD0B0E94680B89E6C3
:10094000898380EA8A8382E18B8386E98F8B8FEFAC
:100950009FEFDC0188879987AA87BB87188A198A45
:100960001A8A1B8A1C861D861E861F861D8A1C8A63
:100970000E944F024B015C010E9464100E945605C8
:100980000E94A70A0E948E080E94090C0E94640718
:100990000E944F026B017C01C818D908EA08FB08C5
:1009A0000E944F024B015C01AE014F5F5F4FC701D8
:1009B000B6010E940C04E0CF0F931F93CF93DF93F7
:1009C0008C010E945003C0E0D1E060E088810E9469
:1009D000EC0086E08A95F1F700C0C8010E94570339
:1009E00086E08A95F1F700C061E088810E94EC0002
:1009F000DF91CF911F910F910C947403CF93DF93EC
:100A00000E941D0320E041E060E072E18AE790E08F
:100A10000E94EE02C0E0D1E061E088810E94EC001B
:100A200061E088810E94AE0080E090E8DF91CF9184
:100A30000C94DC047F70706390E090E4899F902DAB
:100A400088271124862B972B0C94DC04CF93DF93FB
:100A5000DC011092BC01E4EBF1E0EC0190E01082CB
:100A6000899187FD02C080839F5F319681E0EC3BD6
:100A7000F807A9F79093BC0118962D913C9119970E
:100A80003093030120930201992351F081E01A96DB
:100A90009C91911101C080E0DF91CF910C947A007C
:100AA000DF91CF9108951092BC010895CF92DF920B
:100AB000EF92FF920F931F93CF93DF93CDB7DEB7E3
:100AC00069970FB6F894DEBF0FBECDBF8091BC0111
:100AD000882309F481C00E944F020091B001109157
:100AE000B1012091B2013091B3016B017C01C01AB8
:100AF000D10AE20AF30A970186014091020150915E
:100B000003016A01E12CF12C0C151D052E053F0592
:100B100008F462C06093B0017093B1018093B20198
:100B20009093B30189E6898382E98A8384E18B8388
:100B300086E9898FFE013896CE014896119211926E
:100B4000E817F907D9F7F12C8091BC01F816B0F439
:100B50000F2D10E0F801EC54FE4F80810E949A00A6
:100B6000F8013296EE0FFF1F21E030E02C0F3D1F01
:100B7000E20FF31F94838383F394E6CF80919B016C
:100B80008F5F8B3018F480939B011DC010929B01E6
:100B90000E944F026C837D838E839F834B81CE01A5
:100BA0000196FC0120E050E0BF01681B790B64173F
:100BB000750720F43381230F3196F6CF288F69E132
:100BC00070E00E94F30384E1FE013496ACE9B1E0E9
:100BD00001900D928A95E1F769960FB6F894DEBF01
:100BE0000FBECDBFDF91CF911F910F91FF90EF907E
:100BF000DF90CF900895CF93DF9300D000D01F9265
:100C0000CDB7DEB7FE01319695E0DF011D929A95D2
:100C1000E9F799E6998396E99D838A8365E070E018
:100C2000CF010E94F3030F900F900F900F900F9041
:100C3000DF91CF910895EF92FF920F931F93CF937F
:100C4000DF93CDB7DEB7AC970FB6F894DEBF0FBE1B
:100C5000CDBF162FFA01853209F4C3C098F4813153
:100C600009F46AC028F48823B1F18031C1F11CC1B4
:100C7000803209F497C0813209F4ACC0823109F0A6
:100C800013C16CC0803409F4E7C0C0F4803309F4A8
:100C9000D1C0813309F008C184EC99E098878F8333
:100CA0001D821B8219821E821C821A82CE0101962D
:100CB0000E94BD091092120281EAF7C0803509F442
:100CC000DDC0813509F4E0C0813409F0EDC0109237
:100CD000E40181EBEAC06111D9C080E7E6C064306D
:100CE00009F0D4C0038101701081E180F280FE24FC
:100CF000EF24FE248091BD01811105C00E94FE04F5
:100D000081E08093BD01B701812F0E941A05002365
:100D100089F0143078F481E08093CB010E944F0277
:100D200024E0129FF0011124E254FE4F668777877A
:100D3000808B918B80E8B9C0623009F0A7C0108128
:100D4000018161E0812F0E94AE0061E0011101C0CC
:100D500060E0812F0E94EC0081E8A7C0613009F0BB
:100D600095C0008160E0802F0E94AE00802F0E941D
:100D70000D01982FFE01319687E0DF011D928A95C3
:100D8000E9F789E6898382E88A831B8386E98F8372
:100D90000C839D83900F9E8367E070E0CF010E94DB
:100DA000F30385C06B3009F071C0DE0111969E011E
:100DB000275F3F4FCD014FEF4D93A217B307E1F7E8
:100DC0002BE0DC0101900D922A95E1F70E942605A7
:100DD00080E96BC0613009F059C00E94530581E978
:100DE00064C0633009F052C0028101701081F1804B
:100DF00061E0812F0E94AE0061E080E00E949C02D1
:100E00004F2D612F80E00E94D502002389F012301F
:100E100078F481E08093C2010E944F02B4E01B9FEE
:100E2000F0011124E254FE4F658376838783908717
:100E300085E93BC0683051F588E0DE0111960190EC
:100E40000D928A95E1F7CE0101960E94BD0981E0DD
:100E50008093120280EA29C06530C1F42381348175
:100E60004281618180810E940408882329F081E009
:100E70008093E40180EB19C08CEF17C0613031F42E
:100E8000808180931D0213C06C3211F08DEF0DC074
:100E90008CE2DE01119601900D928A95E1F7CE0168
:100EA00001960E94D00B03C08EEF0E94FB05AC960A
:100EB0000FB6F894DEBF0FBECDBFDF91CF911F916B
:100EC0000F91FF90EF900895CF92DF92EF92FF92F3
:100ED0000F931F93CF93DF930E944F026B017C010E
:100EE0008091CB0181110CC08091C201882309F44B
:100EF00067C01092C2010EEB11E0C0E0D1E056C015
:100F00001092CB010EEB11E0C0E0D1E0F801868534
:100F10009785A089B1890097A105B105F1F0D0931B
:100F2000CB01B701A601481B590B6A0B7B0B8091C3
:100F3000BE019091BF01A091C001B091C101841781
:100F40009507A607B70748F416861786108A118AF0
:100F500060E070E08C2F0E941A05CF5F0C5F1F4F7E
:100F6000C430A1F6C1CFD093C201B701A601481B7E
:100F7000590B6A0B7B0B8091BE019091BF01A09130
:100F8000C001B091C10184179507A607B70748F4BF
:100F9000158216821782108640E06C2F80E00E9436
:100FA000D502CF5F0C5F1F4FC23051F0F801858131
:100FB0009681A781B0850097A105B10591F3D3CFA4
:100FC000DF91CF911F910F91FF90EF90DF90CF9025
:100FD0000895EEEBF1E088EE93E0A0E0B0E08083CE
:100FE0009183A283B3831482158688E0E3ECF1E059
:100FF000DF011D928A95E9F780E1ECECF1E0DF0179
:101000001D928A95E9F70895E82F082E000CFF0B32
:10101000F0930B01E0930A01062E000C770B7093FE
:10102000090160930801042E000C550B5093070131
:101030004093060130930501209304011E161F06FC
:10104000FCF416161706E4F414161506CCF461E049
:101050000E94AE0061E0809108010E94AE0060E055
:10106000809106010E94AE0061E0809108010E941B
:10107000EC0061E080910A010E94EC0081E008959B
:1010800080E008950F931F93CF93DF9361E08091E9
:101090000A010E94AE0061E0809108010E94AE004A
:1010A00060E0809106010E94AE0060E080910A013C
:1010B0000E94EC0086E08A95F1F700C086E08A95F0
:1010C000F1F700C000E110E0C0E0D0E060E0809106
:1010D00008010E94EC0086E08A95F1F700C061E00B
:1010E000809108010E94EC0086E08A95F1F700C02B
:1010F000CC0FDD1F809106010E940D018111C1609E
:101100000150110919F761E080910A010E94EC0079
:10111000CE01DF91CF911F910F910895CF92DF9271
:10112000EF92FF92CF93DF93CDB7DEB72C970FB638
:10113000F894DEBF0FBECDBF8091E401882309F48F
:1011400063C00E944F026B017C018091E501909188
:10115000E601A091E701B091E801B701A601481BA3
:10116000590B6A0B7B0B8091040190910501A0E063
:10117000B0E0481759076A077B0708F445C0C092DA
:10118000E501D092E601E092E701F092E8010E94C9
:10119000420829E6298324E92A8327E02B8326E9CC
:1011A0002C872091DC012F5F2B3018F42093DC0179
:1011B00022C01092DC01CC82DD82EE82FF829C0193
:1011C00096E0369527959A95E1F7398728878F73AA
:1011D0008A87FE0134969E01255F3F4F80E0919102
:1011E000890FE217F307D9F78B876CE070E0CE0127
:1011F00001960E94F30387E0FE013496ADEDB1E065
:1012000001900D928A95E1F72C960FB6F894DEBF07
:101210000FBECDBFDF91CF91FF90EF90DF90CF90C9
:1012200008958091FB018823F9F0E091FD01EE0F14
:10123000FF0BE458FF4FA591B4912C918091FC01D4
:1012400030E0082E000C990B82239323892B61F048
:101250008091020290910302A0910402B0910502D4
:101260000197A109B1090BC080910202909103027C
:10127000A0910402B09105020196A11DB11D8093B9
:10128000020290930302A0930402B093050280919E
:10129000FE018823D9F0E0910002EE0FFF0BE45825
:1012A000FF4FA591B4912C918091FF0130E0082E61
:1012B000000C990B82239323892B41F01092020298
:1012C0001092030210920402109205020895809178
:1012D00007028823F9F0E0910902EE0FFF0BE458B2
:1012E000FF4FA591B4912C918091080230E0082E17
:1012F000000C990B82239323892B61F080910E02BD
:1013000090910F02A0911002B09111020197A109D2
:10131000B1090BC080910E0290910F02A0911002B2
:10132000B09111020196A11DB11D80930E02909300
:101330000F02A0931002B093110280910A02882339
:10134000D9F0E0910C02EE0FFF0BE458FF4FA5918E
:10135000B4912C9180910B0230E0082E000C990B77
:1013600082239323892B41F010920E0210920F02D8
:10137000109210021092110208953F924F925F92C4
:101380006F927F928F929F92AF92BF92CF92DF9295
:10139000EF92FF920F931F93CF93DF93CDB7DEB7FA
:1013A0002C970FB6F894DEBF0FBECDBFFC0126818F
:1013B000378130931101209310012AEF822E21E012
:1013C000922E8C013CE0A32E31E0B32EE12CF12CC7
:1013D0004CE0542E3C01F4E06F0E711C4424439405
:1013E0003324339419821A821B821C821D821E822E
:1013F0001F82188619861A861B861C868CE0FE01C1
:101400003196D40101900D928A95E1F7F80180811F
:101410005E9C90015F9C300D1124A90146505E4FE7
:101420006A01FA018083F801808118160CF067C008
:1014300062E00E94AE00F8018281181634F562E085
:101440000E94AE00F8018281882339F08F70F32D5D
:1014500001C0FF0F8A95EAF78F2F5E9CF0015F9C19
:10146000F00D1124E650FE4F8283F801828188231B
:1014700011F082958F705E9CF0015F9CF00D11243D
:10148000E650FE4F8383418202C0F601118261144F
:10149000710419F1F8018481882339F08F70F32DDC
:1014A00001C0FF0F8A95EAF78F2F5E9CF0015F9CC9
:1014B000F00D1124E650FE4F8583F80184818823C6
:1014C00011F082958F705E9CF0015F9CF00D1124ED
:1014D000E650FE4F868344820AC05E9CF0015F9C0A
:1014E000F00D1124E650FE4F148216821582F5018C
:1014F0006081718143E0F80180810E94A401FFEFC7
:10150000EF1AFF0A4CE0840E911C0F5F1F4F52E050
:10151000A50EB11C82E0E816F10409F063CF2C9609
:101520000FB6F894DEBF0FBECDBFDF91CF911F91F4
:101530000F91FF90EF90DF90CF90BF90AF909F9072
:101540008F907F906F905F904F903F900895CF92D3
:10155000DF92EF92FF920F931F93CF93DF93CDB75C
:10156000DEB765970FB6F894DEBF0FBECDBF809192
:101570001202882309F482C00E944F0200911302D4
:101580001091140220911502309116026B017C011A
:10159000C01AD10AE20AF30A9701860140911001AC
:1015A000509111016A01E12CF12C0C151D052E053D
:1015B0003F0508F463C06093130270931402809394
:1015C00015029093160289E6898383E98A8380E174
:1015D0008B8386E98D8B8FB7F894409102025091EE
:1015E00003026091040270910502488759876A8757
:1015F0007B8740910E0250910F0260911002709112
:1016000011024C875D876E877F878FBF0E944F02D4
:101610006C837D838E839F83809110019091110153
:10162000A0E0B0E0888B998BAA8BBB8B8091E901FD
:101630008F5F8B3018F48093E90117C01092E90195
:101640004B81CE010196FC0120E050E0BF01681BF8
:10165000790B6417750720F43381230F3196F6CF89
:101660002C8B65E170E00E94F30380E1FE0134966B
:10167000AAEEB1E001900D928A95E1F765960FB65A
:10168000F894DEBF0FBECDBFDF91CF911F910F91B8
:10169000FF90EF90DF90CF900895EAEFF1E0108295
:1016A000118212821382148215821682178210868A
:1016B0001186128613861486158616861786108A5A
:1016C000118A128A138A148A158A168A178A08952B
:1016D000CF93DF93CDB7DEB72B970FB6F894DEBF6D
:1016E0000FBECDBF1D821E821C821A8282E48983B6
:1016F00083E48B8384E690E098878F83CE01019604
:101700000E94BD091B86FE013196CE0109962FEF7E
:1017100021938E179F07E1F7198284E690E09A875C
:101720008987CE0101960E94260524E630E042E238
:1017300061E280E20E94040881E08093E4010E945B
:10174000FE0461E086E40E94AE0061E082E00E9457
:101750009C0240E061E082E00E94D50261E087E403
:101760000E94AE0060E087E40E94EC0061E081E14D
:101770000E94AE0060E081E10E94EC0084E290E013
:1017800090930101809300012B960FB6F894DEBF71
:101790000FBECDBFDF91CF91089580931D020895B4
:1017A000CF93DF93FC01C2E3D1E0A6E2B1E09C015C
:1017B000245F3F4F419151916191719149935993A8
:1017C0006993799340855185628573854D935D93C7
:1017D0006D937D93E217F30769F7FC01408D518DFE
:1017E000628D738D40931201509313016093140125
:1017F00070931501848D958DA68DB78D80931601FC
:1018000090931701A0931801B0931901DF91CF9124
:1018100008954F925F926F927F928F929F92AF92B4
:10182000BF92CF92DF92EF92FF92CF93DF93CDB72B
:10183000DEB72C970FB6F894DEBF0FBECDBF0E9467
:101840004F02C0901E02D0901F02E0902002F09044
:1018500021029B01AC012C193D094E095F09690168
:101860007A0120913E0130913F014901A12CB12C18
:10187000C814D904EA04FB0440F460931E02709378
:101880001F028093200290932102C090EE01D0901D
:10189000EF01E090F001F090F101809122028F5F62
:1018A000893C18F48093220224C010922202609195
:1018B000E1017091E20180E090E00E94D3114B01C0
:1018C0005C01C701B6010E94D5112CEA3BE84BED43
:1018D0005BE30E948A129B01AC01C501B4010E9426
:1018E000B910609323027093240280932502909391
:1018F0002602C701B6010E94D5112CEA3BE84BED48
:101900005BE30E948A1220912302309124024091CD
:101910002502509126020E94BA102B013C016093CF
:10192000700270937102809372029093730280919F
:10193000740290917502A0917602B0917702898726
:101940009A87AB87BC87C0904801D0904901E0904E
:101950004A01F0904B0180917C0290917D02A09110
:101960007E02B0917F02BC01CD01905820911E01F2
:1019700030911F0140912001509121010E948A1253
:101980004B015C01209122013091230140912401FF
:1019900050912501609180027091810280918202B4
:1019A000909183020E948A129B01AC01C501B4018F
:1019B0000E94B9104B015C012091680230916902CC
:1019C00040916A0250916B02609112017091130173
:1019D00080911401909115010E948A129B01AC0123
:1019E000C501B4010E94BA104B015C0120916C0248
:1019F00030916D0240916E0250916F02609116011C
:101A00007091170180911801909119010E948A121A
:101A10009B01AC01C501B4010E94BA1020911A01CA
:101A200030911B0140911C0150911D010E942B110E
:101A300069837A838B839C836093780270937902A5
:101A400080937A0290937B0280911D02882309F48F
:101A50004FC26091170270911802072E000C880B7C
:101A6000990B0E94D511609350027093510280939C
:101A700052029093530220915402309155024091AA
:101A80005602509157022D833E834F835887809092
:101A9000400190904101A0904201B09043010E940A
:101AA000B910A70196010E942B11A50194010E9473
:101AB000851287FD10C0A50194016D817E818F8103
:101AC00098850E94BA1060935002709351028093DF
:101AD0005202909353028091500290915102A09132
:101AE0005202B0915302BC01CD0190586093500254
:101AF000709351028093520290935302A30192017A
:101B00000E94B91060933C0270933D0280933E02A4
:101B100090933F02209126013091270140912801A6
:101B2000509129010E948A1220914C0230914D025D
:101B300040914E0250914F020E94BA104B015C013D
:101B40002091400230914102409142025091430263
:101B500060912A0170912B0180912C0190912D01AF
:101B60000E948A129B01AC01C501B4010E94BA1007
:101B70004B015C01209144023091450240914602A4
:101B80005091470260912E0170912F018091300198
:101B9000909131010E948A129B01AC01C501B401F0
:101BA0000E94BA10609348027093490280934A02DF
:101BB00090934B0229813A814B815C810E94B9103C
:101BC0004B015C0129853A854B855C85C301B201D7
:101BD0000E94B910A70196010E942B112091840246
:101BE0003091850240918602509187020E94B9107F
:101BF0009B01AC01C501B4010E94B9106093300291
:101C0000709331028093320290933302209132011B
:101C10003091330140913401509135010E948A1274
:101C200020915C0230915D0240915E0250915F0212
:101C30000E94BA106B017C01209134023091350270
:101C40004091360250913702609136017091370110
:101C500080913801909139010E948A129B01AC0158
:101C6000C701B6010E94BA106B017C0120913802B5
:101C70003091390240913A0250913B0260913A0111
:101C800070913B0180913C0190913D010E948A122C
:101C90009B01AC01C701B6010E94BA100E94F71265
:101CA0006B017C01609358027093590280935A0231
:101CB00090935B020E949D116D837E838F83988732
:101CC000C301B2010E949D119B0177FF04C022272E
:101CD0003327261B370BB901330F880B990B0E9452
:101CE000D5114B015C018091440190914501A09177
:101CF0004601B091470189839A83AB83BC839C01E1
:101D0000AD01C501B4010E94851287FD03C081E0C9
:101D10008093270220E030E040EA50E469817A8134
:101D20008B819C810E94B9109B01AC01C501B4015B
:101D30000E94261118162CF0809127028111109212
:101D4000270280912702882369F120E030E0A90171
:101D5000C301B2010E948512181694F420E030E00D
:101D6000A901C701B6010E94851218164CF4109201
:101D700058021092590210925A0210925B0212C03D
:101D800020E030E0A901C301B2010E94261187FFC3
:101D900009C020E030E0A901C701B6010E94261168
:101DA00087FDE5CF20E030E04EE753E46091580234
:101DB0007091590280915A0290915B020E948512A3
:101DC000181664F480E090E0AEE7B3E48093580224
:101DD00090935902A0935A02B0935B0220E030E046
:101DE0004EE753EC609158027091590280915A026B
:101DF00090915B020E94261187FF0CC080E090E06A
:101E0000AEE7B3EC8093580290935902A0935A0224
:101E1000B0935B02C0905802D0905902E0905A02F1
:101E2000F0905B02AD81BE81BD01BB0F880B990BA9
:101E30000E94D5119B01AC01C701B6010E94B910E7
:101E40004B015C0120E030E0A9010E9426118823AB
:101E500089F022E733E44CE25EE3C501B4010E945D
:101E60002B11609328027093290280932A02909389
:101E70002B0208C0109228021092290210922A0206
:101E800010922B0220912C0230912D0240912E02B3
:101E900050912F02609128027091290280912A02AC
:101EA00090912B020E94BA102DEC3CEC4CE45DE3C7
:101EB0000E948A124B015C01A7019601C701B6017D
:101EC0000E94BA109B01AC01C501B4010E94BA1076
:101ED00020E030E040E05FE30E948A120E94F712A7
:101EE000609358027093590280935A0290935B0258
:101EF0008091500290915102A0915202B0915302F0
:101F00008093540290935502A0935602B0935702C7
:101F10008091280290912902A0912A02B0912B026F
:101F200080932C0290932D02A0932E02B0932F0247
:101F30008091400290914102A0914202B0914302EF
:101F40008093440290934502A0934602B0934702C7
:101F500080913C0290913D02A0913E02B0913F02DF
:101F60008093400290934102A0934202B0934302B7
:101F7000ECE5F2E088E492E0729162915291429134
:101F800044835583668377838E179F07A9F78091D3
:101F9000300290913102A0913202B09133028093CD
:101FA000340290933502A0933602B09337024092E8
:101FB0007402509275026092760270927702E4E8A1
:101FC000F2E0B291A2919291829184839583A6834B
:101FD000B783B2E0E837FB07A1F7ECE6F2E088E56B
:101FE00092E072916291529142914483558366834B
:101FF00077838E179F07A9F7C0905802D090590297
:10200000E0905A02F0905B02C701B6010E949D1158
:10201000AB0177FF04C044275527461B570B61E0EF
:1020200082E00E94D50220E030E0A901C701B6019C
:102030000E942611881F8827881F91E0682F692732
:1020400087E40E94EC00E0901B02F0901C02B701B4
:10205000F7FE04C0662777276E197F09072E000C4C
:10206000880B990B0E94D5112CEE31E548E950E41C
:102070000E948A1220E030E040E85FE30E94BA103C
:102080000E94A4114B015C01F7FE02C061E001C097
:1020900060E081E10E94EC00B40180E02C960FB674
:1020A000F894DEBF0FBECDBFDF91CF91FF90EF90D0
:1020B000DF90CF90BF90AF909F908F907F906F9068
:1020C0005F904F900C941A05CF93DF931F92CDB77A
:1020D000DEB71982CE0101960E949A03882309F483
:1020E00044C0E091A6029981E11106C0993621F021
:1020F0001092A6028BEF2DC081E08E0F8093A60276
:10210000F0E0E857FD4F9083833020F390E040915A
:102110008A02242F30E02B5F3F4F82179307D1F6BE
:1021200088579D4FFC0131972081263909F7EBE84C
:10213000F2E060E020E0641721F03191230F6F5F3F
:10214000FACFFC0132978081281731F01092A60255
:102150008AEF0E94FB05BECF4BE852E080918902D6
:102160000E941B061092A602B5CF0F90DF91CF916F
:1021700008955058BB27AA270E94D1100C944B12E7
:102180000E943D1238F00E94441220F039F49F3F23
:1021900019F426F40C943A120EF4E095E7FB0C9433
:1021A0003412E92F0E945C1258F3BA1762077307C2
:1021B0008407950720F079F4A6F50C947E120EF4AE
:1021C000E0950B2EBA2FA02D0B01B90190010C0147
:1021D000CA01A0011124FF27591B99F0593F50F45F
:1021E000503E68F11A16F040A22F232F342F4427B7
:1021F000585FF3CF469537952795A795F0405395AF
:10220000C9F77EF41F16BA0B620B730B840BBAF07E
:102210009150A1F0FF0FBB1F661F771F881FC2F7E9
:102220000EC0BA0F621F731F841F48F487957795FD
:102230006795B795F7959E3F08F0B0CF9395880FB7
:1022400008F09927EE0F9795879508950E94101230
:1022500008F481E008950E943F110C944B120E94F3
:10226000441258F00E943D1240F029F45F3F29F0DB
:102270000C94341251110C947F120C943A120E9457
:102280005C1268F39923B1F3552391F3951B550B19
:10229000BB27AA2762177307840738F09F5F5F4F39
:1022A000220F331F441FAA1FA9F335D00E2E3AF078
:1022B000E0E832D091505040E695001CCAF72BD090
:1022C000FE2F29D0660F771F881FBB1F26173707E1
:1022D0004807AB07B0E809F0BB0B802DBF01FF2713
:1022E00093585F4F3AF09E3F510578F00C943412AA
:1022F0000C947F125F3FE4F3983ED4F38695779574
:102300006795B795F7959F5FC9F7880F911D9695CB
:10231000879597F90895E1E0660F771F881FBB1F27
:10232000621773078407BA0720F0621B730B840BD4
:10233000BA0BEE1F88F7E09508950E94A4116894E7
:10234000B1110C947F1208950E94641288F09F5777
:1023500098F0B92F9927B751B0F0E1F0660F771FC9
:10236000881F991F1AF0BA95C9F714C0B13091F0BF
:102370000E947E12B1E008950C947E12672F782F90
:102380008827B85F39F0B93FCCF386957795679584
:10239000B395D9F73EF490958095709561957F4FF0
:1023A0008F4F9F4F0895E89409C097FB3EF4909596
:1023B0008095709561957F4F8F4F9F4F9923A9F01E
:1023C000F92F96E9BB279395F695879577956795AD
:1023D000B795F111F8CFFAF4BB0F11F460FF1BC0F1
:1023E0006F5F7F4F8F4F9F4F16C0882311F096E984
:1023F00011C0772321F09EE8872F762F05C0662332
:1024000071F096E8862F70E060E02AF09A95660FEA
:10241000771F881FDAF7880F9695879597F90895A3
:10242000990F0008550FAA0BE0E8FEEF16161706E5
:10243000E807F907C0F012161306E407F50798F04D
:10244000621B730B840B950B39F40A2661F0232B66
:10245000242B252B21F408950A2609F4A140A695E2
:102460008FEF811D811D089597F99F6780E870E0C7
:1024700060E008959FEF80EC089500240A941616FA
:10248000170618060906089500240A941216130662
:10249000140605060895092E0394000C11F48823F0
:1024A00052F0BB0F40F4BF2B11F460FF04C06F5F0C
:1024B0007F4F8F4F9F4F089557FD9058440F551FE2
:1024C00059F05F3F71F04795880F97FB991F61F0B6
:1024D0009F3F79F087950895121613061406551F2D
:1024E000F2CF4695F1DF08C0161617061806991F99
:1024F000F1CF86957105610508940895E894BB278E
:1025000066277727CB0197F908950E94101208F4E7
:102510008FEF08950E949D120C944B120E943D1261
:1025200038F00E94441220F0952311F00C943412DC
:102530000C943A1211240C947F120E945C1270F3D6
:10254000959FC1F3950F50E0551F629FF001729F58
:10255000BB27F00DB11D639FAA27F00DB11DAA1F67
:10256000649F6627B00DA11D661F829F2227B00DB4
:10257000A11D621F739FB00DA11D621F839FA00D3F
:10258000611D221F749F3327A00D611D231F849F8F
:10259000600D211D822F762F6A2F11249F575040E6
:1025A0009AF0F1F088234AF0EE0FFF1FBB1F661F61
:1025B000771F881F91505040A9F79E3F510580F02A
:1025C0000C9434120C947F125F3FE4F3983ED4F3E2
:1025D000869577956795B795F795E7959F5FC1F7CE
:1025E000FE2B880F911D9695879597F908950E9467
:1025F0006412E8F09E37E8F09639B8F49E3848F453
:10260000672F782F8827985FF9CF869577956795FC
:1026100093959539D0F3B62FB1706B0F711D811D55
:1026200020F487957795679593950C941B130C94DC
:1026300036130C947F12882371F4772321F098507D
:10264000872B762F07C0662311F499270DC0905170
:10265000862B70E060E02AF09A95660F771F881F3E
:10266000DAF7880F9695879597F908959F3F31F08F
:10267000915020F4879577956795B795880F911DB0
:102680009695879597F90895A1E21A2EAA1BBB1B70
:10269000FD010DC0AA1FBB1FEE1FFF1FA217B3072E
:1026A000E407F50720F0A21BB30BE40BF50B661F44
:1026B000771F881F991F1A9469F760957095809508
:1026C00090959B01AC01BD01CF010895EE0FFF1F56
:0C26D0000590F491E02D0994F894FFCFE0
:1026DC002400D007D007120011001000110967095F
:1026EC008813E63F543F000000000000803F690063
:1026FC002FBE00000000A2453241B8C09FC1EF3888
:10270C000E41E78CE8BEF931E63C00000000F40114
:0C271C00000048430000FA43CDCC4C3DC7
:00000001FF
