:100000000C9450000C9429010C9452010C947B0127
:100010000C9478000C9478000C9478000C94780080
:100020000C9478000C9478000C9478000C94780070
:100030000C9478000C942A020C9478000C947800AC
:100040000C9478000C9478000C9478000C94780050
:100050000C9475030C9478000C9478000C94780040
:100060000C9478000C9478000C9478000C94780030
:100070000C9478000C9478000C9478000000200018
:1000800023002600290000002200250028002B0064
:1000900000002100240027002A000704DA072A0BA9
:1000A00011241FBECFEFD4E0DEBFCDBF11E0A0E032
:1000B000B1E0EAEFF6E202C005900D92AC34B10770
:1000C000D9F722E0ACE4B1E001C01D92A338B20739
:1000D000E1F710E0C0E5D0E004C02197FE010E94E6
:1000E0007513CD34D107C9F70E947D040C947B139E
:1000F0000C940000882349F080917C0080648093F8
:100100007C0080917C008F6708C080917C008064B7
:1001100080937C0080917C008F7780937C0080911D
:100120007A00876080937A0080917A00806880935B
:100130007A00089590917C00907F892B80937C00B9
:1001400080917A00806480937A0080917A0086FDA5
:10015000FCCF80917800909179000895CF93DF9340
:10016000882309F436C0282F22952F7091F18F70C3
:1001700041E050E0FA0102C0EE0FFF1F8A95E2F75E
:10018000CF0130E0220F331FF901E057FF4FA59157
:10019000B491F901EA57FF4FC591D4912FB7F89464
:1001A000613099F050F0623099F49C91382F30957D
:1001B00093239C939881892B06C09C9180959823CA
:1001C0009C9398818923888303C09C91892B8C936D
:1001D0002FBFDF91CF9108958823F1F0E82FE295AA
:1001E000EF70D1F0282F2F7081E090E001C0880FD0
:1001F0002A95EAF7F0E0EE0FFF1FEA57FF4FA591AF
:10020000B4912FB7F8949C91662311F0892B02C00A
:10021000809589238C932FBF08958823C1F0E82F00
:10022000E295EF70A1F0F0E0EE0FFF1FE458FF4FF2
:10023000A591B4913C91282F2F7081E090E001C0EE
:10024000880F2A95EAF7932F982381E009F480E03C
:1002500008951F920F920FB60F9211242F933F9380
:100260004F935F936F937F938F939F93AF93BF93BE
:10027000EF93FF93E0914C01F0914D01309709F01D
:100280000995FF91EF91BF91AF919F918F917F91D0
:100290006F915F914F913F912F910F900FBE0F90F3
:1002A0001F9018951F920F920FB60F9211242F9343
:1002B0003F934F935F936F937F938F939F93AF93EE
:1002C000BF93EF93FF93E0914E01F0914F01309770
:1002D00009F00995FF91EF91BF91AF919F918F9197
:1002E0007F916F915F914F913F912F910F900FBE32
:1002F0000F901F9018951F920F920FB60F92112416
:100300002F933F934F935F936F937F938F939F931D
:10031000AF93BF93EF93FF93E0915001F0915101A0
:10032000309709F00995FF91EF91BF91AF919F919F
:100330008F917F916F915F914F913F912F910F908E
:100340000FBE0F901F901895823441F0833421F036
:100350008232B9F582E003C081E001C080E09DB344
:10036000E82FF0E021E030E001C0220F8A95EAF7A3
:10037000822F809589238DBBEE0FFF1FDF01A45BC9
:10038000BE4F6D937C933091690083E090E00E2E18
:1003900001C0880F0A94EAF780958323809369004F
:1003A00090916900842F8370482F01C0440FEA9513
:1003B000EAF7492B409369008DB3282B2DBB81E0D0
:1003C000089580E0089561E085E40E94AE0060E059
:1003D00085E40C94EC0061E085E40E94AE0061E0ED
:1003E00085E40C94EC00EF92FF920F931F93CF9350
:1003F000DF937C018B01C0E0D0E0CE15DF051CF55A
:100400001C161D066CF480E090E00817190741F0F7
:10041000E7E8F3E13197F1F700C000000196F5CF6E
:100420000E94E30180E090E00817190741F0E7E837
:10043000F3E13197F1F700C000000196F5CF0E947B
:10044000EB012196DACFDF91CF911F910F91FF90B1
:10045000EF9008951F920F920FB60F9211248F9371
:100460009F93AF93BF938091520190915301A091BC
:100470005401B09155010196A11DB11D8093520107
:1004800090935301A0935401B0935501BF91AF9144
:100490009F918F910F900FBE0F901F9018952FB7BF
:1004A000F8946091520170915301809154019091A0
:1004B00055012FBF089510925201109253011092CE
:1004C00054011092550189EF90E090938900809338
:1004D00088008AE080938100EFE6F0E0808182600E
:1004E00080830895813061F028F0823079F0833084
:1004F00099F018C06623C1F06130A1F484E2089538
:100500006623A1F0613071F484E40895662381F0DC
:10051000613041F486E40895662361F0613011F49E
:1005200087E2089580E0089583E2089585E40895C0
:1005300087E4089586E208950F931F93CF93DF9386
:10054000D82FC62F60E00E947202082F61E08D2F25
:100550000E947202182F60E0802F0E94EC0061E080
:10056000802F0E94AE0060E0812F0E94EC0061E0CD
:10057000812F0E94AE00DD2369F0D23089F4109201
:10058000B3001092B40081EA8093B000C370C093AE
:10059000B10006C017BC18BC81EA84BDC370C5BDDC
:1005A000DF91CF911F910F910895882319F0823028
:1005B00051F00895662319F0613019F0089547BD90
:1005C000089548BD0895662319F0613021F008951B
:1005D0004093B30008954093B4000895CF92DF9202
:1005E000EF92FF92E0E8CE2EE6E9DE2EE8E9EE2E6D
:1005F000F12C30E06C157D058E059F0540F4F694D6
:10060000E794D794C7943F5F3630A1F737E081E095
:100610008327442311F090E501C090E72C70382F18
:100620003695232B292B20935701817080935601F7
:10063000FF90EF90DF90CF900895CF93CFB7F894CD
:100640008091580181111DC0E4E9F0E0A591B491B9
:100650008C9184FD04C061E084E20E94EC0061E0C2
:1006600084E20E94AE008CB580618CBD8CB5806444
:100670008CBD61E087E20E94AE0061E085E20E94ED
:10068000AE00809158018F5F80935801CFBF20E06A
:1006900041E060E079E08DE390E0CF910C94EE02D0
:1006A000809157018CBD809156018DBD08950CB489
:1006B00005FC0DC09EBD00000DB407FEFDCF9EB52C
:1006C0008EBD00000DB407FEFDCF8EB508958EBD22
:1006D00000000DB407FEFDCF8EB59EBD00000DB429
:1006E00007FEFDCF9EB5089508951F920F920FB695
:1006F0000F9211242F938F939F93EF93FF939091D9
:10070000C600E0919A0181E08E0F8F7320919901CC
:10071000821731F0F0E0E75AFE4F908380939A0100
:10072000FF91EF919F918F912F910F900FBE0F909E
:100730001F901895E091990120919A01E21789F094
:1007400021E02E0F20939901F0E0E75AFE4F20811F
:10075000FC012083809199018F738093990181E03E
:10076000089580E00895EF920F93CF93DF93C42F05
:10077000D22F9B01AC0183E0220F331F441F551F72
:100780008A95D1F760E07DE281E391E00E94531306
:100790002150310982E08093C000DD2311F080E90F
:1007A00001C080E8011188608093C100C37080E1BE
:1007B000C89FA0011124842F8668EE2011F0842F99
:1007C0008E688093C2003093C5002093C400DF91EF
:1007D000CF910F91EF9008959091C00095FFFCCFBD
:1007E0008093C60008950F931F93CF93DF93EC017E
:1007F0008C01060F171FC017D10721F089910E94A5
:10080000EC03F9CFDF91CF911F910F9108951092D2
:10081000990110929A0108950F931F93CF93DF933C
:100820008B019C01EA018F859889A989BA89800F7B
:10083000911FA21FB31F8F87988BA98BBA8B4B85F3
:100840005C856D857E85401751076207730720F42C
:100850000B871C872D873E874F81588569857A8550
:10086000041715072607370720F40F8318872987F1
:100870003A872B893C892F5F3F4F3C8B2B8B2F3F37
:100880003105B1F1A8F1892F9A2FAB2FBB278F87A4
:10089000988BA98BBA8B0E944F026B837C838D83CC
:1008A0009E832A81AE014D5F5F4FFA0180E030E008
:1008B000BF01641B750B6217730718F49191890FC0
:1008C000F7CF8D8B67E170E0CE010E94F3038FEFCD
:1008D0009FEFDC018F839887A987BA871F86188AC4
:1008E000198A1A8A1B861C861D861E861C8A1B8AEC
:1008F000DF91CF911F910F910895CF93DF93CDB7E3
:10090000DEB767970FB6F894DEBF0FBECDBFE12C00
:1009100001E021E040E060E271EA87E090E00E94BF
:10092000B3030E945B02789464E670E083E090E099
:100930000E94F30180E00E94AA0B0E94450B89E609
:10094000898380EA8A8382E18B8386E98F8B8FEFAC
:100950009FEFDC0188879987AA87BB87188A198A45
:100960001A8A1B8A1C861D861E861F861D8A1C8A63
:100970000E944F024B015C010E9473100E945605B9
:100980000E94840A0E947F080E94E60B0E9455077D
:100990000E944F026B017C01C818D908EA08FB08C5
:1009A0000E944F024B015C01AE014F5F5F4FC701D8
:1009B000B6010E940C04E0CF0F931F93CF93DF93F7
:1009C0008C010E945003C0E0D1E060E088810E9469
:1009D000EC0086E08A95F1F700C0C8010E94570339
:1009E00086E08A95F1F700C061E088810E94EC0002
:1009F000DF91CF911F910F910C947403CF93DF93EC
:100A00000E941D0320E041E060E072E18AE790E08F
:100A10000E94EE02C0E0D1E061E088810E94EC001B
:100A200061E088810E94AE0080E090E8DF91CF9184
:100A30000C94DC047F70706390E090E4899F902DAB
:100A400088271124862B972B0C94DC04CF93DF93FB
:100A5000DC011092A701EFE9F1E0EC0190E01082D7
:100A6000899187FD02C080839F5F319681E0E73ADC
:100A7000F807A9F79093A70118962D913C91199723
:100A80003093030120930201992351F081E01A96DB
:100A90009C91911101C080E0DF91CF910C947A007C
:100AA000DF91CF9108951092A7010895CF92DF9220
:100AB000EF92FF920F931F93CF93DF93CDB7DEB7E3
:100AC00069970FB6F894DEBF0FBECDBF8091A70126
:100AD000882309F46CC00E944F0200919B01109181
:100AE0009C0120919D0130919E016B017C01C01AF7
:100AF000D10AE20AF30A970186014091020150915E
:100B000003016A01E12CF12C0C151D052E053F0592
:100B100008F44DC060939B0170939C0180939D01EC
:100B200090939E0189E6898382E98A8384E18B839D
:100B300086E9898FFE013896CE014896119211926E
:100B4000E817F907D9F7D12CCE0101967C018091E5
:100B5000A701D81690F40D2D10E0F801E156FE4FD4
:100B600080810E949A00F8013296EE0FFF1FEE0D71
:100B7000FF1D94838383D394EACF0E944F026C833A
:100B80007D838E839F832B81F70180E030E0AF016E
:100B90004E195F094217530720F49381890F31964C
:100BA000F6CF888F69E170E0C7010E94F303699670
:100BB0000FB6F894DEBF0FBECDBFDF91CF911F916E
:100BC0000F91FF90EF90DF90CF900895CF93DF9338
:100BD00000D000D01F92CDB7DEB7FE01319695E070
:100BE000DF011D929A95E9F799E6998396E99D832D
:100BF0008A8365E070E0CF010E94F3030F900F90AD
:100C00000F900F900F90DF91CF910895EF92FF9288
:100C10000F931F93CF93DF93CDB7DEB7AC970FB68B
:100C2000F894DEBF0FBECDBF162FFA01853209F44E
:100C3000B2C098F4813109F459C028F4882329F10D
:100C4000803139F122C1803209F486C0813209F441
:100C50009BC0823109F019C15BC0813409F4FBC02B
:100C600050F4813309F4D3C0803409F4E2C08033F6
:100C700009F00BC1B9C0813509F4F7C0833509F417
:100C800007C1803509F001C1EAC06111F0C080E7F9
:100C9000FDC0643009F0EBC0038101701081E18078
:100CA000F280FE24EF24FE248091A801811105C06A
:100CB0000E94FE0481E08093A801B701812F0E9469
:100CC0001A05002389F0143078F481E08093B6018E
:100CD0000E944F0224E0129FF0011124E755FE4FBD
:100CE00066877787808B918B80E8D0C0623009F06F
:100CF000BEC01081018161E0812F0E94AE0061E0E1
:100D0000011101C060E0812F0E94EC0081E8BEC0AB
:100D1000613009F0ACC0008160E0802F0E94AE001D
:100D2000802F0E940D01982FFE01319687E0DF0190
:100D30001D928A95E9F789E6898382E88A831B8375
:100D400086E98F830C839D83900F9E8367E070E01C
:100D5000CF010E94F3039CC06B3009F088C0DE0114
:100D600011969E01275F3F4FCD014FEF4D93A21784
:100D7000B307E1F72BE0DC0101900D922A95E1F732
:100D80000E94260580E982C0613009F070C00E948F
:100D9000530581E97BC0633009F069C002810170AD
:100DA0001081F18061E0812F0E94AE0061E080E05F
:100DB0000E949C024F2D612F80E00E94D5020023EB
:100DC00089F0123078F481E08093AD010E944F02E7
:100DD000B4E01B9FF0011124E755FE4F6583768335
:100DE0008783908785E952C0683009F040C088E069
:100DF000DE01119601900D928A95E1F7CE010196E0
:100E00000E949A0981E08093F50180EA3FC084EC5A
:100E100099E098878F831D821B8219821E821C8213
:100E20001A82CE0101960E949A091092F50181EA78
:100E30002DC06530E1F4238134814281618180815C
:100E40000E94F507882329F081E08093C70180EB99
:100E50001DC08CEF1BC01092C70181EB17C065301D
:100E600031F480818093FE0113C06C3211F08DEF5C
:100E70000DC08CE2DE01119601900D928A95E1F78A
:100E8000CE0101960E94AD0B03C08EEF0E94E605D5
:100E9000AC960FB6F894DEBF0FBECDBFDF91CF91F9
:100EA0001F910F91FF90EF900895CF92DF92EF92F4
:100EB000FF920F931F93CF93DF930E944F026B011A
:100EC0007C018091B60181110CC08091AD01882315
:100ED00009F467C01092AD0109EA11E0C0E0D1E069
:100EE00056C01092B60109EA11E0C0E0D1E0F80165
:100EF00086859785A089B1890097A105B105F1F094
:100F0000D093B601B701A601481B590B6A0B7B0BA6
:100F10008091A9019091AA01A091AB01B091AC017F
:100F200084179507A607B70748F416861786108A10
:100F3000118A60E070E08C2F0E941A05CF5F0C5F71
:100F40001F4FC430A1F6C1CFD093AD01B701A601A8
:100F5000481B590B6A0B7B0B8091A9019091AA0148
:100F6000A091AB01B091AC0184179507A607B70714
:100F700048F4158216821782108640E06C2F80E0BC
:100F80000E94D502CF5F0C5F1F4FC23051F0F801B5
:100F900085819681A781B0850097A105B10591F360
:100FA000D3CFDF91CF911F910F91FF90EF90DF9002
:100FB000CF900895E9EAF1E088EE93E0A0E0B0E098
:100FC00080839183A283B3831482158688E0EEEA3E
:100FD000F1E0DF011D928A95E9F780E1E7EBF1E0AE
:100FE000DF011D928A95E9F70895E82F082E000C7D
:100FF000FF0BF0930B01E0930A01062E000C770B18
:101000007093090160930801042E000C550B509356
:1010100007014093060130930501209304011E1639
:101020001F06FCF416161706E4F414161506CCF485
:1010300061E00E94AE0061E0809108010E94AE0074
:1010400060E0809106010E94AE0061E0809108019D
:101050000E94EC0061E080910A010E94EC0081E0B6
:10106000089580E008950F931F93CF93DF9361E07D
:1010700080910A010E94AE0061E0809108010E9407
:10108000AE0060E0809106010E94AE0060E08091B9
:101090000A010E94EC0086E08A95F1F700C086E024
:1010A0008A95F1F700C000E110E0C0E0D0E060E018
:1010B000809108010E94EC0086E08A95F1F700C05B
:1010C00061E0809108010E94EC0086E08A95F1F7CA
:1010D00000C0CC0FDD1F809106010E940D0181111F
:1010E000C1600150110919F761E080910A010E9465
:1010F000EC00CE01DF91CF911F910F910895CF9217
:10110000DF92EF92FF92CF93DF93CDB7DEB72C97AC
:101110000FB6F894DEBF0FBECDBF8091C701882304
:1011200009F44FC00E944F026B017C018091C801FD
:101130009091C901A091CA01B091CB01B701A6015C
:10114000481B590B6A0B7B0B8091040190910501A0
:10115000A0E0B0E0481759076A077B0790F1C092FA
:10116000C801D092C901E092CA01F092CB010E945D
:10117000330829E6298324E92A8327E02B8326E9FB
:101180002C87CC82DD82EE82FF829C0196E0369530
:1011900027959A95E1F7398728878F738A87FE010B
:1011A00034969E01255F3F4F80E09191890FE217B1
:1011B000F307D9F78B876CE070E0CE0101960E94AF
:1011C000F3032C960FB6F894DEBF0FBECDBFDF91B0
:1011D000CF91FF90EF90DF90CF9008958091DE0146
:1011E0008823F9F0E091E001EE0FFF0BE458FF4F88
:1011F000A591B4912C918091DF0130E0082E000C74
:10120000990B82239323892B61F08091E5019091C2
:10121000E601A091E701B091E8010197A109B109A8
:101220000BC08091E5019091E601A091E701B0919A
:10123000E8010196A11DB11D8093E5019093E6019F
:10124000A093E701B093E8018091E1018823D9F0F0
:10125000E091E301EE0FFF0BE458FF4FA591B4912D
:101260002C918091E20130E0082E000C990B822332
:101270009323892B41F01092E5011092E601109220
:10128000E7011092E80108958091EA018823F9F0BE
:10129000E091EC01EE0FFF0BE458FF4FA591B491E4
:1012A0002C918091EB0130E0082E000C990B8223E9
:1012B0009323892B61F08091F1019091F201A0912B
:1012C000F301B091F4010197A109B1090BC080911C
:1012D000F1019091F201A091F301B091F401019616
:1012E000A11DB11D8093F1019093F201A093F30130
:1012F000B093F4018091ED018823D9F0E091EF01E2
:10130000EE0FFF0BE458FF4FA591B4912C91809103
:10131000EE0130E0082E000C990B82239323892BD9
:1013200041F01092F1011092F2011092F30110922B
:10133000F40108953F924F925F926F927F928F9245
:101340009F92AF92BF92CF92DF92EF92FF920F9354
:101350001F93CF93DF93CDB7DEB72C970FB6F894DA
:10136000DEBF0FBECDBFFC01268137813093110156
:10137000209310012DED822E21E0922E8C013CE075
:10138000A32E31E0B32EE12CF12C4CE0542E3C0185
:10139000F4E06F0E711C4424439433243394198277
:1013A0001A821B821C821D821E821F821886198649
:1013B0001A861B861C868CE0FE013196D4010190B2
:1013C0000D928A95E1F7F80180815E9C90015F9C07
:1013D000300D1124A90143525E4F6A01FA01808346
:1013E000F801808118160CF067C062E00E94AE0020
:1013F000F8018281181634F562E00E94AE00F8010F
:101400008281882339F08F70F32D01C0FF0F8A95F8
:10141000EAF78F2F5E9CF0015F9CF00D1124E352E0
:10142000FE4F8283F8018281882311F082958F70AC
:101430005E9CF0015F9CF00D1124E352FE4F83830C
:10144000418202C0F60111826114710419F1F801A0
:101450008481882339F08F70F32D01C0FF0F8A95A6
:10146000EAF78F2F5E9CF0015F9CF00D1124E35290
:10147000FE4F8583F8018481882311F082958F7057
:101480005E9CF0015F9CF00D1124E352FE4F8683B9
:1014900044820AC05E9CF0015F9CF00D1124E3526F
:1014A000FE4F148216821582F5016081718143E03E
:1014B000F80180810E94A401FFEFEF1AFF0A4CE0BF
:1014C000840E911C0F5F1F4F52E0A50EB11C82E0ED
:1014D000E816F10409F063CF2C960FB6F894DEBF3E
:1014E0000FBECDBFDF91CF911F910F91FF90EF9075
:1014F000DF90CF90BF90AF909F908F907F906F9034
:101500005F904F903F900895CF92DF92EF92FF92BD
:101510000F931F93CF93DF93CDB7DEB765970FB6C9
:10152000F894DEBF0FBECDBF8091F501882309F48A
:1015300082C00E944F020091F6011091F7012091A4
:10154000F8013091F9016B017C01C01AD10AE20A5D
:10155000F30A9701860140911001509111016A012F
:10156000E12CF12C0C151D052E053F0508F463C078
:101570006093F6017093F7018093F8019093F9015D
:1015800089E6898383E98A8380E18B8386E98D8B71
:101590008FB7F8944091E5015091E6016091E70121
:1015A0007091E801488759876A877B874091F101EC
:1015B0005091F2016091F3017091F4014C875D87C5
:1015C0006E877F878FBF0E944F026C837D838E83DF
:1015D0009F838091100190911101A0E0B0E0888B71
:1015E000998BAA8BBB8B8091CC018F5F8B3018F4C9
:1015F0008093CC0117C01092CC014B81CE01019693
:10160000FC0120E050E0BF01681B790B64177507EF
:1016100020F43381230F3196F6CF2C8B65E170E0F7
:101620000E94F30380E1FE013496ADECB1E001903D
:101630000D928A95E1F765960FB6F894DEBF0FBE5E
:10164000CDBFDF91CF911F910F91FF90EF90DF9071
:10165000CF900895EDEDF1E0108211821282138295
:1016600014821582168217821086118612861386BE
:101670001486158616861786108A118A128A138A8E
:10168000148A158A168A178A0895CF93DF93CDB7E7
:10169000DEB72B970FB6F894DEBF0FBECDBF1D820D
:1016A0001E821C821A8282E4898383E48B8384E60F
:1016B00090E098878F83CE0101960E949A091B863D
:1016C000FE013196CE0109962FEF21938E179F07C9
:1016D000E1F7198284E690E09A878987CE01019626
:1016E0000E94260524E630E042E261E280E20E94A8
:1016F000F50781E08093C7010E94FE0461E086E463
:101700000E94AE0061E082E00E949C0240E061E045
:1017100082E00E94D50261E087E40E94AE0060E0B2
:1017200087E40E94EC0061E081E10E94AE0060E08D
:1017300081E10E94EC0084E290E0909301018093AB
:1017400000012B960FB6F894DEBF0FBECDBFDF9120
:10175000CF9108958093FE010895CF93DF93FC010C
:10176000C2E3D1E0A6E2B1E09C01245F3F4F41918A
:1017700051916191719149935993699379934085FE
:101780005185628573854D935D936D937D93E217CB
:10179000F30769F7FC01408D518D628D738D409385
:1017A0001201509313016093140170931501848DFD
:1017B000958DA68DB78D8093160190931701A093F8
:1017C0001801B0931901DF91CF9108954F925F9264
:1017D0006F927F928F929F92AF92BF92CF92DF9241
:1017E000EF92FF92CF93DF93CDB7DEB760970FB63E
:1017F000F894DEBF0FBECDBF0E944F02C090FF0124
:10180000D0900002E0900102F09002029B01AC0136
:101810002C193D094E095F0969017A0120913E01A9
:1018200030913F014901A12CB12CC814D904EA041C
:10183000FB0440F46093FF01709300028093010267
:101840009093020240904C0250904D0260904E02E4
:1018500070904F024091500250915102609152029B
:10186000709153024D875E876F87788BC0904801D7
:10187000D0904901E0904A01F0904B0180915802CC
:1018800090915902A0915A02B0915B02BC01CD0126
:10189000905820911E0130911F01409120015091DC
:1018A00021010E9499124B015C012091220130918B
:1018B0002301409124015091250160915C027091B7
:1018C0005D0280915E0290915F020E9499129B01DD
:1018D000AC01C501B4010E94C8104B015C0120910C
:1018E0004402309145024091460250914702609176
:1018F00012017091130180911401909115010E94C1
:1019000099129B01AC01C501B4010E94C9104B01A1
:101910005C01209148023091490240914A02509165
:101920004B026091160170911701809118019091FE
:1019300019010E9499129B01AC01C501B4010E94DA
:10194000C91020911A0130911B0140911C01509146
:101950001D010E943A116D837E838F839887609367
:10196000540270935502809356029093570220912F
:10197000FE018091FA019091FB0140914401509148
:101980004501609146017091470149835A836B83F9
:101990007C83222309F47EC02EEF289FB001299F6B
:1019A000700D112480E090E00E94E2110E94061365
:1019B0006B017C0160933402709335028093360290
:1019C00090933702C301B2010E94AC119B0177FFD3
:1019D00004C022273327261B370BB901330F880B8E
:1019E000990B0E94E4114B015C0129813A814B81E2
:1019F0005C810E94941287FD03C081E08093030202
:101A000020E030E040E251E469817A818B819C8161
:101A10000E94C8109B01AC01C501B4010E943511A0
:101A200018162CF08091030281111092030280910C
:101A30000302882309F471C220E030E0A901C30148
:101A4000B2010E949412181694F420E030E0A9012B
:101A5000C701B6010E94941218164CF41092340279
:101A600010923502109236021092370256C220E0D0
:101A700030E0A901C301B2010E94351187FF4DC2B8
:101A800020E030E0A901C701B6010E94351187FDB1
:101A9000E5CF43C222E3289FB001299F700D112496
:101AA00080E090E00E94E21160932C0270932D027E
:101AB00080932E0290932F022091300230913102B8
:101AC000409132025091330229873A874B875C87D5
:101AD0008090400190904101A0904201B09043015C
:101AE0000E94C810A70196010E943A11A501940115
:101AF0000E94941287FD10C0A501940169857A8522
:101B00008B859C850E94C91060932C0270932D02D6
:101B100080932E0290932F0280912C0290912D029F
:101B2000A0912E02B0912F02BC01CD01905860937C
:101B30002C0270932D0280932E0290932F02A3010A
:101B400092010E94C810609318027093190280934A
:101B50001A0290931B022091260130912701409197
:101B60002801509129010E94991220912802309158
:101B7000290240912A0250912B020E94C9104B0168
:101B80005C0120911C0230911D0240911E02509177
:101B90001F0260912A0170912B0180912C0190917C
:101BA0002D010E9499129B01AC01C501B4010E9454
:101BB000C9104B015C01209120023091210240911B
:101BC00022025091230260912E0170912F01809189
:101BD0003001909131010E9499129B01AC01C50125
:101BE000B4010E94C910609324027093250280936F
:101BF0002602909327022D813E814F8158850E94B5
:101C0000C8104B015C012D853E854F855889C30165
:101C1000B2010E94C810A70196010E943A112091BA
:101C200060023091610240916202509163020E9411
:101C3000C8109B01AC01C501B4010E94C81060939B
:101C40000C0270930D0280930E0290930F0220916C
:101C500032013091330140913401509135010E949D
:101C60009912209138023091390240913A025091F4
:101C70003B020E94C9106B017C012091100230913F
:101C8000110240911202509113026091360170913D
:101C9000370180913801909139010E9499129B017E
:101CA000AC01C701B6010E94C9106B017C012091F3
:101CB00018023091190240911A0250911B02609152
:101CC0003A0170913B0180913C0190913D010E944D
:101CD00099129B01AC01C701B6010E94C9100E9474
:101CE00006136B017C01609334027093350280937C
:101CF0003602909337020E94AC116D837E838F83EE
:101D00009887C301B2010E94AC119B0177FF04C008
:101D100022273327261B370BB901330F880B990B6A
:101D20000E94E4114B015C0129813A814B815C8165
:101D30000E94941287FD03C081E08093030220E09B
:101D400030E040EA50E469817A818B819C810E9475
:101D5000C8109B01AC01C501B4010E9435111816D1
:101D60002CF08091030281111092030280910302F2
:101D7000882369F120E030E0A901C301B2010E948B
:101D80009412181694F420E030E0A901C701B601BE
:101D90000E94941218164CF41092340210923502DC
:101DA000109236021092370212C020E030E0A901F2
:101DB000C301B2010E94351187FF09C020E030E065
:101DC000A901C701B6010E94351187FDE5CF20E0CA
:101DD00030E04EE753E46091340270913502809117
:101DE0003602909137020E949412181664F480E033
:101DF00090E0AEE7B3E48093340290933502A09371
:101E00003602B093370220E030E04EE753EC6091A9
:101E100034027091350280913602909137020E940F
:101E2000351187FF0CC080E090E0AEE7B3EC809303
:101E3000340290933502A0933602B0933702C090DB
:101E40003402D0903502E0903602F09037024D8196
:101E50005E81BA01550F880B990B0E94E4119B011A
:101E6000AC01C701B6010E94C8104B015C0120E023
:101E700030E0A9010E943511882389F022E733E47C
:101E80004CE25EE3C501B4010E943A116093040282
:101E900070930502809306029093070208C0109287
:101EA000040210920502109206021092070220917D
:101EB00008023091090240910A0250910B02609190
:101EC00004027091050280910602909107020E941F
:101ED000C9102DEC3CEC4CE45DE30E9499124B01DF
:101EE0005C01A7019601C701B6010E94C9109B01C0
:101EF000AC01C501B4010E94C91020E030E040E00F
:101F00005FE30E9499120E9406136093340270935B
:101F10003502809336029093370280912C02909183
:101F20002D02A0912E02B0912F0280933002909347
:101F30003102A0933202B093330280910402909157
:101F40000502A0910602B0910702809308029093C7
:101F50000902A0930A02B0930B0280911C02909197
:101F60001D02A0911E02B0911F0280932002909347
:101F70002102A0932202B093230280911802909133
:101F80001902A0911A02B0911B0280931C02909337
:101F90001D02A0931E02B0931F02E8E3F2E084E268
:101FA00092E072916291529142914483558366838B
:101FB00077838E179F07A9F780910C0290910D02ED
:101FC000A0910E02B0910F02809310029093110223
:101FD000A0931202B0931302409250025092510209
:101FE0006092520270925302E0E6F2E0B291A29146
:101FF0009291829184839583A683B78352E0E435DE
:10200000F507A1F7E8E4F2E084E392E072916291CF
:102010005291429144835583668377838E179F073D
:10202000A9F7C0903402D0903502E0903602F090CB
:102030003702C701B6010E94AC11AB0177FF04C0A3
:1020400044275527461B570B61E082E00E94D502CA
:1020500020E030E0A901C701B6010E943511881FB8
:102060008827881F91E0682F692787E40E94EC0089
:102070006091FC017091FD0177FF03C0719561953E
:102080007109072E000C880B990B0E94E4112CEEAD
:1020900031E548E950E40E94991220E030E040E840
:1020A0005FE30E94C9100E94B3116B017C0160E0E4
:1020B00081E10E94EC00B60180E060960FB6F894D2
:1020C000DEBF0FBECDBFDF91CF91FF90EF90DF90CD
:1020D000CF90BF90AF909F908F907F906F905F90C8
:1020E0004F900C941A05CF93DF931F92CDB7DEB7B4
:1020F0001982CE0101960E949A03882309F444C0F4
:10210000E09182029981E11106C0993621F0109286
:1021100082028BEF2DC081E08E0F80938202F0E06F
:10212000EC59FD4F9083833020F390E0409166029C
:10213000242F30E02B5F3F4F82179307D1F68C5945
:102140009D4FFC0131972081263909F7E7E6F2E03F
:1021500060E020E0641721F03191230F6F5FFACF28
:10216000FC0132978081281731F0109282028AEFA9
:102170000E94E605BECF47E652E0809165020E94CC
:10218000060610928202B5CF0F90DF91CF9108958D
:102190005058BB27AA270E94E0100C945A120E94A4
:1021A0004C1238F00E94531220F039F49F3F19F47A
:1021B00026F40C9449120EF4E095E7FB0C944312BC
:1021C000E92F0E946B1258F3BA176207730784074E
:1021D000950720F079F4A6F50C948D120EF4E09595
:1021E0000B2EBA2FA02D0B01B90190010C01CA01D1
:1021F000A0011124FF27591B99F0593F50F4503E7C
:1022000068F11A16F040A22F232F342F4427585F6D
:10221000F3CF469537952795A795F0405395C9F785
:102220007EF41F16BA0B620B730B840BBAF091503D
:10223000A1F0FF0FBB1F661F771F881FC2F70EC0DC
:10224000BA0F621F731F841F48F4879577956795AF
:10225000B795F7959E3F08F0B0CF9395880F08F09B
:102260009927EE0F9795879508950E941F1208F4FD
:1022700081E008950E944E110C945A120E9453124C
:1022800058F00E944C1240F029F45F3F29F00C9462
:10229000431251110C948E120C9449120E946B122D
:1022A00068F39923B1F3552391F3951B550BBB2785
:1022B000AA2762177307840738F09F5F5F4F220FCA
:1022C000331F441FAA1FA9F335D00E2E3AF0E0E8C1
:1022D00032D091505040E695001CCAF72BD0FE2F0B
:1022E00029D0660F771F881FBB1F2617370748079F
:1022F000AB07B0E809F0BB0B802DBF01FF27935857
:102300005F4F3AF09E3F510578F00C9443120C94C5
:102310008E125F3FE4F3983ED4F3869577956795E8
:10232000B795F7959F5FC9F7880F911D969587958B
:1023300097F90895E1E0660F771F881FBB1F6217AA
:1023400073078407BA0720F0621B730B840BBA0B68
:10235000EE1F88F7E09508950E94B3116894B111BB
:102360000C948E1208950E94731288F09F5798F073
:10237000B92F9927B751B0F0E1F0660F771F881F8A
:10238000991F1AF0BA95C9F714C0B13091F00E94A4
:102390008D12B1E008950C948D12672F782F882745
:1023A000B85F39F0B93FCCF3869577956795B395CB
:1023B000D9F73EF490958095709561957F4F8F4F3A
:1023C0009F4F0895E89409C097FB3EF4909580953F
:1023D000709561957F4F8F4F9F4F9923A9F0F92FEB
:1023E00096E9BB279395F695879577956795B79569
:1023F000F111F8CFFAF4BB0F11F460FF1BC06F5F4F
:102400007F4F8F4F9F4F16C0882311F096E911C060
:10241000772321F09EE8872F762F05C0662371F081
:1024200096E8862F70E060E02AF09A95660F771F95
:10243000881FDAF7880F9695879597F90895990F71
:102440000008550FAA0BE0E8FEEF16161706E8077E
:10245000F907C0F012161306E407F50798F0621B9F
:10246000730B840B950B39F40A2661F0232B242B74
:10247000252B21F408950A2609F4A140A6958FEF93
:10248000811D811D089597F99F6780E870E060E0E5
:1024900008959FEF80EC089500240A9416161706FD
:1024A00018060906089500240A9412161306140645
:1024B00005060895092E0394000C11F4882352F0A8
:1024C000BB0F40F4BF2B11F460FF04C06F5F7F4F60
:1024D0008F4F9F4F089557FD9058440F551F59F047
:1024E0005F3F71F04795880F97FB991F61F09F3F01
:1024F00079F087950895121613061406551FF2CF2A
:102500004695F1DF08C0161617061806991FF1CF79
:1025100086957105610508940895E894BB276627A0
:102520007727CB0197F908950E941F1208F48FEFC7
:1025300008950E94AC120C945A120E944C1238F06A
:102540000E94531220F0952311F00C9443120C9426
:10255000491211240C948E120E946B1270F3959FF5
:10256000C1F3950F50E0551F629FF001729FBB278A
:10257000F00DB11D639FAA27F00DB11DAA1F649F26
:102580006627B00DA11D661F829F2227B00DA11DD9
:10259000621F739FB00DA11D621F839FA00D611D5F
:1025A000221F749F3327A00D611D231F849F600D80
:1025B000211D822F762F6A2F11249F5750409AF0A9
:1025C000F1F088234AF0EE0FFF1FBB1F661F771F35
:1025D000881F91505040A9F79E3F510580F00C9400
:1025E00043120C948E125F3FE4F3983ED4F3869529
:1025F00077956795B795F795E7959F5FC1F7FE2BA0
:10260000880F911D9695879597F908950E947312EA
:10261000E8F09E37E8F09639B8F49E3848F4672F12
:10262000782F8827985FF9CF86957795679593954A
:102630009539D0F3B62FB1706B0F711D811D20F449
:1026400087957795679593950C942A130C94451369
:102650000C948E12882371F4772321F09850872BE5
:10266000762F07C0662311F499270DC09051862B51
:1026700070E060E02AF09A95660F771F881FDAF7FE
:10268000880F9695879597F908959F3F31F091505F
:1026900020F4879577956795B795880F911D969546
:1026A000879597F90895A1E21A2EAA1BBB1BFD017D
:1026B0000DC0AA1FBB1FEE1FFF1FA217B307E40721
:1026C000F50720F0A21BB30BE40BF50B661F771F79
:1026D000881F991F1A9469F7609570958095909559
:1026E0009B01AC01BD01CF010895EE0FFF1F0590C6
:0A26F000F491E02D0994F894FFCF57
:1026FA002400D007D007120011001000EE08440988
:10270A008813E63F543F000000000000803F690044
:10271A002FBE00000000A2453241B8C09FC1EF3869
:10272A000E41E78CE8BEF931E63C00000000F401F6
:0C273A00000048430000FA43CDCC4C3DA9
:00000001FF
