:100000000C9452000C94FD100C9426110C944F117A
:100010000C947A000C947A000C947A000C947A0078
:100020000C947A000C947A000C947A000C947A0068
:100030000C947A000C94FE110C947A000C947A00C3
:100040000C947A000C947A000C947A000C947A0048
:100050000C9486150C947A000C947A000C947A0017
:100060000C947A000C947A000C947A000C947A0028
:100070000C947A000C947A000C947A000000200012
:1000800023002600290000002200250028002B0064
:1000900000002100240027002A0096011D05570DAD
:1000A0006A14181611241FBECFEFD4E0DEBFCDBFF7
:1000B00011E0A0E0B1E0EEE8FCE202C005900D9294
:1000C000AC34B107D9F723E0ACE4B1E001C01D9234
:1000D000A531B207E1F710E0C2E5D0E004C02197F6
:1000E000FE010E943F16CD34D107C9F70E94580186
:1000F0000C9445160C940000CF92DF92EF92FF9281
:100100000F931F93C0905F01D0906001E090610158
:10011000F0906201C60ED71EE81EF91EC0925F0164
:10012000D0926001E0926101F092620100915B0166
:1001300010915C0120915D0130915E010617170757
:100140002807390740F460935B0170935C0180934A
:100150005D0190935E01009157011091580120912B
:10016000590130915A01601771078207930740F4D3
:1001700060935701709358018093590190935A01ED
:1001800080914C0190914D01A0914E01B0914F0191
:100190000196A11DB11D80934C0190934D01A09338
:1001A0004E01B0934F01209138013091390140E068
:1001B00050E0281739074A075B0708F072C0109211
:1001C0004C0110924D0110924E0110924F01C70147
:1001D000B6010E941D1620935F0130936001409389
:1001E0006101509362010E94231260935301709346
:1001F0005401809355019093560120915201E0E5FE
:10020000F1E080E030E0AF01405551404217530724
:1002100020F49381890F3196F6CF80936501CC2429
:10022000CA94DC2C7601C0925701D0925801E0921A
:100230005901F0925A0110925F01109260011092E0
:1002400061011092620110925B0110925C011092A8
:100250005D0110925E01109264011092630167E1EA
:1002600070E080E591E00E940416C0925701D092A0
:100270005801E0925901F0925A0110925F011092D8
:100280006001109261011092620110925B01109264
:100290005C0110925D0110925E0110926401109257
:1002A00063011F910F91FF90EF90DF90CF90089521
:1002B000E12C01E021E040E060E271EA87E090E0BB
:1002C0000E94C4150E942F12789464E670E083E0C7
:1002D00090E00E94C71180E00E947B0680E00E94AF
:1002E0007E060E94FA050E9423124B015C010E94C7
:1002F0006E0D0E9455020E9453050E94A1010E94AA
:1003000041070E941E080E9498040E9423126B015C
:100310007C01C818D908EA08FB080E9423124B0187
:100320005C01C701B6010E947C00E1CFE0E5F1E08D
:1003300089E6808380EA818382E1828386E9868BF5
:100340000895CF92DF92EF92FF92CF93DF93CDB7D4
:10035000DEB72C970FB6F894DEBF0FBECDBF8091ED
:100360006F01882309F464C00E9423126B017C0191
:100370008091700190917101A0917201B09173010F
:10038000B701A601481B590B6A0B7B0B80914001FA
:1003900090914101A0E0B0E0481759076A077B0738
:1003A00008F446C0C0927001D0927101E0927201CF
:1003B000F09273010E94C81229E6298324E92A8356
:1003C00027E02B8326E92C87209167012F5F20935C
:1003D000670130913701321710F510926701CC8216
:1003E000DD82EE82FF829C0196E0369527959A95F4
:1003F000E1F7398728878F738A87FE0134969E013B
:10040000255F3F4F80E09191890FE217F307D9F7FD
:100410008B876CE070E0CE0101960E94041687E0A5
:10042000FE013496A8E6B1E001900D928A95E1F7BD
:100430002C960FB6F894DEBF0FBECDBFDF91CF91E3
:10044000FF90EF90DF90CF900895CF93DF93DC0182
:1004500010929501EDE8F1E0EC0190E010828991B5
:1004600087FD02C080839F5F319681E0E539F80700
:10047000A9F79093950118962D913C911997309377
:10048000010120930001992351F081E01A969C917B
:10049000911101C080E0DF91CF910C944E10DF915B
:1004A000CF910895109295010895CF92DF92EF9227
:1004B000FF920F931F93CF93DF93CDB7DEB769976A
:1004C0000FB6F894DEBF0FBECDBF80919501882393
:1004D00009F484C00E9423120091890110918A01BD
:1004E00020918B0130918C016B017C01C01AD10AE3
:1004F000E20AF30A9701860140910001509101013F
:100500006A01E12CF12C0C151D052E053F0508F4A0
:1005100065C06093890170938A0180938B019093E9
:100520008C0189E6898382E98A8384E18B8386E969
:10053000898FFE013896CE01489611921192E817E4
:10054000F907D9F7F12C80919501F816B0F40F2D29
:1005500010E0F801E357FE4F80810E946E10F80111
:100560003296EE0FFF1F21E030E02C0F3D1FE20F0F
:10057000F31F94838383F394E6CF809174018F5F9C
:1005800080937401909136019817E8F410927401E9
:100590000E9423126C837D838E839F834B81CE01C7
:1005A0000196FC0120E050E0BF01681B790B641745
:1005B000750720F43381230F3196F6CF288F69E138
:1005C00070E00E940416F89484E1FE013496A5E7D9
:1005D000B1E001900D928A95E1F7789469960FB693
:1005E000F894DEBF0FBECDBFDF91CF911F910F9169
:1005F000FF90EF90DF90CF900895CF93DF9300D0DE
:1006000000D01F92CDB7DEB7FE01319695E0DF0135
:100610001D929A95E9F799E6998396E99D838A83D5
:1006200065E070E0CF010E9404160F900F900F90CC
:100630000F900F90DF91CF910895EF92FF920F935B
:100640001F93CF93DF93CDB7DEB7E4970FB6F8943F
:10065000DEBF0FBECDBF162FFA01803409F4EAC009
:1006600068F5823109F490C048F4803109F44CC037
:1006700008F078C0882309F443C04AC1813209F4E4
:10068000BFC020F4803209F4A3C042C1803309F412
:10069000BEC0813309F03CC184EC99E098878F8318
:1006A0001D821B8219821E821C821A82CE01019633
:1006B0000E9438051092C60181EA2BC1833509F4E6
:1006C000F3C090F4803509F4C8C038F4813409F0DF
:1006D0001FC110926F0181EB1CC1813509F4C8C0A4
:1006E000823509F4D3C014C1853509F4EBC008F490
:1006F000E2C0863509F4EFC0873509F4F5C008C1BA
:100700006111F4C080E705C1643009F0EFC00381D6
:1007100001701081E180F280FE24EF24FE2480919C
:100720009601811106C084E20E94641281E08093E8
:100730009601B701812F0E947E12002389F01430A8
:1007400078F481E08093A4010E94231224E0129F98
:10075000F0011124E956FE4F66877787808B918BD5
:1007600080E8D7C0623009F0C1C01081018161E02A
:10077000812F0E94821061E0011101C060E0812F91
:100780000E94C01081E8C5C0613009F0AFC000818F
:1007900060E0802F0E948210802F0E94E110982F2D
:1007A000FE01319687E0DF011D928A95E9F789E61F
:1007B000898382E88A831B8386E98F830C839D83E8
:1007C000900F9E8367E070E0CF010E940416A3C0E3
:1007D0006B3009F08BC0DE0111969E01275F3F4F01
:1007E000CD014FEF4D93A217B307E1F72BE0DC01EA
:1007F00001900D922A95E1F70E94250280E989C0B7
:10080000613009F073C00E94520281E982C06830F1
:1008100009F06CC088E0DE01119601900D928A9576
:10082000E1F7CE0101960E94380581E08093C60170
:1008300080EA6FC0653009F059C02381348142815C
:10084000618180810E948A12882329F081E080934F
:100850006F0180EB5EC08CEF5CC0623009F046C077
:10086000118180810E947B06812F0E947E0653C0E9
:100870006433E1F584E3DE01119601900D928A95CF
:10088000E1F7CE0101960E94810645C0623171F503
:1008900082E1DE01119601900D928A95E1F7CE0179
:1008A00001960E94D50637C0623001F580819181A2
:1008B0000E940C0730C06230C9F4808191810E948F
:1008C000FD0629C0643091F4608171818281938139
:1008D0000E941B0720C0643049F4608171818281CD
:1008E00093810E942E0717C0663011F08DEF11C062
:1008F00086E0DE01119601900D928A95E1F749811B
:100900005A816B817C818D819E810E945C0603C02F
:100910008EEF0E94FD02E4960FB6F894DEBF0FBE84
:10092000CDBFDF91CF911F910F91FF90EF90089570
:10093000CF92DF92EF92FF920F931F93CF93DF93AB
:100940000E9423126B017C018091A40181110CC0D3
:1009500080919B01882309F467C010929B0107E9ED
:1009600011E0C0E0D1E056C01092A40107E911E007
:10097000C0E0D1E0F80186859785A089B18900970C
:10098000A105B105F1F0D093A401B701A601481B60
:10099000590B6A0B7B0B8091970190919801A09164
:1009A0009901B0919A0184179507A607B70748F4F3
:1009B00016861786108A118A60E070E08C2F0E94DC
:1009C0007E12CF5F0C5F1F4FC430A1F6C1CFD09312
:1009D0009B01B701A601481B590B6A0B7B0B809149
:1009E000970190919801A0919901B0919A01841773
:1009F0009507A607B70748F4158216821782108656
:100A000040E06C2F80E00E94E614CF5F0C5F1F4F28
:100A1000C23051F0F80185819681A781B085009799
:100A2000A105B10591F3D3CFDF91CF911F910F9124
:100A3000FF90EF90DF90CF900895E7E9F1E088EE26
:100A400093E0A0E0B0E080839183A283B38314821B
:100A5000158688E0ECE9F1E0DF011D928A95E9F75F
:100A600080E1E5EAF1E0DF011D928A95E9F708955A
:100A7000CF93DF93EC018E819F819093030180934C
:100A800002012C814A81688180E00E94C0132D817F
:100A90004B81698181E00E94C01381E08093C6018F
:100AA000DF91CF910895CF92DF92EF92FF920F9353
:100AB0001F93CF93DF93CDB7DEB765970FB6F8944A
:100AC000DEBF0FBECDBF8091C601882309F483C06D
:100AD0000E9423120091C7011091C8012091C90101
:100AE0003091CA016B017C01C01AD10AE20AF30AF3
:100AF0009701860140910201509103016A01E12CA6
:100B0000F12C0C151D052E053F0508F464C06093FB
:100B1000C7017093C8018093C9019093CA0189E607
:100B2000898383E98A8380E18B8386E98D8B8FB704
:100B3000F8944091C1025091C2026091C302709139
:100B4000C402488759876A877B874091CC025091BD
:100B5000CD026091CE027091CF024C875D876E8787
:100B60007F878FBF0E9423126C837D838E839F8338
:100B70008091020190910301A0E0B0E0888B998BF5
:100B8000AA8BBB8B8091B5018F5F8093B50190914B
:100B90003B019817B8F41092B5014B81CE01019634
:100BA000FC0120E050E0BF01681B790B641775075A
:100BB00020F43381230F3196F6CF2C8B65E170E062
:100BC0000E94041680E1FE013496A6EBB1E001908C
:100BD0000D928A95E1F765960FB6F894DEBF0FBEC9
:100BE000CDBFDF91CF911F910F91FF90EF90DF90DC
:100BF000CF900895CF93DF93CDB7DEB72B970FB685
:100C0000F894DEBF0FBECDBF1D821E821C821A82E9
:100C100082E4898383E48B8388EE93E098878F83D3
:100C2000CE0101960E9438051B86FE013196CE0149
:100C300009962FEF21938E179F07E1F7198282E023
:100C40008A8388EE93E09A878987CE0101960E9475
:100C5000250224E630E042E261E280E20E948A124C
:100C600081E080936F0184E20E94641261E086E477
:100C70000E94821061E082E00E94AD1440E061E0D9
:100C800082E00E94E61461E084E40E94821060E049
:100C900084E40E94C01061E081E10E94821060E063
:100CA00081E10E94C0102B960FB6F894DEBF0FBEF4
:100CB000CDBFDF91CF910895CF93DF9300D000D0C7
:100CC00000D0CDB7DEB749835A836B837C838D8395
:100CD0009E8386E0FE013196A6E3B1E001900D927D
:100CE0008A95E1F726960FB6F894DEBF0FBECDBF0A
:100CF000DF91CF91089580930302089580930202BB
:100D000008950F931F93CF93DF93FC01DC0184E2DE
:100D100091E008E111E09F01245F3F4F4D915D910B
:100D20006D917D91EC014993599369937993CE012B
:100D300018964D915D916D917C911B97E8014993B7
:100D40005993699379938E01A217B30739F7DF019D
:100D50005896C4E0D1E0CF018C964D915D916D9194
:100D60007D914993599369937993A817B907A9F786
:100D700080A991A99093EF018093EE0184A595A598
:100D80009093F3018093F20182A993A99093F101CA
:100D90008093F00186A597A59093F5018093F401C7
:100DA000DF91CF911F910F910895CF93DF93FC01B5
:100DB000EC01A6EFB1E082E092E04991599169918E
:100DC00079914D935D936D937D938A179B07A9F756
:100DD000848595859093EB018093EA0186859785BC
:100DE0009093ED018093EC01808991899093E901C2
:100DF0008093E801DF91CF9108959093E50180936E
:100E0000E4010E9423126093D4017093D501809372
:100E1000D6019093D70108959093E7018093E6015E
:100E20000E9423126093D8017093D9018093DA0154
:100E30009093DB0108956093E0017093E10180934A
:100E4000E2019093E3010E9423126093D00170931A
:100E5000D1018093D2019093D30108956093DC0176
:100E60007093DD018093DE019093DF010E942312D5
:100E70006093CC017093CD018093CE019093CF010C
:100E80000895CF92DF92EF92FF920F931F930E94EB
:100E90002312009104021091050220910602309164
:100EA00007026B017C01C01AD10AE20AF30A97011A
:100EB0008601C0903001D0903101E12CF12C0C154D
:100EC0001D052E053F0508F4A8C060930402709329
:100ED00005028093060290930702209102022111DD
:100EE00024C0C090D001D090D101E090D201F09008
:100EF000D30120E1C20E27E2D21EE11CF11CC6166E
:100F0000D706E806F90640F41092E0011092E101DC
:100F10001092E2011092E301C090E001D090E10153
:100F2000E090E201F090E3012BC0C090CC01D090A2
:100F3000CD01E090CE01F090CF0120E1C20E27E27A
:100F4000D21EE11CF11CC616D706E806F90640F4CD
:100F50001092DC011092DD011092DE011092DF018F
:100F600020E030E048E451E46091DC017091DD0163
:100F70008091DE019091DF010E94350E6B017C01B2
:100F800020E030E040EA50E4C701B6010E94940F2F
:100F9000609348027093490280934A0290934B02F7
:100FA00020E030E0A901C701B6010E94300E682F91
:100FB000661F6627661F81E10E94C01020E030EFA7
:100FC0004FE755E4609148027091490280914A02CE
:100FD00090914B020E94940F20E030E040EA50E4F0
:100FE0000E94350E0E94A70E9B0177FF04C02227A6
:100FF0003327261B370BB90180E00E947E12ECE5F7
:10100000F2E0B291A2919291829184839583A6831A
:10101000B78382E0E834F807A1F71F910F91FF90A2
:10102000EF90DF90CF900895FC0140815181628163
:101030007381448355836683778308954F925F92CB
:101040006F927F928F929F92AF92BF92CF92DF92D8
:10105000EF92FF921F93CF93DF93CDB7DEB7E19767
:101060000FB6F894DEBF0FBECDBF0E9423126E8F65
:101070007F8F88A399A38091080290910902A09183
:101080000A02B0910B024E8D5F8D68A179A1481BB9
:10109000590B6A0B7B0B8091300190913101A0E0DC
:1010A000B0E0481759076A077B0708F4EAC42E8D99
:1010B0003F8D48A159A12093080230930902409323
:1010C0000A0250930B02F8948091BA019091BB01EF
:1010D000A091BC01B091BD018AA39BA3ACA3BDA309
:1010E0007894F89480916C0190916D0182589109E7
:1010F00078942091150230911602DC01A21BB30BEB
:101100009D01B7FF03C03195219531092B31344042
:1011100024F4909316028093150280910C028F5F45
:10112000893C18F480930C0226C010920C02609146
:1011300015027091160280E090E00E94DD0E6B01B6
:101140007C016AA17BA18CA19DA10E94DF0E28E3F6
:101150003BED4CED5BE30E94940F9B01AC01C7019A
:10116000B6010E94C30D60930D0270930E0280932E
:101170000F02909310026AA17BA18CA19DA10E94F5
:10118000DF0E28E33BED4CED5BE30E94940F2091D2
:101190000D0230910E0240910F02509110020E94F8
:1011A000C40D6B017C016093780270937902809387
:1011B0007A0290937B0220917C0230917D024091D3
:1011C0007E0250917F022EA73FA748AB59AB4090BB
:1011D0003C0150903D0160903E0170903F01809134
:1011E000840290918502A0918602B0918702BC0191
:1011F000CD019058209110013091110140911201C0
:10120000509113010E94940F4B015C012091140135
:10121000309115014091160150911701609188029B
:101220007091890280918A0290918B020E94940FA2
:101230009B01AC01C501B4010E94C30D4B015C01CF
:1012400020917002309171024091720250917302AC
:101250006091040170910501809106019091070150
:101260000E94940F9B01AC01C501B4010E94C40D02
:101270004B015C012091740230917502409176021D
:1012800050917702609108017091090180910A01E3
:1012900090910B010E94940F9B01AC01C501B40118
:1012A0000E94C40D20910C0130910D0140910E015E
:1012B00050910F010E94350E6EA37FA388A799A7B6
:1012C00060938002709381028093820290938302E4
:1012D00080910302811124C08091D4019091D501A5
:1012E000A091D601B091D701805F984DAF4FBF4F0D
:1012F0002E8D3F8D48A159A182179307A407B507EA
:1013000020F41092E5011092E4016091E4017091E3
:10131000E501072E000C880B990B0E94DF0E25C2F9
:101320008091D8019091D901A091DA01B091DB01AF
:10133000805F984DAF4FBF4F2E8D3F8D48A159A173
:1013400082179307A407B50720F41092E7011092C3
:10135000E6016091E6017091E701072E000C880B11
:10136000990B0E94DF0E90586093400270934102E7
:1013700080934202909343028090440290904502F1
:10138000A0904602B09047022091110230911202C3
:1013900040911302509114022AA73BA74CA75DA7C6
:1013A000A50194010E94C30DA30192010E94350E74
:1013B0002AA53BA54CA55DA50E948F0F87FD10C0F7
:1013C0002AA53BA54CA55DA5C501B4010E94C40D8D
:1013D00060934002709341028093420290934302D3
:1013E000A7019601609140027091410280914202F2
:1013F000909143020E94C30D60932C0270932D02C2
:1014000080932E0290932F022091180130911901A0
:1014100040911A0150911B010E94940F20913C02AF
:1014200030913D0240913E0250913F020E94C40D16
:101430004B015C0120913002309131024091320227
:101440005091330260911C0170911D0180911E0129
:1014500090911F010E94940F9B01AC01C501B40142
:101460000E94C40D4B015C01209134023091350281
:101470004091360250913702609120017091210114
:1014800080912201909123010E94940F9B01AC0155
:10149000C501B4010E94C40D6093380270933902F3
:1014A00080933A0290933B022EA13FA148A559A5F3
:1014B0000E94C30D4B015C012EA53FA548A959A967
:1014C000C701B6010E94C30DA30192010E94350E0F
:1014D00020918C0230918D0240918E0250918F02AA
:1014E0000E94C30D9B01AC01C501B4010E94C30D54
:1014F0006093200270932102809322029093230232
:10150000209124013091250140912601509127011D
:101510000E94940F2091640230916502409166020E
:10152000509167020E94C40D6B017C01209124023E
:1015300030912502409126025091270260912801A6
:101540007091290180912A0190912B010E94940FA2
:101550009B01AC01C701B6010E94C40D6B017C0167
:10156000209128023091290240912A0250912B02A9
:1015700060912C0170912D0180912E0190912F018D
:101580000E94940F9B01AC01C701B6010E94C40DDB
:101590006B017C016091EE017091EF01072E000C50
:1015A000880B990B0E94DF0E9B01AC01C701B601AD
:1015B0000E94C40D6B017C016091F0017091F101FA
:1015C000072E000C880B990B0E94DF0E9B01AC01CB
:1015D000C701B6010E94C40D6B017C016091F2014C
:1015E0007091F301072E000C880B990B0E94DF0EFF
:1015F0009B01AC01C701B6010E94C40D6B017C01C7
:101600006091F4017091F501072E000C880B990B85
:101610000E94DF0E9B01AC01C701B6010E94C40D00
:101620006B017C010E9401104B015C0120E030E065
:101630004EE753E4C701B6010E948F0F181654F00D
:10164000C0926002D0926102E0926202F092630264
:1016500010E00DC080E090E0AEE7B3E4809360025C
:1016600090936102A0936202B093630211E020E0C4
:1016700030E04EE753EC609160027091610280911E
:101680006202909163020E94300E87FF0DC080E0DD
:1016900090E0AEE7B3EC8093600290936102A09378
:1016A0006202B093630202C0112329F1C501B401A3
:1016B0000E94A70E072E000C880B990B0E94DF0ECC
:1016C0009B01AC01609160027091610280916202A5
:1016D000909163020E94C30D22E733E44CE25EE383
:1016E0000E94350E609318027093190280931A02BB
:1016F00090931B0208C010921802109219021092C7
:101700001A0210921B0220911C0230911D0240917E
:101710001E0250911F02609118027091190280916F
:101720001A0290911B020E94C40DA30192010E9413
:10173000940F6B017C016091600270916102809155
:101740006202909163029B01AC010E94C40D9B0157
:10175000AC01C701B6010E94C40D20E030E040E0BA
:101760005FE30E94940F0E940110609360027093E7
:1017700061028093620290936302C0907802D090DD
:101780007902E0907A02F0907B02C701B6010E94D4
:10179000A70E9B0177FF04C022273327261B370B98
:1017A000B901330F880B990B0E94DF0E4B015C01CE
:1017B00040903201509033016090340170903501B7
:1017C000A30192010E948F0F87FD04C081E08093E6
:1017D000170215C020E030E048E452E4C301B20132
:1017E0000E94C30D9B01AC01C501B4010E94300EE3
:1017F00018162CF080911702811110921702809117
:1018000017028823C9F120E030E0A901C701B60121
:101810000E948F0F1816C4F420E030E0A9016091F7
:1018200060027091610280916202909163020E9455
:101830008F0F18164CF410926002109261021092F1
:1018400062021092630218C020E030E0A901C701D3
:10185000B6010E94300E87FF0FC020E030E0A901E2
:1018600060916002709161028091620290916302C6
:101870000E94300E87FDDFCF80E492E00E941408C2
:1018800088E192E00E941408809130029091310228
:10189000A0913202B09133028093340290933502CA
:1018A000A0933602B093370280912C0290912D02C2
:1018B000A0912E02B0912F028093300290933102BA
:1018C000A0933202B093330288E392E00E9414089E
:1018D0008091240290912502A0912602B0912702C6
:1018E0008093280290932902A0932A02B0932B029E
:1018F0008091200290912102A0912202B0912302B6
:101900008093240290932502A0932602B09327028D
:1019100088E792E00E941408ECE8F2E080E892E0A8
:101920007291629152914291448355836683778389
:101930008E179F07A9F7E4E7F2E080E692E0729144
:1019400062915291429144835583668377838E17C7
:101950009F07A9F7C0906002D0906102E0906202F8
:10196000F0906302C701B6010E94A70EAB0177FF9A
:1019700004C044275527461B570B61E082E00E94B4
:10198000E61411E020E030E0A901C701B6010E9491
:101990008F0F87FD10E0612F84E40E94C01089E65C
:1019A000898385E98A8388E18B8386E98D8F80919D
:1019B000CB018F5F8093CB0190913A01981708F08B
:1019C00060C01092CB018E8D9F8DA8A1B9A18C8390
:1019D0009D83AE83BF8360916002709161028091AC
:1019E0006202909163020E94A70E798768876091D6
:1019F00048027091490280914A0290914B020E94E4
:101A0000AE0E7B876A8780917B0190917C019D87D8
:101A10008C878091150290911602A0E0B0E08A8B2D
:101A20009B8BAC8BBD8B2AA13BA14CA15DA12E87CA
:101A30003F87488B598B6091780270917902809131
:101A40007A0290917B020E94A70E6E8B7F8B888F0B
:101A5000998F8091790190917A019B8F8A8FFE01F5
:101A600034969E01245E3F4F80E09191890F2E179E
:101A70003F07D9F78C8F6DE170E0CE0101960E948F
:101A80000416E1960FB6F894DEBF0FBECDBFDF910E
:101A9000CF911F91FF90EF90DF90CF90BF90AF90CC
:101AA0009F908F907F906F905F904F9008952091BE
:101AB0003C0130913D0140913E0150913F0160E079
:101AC00070E08AE793E40E94350E609311027093F0
:101AD000120280931302909314020895CF93DF9320
:101AE0001F92CDB7DEB71982CE0101960E94AB15C9
:101AF000882309F444C0E091AE029981E11106C047
:101B0000993621F01092AE028BEF2DC081E08E0F3E
:101B10008093AE02F0E0E057FD4F9083833020F3D6
:101B200090E040919202242F30E02B5F3F4F8217CC
:101B30009307D1F680579D4FFC01319720812639BC
:101B400009F7E3E9F2E060E020E0641721F0319169
:101B5000230F6F5FFACFFC0132978081281731F095
:101B60001092AE028AEF0E94FD02BECF43E952E01E
:101B7000809191020E941D031092AE02B5CF0F908A
:101B8000DF91CF9108955058BB27AA270E94DB0D03
:101B90000C94550F0E94470F38F00E944E0F20F012
:101BA00039F49F3F19F426F40C94440F0EF4E09599
:101BB000E7FB0C943E0FE92F0E94660F58F3BA170B
:101BC000620773078407950720F079F4A6F50C9453
:101BD000880F0EF4E0950B2EBA2FA02D0B01B90142
:101BE00090010C01CA01A0011124FF27591B99F093
:101BF000593F50F4503E68F11A16F040A22F232F9F
:101C0000342F4427585FF3CF469537952795A795EE
:101C1000F0405395C9F77EF41F16BA0B620B730B95
:101C2000840BBAF09150A1F0FF0FBB1F661F771F06
:101C3000881FC2F70EC0BA0F621F731F841F48F4BB
:101C4000879577956795B795F7959E3F08F0B0CF44
:101C50009395880F08F09927EE0F9795879508952B
:101C60000E941A0F08F481E008950E94490E0C9416
:101C7000550F0E944E0F58F00E94470F40F029F474
:101C80005F3F29F00C943E0F51110C94890F0C9476
:101C9000440F0E94660F68F39923B1F3552391F323
:101CA000951B550BBB27AA2762177307840738F0CB
:101CB0009F5F5F4F220F331F441FAA1FA9F335D028
:101CC0000E2E3AF0E0E832D091505040E695001CDC
:101CD000CAF72BD0FE2F29D0660F771F881FBB1F96
:101CE000261737074807AB07B0E809F0BB0B802D74
:101CF000BF01FF2793585F4F3AF09E3F510578F0A0
:101D00000C943E0F0C94890F5F3FE4F3983ED4F39C
:101D1000869577956795B795F7959F5FC9F7880F73
:101D2000911D9695879597F90895E1E0660F771FC5
:101D3000881FBB1F621773078407BA0720F0621B56
:101D4000730B840BBA0BEE1F88F7E09508950E9481
:101D5000AE0E6894B1110C94890F08950E946E0F15
:101D600088F09F5798F0B92F9927B751B0F0E1F05C
:101D7000660F771F881F991F1AF0BA95C9F714C00C
:101D8000B13091F00E94880FB1E008950C94880F53
:101D9000672F782F8827B85F39F0B93FCCF3869545
:101DA00077956795B395D9F73EF4909580957095A2
:101DB00061957F4F8F4F9F4F0895E89409C097FB1F
:101DC0003EF490958095709561957F4F8F4F9F4F12
:101DD0009923A9F0F92F96E9BB279395F695879556
:101DE00077956795B795F111F8CFFAF4BB0F11F419
:101DF00060FF1BC06F5F7F4F8F4F9F4F16C08823C0
:101E000011F096E911C0772321F09EE8872F762FF5
:101E100005C0662371F096E8862F70E060E02AF036
:101E20009A95660F771F881FDAF7880F9695879522
:101E300097F90895990F0008550FAA0BE0E8FEEFF7
:101E400016161706E807F907C0F012161306E4077E
:101E5000F50798F0621B730B840B950B39F40A2677
:101E600061F0232B242B252B21F408950A2609F455
:101E7000A140A6958FEF811D811D089597F99F6759
:101E800080E870E060E008959FEF80EC0895002402
:101E90000A941616170618060906089500240A94CF
:101EA00012161306140605060895092E0394000C55
:101EB00011F4882352F0BB0F40F4BF2B11F460FFE4
:101EC00004C06F5F7F4F8F4F9F4F089557FD90580D
:101ED000440F551F59F05F3F71F04795880F97FBEE
:101EE000991F61F09F3F79F08795089512161306A8
:101EF0001406551FF2CF4695F1DF08C016161706D7
:101F00001806991FF1CF869571056105089408950B
:101F1000E894BB2766277727CB0197F908950E949D
:101F20001A0F08F48FEF08950E94A70F0C94550F15
:101F30000E94470F38F00E944E0F20F0952311F0B9
:101F40000C943E0F0C94440F11240C94890F0E94A2
:101F5000660F70F3959FC1F3950F50E0551F629F78
:101F6000F001729FBB27F00DB11D639FAA27F00DF2
:101F7000B11DAA1F649F6627B00DA11D661F829F19
:101F80002227B00DA11D621F739FB00DA11D621FFE
:101F9000839FA00D611D221F749F3327A00D611D1B
:101FA000231F849F600D211D822F762F6A2F1124FD
:101FB0009F5750409AF0F1F088234AF0EE0FFF1F30
:101FC000BB1F661F771F881F91505040A9F79E3F87
:101FD000510580F00C943E0F0C94890F5F3FE4F3A1
:101FE000983ED4F3869577956795B795F795E795DD
:101FF0009F5FC1F7FE2B880F911D9695879597F9E6
:1020000008950E946E0FE8F09E37E8F09639B8F414
:102010009E3848F4672F782F8827985FF9CF8695E8
:102020007795679593959539D0F3B62FB1706B0F6F
:10203000711D811D20F487957795679593950C9474
:1020400025100C9440100C94890F882371F4772389
:1020500021F09850872B762F07C0662311F499271B
:102060000DC09051862B70E060E02AF09A95660FC3
:10207000771F881FDAF7880F9695879597F9089547
:102080009F3F31F0915020F4879577956795B795EC
:10209000880F911D9695879597F90895882349F0A3
:1020A00080917C00806480937C0080917C008F67AD
:1020B00008C080917C00806480937C0080917C00CB
:1020C0008F7780937C0080917A00876080937A007C
:1020D00080917A00806880937A00089590917C00C6
:1020E000907F892B80937C0080917A00806480931C
:1020F0007A0080917A0086FDFCCF809178009091E3
:1021000079000895CF93DF93882309F436C0282FF0
:1021100022952F7091F18F7041E050E0FA0102C0DA
:10212000EE0FFF1F8A95E2F7CF0130E0220F331F39
:10213000F901E057FF4FA591B491F901EA57FF4F1C
:10214000C591D4912FB7F894613099F050F0623076
:1021500099F49C91382F309593239C939881892BE7
:1021600006C09C91809598239C93988189238883AD
:1021700003C09C91892B8C932FBFDF91CF91089541
:102180008823F1F0E82FE295EF70D1F0282F2F701F
:1021900081E090E001C0880F2A95EAF7F0E0EE0FA9
:1021A000FF1FEA57FF4FA591B4912FB7F8949C9168
:1021B000662311F0892B02C0809589238C932FBF51
:1021C00008958823C1F0E82FE295EF70A1F0F0E0C8
:1021D000EE0FFF1FE458FF4FA591B4913C91282FBB
:1021E0002F7081E090E001C0880F2A95EAF7932FC5
:1021F000982381E009F480E008951F920F920FB6B2
:102200000F9211242F933F934F935F936F937F937C
:102210008F939F93AF93BF93EF93FF93E091AF02A0
:10222000F091B002309709F00995FF91EF91BF91BD
:10223000AF919F918F917F916F915F914F913F915E
:102240002F910F900FBE0F901F9018951F920F9215
:102250000FB60F9211242F933F934F935F936F9379
:102260007F938F939F93AF93BF93EF93FF93E091EF
:10227000B102F091B202309709F00995FF91EF9108
:10228000BF91AF919F918F917F916F915F914F918E
:102290003F912F910F900FBE0F901F9018951F9296
:1022A0000F920FB60F9211242F933F934F935F938A
:1022B0006F937F938F939F93AF93BF93EF93FF930E
:1022C000E091B302F091B402309709F00995FF91C3
:1022D000EF91BF91AF919F918F917F916F915F919E
:1022E0004F913F912F910F900FBE0F901F90189517
:1022F000823441F0833421F08232B9F582E003C0A8
:1023000081E001C080E09DB3E82FF0E021E030E003
:1023100001C0220F8A95EAF7822F809589238DBB11
:10232000EE0FFF1FDF01A155BD4F6D937C933091E0
:10233000690083E090E00E2E01C0880F0A94EAF74E
:10234000809583238093690090916900842F837026
:10235000482F01C0440FEA95EAF7492B40936900E2
:102360008DB3282B2DBB81E0089580E0089561E0B6
:1023700085E40E94821060E085E40C94C01061E066
:1023800085E40E94821061E085E40C94C010EF9215
:10239000FF920F931F93CF93DF937C018B01C0E0DB
:1023A000D0E0CE15DF051CF51C161D066CF480E090
:1023B00090E00817190741F0E7E8F3E13197F1F7EA
:1023C00000C000000196F5CF0E94B71180E090E0B8
:1023D0000817190741F0E7E8F3E13197F1F700C07A
:1023E00000000196F5CF0E94BF112196DACFDF9150
:1023F000CF911F910F91FF90EF9008951F920F9230
:102400000FB60F9211248F939F93AF93BF93809138
:10241000B5029091B602A091B702B091B8020196B0
:10242000A11DB11D8093B5029093B602A093B7028F
:10243000B093B802BF91AF919F918F910F900FBE53
:102440000F901F9018952FB7F8946091B502709176
:10245000B6028091B7029091B8022FBF08951092F2
:10246000B5021092B6021092B7021092B80289EF2C
:1024700090E090938900809388008AE080938100A7
:10248000EFE6F0E08081826080830895CF93DF9350
:10249000EC010E94611560E08091B9020E94C010B9
:1024A00086E08A95F1F700C0CE010E94681586E0AB
:1024B0008A95F1F700C061E08091B9020E94C010D6
:1024C000DF91CF910C9485158093B9020E942E154F
:1024D00020E041E060E072E18AE790E00E94FF14B2
:1024E00061E08091B9020E94C01061E08091B90260
:1024F0000E94821080E090E80C9446127F70706316
:1025000090E090E4899F902D88271124862B972BAB
:102510000C944612E82F082E000CFF0BF093470195
:10252000E0934601062E000C770B709345016093F3
:102530004401042E000C550B50934301409342017B
:1025400030934101209340011E161F06FCF416161D
:102550001706E4F414161506CCF461E00E9482100C
:1025600061E0809144010E94821060E0809142010C
:102570000E94821061E0809144010E94C01061E0DD
:10258000809146010E94C01081E0089580E0089586
:102590000F931F93CF93DF9361E0809146010E94D8
:1025A000821061E0809144010E94821060E080917D
:1025B00042010E94821060E0809146010E94C0109A
:1025C00086E08A95F1F700C086E08A95F1F700C0B1
:1025D00000E110E0C0E0D0E060E0809144010E94A2
:1025E000C01086E08A95F1F700C061E08091440157
:1025F0000E94C01086E08A95F1F700C0CC0FDD1F65
:10260000809142010E94E1108111C16001501109C5
:1026100019F761E0809146010E94C010CE01DF9160
:10262000CF911F910F9108958091BB028823F9F0FB
:10263000E091BD02EE0FFF0BE458FF4FA591B4915E
:102640002C918091BC0230E0082E000C990B822363
:102650009323892B61F08091C1029091C202A091D5
:10266000C302B091C4020197A109B1090BC08091C6
:10267000C1029091C202A091C302B091C40201961E
:10268000A11DB11D8093C1029093C202A093C30209
:10269000B093C4028091BE028823D9F0E091C002B9
:1026A000EE0FFF0BE458FF4FA591B4912C91809150
:1026B000BF0230E0082E000C990B82239323892B54
:1026C00041F01092C1021092C2021092C302109205
:1026D000C40208958091C6028823F9F0E091C802EF
:1026E000EE0FFF0BE458FF4FA591B4912C91809110
:1026F000C70230E0082E000C990B82239323892B0C
:1027000061F08091CC029091CD02A091CE02B09167
:10271000CF020197A109B1090BC08091CC02909121
:10272000CD02A091CE02B091CF020196A11DB11DA4
:102730008093CC029093CD02A093CE02B093CF02AF
:102740008091C9028823D9F0E091CB02EE0FFF0BF4
:10275000E458FF4FA591B4912C918091CA0230E0CA
:10276000082E000C990B82239323892B41F01092A1
:10277000CC021092CD021092CE021092CF02089598
:10278000BF92CF92DF92EF92FF920F931F93CF935E
:10279000DF93CDB7DEB72B970FB6F894DEBF0FBE31
:1027A000CDBF823008F086C0082F10E019821A824F
:1027B0001B821C821D821E821F82188619861A8621
:1027C0001B868BE0809FF001819FF00D1124DF01BB
:1027D000A654BD4F7D01FE01319601900D928A9560
:1027E000E1F7F7016083662309F464C0C22ED42E9A
:1027F000B62E62E08B2D0E948210DD20D1F062E0C7
:102800008D2D0E9482102D2D2F7081E090E001C04F
:10281000880F2A95EAF7D70112968C931297D294D3
:102820002FE0D2221396DC92139781E011968C93BD
:1028300002C0F7011182CC20C1F02C2D2F7081E055
:1028400090E001C0880F2A95EAF79BE0909FF00185
:10285000919FF00D1124E654FD4F8583C2949FE0B3
:10286000C922C68281E084830BC08BE0809FF00187
:10287000819FF00D1124E654FD4F148216821582BB
:10288000000F111FF801E85BFE4F6081718143E08A
:102890008B2D2B960FB6F894DEBF0FBECDBFDF9108
:1028A000CF911F910F91FF90EF90DF90CF90BF904D
:1028B0000C9478112B960FB6F894DEBF0FBECDBFE7
:1028C000DF91CF911F910F91FF90EF90DF90CF900C
:1028D000BF900895EAEBF2E0108211821282138217
:1028E000148215821682178210861186128613862C
:1028F0001486158616861786108A118A128A138AFC
:10290000148A158A0895813061F028F0823079F0B8
:10291000833099F018C06623C1F06130A1F484E2DD
:1029200008956623A1F0613071F484E4089566236C
:1029300081F0613041F486E40895662361F06130EE
:1029400011F487E2089580E0089583E2089585E414
:10295000089587E4089586E208950F931F93CF9317
:10296000DF93D82FC62F60E00E948314082F61E008
:102970008D2F0E948314182F60E0802F0E94C010BA
:1029800061E0802F0E94821060E0812F0E94C010C1
:1029900061E0812F0E948210DD2369F0D23089F43A
:1029A0001092B3001092B40081EA8093B000C3701B
:1029B000C093B10006C017BC18BC81EA84BDC370C7
:1029C000C5BDDF91CF911F910F910895882319F014
:1029D000823051F00895662319F0613019F008959E
:1029E00047BD089548BD0895662319F0613021F070
:1029F00008954093B30008954093B4000895CF9292
:102A0000DF92EF92FF92E0E8CE2EE6E9DE2EE8E9D3
:102A1000EE2EF12C30E06C157D058E059F0540F4FF
:102A2000F694E794D794C7943F5F3630A1F737E028
:102A300081E08327442311F090E501C090E72C70DA
:102A4000382F3695232B292B2093D1028170809328
:102A5000D002FF90EF90DF90CF900895CF93CFB743
:102A6000F8948091D20281111DC0E4E9F0E0A591B3
:102A7000B4918C9184FD04C061E084E20E94C01096
:102A800061E084E20E9482108CB580618CBD8CB5BF
:102A900080648CBD61E087E20E94821061E085E283
:102AA0000E9482108091D2028F5F8093D202CFBFAA
:102AB00020E041E060E079E08DE390E0CF910C947C
:102AC000FF148091D1028CBD8091D0028DBD0895FC
:102AD0000CB405FC0DC09EBD00000DB407FEFDCF7B
:102AE0009EB58EBD00000DB407FEFDCF8EB50895D6
:102AF0008EBD00000DB407FEFDCF8EB59EBD00005B
:102B00000DB407FEFDCF9EB5089508951F920F9254
:102B10000FB60F9211242F938F939F93EF93FF93F0
:102B20009091C600E091140381E08E0F8F73209185
:102B30001303821731F0F0E0ED52FD4F9083809344
:102B40001403FF91EF919F918F912F910F900FBEE2
:102B50000F901F901895E091130320911403E21732
:102B600089F021E02E0F20931303F0E0ED52FD4F8A
:102B70002081FC012083809113038F7380931303C2
:102B800081E0089580E00895EF920F93CF93DF9353
:102B9000C42FD22F9B01AC0183E0220F331F441FAF
:102BA000551F8A95D1F760E07DE281E391E00E94B4
:102BB0001D162150310982E08093C000DD2311F001
:102BC00080E901C080E8011188608093C100C37072
:102BD00080E1C89FA0011124842F8668EE2011F0A7
:102BE000842F8E688093C2003093C5002093C40068
:102BF000DF91CF910F91EF9008959091C00095FFD4
:102C0000FCCF8093C60008950F931F93CF93DF935B
:102C1000EC018C01060F171FC017D10721F0899115
:102C20000E94FD15F9CFDF91CF911F910F9108956B
:102C300010921303109214030895A1E21A2EAA1BF6
:102C4000BB1BFD010DC0AA1FBB1FEE1FFF1FA2175C
:102C5000B307E407F50720F0A21BB30BE40BF50B59
:102C6000661F771F881F991F1A9469F760957095E2
:102C7000809590959B01AC01BD01CF010895EE0FA9
:0E2C8000FF1F0590F491E02D0994F894FFCF0A
:102C8E00D0078813226C983E000000000000803FA1
:102C9E00EFC933BF00000000D88137409C3336C0E7
:102CAE00000000003C4E91BECC5D4B3E000000008B
:102CBE00F4010000AF440A0A10270A0A0AD7233C7F
:0C2CCE00D00712001100100014136A134C
:00000001FF
