:100000000C9452000C94560F0C947F0F0C94A80F74
:100010000C947A000C947A000C947A000C947A0078
:100020000C947A000C947A000C947A000C947A0068
:100030000C947A000C9457100C947A000C947A006B
:100040000C947A000C947A000C947A000C947A0048
:100050000C9463130C947A000C947A000C947A003C
:100060000C947A000C947A000C947A000C947A0028
:100070000C947A000C947A000C947A000000200012
:1000800023002600290000002200250028002B0064
:1000900000002100240027002A009101B204B00BC7
:1000A000A912F51311241FBECFEFD4E0DEBFCDBFE0
:1000B00011E0A0E0B1E0E8E4F8E202C005900D92A2
:1000C000AC34B107D9F722E0ACE4B1E001C01D9235
:1000D000A43DB207E1F710E0C2E5D0E004C02197EB
:1000E000FE010E941C14CD34D107C9F70E945801AB
:1000F0000C9422140C940000CF92DF92EF92FF92A6
:100100000F931F93C0905F01D0906001E090610158
:10011000F0906201C60ED71EE81EF91EC0925F0164
:10012000D0926001E0926101F092620100915B0166
:1001300010915C0120915D0130915E010617170757
:100140002807390740F460935B0170935C0180934A
:100150005D0190935E01009157011091580120912B
:10016000590130915A01601771078207930740F4D3
:1001700060935701709358018093590190935A01ED
:1001800080914C0190914D01A0914E01B0914F0191
:100190000196A11DB11D80934C0190934D01A09338
:1001A0004E01B0934F01209138013091390140E068
:1001B00050E0281739074A075B0708F072C0109211
:1001C0004C0110924D0110924E0110924F01C70147
:1001D000B6010E94FA1320935F01309360014093AF
:1001E0006101509362010E947C10609353017093EF
:1001F0005401809355019093560120915201E0E5FE
:10020000F1E080E030E0AF01405551404217530724
:1002100020F49381890F3196F6CF80936501CC2429
:10022000CA94DC2C7601C0925701D0925801E0921A
:100230005901F0925A0110925F01109260011092E0
:1002400061011092620110925B0110925C011092A8
:100250005D0110925E01109264011092630167E1EA
:1002600070E080E591E00E94E113C0925701D092C6
:100270005801E0925901F0925A0110925F011092D8
:100280006001109261011092620110925B01109264
:100290005C0110925D0110925E0110926401109257
:1002A00063011F910F91FF90EF90DF90CF90089521
:1002B000E12C01E021E040E060E271EA87E090E0BB
:1002C0000E94A1130E948810789464E670E083E095
:1002D00090E00E94201080E00E9405060E948F0599
:1002E0000E947C104B015C010E94C70B0E945002CF
:1002F0000E94E8040E949C010E9484060E942D0432
:100300000E947C106B017C01C818D908EA08FB0820
:100310000E947C104B015C01C701B6010E947C0069
:10032000E3CFE0E5F1E089E6808380EA818382E142
:10033000828386E9868B0895CF92DF92EF92FF92B7
:10034000CF93DF93CDB7DEB72C970FB6F894DEBF0F
:100350000FBECDBF80916F01882309F464C00E9455
:100360007C106B017C018091700190917101A091D2
:100370007201B0917301B701A601481B590B6A0BBA
:100380007B0B8091400190914101A0E0B0E04817C3
:1003900059076A077B0708F446C0C0927001D092E3
:1003A0007101E0927201F09273010E94071129E637
:1003B000298324E92A8327E02B8326E92C872091AF
:1003C00067012F5F2093670130913701321710F5D5
:1003D00010926701CC82DD82EE82FF829C0196E062
:1003E000369527959A95E1F7398728878F738A87FD
:1003F000FE0134969E01255F3F4F80E09191890F69
:10040000E217F307D9F78B876CE070E0CE01019615
:100410000E94E11387E0FE013496A8E6B1E0019066
:100420000D928A95E1F72C960FB6F894DEBF0FBEB9
:10043000CDBFDF91CF91FF90EF90DF90CF900895E7
:10044000CF93DF93DC0110929501EDE8F1E0EC0130
:1004500090E01082899187FD02C080839F5F319672
:1004600081E0E539F807A9F79093950118962D9149
:100470003C9119973093010120930001992351F089
:1004800081E01A969C91911101C080E0DF91CF919B
:100490000C94A70EDF91CF910895109295010895C5
:1004A000CF92DF92EF92FF920F931F93CF93DF9340
:1004B000CDB7DEB769970FB6F894DEBF0FBECDBFDC
:1004C00080919501882309F484C00E947C100091DA
:1004D000890110918A0120918B0130918C016B016F
:1004E0007C01C01AD10AE20AF30A97018601409101
:1004F0000001509101016A01E12CF12C0C151D0540
:100500002E053F0508F465C06093890170938A0148
:1005100080938B0190938C0189E6898382E98A8399
:1005200084E18B8386E9898FFE013896CE01489657
:1005300011921192E817F907D9F7F12C80919501E2
:10054000F816B0F40F2D10E0F801E357FE4F80814C
:100550000E94C70EF8013296EE0FFF1F21E030E037
:100560002C0F3D1FE20FF31F94838383F394E6CF98
:10057000809174018F5F8093740190913601981778
:10058000E8F4109274010E947C106C837D838E834A
:100590009F834B81CE010196FC0120E050E0BF011A
:1005A000681B790B6417750720F43381230F31968C
:1005B000F6CF288F69E170E00E94E113F89484E19E
:1005C000FE013496A5E7B1E001900D928A95E1F71E
:1005D000789469960FB6F894DEBF0FBECDBFDF9159
:1005E000CF911F910F91FF90EF90DF90CF900895E2
:1005F000CF93DF9300D000D01F92CDB7DEB7FE01BE
:10060000319695E0DF011D929A95E9F799E6998375
:1006100096E99D838A8365E070E0CF010E94E11333
:100620000F900F900F900F900F90DF91CF91089542
:100630000F931F93CF93DF93CDB7DEB7E4970FB639
:10064000F894DEBF0FBECDBF162FFA01813309F437
:1006500098C098F4823109F43EC028F4882329F127
:10066000813139F1ECC0813209F471C0803309F471
:1006700075C0803209F0E3C052C0813509F4AFC0C3
:1006800050F4813409F4A1C0803509F4A2C080344B
:1006900009F0D5C088C0843509F4B6C0873509F49F
:1006A000BAC0833509F0CBC0A8C06111B6C080E7DD
:1006B000C7C0623009F0B1C01081018161E0812FB3
:1006C0000E94DB0E61E0011101C060E0812F0E94F9
:1006D000190F81E8B5C0613009F09FC0008160E06A
:1006E000802F0E94DB0E802F0E943A0F982FFE0170
:1006F000319687E0DF011D928A95E9F789E68983C3
:1007000082E88A831B8386E98F830C839D83900F05
:100710009E8367E070E0CF010E94E11393C06B30CD
:1007200009F07BC0DE0111969E01275F3F4FCD018E
:100730004FEF4D932A173B07E1F72BE0DC010190C7
:100740000D922A95E1F70E94200280E979C061307C
:1007500009F063C00E944D0281E972C0683009F05F
:100760005CC088E0DE01119601900D928A95E1F758
:10077000CE0101960E94CD0481E08093C50180EAFC
:100780005FC084EC99E098878F831D821B82198259
:100790001E821C821A82CE0101960E94CD04109204
:1007A000C50181EA4DC06530C1F5238134814281A4
:1007B000618180810E94C910882329F081E08093A3
:1007C0006F0180EB3DC08CEF3BC010926F0181EB5D
:1007D00037C0623011F580810E94050633C0643352
:1007E000E1F484E3DE01119601900D928A95E1F720
:1007F000CE0101960E94080625C0623071F4808106
:1008000091810E946B061EC0623039F48081918113
:100810000E945C0617C0663011F08DEF11C086E0B3
:10082000DE01119601900D928A95E1F749815A8176
:100830006B817C818D819E810E94E60503C08EEFD5
:100840000E94F802E4960FB6F894DEBF0FBECDBF4B
:10085000DF91CF911F910F910895CF92DF92EF9288
:10086000FF920F931F93CF93DF930E947C106B0135
:100870007C018091A30181110CC080919A01882391
:1008800009F467C010929A0106E911E0C0E0D1E0D6
:1008900056C01092A30106E911E0C0E0D1E0F801D2
:1008A00086859785A089B1890097A105B105F1F0EA
:1008B000D093A301B701A601481B590B6A0B7B0B10
:1008C0008091960190919701A0919801B091990122
:1008D00084179507A607B70748F416861786108A67
:1008E000118A60E070E08C2F0E94BD10CF5F0C5F1A
:1008F0001F4FC430A1F6C1CFD0939A01B701A60112
:10090000481B590B6A0B7B0B8091960190919701C4
:10091000A0919801B091990184179507A607B70790
:1009200048F4158216821782108640E06C2F80E012
:100930000E942513CF5F0C5F1F4FC23051F0F801AA
:1009400085819681A781B0850097A105B10591F3B6
:10095000D3CFDF91CF911F910F91FF90EF90DF9058
:10096000CF900895E6E9F1E088EE93E0A0E0B0E0F2
:1009700080839183A283B3831482158688E0EBE998
:10098000F1E0DF011D928A95E9F780E1E4EAF1E008
:10099000DF011D928A95E9F70895CF93DF93EC016B
:1009A0008E819F8190930301809302012C814A8163
:1009B000688180E00E94FF112D814B81698181E077
:1009C0000E94FF1181E08093C501DF91CF910895CE
:1009D000CF92DF92EF92FF920F931F93CF93DF930B
:1009E000CDB7DEB765970FB6F894DEBF0FBECDBFAB
:1009F0008091C501882309F483C00E947C10009176
:100A0000C6011091C7012091C8013091C9016B0145
:100A10007C01C01AD10AE20AF30A970186014091CB
:100A20000201509103016A01E12CF12C0C151D0506
:100A30002E053F0508F464C06093C6017093C7019A
:100A40008093C8019093C90189E6898383E98A83E9
:100A500080E18B8386E98D8B8FB7F894409181027A
:100A60005091820260918302709184024887598775
:100A70006A877B8740918C0250918D0260918E0233
:100A800070918F024C875D876E877F878FBF0E9432
:100A90007C106C837D838E839F8380910201909173
:100AA0000301A0E0B0E0888B998BAA8BBB8B80916F
:100AB000B4018F5F8093B40190913B019817B8F413
:100AC0001092B4014B81CE010196FC0120E050E070
:100AD000BF01681B790B6417750720F43381230F5E
:100AE0003196F6CF2C8B65E170E00E94E11380E136
:100AF000FE013496A5EBB1E001900D928A95E1F7E5
:100B000065960FB6F894DEBF0FBECDBFDF91CF91D3
:100B10001F910F91FF90EF90DF90CF900895CF93AA
:100B2000DF93CDB7DEB72B970FB6F894DEBF0FBEBD
:100B3000CDBF1D821E821C821A8282E4898383E4D7
:100B40008B8388EE93E098878F83CE0101960E9475
:100B5000CD041B86FE013196CE0109962FEF21931D
:100B60008E179F07E1F7198282E08A8388EE93E06F
:100B70009A878987CE0101960E94200224E630E000
:100B800042E261E280E20E94C91081E080936F013D
:100B900061E086E40E94DB0E61E082E00E94EC12DC
:100BA00040E061E082E00E94251361E084E40E945D
:100BB000DB0E60E084E40E94190F2B960FB6F894C8
:100BC000DEBF0FBECDBFDF91CF910895CF93DF93EE
:100BD00000D000D000D0CDB7DEB749835A836B83F5
:100BE0007C838D839E8386E0FE013196A6E3B1E08F
:100BF00001900D928A95E1F726960FB6F894DEBF24
:100C00000FBECDBFDF91CF9108958093DF0108958E
:100C10000F931F93CF93DF93FC01DC0184E291E0FB
:100C200008E111E09F01245F3F4F4D915D916D916F
:100C30007D91EC014993599369937993CE0118966C
:100C40004D915D916D917C911B97E801499359936A
:100C5000699379938E01A217B30739F7DF0158968C
:100C6000C4E0D1E0CF018C964D915D916D917D9165
:100C70004993599369937993A817B907A9F780A95C
:100C800091A99093D8018093D70184A595A59093BD
:100C9000DC018093DB0182A993A99093DA01809310
:100CA000D90186A597A59093DE018093DD01DF91A0
:100CB000CF911F910F9108959093D4018093D30108
:100CC0000E947C106093CB017093CC018093CD0186
:100CD0009093CE0108959093D6018093D5010E9400
:100CE0007C106093CF017093D0018093D1019093D9
:100CF000D2010895FC014081518162817381448356
:100D000055836683778308954F925F926F927F92A7
:100D10008F929F92AF92BF92CF92DF92EF92FF920B
:100D20001F93CF93DF93CDB7DEB7E1970FB6F8945B
:100D3000DEBF0FBECDBF0E947C106E8F7F8F88A359
:100D400099A38091E0019091E101A091E201B0911D
:100D5000E3014E8D5F8D68A179A1481B590B6A0B89
:100D60007B0B8091300190913101A0E0B0E04817F9
:100D700059076A077B0708F4DDC42E8D3F8D48A113
:100D800059A12093E0013093E1014093E201509397
:100D9000E301F8948091B9019091BA01A091BB014F
:100DA000B091BC018AA39BA3ACA3BDA37894F89493
:100DB00080916C0190916D018258910978942091F5
:100DC000ED013091EE01DC01A21BB30B9D01273E2A
:100DD000BBEF3B073CF02A31344024F49093EE0102
:100DE0008093ED018091E4018F5F893C18F480933A
:100DF000E40126C01092E4016091ED017091EE01D2
:100E000080E090E00E94360D6B017C016AA17BA11D
:100E10008CA19DA10E94380D28E33BED4CED5BE3D6
:100E20000E94ED0D9B01AC01C701B6010E941C0C94
:100E30006093E5017093E6018093E7019093E801E8
:100E40006AA17BA18CA19DA10E94380D28E33BEDF6
:100E50004CED5BE30E94ED0D2091E5013091E60140
:100E60004091E7015091E8010E941D0C6B017C014B
:100E7000609338027093390280933A0290933B0258
:100E800080913C0290913D02A0913E02B0913F02C0
:100E90008EA79FA7A8ABB9AB40903C0150903D01F5
:100EA00060903E0170903F01809144029091450214
:100EB000A0914602B0914702BC01CD01905820910B
:100EC00010013091110140911201509113010E94C3
:100ED000ED0D4B015C012091140130911501409101
:100EE000160150911701609148027091490280915A
:100EF0004A0290914B020E94ED0D9B01AC01C5018D
:100F0000B4010E941C0C4B015C0120913002309115
:100F1000310240913202509133026091040170918C
:100F2000050180910601909107010E94ED0D9B0142
:100F3000AC01C501B4010E941D0C4B015C01209164
:100F4000340230913502409136025091370260915F
:100F500008017091090180910A0190910B010E9492
:100F6000ED0D9B01AC01C501B4010E941D0C209147
:100F70000C0130910D0140910E0150910F010E9422
:100F80008E0C6EA37FA388A799A7609340027093ED
:100F9000410280934202909343028091DF018111CC
:100FA00024C08091CB019091CC01A091CD01B09152
:100FB000CE01805F984DAF4FBF4F2E8D3F8D48A122
:100FC00059A182179307A407B50720F41092D40102
:100FD0001092D3016091D3017091D401072E000CBF
:100FE000880B990B0E94380D25C28091CF019091FA
:100FF000D001A091D101B091D201805F984DAF4F47
:10100000BF4F2E8D3F8D48A159A182179307A4078A
:10101000B50720F41092D6011092D5016091D50148
:101020007091D601072E000C880B990B0E94380D89
:101030009058609318027093190280931A0290934B
:101040001B0280901C0290901D02A0901E02B09086
:101050001F022091E9013091EA014091EB0150918A
:10106000EC012AA73BA74CA75DA7A50194010E940C
:101070001C0CA30192010E948E0C2AA53BA54CA535
:101080005DA50E94E80D87FD10C02AA53BA54CA5D3
:101090005DA5C501B4010E941D0C609318027093F8
:1010A000190280931A0290931B02A7019601609186
:1010B00018027091190280911A0290911B020E94ED
:1010C0001C0C6093040270930502809306029093B7
:1010D0000702209118013091190140911A01509195
:1010E0001B010E94ED0D20911402309115024091D8
:1010F0001602509117020E941D0C4B015C012091B9
:1011000008023091090240910A0250910B0260914D
:101110001C0170911D0180911E0190911F010E9480
:10112000ED0D9B01AC01C501B4010E941D0C4B01EA
:101130005C0120910C0230910D0240910E02509101
:101140000F02609120017091210180912201909104
:1011500023010E94ED0D9B01AC01C501B4010E9469
:101160001D0C6093100270931102809312029093F1
:1011700013022EA13FA148A559A50E941C0C4B01AA
:101180005C012EA53FA548A959A9C701B6010E9437
:101190001C0CA30192010E948E0C20914C023091F4
:1011A0004D0240914E0250914F020E941C0C9B0137
:1011B000AC01C501B4010E941C0C6093F80170934E
:1011C000F9018093FA019093FB0120912401309161
:1011D000250140912601509127010E94ED0D20919B
:1011E00024023091250240912602509127020E944C
:1011F0001D0C6B017C012091FC013091FD0140919F
:10120000FE015091FF0160912801709129018091A8
:101210002A0190912B010E94ED0D9B01AC01C701A9
:10122000B6010E941D0C6B017C01209100023091DF
:101230000102409102025091030260912C017091D1
:101240002D0180912E0190912F010E94ED0D9B01A7
:10125000AC01C701B6010E941D0C6B017C016091BD
:10126000D7017091D801072E000C880B990B0E94B2
:10127000380D9B01AC01C701B6010E941D0C6B012A
:101280007C016091D9017091DA01072E000C880B66
:10129000990B0E94380D9B01AC01C701B6010E9459
:1012A0001D0C6B017C016091DB017091DC01072E4C
:1012B000000C880B990B0E94380D9B01AC01C701F3
:1012C000B6010E941D0C6B017C016091DD017091E3
:1012D000DE01072E000C880B990B0E94380D9B0134
:1012E000AC01C701B6010E941D0C6B017C010E947C
:1012F0005A0E4B015C0120E030E04EE753E4C70199
:10130000B6010E94E80D181654F0C0922002D09247
:101310002102E0922202F092230210E00DC080E050
:1013200090E0AEE7B3E48093200290932102A09373
:101330002202B093230211E020E030E04EE753ECAC
:1013400060912002709121028091220290912302EB
:101350000E94890C87FF0DC080E090E0AEE7B3ECFF
:101360008093200290932102A0932202B093230243
:1013700002C0112329F1C501B4010E94000D072EFE
:10138000000C880B990B0E94380D9B01AC016091F9
:1013900020027091210280912202909123020E94EA
:1013A0001C0C22E733E44CE25EE30E948E0C609357
:1013B000F0017093F1018093F2019093F30108C062
:1013C0001092F0011092F1011092F2011092F301CB
:1013D0002091F4013091F5014091F6015091F7010F
:1013E0006091F0017091F1018091F2019091F3010F
:1013F0000E941D0CA30192010E94ED0D6B017C0166
:10140000609120027091210280912202909123022A
:101410009B01AC010E941D0C9B01AC01C701B601F0
:101420000E941D0C20E030E040E05FE30E94ED0DE3
:101430000E945A0E60932002709321028093220230
:1014400090932302C0903802D0903902E0903A0283
:10145000F0903B02C701B6010E94000D9B0177FF8F
:1014600004C022273327261B370BB901330F880B03
:10147000990B0E94380D4B015C0140903201509055
:1014800033016090340170903501A30192010E94F4
:10149000E80D87FD04C081E08093EF0115C020E0D6
:1014A00030E048E452E4C301B2010E941C0C9B01ED
:1014B000AC01C501B4010E94890C18162CF0809172
:1014C000EF0181111092EF018091EF018823C9F1A2
:1014D00020E030E0A901C701B6010E94E80D18160E
:1014E000C4F420E030E0A901609120027091210253
:1014F00080912202909123020E94E80D18164CF46C
:1015000010922002109221021092220210922302C5
:1015100018C020E030E0A901C701B6010E94890C83
:1015200087FF0FC020E030E0A90160912002709198
:10153000210280912202909123020E94890C87FD52
:10154000DFCF88E192E00E947A0680EF91E00E946E
:101550007A068091080290910902A0910A02B09146
:101560000B0280930C0290930D02A0930E02B09395
:101570000F028091040290910502A0910602B091A1
:1015800007028093080290930902A0930A02B09385
:101590000B0280E192E00E947A068091FC0190911A
:1015A000FD01A091FE01B091FF0180930002909394
:1015B0000102A0930202B09303028091F80190917E
:1015C000F901A091FA01B091FB018093FC01909385
:1015D000FD01A093FE01B093FF0188E392E00E9419
:1015E0007A06ECE4F2E080E492E07291629152912A
:1015F000429144835583668377838E179F07A9F7AB
:10160000E4E3F2E080E292E07291629152914291C1
:1016100044835583668377838E179F07A9F7C0900D
:101620002002D0902102E0902202F0902302C70114
:10163000B6010E94000DAB0177FF04C04427552777
:10164000461B570B61E082E00E94251311E020E069
:1016500030E0A901C701B6010E94E80D87FD10E046
:10166000612F84E40E94190F89E6898385E98A83C2
:1016700088E18B8386E98D8F8091CA018F5F80938B
:10168000CA0190913A01981708F054C01092CA010B
:101690008E8D9F8DA8A1B9A18C839D83AE83BF83BE
:1016A0006091200270912102809122029091230288
:1016B0000E94000D7987688780917B0190917C0161
:1016C0009D878C878091ED019091EE01A0E0B0E0C4
:1016D0008A8B9B8BAC8BBD8B2AA13BA14CA15DA1BE
:1016E0002E873F87488B598B609138027091390261
:1016F00080913A0290913B020E94000D6E8B7F8B8D
:10170000888F998F8091790190917A019B8F8A8F30
:10171000FE0134969E01245E3F4F80E09191890F37
:101720002E173F07D9F78C8F6DE170E0CE0101963F
:101730000E94E113E1960FB6F894DEBF0FBECDBF55
:10174000DF91CF911F91FF90EF90DF90CF90BF90EE
:10175000AF909F908F907F906F905F904F90089583
:1017600020913C0130913D0140913E0150913F015B
:1017700060E070E08AE793E40E948E0C6093E901D8
:101780007093EA018093EB019093EC010895CF935D
:10179000DF931F92CDB7DEB71982CE0101960E946A
:1017A0008813882309F444C0E0916E029981E11105
:1017B00006C0993621F010926E028BEF2DC081E0A9
:1017C0008E0F80936E02F0E0E05BFD4F90838330DC
:1017D00020F390E040915202242F30E02B5F3F4FE6
:1017E00082179307D1F6805B9D4FFC0131972081D2
:1017F000263909F7E3E5F2E060E020E0641721F024
:101800003191230F6F5FFACFFC0132978081281747
:1018100031F010926E028AEF0E94F802BECF43E5CB
:1018200052E0809151020E94180310926E02B5CFCF
:101830000F90DF91CF9108955058BB27AA270E949F
:10184000340C0C94AE0D0E94A00D38F00E94A70D30
:1018500020F039F49F3F19F426F40C949D0D0EF4FA
:10186000E095E7FB0C94970DE92F0E94BF0D58F30C
:10187000BA17620773078407950720F079F4A6F575
:101880000C94E10D0EF4E0950B2EBA2FA02D0B0158
:10189000B90190010C01CA01A0011124FF27591BB5
:1018A00099F0593F50F4503E68F11A16F040A22FBB
:1018B000232F342F4427585FF3CF4695379527952C
:1018C000A795F0405395C9F77EF41F16BA0B620B2B
:1018D000730B840BBAF09150A1F0FF0FBB1F661F72
:1018E000771F881FC2F70EC0BA0F621F731F841FB5
:1018F00048F4879577956795B795F7959E3F08F0DB
:10190000B0CF9395880F08F09927EE0F979587959C
:1019100008950E94730D08F481E008950E94A20CBE
:101920000C94AE0D0E94A70D58F00E94A00D40F03F
:1019300029F45F3F29F00C94970D51110C94E20D9E
:101940000C949D0D0E94BF0D68F39923B1F35523AC
:1019500091F3951B550BBB27AA27621773078407C2
:1019600038F09F5F5F4F220F331F441FAA1FA9F358
:1019700035D00E2E3AF0E0E832D091505040E69546
:10198000001CCAF72BD0FE2F29D0660F771F881FA7
:10199000BB1F261737074807AB07B0E809F0BB0B9A
:1019A000802DBF01FF2793585F4F3AF09E3F5105AE
:1019B00078F00C94970D0C94E20D5F3FE4F3983EA1
:1019C000D4F3869577956795B795F7959F5FC9F797
:1019D000880F911D9695879597F90895E1E0660F18
:1019E000771F881FBB1F621773078407BA0720F091
:1019F000621B730B840BBA0BEE1F88F7E0950895FA
:101A00000E94070D6894B1110C94E20D08950E9494
:101A1000C70D88F09F5798F0B92F9927B751B0F0AC
:101A2000E1F0660F771F881F991F1AF0BA95C9F762
:101A300014C0B13091F00E94E10DB1E008950C9412
:101A4000E10D672F782F8827B85F39F0B93FCCF3C5
:101A5000869577956795B395D9F73EF490958095DF
:101A6000709561957F4F8F4F9F4F0895E89409C0FF
:101A700097FB3EF490958095709561957F4F8F4FC1
:101A80009F4F9923A9F0F92F96E9BB279395F695D7
:101A9000879577956795B795F111F8CFFAF4BB0F55
:101AA00011F460FF1BC06F5F7F4F8F4F9F4F16C0B9
:101AB000882311F096E911C0772321F09EE8872F43
:101AC000762F05C0662371F096E8862F70E060E0FF
:101AD0002AF09A95660F771F881FDAF7880F969578
:101AE000879597F90895990F0008550FAA0BE0E81C
:101AF000FEEF16161706E807F907C0F012161306D0
:101B0000E407F50798F0621B730B840B950B39F40F
:101B10000A2661F0232B242B252B21F408950A2675
:101B200009F4A140A6958FEF811D811D089597F9B5
:101B30009F6780E870E060E008959FEF80EC089573
:101B400000240A941616170618060906089500249C
:101B50000A9412161306140605060895092E039416
:101B6000000C11F4882352F0BB0F40F4BF2B11F48A
:101B700060FF04C06F5F7F4F8F4F9F4F089557FDE9
:101B80009058440F551F59F05F3F71F04795880FEB
:101B900097FB991F61F09F3F79F087950895121682
:101BA00013061406551FF2CF4695F1DF08C016162E
:101BB00017061806991FF1CF8695710561050894DF
:101BC0000895E894BB2766277727CB0197F90895F6
:101BD0000E94730D08F48FEF08950E94000E0C947C
:101BE000AE0D0E94A00D38F00E94A70D20F09523A5
:101BF00011F00C94970D0C949D0D11240C94E20D92
:101C00000E94BF0D70F3959FC1F3950F50E0551FD3
:101C1000629FF001729FBB27F00DB11D639FAA2741
:101C2000F00DB11DAA1F649F6627B00DA11D661F90
:101C3000829F2227B00DA11D621F739FB00DA11DB1
:101C4000621F839FA00D611D221F749F3327A00D6B
:101C5000611D231F849F600D211D822F762F6A2F07
:101C600011249F5750409AF0F1F088234AF0EE0F6C
:101C7000FF1FBB1F661F771F881F91505040A9F799
:101C80009E3F510580F00C94970D0C94E20D5F3F40
:101C9000E4F3983ED4F3869577956795B795F795D5
:101CA000E7959F5FC1F7FE2B880F911D969587954D
:101CB00097F908950E94C70DE8F09E37E8F096392D
:101CC000B8F49E3848F4672F782F8827985FF9CFAB
:101CD00086957795679593959539D0F3B62FB17022
:101CE0006B0F711D811D20F48795779567959395EE
:101CF0000C947E0E0C94990E0C94E20D882371F4D2
:101D0000772321F09850872B762F07C0662311F494
:101D100099270DC09051862B70E060E02AF09A95CB
:101D2000660F771F881FDAF7880F9695879597F9C2
:101D300008959F3F31F0915020F4879577956795EE
:101D4000B795880F911D9695879597F908958823E3
:101D500049F080917C00806480937C0080917C00BD
:101D60008F6708C080917C00806480937C008091A4
:101D70007C008F7780937C0080917A0087608093CD
:101D80007A0080917A00806880937A00089590911B
:101D90007C00907F892B80937C0080917A00806406
:101DA00080937A0080917A0086FDFCCF8091780044
:101DB000909179000895CF93DF93882309F436C07A
:101DC000282F22952F7091F18F7041E050E0FA0199
:101DD00002C0EE0FFF1F8A95E2F7CF0130E0220F1D
:101DE000331FF901E057FF4FA591B491F901EA576C
:101DF000FF4FC591D4912FB7F894613099F050F00E
:101E0000623099F49C91382F309593239C9398815C
:101E1000892B06C09C91809598239C939881892357
:101E2000888303C09C91892B8C932FBFDF91CF9126
:101E300008958823F1F0E82FE295EF70D1F0282F74
:101E40002F7081E090E001C0880F2A95EAF7F0E05A
:101E5000EE0FFF1FEA57FF4FA591B4912FB7F894EB
:101E60009C91662311F0892B02C0809589238C9365
:101E70002FBF08958823C1F0E82FE295EF70A1F0FD
:101E8000F0E0EE0FFF1FE458FF4FA591B4913C9195
:101E9000282F2F7081E090E001C0880F2A95EAF783
:101EA000932F982381E009F480E008951F920F9208
:101EB0000FB60F9211242F933F934F935F936F931D
:101EC0007F938F939F93AF93BF93EF93FF93E09193
:101ED0006F02F0917002309709F00995FF91EF9130
:101EE000BF91AF919F918F917F916F915F914F9132
:101EF0003F912F910F900FBE0F901F9018951F923A
:101F00000F920FB60F9211242F933F934F935F932D
:101F10006F937F938F939F93AF93BF93EF93FF93B1
:101F2000E0917102F0917202309709F00995FF91EA
:101F3000EF91BF91AF919F918F917F916F915F9141
:101F40004F913F912F910F900FBE0F901F901895BA
:101F50001F920F920FB60F9211242F933F934F931E
:101F60005F936F937F938F939F93AF93BF93EF9301
:101F7000FF93E0917302F0917402309709F0099594
:101F8000FF91EF91BF91AF919F918F917F916F9151
:101F90005F914F913F912F910F900FBE0F901F9027
:101FA0001895823441F0833421F08232B9F582E011
:101FB00003C081E001C080E09DB3E82FF0E021E0A4
:101FC00030E001C0220F8A95EAF7822F809589239D
:101FD0008DBBEE0FFF1FDF01A159BD4F6D937C93A9
:101FE0003091690083E090E00E2E01C0880F0A94C2
:101FF000EAF7809583238093690090916900842F8C
:102000008370482F01C0440FEA95EAF7492B4093AB
:1020100069008DB3282B2DBB81E0089580E00895E1
:1020200061E085E40E94DB0E60E085E40C94190F0A
:1020300061E085E40E94DB0E61E085E40C94190FF9
:10204000EF92FF920F931F93CF93DF937C018B014D
:10205000C0E0D0E0CE15DF051CF51C161D066CF4A3
:1020600080E090E00817190741F0E7E8F3E13197C5
:10207000F1F700C000000196F5CF0E94101080E03B
:1020800090E00817190741F0E7E8F3E13197F1F71D
:1020900000C000000196F5CF0E9418102196DACFFB
:1020A000DF91CF911F910F91FF90EF9008951F92B4
:1020B0000F920FB60F9211248F939F93AF93BF93FC
:1020C0008091750290917602A0917702B09178028A
:1020D0000196A11DB11D8093750290937602A09385
:1020E0007702B0937802BF91AF919F918F910F903B
:1020F0000FBE0F901F9018952FB7F894609175023E
:102100007091760280917702909178022FBF0895A6
:102110001092750210927602109277021092780255
:1021200089EF90E090938900809388008AE0809303
:102130008100EFE6F0E08081826080830895CF9394
:10214000DF93EC010E943E1360E0809179020E94CF
:10215000190F86E08A95F1F700C0CE010E94451361
:1021600086E08A95F1F700C061E0809179020E94D3
:10217000190FDF91CF910C9462137F70706390E020
:1021800090E4899F902D88271124862B972B0C94FF
:102190009F10E82F082E000CFF0BF0934701E093EF
:1021A0004601062E000C770B7093450160934401A5
:1021B000042E000C550B5093430140934201309381
:1021C0004101209340011E161F06FCF41616170647
:1021D000E4F414161506CCF461E00E94DB0E61E015
:1021E000809144010E94DB0E60E0809142010E94D8
:1021F000DB0E61E0809144010E94190F61E0809143
:1022000046010E94190F81E0089580E008950F9320
:102210001F93CF93DF9361E0809146010E94DB0E14
:1022200061E0809144010E94DB0E60E080914201F8
:102230000E94DB0E60E0809146010E94190F86E04B
:102240008A95F1F700C086E08A95F1F700C000E1B9
:1022500010E0C0E0D0E060E0809144010E94190FDE
:1022600086E08A95F1F700C061E0809144010E9408
:10227000190F86E08A95F1F700C0CC0FDD1F809121
:1022800042010E943A0F8111C1600150110919F7F2
:1022900061E0809146010E94190FCE01DF91CF913C
:1022A0001F910F91089580917B028823F9F0E091AE
:1022B0007D02EE0FFF0BE458FF4FA591B4912C91D6
:1022C00080917C0230E0082E000C990B822393232E
:1022D000892B61F08091810290918202A09183020A
:1022E000B09184020197A109B1090BC080918102CC
:1022F00090918202A0918302B09184020196A11D67
:10230000B11D8093810290938202A0938302B093C7
:10231000840280917E028823D9F0E0918002EE0F42
:10232000FF0BE458FF4FA591B4912C9180917F024F
:1023300030E0082E000C990B82239323892B41F067
:1023400010928102109282021092830210928402F3
:102350000895809186028823F9F0E0918802EE0FBB
:10236000FF0BE458FF4FA591B4912C918091870207
:1023700030E0082E000C990B82239323892B61F007
:1023800080918C0290918D02A0918E02B0918F026B
:102390000197A109B1090BC080918C0290918D0227
:1023A000A0918E02B0918F020196A11DB11D809364
:1023B0008C0290938D02A0938E02B0938F02809135
:1023C00089028823D9F0E0918B02EE0FFF0BE458CD
:1023D000FF4FA591B4912C9180918A0230E0082E94
:1023E000000C990B82239323892B41F010928C02CD
:1023F00010928D0210928E0210928F020895BF9259
:10240000CF92DF92EF92FF920F931F93CF93DF93C0
:10241000CDB7DEB72B970FB6F894DEBF0FBECDBF9A
:10242000823008F086C0082F10E019821A821B82C1
:102430001C821D821E821F82188619861A861B86A0
:102440008BE0809FF001819FF00D1124DF01A658E1
:10245000BD4F7D01FE01319601900D928A95E1F705
:10246000F7016083662309F464C0C22ED42EB62E11
:1024700062E08B2D0E94DB0EDD20D1F062E08D2D1D
:102480000E94DB0E2D2D2F7081E090E001C0880F9F
:102490002A95EAF7D70112968C931297D2942FE0DF
:1024A000D2221396DC92139781E011968C9302C08E
:1024B000F7011182CC20C1F02C2D2F7081E090E02B
:1024C00001C0880F2A95EAF79BE0909FF001919F49
:1024D000F00D1124E658FD4F8583C2949FE0C92278
:1024E000C68281E084830BC08BE0809FF001819FD6
:1024F000F00D1124E658FD4F148216821582000F4C
:10250000111FF801E85BFE4F6081718143E08B2D64
:102510002B960FB6F894DEBF0FBECDBFDF91CF91E3
:102520001F910F91FF90EF90DF90CF90BF900C9490
:10253000D10F2B960FB6F894DEBF0FBECDBFDF9143
:10254000CF911F910F91FF90EF90DF90CF90BF90B0
:102550000895EAE7F2E01082118212821382148257
:1025600015821682178210861186128613861486AB
:10257000158616861786108A118A128A138A148A7B
:10258000158A0895813061F028F0823079F0833027
:1025900099F018C06623C1F06130A1F484E2089577
:1025A0006623A1F0613071F484E40895662381F01C
:1025B000613041F486E40895662361F0613011F4DE
:1025C00087E2089580E0089583E2089585E4089500
:1025D00087E4089586E208950F931F93CF93DF93C6
:1025E000D82FC62F60E00E94C212082F61E08D2F05
:1025F0000E94C212182F60E0802F0E94190F61E024
:10260000802F0E94DB0E60E0812F0E94190F61E095
:10261000812F0E94DB0EDD2369F0D23089F4109205
:10262000B3001092B40081EA8093B000C370C093ED
:10263000B10006C017BC18BC81EA84BDC370C5BD1B
:10264000DF91CF911F910F910895882319F0823067
:1026500051F00895662319F0613019F0089547BDCF
:10266000089548BD0895662319F0613021F008955A
:102670004093B30008954093B4000895809191026F
:102680008CBD809190028DBD08950CB405FC0DC0E9
:102690009EBD00000DB407FEFDCF9EB58EBD0000AF
:1026A0000DB407FEFDCF8EB508958EBD00000DB4AC
:1026B00007FEFDCF8EB59EBD00000DB407FEFDCF19
:1026C0009EB5089508951F920F920FB60F92112490
:1026D0002F938F939F93EF93FF939091C600E09178
:1026E000D30281E08E0F8F732091D202821731F0D6
:1026F000F0E0EE56FD4F90838093D302FF91EF916F
:102700009F918F912F910F900FBE0F901F90189552
:10271000E091D2022091D302E21789F021E02E0F3E
:102720002093D202F0E0EE56FD4F2081FC01208381
:102730008091D2028F738093D20281E0089580E06D
:102740000895EF920F93CF93DF93C42FD22F9B0165
:10275000AC0183E0220F331F441F551F8A95D1F728
:1027600060E07DE281E391E00E94FA13215031099B
:1027700082E08093C000DD2311F080E901C080E891
:10278000011188608093C100C37080E1C89FA001DF
:102790001124842F8668EE2011F0842F8E68809398
:1027A000C2003093C5002093C400DF91CF910F91F8
:1027B000EF9008959091C00095FFFCCF8093C600E4
:1027C00008950F931F93CF93DF93EC018C01060FB5
:1027D000171FC017D10721F089910E94DA13F9CF92
:1027E000DF91CF911F910F9108951092D202109214
:1027F000D3020895A1E21A2EAA1BBB1BFD010DC036
:10280000AA1FBB1FEE1FFF1FA217B307E407F507A0
:1028100020F0A21BB30BE40BF50B661F771F881F7C
:10282000991F1A9469F760957095809590959B0112
:10283000AC01BD01CF010895EE0FFF1F0590F4918B
:08284000E02D0994F894FFCF8C
:10284800D0078813226C983E000000000000803FEB
:10285800EFC933BF00000000D88137409C3336C031
:10286800000000003C4E91BECC5D4B3E00000000D5
:10287800F4010000AF440A0A10270A0A0AD7233CC9
:0C288800D0071200110010005311A9111C
:00000001FF
