:100000000C9452000C94EE0E0C94170F0C94400FAD
:100010000C947A000C947A000C947A000C947A0078
:100020000C947A000C947A000C947A000C947A0068
:100030000C947A000C94EF0F0C947A000C947A00D4
:100040000C947A000C947A000C947A000C947A0048
:100050000C94FB120C947A000C947A000C947A00A5
:100060000C947A000C947A000C947A000C947A0028
:100070000C947A000C947A000C947A000000200012
:1000800023002600290000002200250028002B0064
:1000900000002100240027002A009101B2044D0B2A
:1000A00041128D1311241FBECFEFD4E0DEBFCDBFB0
:1000B00011E0A0E0B1E0E8E7F7E202C005900D92A0
:1000C000A235B107D9F722E0A2E5B1E001C01D9247
:1000D000AD3CB207E1F710E0C2E5D0E004C02197E3
:1000E000FE010E94B413CD34D107C9F70E94580114
:1000F0000C94BA130C940000CF92DF92EF92FF920F
:100100000F931F93C0906501D0906601E090670146
:10011000F0906801C60ED71EE81EF91EC092650158
:10012000D0926601E0926701F0926801009161014E
:100130001091620120916301309164010617170745
:100140002807390740F4609361017093620180933E
:1001500063019093640100915D0110915E01209113
:100160005F0130916001601771078207930740F4C7
:1001700060935D0170935E0180935F0190936001D5
:100180008091520190915301A0915401B091550179
:100190000196A11DB11D8093520190935301A0932C
:1001A0005401B093550120913E0130913F0140E050
:1001B00050E0281739074A075B0708F072C0109211
:1001C0005201109253011092540110925501C7012F
:1001D000B6010E949213209365013093660140930B
:1001E0006701509368010E94141060935901709345
:1001F0005A0180935B0190935C0120915801E6E5E0
:10020000F1E080E030E0AF0146555140421753071E
:1002100020F49381890F3196F6CF80936B01CC2423
:10022000CA94DC2C7601C0925D01D0925E01E0920E
:100230005F01F092600110926501109266011092C8
:100240006701109268011092610110926201109290
:1002500063011092640110926A011092690167E1D2
:1002600070E086E591E00E947913C0925D01D09222
:100270005E01E0925F01F0926001109265011092C0
:10028000660110926701109268011092610110924C
:100290006201109263011092640110926A0110923F
:1002A00069011F910F91FF90EF90DF90CF9008951B
:1002B000E12C01E021E040E060E271EA87E090E0BB
:1002C0000E9439130E942010789464E670E083E065
:1002D00090E00E94B80F80E00E9403060E948F0504
:1002E0000E9414104B015C010E94640B0E9450029A
:1002F0000E94E8040E949C010E9494060E942D0422
:100300000E9414106B017C01C818D908EA08FB0888
:100310000E9414104B015C01C701B6010E947C00D1
:10032000E3CFE6E5F1E089E6808380EA818382E13C
:10033000828386E9868B0895CF92DF92EF92FF92B7
:10034000CF93DF93CDB7DEB72C970FB6F894DEBF0F
:100350000FBECDBF80917501882309F464C00E944F
:1003600014106B017C018091760190917701A0912E
:100370007801B0917901B701A601481B590B6A0BAE
:100380007B0B8091460190914701A0E0B0E04817B7
:1003900059076A077B0708F446C0C0927601D092DD
:1003A0007701E0927801F09279010E949F1029E68E
:1003B000298324E92A8327E02B8326E92C872091AF
:1003C0006D012F5F20936D0130913D01321710F5C3
:1003D00010926D01CC82DD82EE82FF829C0196E05C
:1003E000369527959A95E1F7398728878F738A87FD
:1003F000FE0134969E01255F3F4F80E09191890F69
:10040000E217F307D9F78B876CE070E0CE01019615
:100410000E94791387E0FE013496AEE6B1E00190C8
:100420000D928A95E1F72C960FB6F894DEBF0FBEB9
:10043000CDBFDF91CF91FF90EF90DF90CF900895E7
:10044000CF93DF93DC0110929B01E3E9F1E0EC0133
:1004500090E01082899187FD02C080839F5F319672
:1004600081E0EB39F807A9F790939B0118962D913D
:100470003C9119973093010120930001992351F089
:1004800081E01A969C91911101C080E0DF91CF919B
:100490000C943F0EDF91CF91089510929B01089527
:1004A000CF92DF92EF92FF920F931F93CF93DF9340
:1004B000CDB7DEB769970FB6F894DEBF0FBECDBFDC
:1004C00080919B01882309F484C00E94141000913C
:1004D0008F011091900120919101309192016B0157
:1004E0007C01C01AD10AE20AF30A97018601409101
:1004F0000001509101016A01E12CF12C0C151D0540
:100500002E053F0508F465C060938F01709390013C
:10051000809391019093920189E6898382E98A838D
:1005200084E18B8386E9898FFE013896CE01489657
:1005300011921192E817F907D9F7F12C80919B01DC
:10054000F816B0F40F2D10E0F801ED56FE4F808143
:100550000E945F0EF8013296EE0FFF1F21E030E09F
:100560002C0F3D1FE20FF31F94838383F394E6CF98
:1005700080917A018F5F80937A0190913C01981766
:10058000E8F410927A010E9414106C837D838E83AC
:100590009F834B81CE010196FC0120E050E0BF011A
:1005A000681B790B6417750720F43381230F31968C
:1005B000F6CF288F69E170E00E947913F89484E106
:1005C000FE013496ABE7B1E001900D928A95E1F718
:1005D000789469960FB6F894DEBF0FBECDBFDF9159
:1005E000CF911F910F91FF90EF90DF90CF900895E2
:1005F000CF93DF9300D000D01F92CDB7DEB7FE01BE
:10060000319695E0DF011D929A95E9F799E6998375
:1006100096E99D838A8365E070E0CF010E9479139B
:100620000F900F900F900F900F90DF91CF91089542
:100630000F931F93CF93DF93CDB7DEB7EA970FB633
:10064000F894DEBF0FBECDBF162FFA01813309F437
:1006500098C098F4823109F43EC028F4882329F127
:10066000813139F1ECC0813209F471C0803309F471
:1006700075C0803209F0E3C052C0823509F4AFC0C2
:1006800050F4813409F4A1C0803509F4A2C080344B
:1006900009F0D5C088C0883509F4AFC0803609F4A8
:1006A000BAC0853509F0CBC0AFC06111B6C080E7D4
:1006B000C7C0623009F0B1C01081018161E0812FB3
:1006C0000E94730E61E0011101C060E0812F0E9461
:1006D000B10E81E8B5C0613009F09FC0008160E0D3
:1006E000802F0E94730E802F0E94D20E982FFE0141
:1006F000319687E0DF011D928A95E9F789E68983C3
:1007000082E88A831B8386E98F830C839D83900F05
:100710009E8367E070E0CF010E94791393C06B3035
:1007200009F07BC0DE0111969E01275F3F4FCD018E
:100730004FEF4D932A173B07E1F72BE0DC010190C7
:100740000D922A95E1F70E94200280E979C061307C
:1007500009F063C00E944D0281E972C0683009F05F
:100760005CC088E0DE01119601900D928A95E1F758
:10077000CE0101960E94CD0481E08093CB0180EAF6
:100780005FC084EC99E098878F831D821B82198259
:100790001E821C821A82CE0101960E94CD04109204
:1007A000CB0181EA4DC06530C1F52381348142819E
:1007B000618180810E946110882329F081E080930B
:1007C000750180EB3DC08CEF3BC01092750181EB51
:1007D00037C0613011F580810E94030633C06A334F
:1007E000E1F48AE3DE01119601900D928A95E1F71A
:1007F000CE0101960E94060625C0623071F4808108
:1008000091810E947B061EC0623039F48081918103
:100810000E946C0617C0663011F08DEF11C086E0A3
:10082000DE01119601900D928A95E1F749815A8176
:100830006B817C818D819E810E94E40503C08EEFD7
:100840000E94F802EA960FB6F894DEBF0FBECDBF45
:10085000DF91CF911F910F910895CF92DF92EF9288
:10086000FF920F931F93CF93DF930E9414106B019D
:100870007C018091A90181110CC08091A001882385
:1008800009F467C01092A0010CE911E0C0E0D1E0CA
:1008900056C01092A9010CE911E0C0E0D1E0F801C6
:1008A00086859785A089B1890097A105B105F1F0EA
:1008B000D093A901B701A601481B590B6A0B7B0B0A
:1008C00080919C0190919D01A0919E01B0919F010A
:1008D00084179507A607B70748F416861786108A67
:1008E000118A60E070E08C2F0E945510CF5F0C5F82
:1008F0001F4FC430A1F6C1CFD093A001B701A6010C
:10090000481B590B6A0B7B0B80919C0190919D01B8
:10091000A0919E01B0919F0184179507A607B70784
:1009200048F4158216821782108640E06C2F80E012
:100930000E94BD12CF5F0C5F1F4FC23051F0F80113
:1009400085819681A781B0850097A105B10591F3B6
:10095000D3CFDF91CF911F910F91FF90EF90DF9058
:10096000CF900895ECE9F1E088EE93E0A0E0B0E0EC
:1009700080839183A283B3831482158688E0E1EAA1
:10098000F1E0DF011D928A95E9F780E1EAEAF1E002
:10099000DF011D928A95E9F70895CF93DF93EC016B
:1009A0008E819F8190930301809302012C814A8163
:1009B000688180E00E9497112D814B81698181E0DF
:1009C0000E94971181E08093CB01DF91CF91089530
:1009D000CF92DF92EF92FF920F931F93CF93DF930B
:1009E000CDB7DEB765970FB6F894DEBF0FBECDBFAB
:1009F0008091CB01882309F483C00E9414100091D8
:100A0000CC011091CD012091CE013091CF016B012D
:100A10007C01C01AD10AE20AF30A970186014091CB
:100A20000201509103016A01E12CF12C0C151D0506
:100A30002E053F0508F464C06093CC017093CD018E
:100A40008093CE019093CF0189E6898383E98A83DD
:100A500080E18B8386E98D8B8FB7F89440917A0281
:100A600050917B0260917C0270917D02488759878A
:100A70006A877B8740918502509186026091870248
:100A8000709188024C875D876E877F878FBF0E9439
:100A900014106C837D838E839F83809102019091DB
:100AA0000301A0E0B0E0888B998BAA8BBB8B80916F
:100AB000BA018F5F8093BA01909141019817B8F401
:100AC0001092BA014B81CE010196FC0120E050E06A
:100AD000BF01681B790B6417750720F43381230F5E
:100AE0003196F6CF2C8B65E170E00E94791380E19E
:100AF000FE013496ABEBB1E001900D928A95E1F7DF
:100B000065960FB6F894DEBF0FBECDBFDF91CF91D3
:100B10001F910F91FF90EF90DF90CF900895CF93AA
:100B2000DF93CDB7DEB72B970FB6F894DEBF0FBEBD
:100B3000CDBF1D821E821C821A8282E4898383E4D7
:100B40008B8388EE93E098878F83CE0101960E9475
:100B5000CD041B86FE013196CE0109962FEF21931D
:100B60008E179F07E1F7198288EE93E09A878987AD
:100B7000CE0101960E94200224E630E042E261E2CA
:100B800080E20E94611081E08093750161E086E45B
:100B90000E94730E61E082E00E94841240E061E0F6
:100BA00082E00E94BD1261E084E40E94730E60E066
:100BB00084E40E94B10E2B960FB6F894DEBF0FBEF0
:100BC000CDBFDF91CF910895CF93DF9300D000D0B8
:100BD00000D0CDB7DEB749835A836B837C838D8386
:100BE0009E8386E0FE013196ACE3B1E001900D9268
:100BF0008A95E1F726960FB6F894DEBF0FBECDBFFB
:100C0000DF91CF9108958093E50108950F931F938D
:100C1000CF93DF93FC01DC0184E291E008E111E075
:100C20009F01245F3F4F4D915D916D917D91EC014E
:100C30004993599369937993CE0118964D915D919B
:100C40006D917C911B97E80149935993699379932E
:100C50008E01A217B30739F7DF015896C4E0D1E03F
:100C6000CF018C964D915D916D917D9149935993F2
:100C7000699379938A179B07A9F784A995A99093FB
:100C80003B0180933A0186A997A9A0ADB1AD8093AD
:100C9000320190933301A0933401B093350180A9C0
:100CA00091A99093DE018093DD0184A595A5909391
:100CB000E2018093E10182A993A99093E0018093DE
:100CC000DF0186A597A59093E4018093E301DF916E
:100CD000CF911F910F9108959093DA018093D901DC
:100CE0000E9414106093D1017093D2018093D301BC
:100CF0009093D40108959093DC018093DB010E94CE
:100D000014106093D5017093D6018093D70190930E
:100D1000D8010895FC01408151816281738144832F
:100D200055836683778308954F925F926F927F9287
:100D30008F929F92AF92BF92CF92DF92EF92FF92EB
:100D40000F931F93CF93DF93CDB7DEB7E2970FB624
:100D5000F894DEBF0FBECDBF0E9414102B013C01E2
:100D60008091E6019091E701A091E801B091E9013D
:100D7000B301A201481B590B6A0B7B0B8091300118
:100D800090913101A0E0B0E0481759076A077B074E
:100D900008F46CC44092E6015092E7016092E801C9
:100DA0007092E901F8942091BF013091C001409107
:100DB000C1015091C2012BA33CA34DA35EA3789423
:100DC0000091720110917301125080913A0190913B
:100DD0003B01081B190B8091F2019091F301A801CE
:100DE000481B590BCA0181509E4F8F3F934020F4FE
:100DF0001093F3010093F2016BA17CA18DA19EA140
:100E00000E94D00C28E33BED4CED5BE30E94610DAA
:100E10004B015C016091F2017091F301072E000C0F
:100E2000880B990B0E94D00C6B017C012091EA0188
:100E30003091EB014091EC015091ED01C501B401FD
:100E40000E94BA0B9B01AC01C701B6010E94B90B0D
:100E50000E94980C9B0177FF04C022273327261B92
:100E6000370B2630310574F0A5019401C701B60196
:100E70000E94B90B6093EA017093EB018093EC013F
:100E80009093ED01B801012E000C880B990B0E9484
:100E9000D00C6B017C01609331027093320280931D
:100EA0003302909334028091350290913602A091E2
:100EB0003702B09138028FA798ABA9ABBAAB20919B
:100EC00042013091430140914401509145012F8FDF
:100ED00038A349A35AA380913D0290913E02A0916C
:100EE0003F02B0914002BC01CD0190582091100109
:100EF0003091110140911201509113010E94610D36
:100F00004B015C01209114013091150140911601B3
:100F10005091170160914102709142028091430209
:100F2000909144020E94610D9B01AC01C501B40186
:100F30000E94B90B4B015C0160912D0270912E0251
:100F4000072E000C880B990B0E94D00C20910401F5
:100F50003091050140910601509107010E94610DF9
:100F60009B01AC01C501B4010E94BA0B4B015C01AD
:100F700060912F0270913002072E000C880B990BA4
:100F80000E94D00C209108013091090140910A0182
:100F900050910B010E94610D9B01AC01C501B40190
:100FA0000E94BA0B20910C0130910D0140910E016D
:100FB00050910F010E94260C6FA378A789A79AA7CA
:100FC0006093390270933A0280933B0290933C0203
:100FD0008091E50181111EC08091D1019091D201D3
:100FE000A091D301B091D401805F984DAF4FBF4F16
:100FF00084159505A605B70520F41092DA01109224
:10100000D9018091D9019091DA01909326028093C1
:101010002502DCC18091D5019091D601A091D70124
:10102000B091D801805F984DAF4FBF4F84159505A3
:10103000A605B70520F41092DC011092DB01609147
:10104000DB017091DC01072E000C880B990B0E94CC
:10105000D00C905860931D0270931E0280931F0263
:10106000909320028090210290902202A09023026F
:10107000B09024022091EE013091EF014091F001F7
:101080005091F1012BA73CA74DA75EA7A5019401A4
:101090000E94B90B2F8D38A149A15AA10E94260C9C
:1010A0002BA53CA54DA55EA50E945C0D87FD10C03B
:1010B0002BA53CA54DA55EA5C501B4010E94BA0BA8
:1010C00060931D0270931E0280931F029093200272
:1010D000A701960160911D0270911E0280911F026E
:1010E000909120020E94B90B6093090270930A024A
:1010F00080930B0290930C022091180130911901FA
:1011000040911A0150911B010E94610D209119021A
:1011100030911A0240911B0250911C020E94BA0B9E
:101120004B015C0120910D0230910E0240910F02A3
:101130005091100260911C0170911D0180911E015F
:1011400090911F010E94610D9B01AC01C501B4018A
:101150000E94BA0B4B015C012091110230911202E6
:10116000409113025091140260912001709121016D
:1011700080912201909123010E94610D9B01AC019D
:10118000C501B4010E94BA0B609315027093160258
:1011900080931702909318022FA138A549A55AA54C
:1011A0000E94B90B4B015C012FA538A949A95AA986
:1011B000C701B6010E94B90B2F8D38A149A15AA1D0
:1011C0000E94260C20914502309146024091470230
:1011D000509148020E94B90B9B01AC01C501B401BA
:1011E0000E94B90B6093FD017093FE018093FF0193
:1011F0009093000220912401309125014091260115
:10120000509127010E94610D6B017C0160912702C2
:1012100070912802072E000C880B990B0E94D00CAD
:101220009B01AC01C701B6010E94BA0B6B017C01A6
:101230002091010230910202409103025091040278
:10124000609128017091290180912A0190912B01D0
:101250000E94610D9B01AC01C701B6010E94BA0B4F
:101260006B017C012091050230910602409107023A
:101270005091080260912C0170912D0180912E01F6
:1012800090912F010E94610D9B01AC01C701B60135
:101290000E94BA0B0E94980CE090DD01F090DE01F4
:1012A0006E0D7F1D8091DF019091E001680F791F25
:1012B0008091E1019091E201680F791FE090E301D4
:1012C000F090E401E60EF71EF0922602E09225026D
:1012D000B7010F2C000C880B990B0E94D00C0E94B8
:1012E000CE0D9701F7FE04C0222733272E193F09A0
:1012F0002F3F31050CF4B1C132E0E3163FEFF306A6
:101300001CF422E03FEF02C02EEF30E030932602C3
:10131000209325020E94980C2091250230912602EC
:10132000D901A61BB70BBD01072E000C880B990B2A
:101330000E94D00C20913201309133014091340150
:10134000509135010E94260C6093F5017093F601CF
:101350008093F7019093F8012091F9013091FA01FF
:101360004091FB015091FC016091F5017091F601F3
:101370008091F7019091F8010E94BA0B2F8D38A14E
:1013800049A15AA10E94610D6B017C016091250267
:1013900070912602660F771F072E000C880B990BA1
:1013A0000E94D00C9B01AC01C701B6010E94BA0B90
:1013B00020E030E040E05FE30E94610D0E94CE0D2E
:1013C0000E94980C70932602609325028091F4018C
:1013D000B801882339F117FF04C066277727601BFF
:1013E000710B072E000C880B990B0E94D00C4B013F
:1013F0005C0120E030E048E452E4609136017091F5
:10140000370180913801909139010E94B90B9B01FD
:10141000AC01FF24F394C501B4010E945C0D1816C1
:10142000DCF019C017FF04C066277727601B710B1B
:10143000072E000C880B990B0E94D00CFF24F3940C
:101440002091360130913701409138015091390196
:101450000E945C0D87FDF12CF092F401FF20B9F0A1
:101460001016110644F48091250290912602181658
:1014700019064CF00CC0012B51F08091250290917F
:10148000260297FF04C010922602109225028DE1D9
:1014900092E00E948A0685EF91E00E948A06809180
:1014A0000D0290910E02A0910F02B0911002809354
:1014B000110290931202A0931302B0931402809130
:1014C000090290910A02A0910B02B0910C02809344
:1014D0000D0290930E02A0930F02B093100285E1CB
:1014E00092E00E948A068091010290910202A091EE
:1014F0000302B09104028093050290930602A09328
:101500000702B09308028091FD019091FE01A09125
:10151000FF01B09100028093010290930202A09318
:101520000302B093040281E392E00E948A06E5E49C
:10153000F2E089E392E07291629152914291448388
:101540005583668377838E179F07A9F7EFE2F2E052
:1015500085E292E032912291338322838E179F0796
:10156000C9F71091260240912502512F57FF03C061
:1015700051954195510961E082E00E94BD12612FB1
:101580006095661F6627661F84E40E94B10E89E697
:10159000898385E98A8389E18B8386E98E8F8091AF
:1015A000D0018F5F8093D00190914001981708F08F
:1015B0005DC01092D0014C825D826E827F828091EC
:1015C000250290912602998788878091F201909157
:1015D000F301092E000CAA0BBB0B8E879F87A88BEB
:1015E000B98B8BA19CA1ADA1BEA18A879B87AC873B
:1015F000BD878091310290913202A0913302B09167
:1016000034028A8B9B8BAC8BBD8B80917F01909138
:1016100080019F8B8E8B8091F401888F8091EA01ED
:101620009091EB01A091EC01B091ED01898F9A8F1F
:10163000AB8FBC8FFE0134969E01235E3F4F80E04E
:101640009191890F2E173F07D9F78D8F6EE170E0CA
:10165000CE0101960E94791309C01092F5011092F3
:10166000F6011092F7011092F80176CEE2960FB6CD
:10167000F894DEBF0FBECDBFDF91CF911F910F91C8
:10168000FF90EF90DF90CF90BF90AF909F908F90A2
:101690007F906F905F904F9008952091420130911C
:1016A0004301409144015091450160E070E08AE7B8
:1016B00093E40E94260C6093EE017093EF018093F7
:1016C000F0019093F1010895CF93DF931F92CDB76E
:1016D000DEB71982CE0101960E942013882309F4F7
:1016E00044C0E09167029981E11106C0993621F06A
:1016F000109267028BEF2DC081E08E0F80936702FE
:10170000F0E0E75BFD4F9083833020F390E0409161
:101710004B02242F30E02B5F3F4F82179307D1F607
:10172000875B9D4FFC0131972081263909F7ECE456
:10173000F2E060E020E0641721F03191230F6F5F49
:10174000FACFFC0132978081281731F0109267029E
:101750008AEF0E94F802BECF4CE452E080914A0228
:101760000E94180310926702B5CF0F90DF91CF91BE
:1017700008955058BB27AA270E94D10B0C94220D24
:101780000E94140D38F00E941B0D20F039F49F3F89
:1017900019F426F40C94110D0EF4E095E7FB0C946B
:1017A0000B0DE92F0E94330D58F3BA176207730728
:1017B0008407950720F079F4A6F50C94550D0EF4E6
:1017C000E0950B2EBA2FA02D0B01B90190010C0151
:1017D000CA01A0011124FF27591B99F0593F50F469
:1017E000503E68F11A16F040A22F232F342F4427C1
:1017F000585FF3CF469537952795A795F0405395B9
:10180000C9F77EF41F16BA0B620B730B840BBAF088
:101810009150A1F0FF0FBB1F661F771F881FC2F7F3
:101820000EC0BA0F621F731F841F48F48795779507
:101830006795B795F7959E3F08F0B0CF9395880FC1
:1018400008F09927EE0F9795879508950E943A0C16
:101850000C94220D0E941B0D58F00E94140D40F0B4
:1018600029F45F3F29F00C940B0D51110C94560D87
:101870000C94110D0E94330D68F39923B1F3552395
:1018800091F3951B550BBB27AA2762177307840793
:1018900038F09F5F5F4F220F331F441FAA1FA9F329
:1018A00035D00E2E3AF0E0E832D091505040E69517
:1018B000001CCAF72BD0FE2F29D0660F771F881F78
:1018C000BB1F261737074807AB07B0E809F0BB0B6B
:1018D000802DBF01FF2793585F4F3AF09E3F51057F
:1018E00078F00C940B0D0C94560D5F3FE4F3983E8A
:1018F000D4F3869577956795B795F7959F5FC9F768
:10190000880F911D9695879597F90895E1E0660FE8
:10191000771F881FBB1F621773078407BA0720F061
:10192000621B730B840BBA0BEE1F88F7E0950895CA
:101930000E949F0C6894B1110C94560D08950E945A
:101940003B0D88F09F5798F0B92F9927B751B0F009
:10195000E1F0660F771F881F991F1AF0BA95C9F733
:1019600014C0B13091F00E94550DB1E008950C946F
:10197000550D672F782F8827B85F39F0B93FCCF322
:10198000869577956795B395D9F73EF490958095B0
:10199000709561957F4F8F4F9F4F0895E89409C0D0
:1019A00097FB3EF490958095709561957F4F8F4F92
:1019B0009F4F9923A9F0F92F96E9BB279395F695A8
:1019C000879577956795B795F111F8CFFAF4BB0F26
:1019D00011F460FF1BC06F5F7F4F8F4F9F4F16C08A
:1019E000882311F096E911C0772321F09EE8872F14
:1019F000762F05C0662371F096E8862F70E060E0D0
:101A00002AF09A95660F771F881FDAF7880F969548
:101A1000879597F9089597F99F6780E870E060E0EF
:101A200008959FEF80EC089500240A941616170677
:101A300018060906089500240A94121613061406BF
:101A400005060895092E0394000C11F4882352F022
:101A5000BB0F40F4BF2B11F460FF04C06F5F7F4FDA
:101A60008F4F9F4F089557FD9058440F551F59F0C1
:101A70005F3F71F04795880F97FB991F61F09F3F7B
:101A800079F087950895121613061406551FF2CFA4
:101A90004695F1DF08C0161617061806991FF1CFF4
:101AA00086957105610508940895E894BB2766271B
:101AB0007727CB0197F908950E94F20D08F48FEF74
:101AC00008950E94740D0C94220D0E94140D38F09C
:101AD0000E941B0D20F0952311F00C940B0D0C941B
:101AE000110D11240C94560D0E94330D70F3959F27
:101AF000C1F3950F50E0551F629FF001729FBB2705
:101B0000F00DB11D639FAA27F00DB11DAA1F649FA0
:101B10006627B00DA11D661F829F2227B00DA11D53
:101B2000621F739FB00DA11D621F839FA00D611DD9
:101B3000221F749F3327A00D611D231F849F600DFA
:101B4000211D822F762F6A2F11249F5750409AF023
:101B5000F1F088234AF0EE0FFF1FBB1F661F771FAF
:101B6000881F91505040A9F79E3F510580F00C947A
:101B70000B0D0C94560D5F3FE4F3983ED4F386951D
:101B800077956795B795F795E7959F5FC1F7FE2B1A
:101B9000880F911D9695879597F908950E943B0DA2
:101BA000E8F09E37E8F09639B8F49E3848F4672F8D
:101BB000782F8827985FF9CF8695779567959395C5
:101BC0009539D0F3B62FB1706B0F711D811D20F4C4
:101BD00087957795679593950C94160E0C94310E16
:101BE0000C94560D990F0008550FAA0BE0E8FEEF74
:101BF00016161706E807F907C0F012161306E407D1
:101C0000F50798F0621B730B840B950B39F40A26C9
:101C100061F0232B242B252B21F408950A2609F4A7
:101C2000A140A6958FEF811D811D0895882371F431
:101C3000772321F09850872B762F07C0662311F465
:101C400099270DC09051862B70E060E02AF09A959C
:101C5000660F771F881FDAF7880F9695879597F993
:101C600008959F3F31F0915020F4879577956795BF
:101C7000B795880F911D9695879597F908958823B4
:101C800049F080917C00806480937C0080917C008E
:101C90008F6708C080917C00806480937C00809175
:101CA0007C008F7780937C0080917A00876080939E
:101CB0007A0080917A00806880937A0008959091EC
:101CC0007C00907F892B80937C0080917A008064D7
:101CD00080937A0080917A0086FDFCCF8091780015
:101CE000909179000895CF93DF93882309F436C04B
:101CF000282F22952F7091F18F7041E050E0FA016A
:101D000002C0EE0FFF1F8A95E2F7CF0130E0220FED
:101D1000331FF901E057FF4FA591B491F901EA573C
:101D2000FF4FC591D4912FB7F894613099F050F0DE
:101D3000623099F49C91382F309593239C9398812D
:101D4000892B06C09C91809598239C939881892328
:101D5000888303C09C91892B8C932FBFDF91CF91F7
:101D600008958823F1F0E82FE295EF70D1F0282F45
:101D70002F7081E090E001C0880F2A95EAF7F0E02B
:101D8000EE0FFF1FEA57FF4FA591B4912FB7F894BC
:101D90009C91662311F0892B02C0809589238C9336
:101DA0002FBF08958823C1F0E82FE295EF70A1F0CE
:101DB000F0E0EE0FFF1FE458FF4FA591B4913C9166
:101DC000282F2F7081E090E001C0880F2A95EAF754
:101DD000932F982381E009F480E008951F920F92D9
:101DE0000FB60F9211242F933F934F935F936F93EE
:101DF0007F938F939F93AF93BF93EF93FF93E09164
:101E00006802F0916902309709F00995FF91EF910E
:101E1000BF91AF919F918F917F916F915F914F9102
:101E20003F912F910F900FBE0F901F9018951F920A
:101E30000F920FB60F9211242F933F934F935F93FE
:101E40006F937F938F939F93AF93BF93EF93FF9382
:101E5000E0916A02F0916B02309709F00995FF91C9
:101E6000EF91BF91AF919F918F917F916F915F9112
:101E70004F913F912F910F900FBE0F901F9018958B
:101E80001F920F920FB60F9211242F933F934F93EF
:101E90005F936F937F938F939F93AF93BF93EF93D2
:101EA000FF93E0916C02F0916D02309709F0099573
:101EB000FF91EF91BF91AF919F918F917F916F9122
:101EC0005F914F913F912F910F900FBE0F901F90F8
:101ED0001895823441F0833421F08232B9F582E0E2
:101EE00003C081E001C080E09DB3E82FF0E021E075
:101EF00030E001C0220F8A95EAF7822F809589236E
:101F00008DBBEE0FFF1FDF01A859BD4F6D937C9372
:101F10003091690083E090E00E2E01C0880F0A9492
:101F2000EAF7809583238093690090916900842F5C
:101F30008370482F01C0440FEA95EAF7492B40937C
:101F400069008DB3282B2DBB81E0089580E00895B2
:101F500061E085E40E94730E60E085E40C94B10EAC
:101F600061E085E40E94730E61E085E40C94B10E9B
:101F7000EF92FF920F931F93CF93DF937C018B011E
:101F8000C0E0D0E0CE15DF051CF51C161D066CF474
:101F900080E090E00817190741F0E7E8F3E1319796
:101FA000F1F700C000000196F5CF0E94A80F80E075
:101FB00090E00817190741F0E7E8F3E13197F1F7EE
:101FC00000C000000196F5CF0E94B00F2196DACF35
:101FD000DF91CF911F910F91FF90EF9008951F9285
:101FE0000F920FB60F9211248F939F93AF93BF93CD
:101FF00080916E0290916F02A0917002B091710277
:102000000196A11DB11D80936E0290936F02A09363
:102010007002B0937102BF91AF919F918F910F9019
:102020000FBE0F901F9018952FB7F89460916E0215
:1020300070916F0280917002909171022FBF08958C
:1020400010926E0210926F02109270021092710242
:1020500089EF90E090938900809388008AE08093D4
:102060008100EFE6F0E08081826080830895CF9365
:10207000DF93EC010E94D61260E0809172020E9410
:10208000B10E86E08A95F1F700C0CE010E94DD1204
:1020900086E08A95F1F700C061E0809172020E94AB
:1020A000B10EDF91CF910C94FA127F70706390E0C3
:1020B00090E4899F902D88271124862B972B0C94D0
:1020C0003710E82F082E000CFF0BF0934D01E09322
:1020D0004C01062E000C770B70934B0160934A0164
:1020E000042E000C550B5093490140934801309346
:1020F0004701209346011E161F06FCF4161617060C
:10210000E4F414161506CCF461E00E94730E61E04D
:1021100080914A010E94730E60E0809148010E9404
:10212000730E61E080914A010E94B10E61E08091DE
:102130004C010E94B10E81E0089580E008950F9354
:102140001F93CF93DF9361E080914C010E94730E47
:1021500061E080914A010E94730E60E08091480125
:102160000E94730E60E080914C010E94B10E86E0E7
:102170008A95F1F700C086E08A95F1F700C000E18A
:1021800010E0C0E0D0E060E080914A010E94B10E12
:1021900086E08A95F1F700C061E080914A010E94D3
:1021A000B10E86E08A95F1F700C0CC0FDD1F80915B
:1021B00048010E94D20E8111C1600150110919F726
:1021C00061E080914C010E94B10ECE01DF91CF9170
:1021D0001F910F910895809174028823F9F0E09186
:1021E0007602EE0FFF0BE458FF4FA591B4912C91AE
:1021F0008091750230E0082E000C990B8223932306
:10220000892B61F080917A0290917B02A0917C02EF
:10221000B0917D020197A109B1090BC080917A02AA
:1022200090917B02A0917C02B0917D020196A11D4C
:10223000B11D80937A0290937B02A0937C02B093AD
:102240007D02809177028823D9F0E0917902EE0F28
:10225000FF0BE458FF4FA591B4912C918091780227
:1022600030E0082E000C990B82239323892B41F038
:1022700010927A0210927B0210927C0210927D02E0
:10228000089580917F028823F9F0E0918102EE0F9A
:10229000FF0BE458FF4FA591B4912C9180918002DF
:1022A00030E0082E000C990B82239323892B61F0D8
:1022B0008091850290918602A0918702B091880258
:1022C0000197A109B1090BC0809185029091860206
:1022D000A0918702B09188020196A11DB11D809343
:1022E000850290938602A0938702B0938802809122
:1022F00082028823D9F0E0918402EE0FFF0BE458AC
:10230000FF4FA591B4912C918091830230E0082E6B
:10231000000C990B82239323892B41F010928502A4
:102320001092860210928702109288020895BF923E
:10233000CF92DF92EF92FF920F931F93CF93DF9391
:10234000CDB7DEB72B970FB6F894DEBF0FBECDBF6B
:10235000823008F086C0082F10E019821A821B8292
:102360001C821D821E821F82188619861A861B8671
:102370008BE0809FF001819FF00D1124DF01AD58AB
:10238000BD4F7D01FE01319601900D928A95E1F7D6
:10239000F7016083662309F464C0C22ED42EB62EE2
:1023A00062E08B2D0E94730EDD20D1F062E08D2D56
:1023B0000E94730E2D2D2F7081E090E001C0880FD8
:1023C0002A95EAF7D70112968C931297D2942FE0B0
:1023D000D2221396DC92139781E011968C9302C05F
:1023E000F7011182CC20C1F02C2D2F7081E090E0FC
:1023F00001C0880F2A95EAF79BE0909FF001919F1A
:10240000F00D1124ED58FD4F8583C2949FE0C92241
:10241000C68281E084830BC08BE0809FF001819FA6
:10242000F00D1124ED58FD4F148216821582000F15
:10243000111FF801E25BFE4F6081718143E08B2D3B
:102440002B960FB6F894DEBF0FBECDBFDF91CF91B4
:102450001F910F91FF90EF90DF90CF90BF900C9461
:10246000690F2B960FB6F894DEBF0FBECDBFDF917C
:10247000CF911F910F91FF90EF90DF90CF90BF9081
:102480000895E3E7F2E0108211821282138214822F
:10249000158216821782108611861286138614867C
:1024A000158616861786108A118A128A138A148A4C
:1024B000158A0895813061F028F0823079F08330F8
:1024C00099F018C06623C1F06130A1F484E2089548
:1024D0006623A1F0613071F484E40895662381F0ED
:1024E000613041F486E40895662361F0613011F4AF
:1024F00087E2089580E0089583E2089585E40895D1
:1025000087E4089586E208950F931F93CF93DF9396
:10251000D82FC62F60E00E945A12082F61E08D2F3D
:102520000E945A12182F60E0802F0E94B10E61E0C5
:10253000802F0E94730E60E0812F0E94B10E61E037
:10254000812F0E94730EDD2369F0D23089F410923E
:10255000B3001092B40081EA8093B000C370C093BE
:10256000B10006C017BC18BC81EA84BDC370C5BDEC
:10257000DF91CF911F910F910895882319F0823038
:1025800051F00895662319F0613019F0089547BDA0
:10259000089548BD0895662319F0613021F008952B
:1025A0004093B30008954093B400089580918A0247
:1025B0008CBD809189028DBD08950CB405FC0DC0C1
:1025C0009EBD00000DB407FEFDCF9EB58EBD000080
:1025D0000DB407FEFDCF8EB508958EBD00000DB47D
:1025E00007FEFDCF8EB59EBD00000DB407FEFDCFEA
:1025F0009EB5089508951F920F920FB60F92112461
:102600002F938F939F93EF93FF939091C600E09148
:10261000CC0281E08E0F8F732091CB02821731F0B4
:10262000F0E0E557FD4F90838093CC02FF91EF914E
:102630009F918F912F910F900FBE0F901F90189523
:10264000E091CB022091CC02E21789F021E02E0F1D
:102650002093CB02F0E0E557FD4F2081FC01208361
:102660008091CB028F738093CB0281E0089580E04C
:102670000895EF920F93CF93DF93C42FD22F9B0136
:10268000AC0183E0220F331F441F551F8A95D1F7F9
:1026900060E07DE281E391E00E94921321503109D4
:1026A00082E08093C000DD2311F080E901C080E862
:1026B000011188608093C100C37080E1C89FA001B0
:1026C0001124842F8668EE2011F0842F8E68809369
:1026D000C2003093C5002093C400DF91CF910F91C9
:1026E000EF9008959091C00095FFFCCF8093C600B5
:1026F00008950F931F93CF93DF93EC018C01060F86
:10270000171FC017D10721F089910E947213F9CFCA
:10271000DF91CF911F910F9108951092CB021092EB
:10272000CC020895A1E21A2EAA1BBB1BFD010DC00D
:10273000AA1FBB1FEE1FFF1FA217B307E407F50771
:1027400020F0A21BB30BE40BF50B661F771F881F4D
:10275000991F1A9469F760957095809590959B01E3
:10276000AC01BD01CF010895EE0FFF1F0590F4915C
:08277000E02D0994F894FFCF5D
:10277800D0078813226C983E000000000000803FBC
:10278800EFC933BF00000000D88137409C3336C002
:10279800000000003C4E91BECC5D4B3E00000000A6
:1027A800F40172432C3E71BD1D44C8000A0A10276B
:1027B8000A0A0AD7233CD007120011001000EB10B8
:0227C8004111BD
:00000001FF
