:100000000C9452000C94C30E0C94EC0E0C94150F2F
:100010000C947A000C947A000C947A000C947A0078
:100020000C947A000C947A000C947A000C947A0068
:100030000C947A000C94C40F0C947A000C947A00FF
:100040000C947A000C947A000C947A000C947A0048
:100050000C94D0120C947A000C947A000C947A00D0
:100060000C947A000C947A000C947A000C947A0028
:100070000C947A000C947A000C947A000000200012
:1000800023002600290000002200250028002B0064
:1000900000002100240027002A009101B2040E0B69
:1000A0001612621311241FBECFEFD4E0DEBFCDBF06
:1000B00011E0A0E0B1E0E2E2F7E202C005900D92AB
:1000C000AC34B107D9F722E0ACE4B1E001C01D9235
:1000D000A53CB207E1F710E0C2E5D0E004C02197EB
:1000E000FE010E948913CD34D107C9F70E9458013F
:1000F0000C948F130C940000CF92DF92EF92FF923A
:100100000F931F93C0905F01D0906001E090610158
:10011000F0906201C60ED71EE81EF91EC0925F0164
:10012000D0926001E0926101F092620100915B0166
:1001300010915C0120915D0130915E010617170757
:100140002807390740F460935B0170935C0180934A
:100150005D0190935E01009157011091580120912B
:10016000590130915A01601771078207930740F4D3
:1001700060935701709358018093590190935A01ED
:1001800080914C0190914D01A0914E01B0914F0191
:100190000196A11DB11D80934C0190934D01A09338
:1001A0004E01B0934F01209138013091390140E068
:1001B00050E0281739074A075B0708F072C0109211
:1001C0004C0110924D0110924E0110924F01C70147
:1001D000B6010E94671320935F0130936001409342
:1001E0006101509362010E94E90F60935301709383
:1001F0005401809355019093560120915201E0E5FE
:10020000F1E080E030E0AF01405551404217530724
:1002100020F49381890F3196F6CF80936501CC2429
:10022000CA94DC2C7601C0925701D0925801E0921A
:100230005901F0925A0110925F01109260011092E0
:1002400061011092620110925B0110925C011092A8
:100250005D0110925E01109264011092630167E1EA
:1002600070E080E591E00E944E13C0925701D09259
:100270005801E0925901F0925A0110925F011092D8
:100280006001109261011092620110925B01109264
:100290005C0110925D0110925E0110926401109257
:1002A00063011F910F91FF90EF90DF90CF90089521
:1002B000E12C01E021E040E060E271EA87E090E0BB
:1002C0000E940E130E94F50F78946AE070E083E0BC
:1002D00090E00E948D0F80E00E9403060E948F052F
:1002E0000E94E90F4B015C010E94390B0E945002F1
:1002F0000E94E8040E949C010E9494060E942D0422
:100300000E94E90F6B017C01C818D908EA08FB08B4
:100310000E94E90F4B015C01C701B6010E947C00FD
:10032000E3CFE0E5F1E089E6808380EA818382E142
:10033000828386E9868B0895CF92DF92EF92FF92B7
:10034000CF93DF93CDB7DEB72C970FB6F894DEBF0F
:100350000FBECDBF80916F01882309F464C00E9455
:10036000E90F6B017C018091700190917101A09166
:100370007201B0917301B701A601481B590B6A0BBA
:100380007B0B8091400190914101A0E0B0E04817C3
:1003900059076A077B0708F446C0C0927001D092E3
:1003A0007101E0927201F09273010E94741029E6CB
:1003B000298324E92A8327E02B8326E92C872091AF
:1003C00067012F5F2093670130913701321710F5D5
:1003D00010926701CC82DD82EE82FF829C0196E062
:1003E000369527959A95E1F7398728878F738A87FD
:1003F000FE0134969E01255F3F4F80E09191890F69
:10040000E217F307D9F78B876CE070E0CE01019615
:100410000E944E1387E0FE013496A8E6B1E00190F9
:100420000D928A95E1F72C960FB6F894DEBF0FBEB9
:10043000CDBFDF91CF91FF90EF90DF90CF900895E7
:10044000CF93DF93DC0110929501EDE8F1E0EC0130
:1004500090E01082899187FD02C080839F5F319672
:1004600081E0E539F807A9F79093950118962D9149
:100470003C9119973093010120930001992351F089
:1004800081E01A969C91911101C080E0DF91CF919B
:100490000C94140EDF91CF91089510929501089558
:1004A000CF92DF92EF92FF920F931F93CF93DF9340
:1004B000CDB7DEB769970FB6F894DEBF0FBECDBFDC
:1004C00080919501882309F484C00E94E90F00916E
:1004D000890110918A0120918B0130918C016B016F
:1004E0007C01C01AD10AE20AF30A97018601409101
:1004F0000001509101016A01E12CF12C0C151D0540
:100500002E053F0508F465C06093890170938A0148
:1005100080938B0190938C0189E6898382E98A8399
:1005200084E18B8386E9898FFE013896CE01489657
:1005300011921192E817F907D9F7F12C80919501E2
:10054000F816B0F40F2D10E0F801E357FE4F80814C
:100550000E94340EF8013296EE0FFF1F21E030E0CA
:100560002C0F3D1FE20FF31F94838383F394E6CF98
:10057000809174018F5F8093740190913601981778
:10058000E8F4109274010E94E90F6C837D838E83DE
:100590009F834B81CE010196FC0120E050E0BF011A
:1005A000681B790B6417750720F43381230F31968C
:1005B000F6CF288F69E170E00E944E13F89484E131
:1005C000FE013496A5E7B1E001900D928A95E1F71E
:1005D000789469960FB6F894DEBF0FBECDBFDF9159
:1005E000CF911F910F91FF90EF90DF90CF900895E2
:1005F000CF93DF9300D000D01F92CDB7DEB7FE01BE
:10060000319695E0DF011D929A95E9F799E6998375
:1006100096E99D838A8365E070E0CF010E944E13C6
:100620000F900F900F900F900F90DF91CF91089542
:100630000F931F93CF93DF93CDB7DEB7EA970FB633
:10064000F894DEBF0FBECDBF162FFA01813309F437
:1006500098C098F4823109F43EC028F4882329F127
:10066000813139F1ECC0813209F471C0803309F471
:1006700075C0803209F0E3C052C0813509F4AFC0C3
:1006800050F4813409F4A1C0803509F4A2C080344B
:1006900009F0D5C088C0843509F4B6C0873509F49F
:1006A000BAC0833509F0CBC0A8C06111B6C080E7DD
:1006B000C7C0623009F0B1C01081018161E0812FB3
:1006C0000E94480E61E0011101C060E0812F0E948C
:1006D000860E81E8B5C0613009F09FC0008160E0FE
:1006E000802F0E94480E802F0E94A70E982FFE0197
:1006F000319687E0DF011D928A95E9F789E68983C3
:1007000082E88A831B8386E98F830C839D83900F05
:100710009E8367E070E0CF010E944E1393C06B3060
:1007200009F07BC0DE0111969E01275F3F4FCD018E
:100730004FEF4D932A173B07E1F72BE0DC010190C7
:100740000D922A95E1F70E94200280E979C061307C
:1007500009F063C00E944D0281E972C0683009F05F
:100760005CC088E0DE01119601900D928A95E1F758
:10077000CE0101960E94CD0481E08093C50180EAFC
:100780005FC084EC99E098878F831D821B82198259
:100790001E821C821A82CE0101960E94CD04109204
:1007A000C50181EA4DC06530C1F5238134814281A4
:1007B000618180810E943610882329F081E0809336
:1007C0006F0180EB3DC08CEF3BC010926F0181EB5D
:1007D00037C0613011F580810E94030633C06A334F
:1007E000E1F48AE3DE01119601900D928A95E1F71A
:1007F000CE0101960E94060625C0623071F4808108
:1008000091810E947B061EC0623039F48081918103
:100810000E946C0617C0663011F08DEF11C086E0A3
:10082000DE01119601900D928A95E1F749815A8176
:100830006B817C818D819E810E94E40503C08EEFD7
:100840000E94F802EA960FB6F894DEBF0FBECDBF45
:10085000DF91CF911F910F910895CF92DF92EF9288
:10086000FF920F931F93CF93DF930E94E90F6B01C9
:100870007C018091A30181110CC080919A01882391
:1008800009F467C010929A0106E911E0C0E0D1E0D6
:1008900056C01092A30106E911E0C0E0D1E0F801D2
:1008A00086859785A089B1890097A105B105F1F0EA
:1008B000D093A301B701A601481B590B6A0B7B0B10
:1008C0008091960190919701A0919801B091990122
:1008D00084179507A607B70748F416861786108A67
:1008E000118A60E070E08C2F0E942A10CF5F0C5FAD
:1008F0001F4FC430A1F6C1CFD0939A01B701A60112
:10090000481B590B6A0B7B0B8091960190919701C4
:10091000A0919801B091990184179507A607B70790
:1009200048F4158216821782108640E06C2F80E012
:100930000E949212CF5F0C5F1F4FC23051F0F8013E
:1009400085819681A781B0850097A105B10591F3B6
:10095000D3CFDF91CF911F910F91FF90EF90DF9058
:10096000CF900895E6E9F1E088EE93E0A0E0B0E0F2
:1009700080839183A283B3831482158688E0EBE998
:10098000F1E0DF011D928A95E9F780E1E4EAF1E008
:10099000DF011D928A95E9F70895CF93DF93EC016B
:1009A0008E819F8190930301809302012C814A8163
:1009B000688180E00E946C112D814B81698181E00A
:1009C0000E946C1181E08093C501DF91CF91089561
:1009D000CF92DF92EF92FF920F931F93CF93DF930B
:1009E000CDB7DEB765970FB6F894DEBF0FBECDBFAB
:1009F0008091C501882309F483C00E94E90F00910A
:100A0000C6011091C7012091C8013091C9016B0145
:100A10007C01C01AD10AE20AF30A970186014091CB
:100A20000201509103016A01E12CF12C0C151D0506
:100A30002E053F0508F464C06093C6017093C7019A
:100A40008093C8019093C90189E6898383E98A83E9
:100A500080E18B8386E98D8B8FB7F8944091720289
:100A600050917302609174027091750248875987A2
:100A70006A877B8740917D0250917E0260917F0260
:100A8000709180024C875D876E877F878FBF0E9441
:100A9000E90F6C837D838E839F8380910201909107
:100AA0000301A0E0B0E0888B998BAA8BBB8B80916F
:100AB000B4018F5F8093B40190913B019817B8F413
:100AC0001092B4014B81CE010196FC0120E050E070
:100AD000BF01681B790B6417750720F43381230F5E
:100AE0003196F6CF2C8B65E170E00E944E1380E1C9
:100AF000FE013496A5EBB1E001900D928A95E1F7E5
:100B000065960FB6F894DEBF0FBECDBFDF91CF91D3
:100B10001F910F91FF90EF90DF90CF900895CF93AA
:100B2000DF93CDB7DEB72B970FB6F894DEBF0FBEBD
:100B3000CDBF1D821E821C821A8282E4898383E4D7
:100B40008B8388EE93E098878F83CE0101960E9475
:100B5000CD041B86FE013196CE0109962FEF21931D
:100B60008E179F07E1F7198288EE93E09A878987AD
:100B7000CE0101960E94200224E630E042E261E2CA
:100B800080E20E94361081E080936F0161E086E48C
:100B90000E94480E61E082E00E94591240E061E04C
:100BA00082E00E94921261E084E40E94480E60E0BC
:100BB00084E40E94860E2B960FB6F894DEBF0FBE1B
:100BC000CDBFDF91CF910895CF93DF9300D000D0B8
:100BD00000D0CDB7DEB749835A836B837C838D8386
:100BE0009E8386E0FE013196A6E3B1E001900D926E
:100BF0008A95E1F726960FB6F894DEBF0FBECDBFFB
:100C0000DF91CF9108958093DF0108950F931F9393
:100C1000CF93DF93FC01DC0184E291E008E111E075
:100C20009F01245F3F4F4D915D916D917D91EC014E
:100C30004993599369937993CE0118964D915D919B
:100C40006D917C911B97E80149935993699379932E
:100C50008E01A217B30739F7DF015896C4E0D1E03F
:100C6000CF018C964D915D916D917D9149935993F2
:100C7000699379938A179B07A9F784A995A99093FB
:100C8000EF018093EE0186A997A9A0ADB1AD809345
:100C9000320190933301A0933401B093350180A9C0
:100CA00091A99093D8018093D70184A595A590939D
:100CB000DC018093DB0182A993A99093DA018093F0
:100CC000D90186A597A59093DE018093DD01DF9180
:100CD000CF911F910F9108959093D4018093D301E8
:100CE0000E94E90F6093CB017093CC018093CD01FA
:100CF0009093CE0108959093D6018093D5010E94E0
:100D0000E90F6093CF017093D0018093D10190934C
:100D1000D2010895FC014081518162817381448335
:100D200055836683778308954F925F926F927F9287
:100D30008F929F92AF92BF92CF92DF92EF92FF92EB
:100D40000F931F93CF93DF93CDB7DEB7A9970FB65D
:100D5000F894DEBF0FBECDBF0E94E90F6B017C018E
:100D60008091E0019091E101A091E201B091E30155
:100D7000B701A601481B590B6A0B7B0B8091300110
:100D800090913101A0E0B0E0481759076A077B074E
:100D900008F42DC4C092E001D092E101E092E2019A
:100DA000F092E301F8942091B9013091BA01409199
:100DB000BB015091BC012A8F3B8F4C8F5D8F789483
:100DC000F89480916C0190916D012091EE01309129
:100DD000EF01821B930B78942091EA013091EB0193
:100DE000AC01421B530B9A012D3D5BEF35073CF0E4
:100DF0002432344024F49093EB018093EA01609113
:100E0000EA017091EB018091E4019091E5019B0171
:100E1000281B390B2B303105F0F080E090E00E9468
:100E2000A30C4B015C016A8D7B8D8C8D9D8D0E9486
:100E3000A50C28E33BED4CED5BE30E94360D9B01D6
:100E4000AC01C501B4010E948E0B0E946D0C709321
:100E5000E5016093E4016091E4017091E501072EE2
:100E6000000C880B990B0E94A50C4B015C016A8D4C
:100E70007B8D8C8D9D8D0E94A50C28E33BED4CED68
:100E80005BE30E94360D9B01AC01C501B4010E94D9
:100E90008F0B0E946D0C6E8F7F8F88A399A34E8D50
:100EA0005F8D50932E0240932D0200912F021091DE
:100EB000300280903C0190903D01A0903E01B090A6
:100EC0003F018091350290913602A0913702B09196
:100ED0003802BC01CD0190582091100130911101D0
:100EE00040911201509113010E94360D2B013C01DB
:100EF0002091140130911501409116015091170174
:100F00006091390270913A0280913B0290913C02CB
:100F10000E94360D9B01AC01C301B2010E948E0BF1
:100F20002B013C016091290270912A02072E000CCE
:100F3000880B990B0E94A50C2091040130910501AA
:100F400040910601509107010E94360D9B01AC01B2
:100F5000C301B2010E948F0B2B013C0160912B0257
:100F600070912C02072E000C880B990B0E94A50C87
:100F7000209108013091090140910A0150910B0123
:100F80000E94360D9B01AC01C301B2010E948F0B80
:100F900020910C0130910D0140910E0150910F01F3
:100FA0000E94FB0B6AA37BA38CA39DA360933102D9
:100FB0007093320280933302909334028091DF0168
:100FC00081111EC08091CB019091CC01A091CD01E7
:100FD000B091CE01805F984DAF4FBF4F8C159D05EE
:100FE000AE05BF0520F41092D4011092D301809178
:100FF000D3019091D4019093220280932102DAC10F
:101000008091CF019091D001A091D101B091D201F6
:10101000805F984DAF4FBF4F8C159D05AE05BF0546
:1010200020F41092D6011092D5016091D5017091F3
:10103000D601072E000C880B990B0E94A50C905826
:101040006093190270931A0280931B0290931C0202
:1010500020911D0230911E0240911F0250912002EA
:101060002EA33FA348A759A74090E6015090E7015F
:101070006090E8017090E9010E948E0BA501940137
:101080000E94FB0BA30192010E94310D87FD10C04D
:10109000A30192016EA17FA188A599A50E948F0B43
:1010A0006093190270931A0280931B0290931C02A2
:1010B0004E8D5F8DBA01550F880B990B0E94A50CC0
:1010C0009B01AC016091190270911A0280911B0280
:1010D00090911C020E948E0B609305027093060291
:1010E0008093070290930802209118013091190112
:1010F00040911A0150911B010E94360D209115025A
:101100003091160240911702509118020E948F0BE5
:101110002B013C012091090230910A0240910B02FF
:1011200050910C0260911C0170911D0180911E0173
:1011300090911F010E94360D9B01AC01C301B201C9
:101140000E948F0B2B013C0120910D0230910E0269
:1011500040910F0250911002609120017091210185
:1011600080912201909123010E94360D9B01AC01D8
:10117000C301B2010E948F0B60931102709312029F
:1011800080931302909314022AA13BA14CA15DA16C
:101190000E948E0B2B013C016E8D7F8D601B710BAD
:1011A000072E000C880B990B0E94A50CA501940139
:1011B0000E94FB0B20913D0230913E0240913F0284
:1011C000509140020E948E0B9B01AC01C301B20101
:1011D0000E948E0B6093F9017093FA018093FB01DA
:1011E0009093FC012091240130912501409126012A
:1011F000509127010E94360D2B013C016091230282
:1012000070912402072E000C880B990B0E94A50CEC
:101210009B01AC01C301B2010E948F0B2B013C0169
:101220002091FD013091FE014091FF01509100029B
:10123000609128017091290180912A0190912B01E0
:101240000E94360D9B01AC01C301B2010E948F0BBD
:101250002B013C01209101023091020240910302D6
:101260005091040260912C0170912D0180912E010A
:1012700090912F010E94360D9B01AC01C301B20178
:101280000E948F0B0E946D0C0091D7011091D80124
:10129000600F711F8091D9019091DA01680F791F59
:1012A0008091DB019091DC01680F791F0091DD01D5
:1012B0001091DE01060F171F1093220200932102E6
:1012C000B801012E000C880B990B0E94A50C0E94FE
:1012D000A30D980117FF04C022273327201B310BD1
:1012E0002F3F31050CF47AC102301F4F1CF422E06D
:1012F0003FEF02C02EEF30E0309322022093210214
:101300000E946D0C2091210230912202D901A61B6E
:10131000B70BBD01072E000C880B990B0E94A50C82
:1013200020913201309133014091340150913501C7
:101330000E94FB0B6093F1017093F2018093F30123
:101340009093F4012091F5013091F6014091F7015D
:101350005091F8016091F1017091F2018091F301D7
:101360009091F4010E948F0BA50194010E94360D0B
:101370004B015C016091210270912202660F771F80
:10138000072E000C880B990B0E94A50C9B01AC0149
:10139000C501B4010E948F0B20E030E040E05FE324
:1013A0000E94360D0E94A30D0E946D0C70932202C4
:1013B0006093210280912D0290912E02AC0197FF43
:1013C00004C044275527481B590B2091EC0130914C
:1013D000ED014217530724F021E02093F0010AC0E9
:1013E00021533109421753072CF42091F0012111A8
:1013F0001092F0012091F0012223B9F0181619067D
:1014000044F48091210290912202181619064CF0A2
:101410000CC0892B51F0809121029091220297FFFC
:1014200004C0109222021092210289E192E00E94EF
:101430008A0681EF91E00E948A06809109029091CC
:101440000A02A0910B02B0910C0280930D029093BE
:101450000E02A0930F02B0931002809105029091AA
:101460000602A0910702B0910802809309029093AE
:101470000A02A0930B02B0930C0281E192E00E9459
:101480008A068091FD019091FE01A091FF01B0912B
:1014900000028093010290930202A0930302B09392
:1014A00004028091F9019091FA01A091FB01B091A1
:1014B000FC018093FD019093FE01A093FF01B09386
:1014C000000280912D0290912E0290933002809321
:1014D0002F02EDE3F2E081E392E07291629152918A
:1014E000429144835583668377838E179F07A9F7BC
:1014F000EBE2F2E081E292E03291229133832283A7
:101500008E179F07C9F71091220240912102512F97
:1015100057FF03C051954195510961E082E00E9457
:101520009212612F6095661F6627661F84E40E94F1
:10153000860E89E6898385E98A8384E18B8386E93F
:10154000898F8091CA018F5F8093CA0190913A017F
:10155000981708F04CC01092CA01CC82DD82EE824E
:10156000FF82809121029091220299878887809141
:10157000EA019091EB01A0E0B0E08E879F87A88BF5
:10158000B98B8A8D9B8DAC8DBD8D8A879B87AC87EF
:10159000BD8780912D0290912E02092E000CAA0B7E
:1015A000BB0B8A8B9B8BAC8BBD8B8091790190910F
:1015B0007A019F8B8E8BFE0134969E01285E3F4FF1
:1015C00080E09191890F2E173F07D9F7888F69E145
:1015D00070E0CE0101960E944E1309C01092F101F5
:1015E0001092F2011092F3011092F401ABCEA99681
:1015F0000FB6F894DEBF0FBECDBFDF91CF911F9124
:101600000F91FF90EF90DF90CF90BF90AF909F90A1
:101610008F907F906F905F904F9008956091EE0152
:101620007091EF0180E090E00E94A30C21E73DEB78
:101630004DE154E40E948F0B0E946D0C7093ED01FC
:101640006093EC0120913C0130913D0140913E01BD
:1016500050913F0160E070E08AE793E40E94FB0B49
:101660006093E6017093E7018093E8019093E901AC
:101670000895CF93DF931F92CDB7DEB71982CE01C5
:1016800001960E94F512882309F444C0E0915F029C
:101690009981E11106C0993621F010925F028BEF1B
:1016A0002DC081E08E0F80935F02F0E0EF5BFD4F75
:1016B0009083833020F390E040914302242F30E068
:1016C0002B5F3F4F82179307D1F68F5B9D4FFC0135
:1016D00031972081263909F7E4E4F2E060E020E068
:1016E000641721F03191230F6F5FFACFFC0132971D
:1016F0008081281731F010925F028AEF0E94F80271
:10170000BECF44E452E0809142020E94180310923E
:101710005F02B5CF0F90DF91CF9108955058BB274E
:10172000AA270E94A60B0C94F70C0E94E90C38F033
:101730000E94F00C20F039F49F3F19F426F40C9429
:10174000E60C0EF4E095E7FB0C94E00CE92F0E9408
:10175000080D58F3BA17620773078407950720F03E
:1017600079F4A6F50C942A0D0EF4E0950B2EBA2F01
:10177000A02D0B01B90190010C01CA01A001112497
:10178000FF27591B99F0593F50F4503E68F11A1643
:10179000F040A22F232F342F4427585FF3CF4695D4
:1017A00037952795A795F0405395C9F77EF41F16F6
:1017B000BA0B620B730B840BBAF09150A1F0FF0FC0
:1017C000BB1F661F771F881FC2F70EC0BA0F621FAC
:1017D000731F841F48F4879577956795B795F7959C
:1017E0009E3F08F0B0CF9395880F08F09927EE0F31
:1017F0009795879508950E940F0C0C94F70C0E9402
:10180000F00C58F00E94E90C40F029F45F3F29F0F9
:101810000C94E00C51110C942B0D0C94E60C0E94CE
:10182000080D68F39923B1F3552391F3951B550BDC
:10183000BB27AA2762177307840738F09F5F5F4FA3
:10184000220F331F441FAA1FA9F335D00E2E3AF0E2
:10185000E0E832D091505040E695001CCAF72BD0FA
:10186000FE2F29D0660F771F881FBB1F261737074B
:101870004807AB07B0E809F0BB0B802DBF01FF277D
:1018800093585F4F3AF09E3F510578F00C94E00C6E
:101890000C942B0D5F3FE4F3983ED4F38695779537
:1018A0006795B795F7959F5FC9F7880F911D969536
:1018B000879597F90895E1E0660F771F881FBB1F92
:1018C000621773078407BA0720F0621B730B840B3F
:1018D000BA0BEE1F88F7E09508950E94740C689487
:1018E000B1110C942B0D08950E94100D88F09F5794
:1018F00098F0B92F9927B751B0F0E1F0660F771F34
:10190000881F991F1AF0BA95C9F714C0B13091F029
:101910000E942A0DB1E008950C942A0D672F782FAC
:101920008827B85F39F0B93FCCF3869577956795EE
:10193000B395D9F73EF490958095709561957F4F5A
:101940008F4F9F4F0895E89409C097FB3EF4909500
:101950008095709561957F4F8F4F9F4F9923A9F088
:10196000F92F96E9BB279395F69587957795679517
:10197000B795F111F8CFFAF4BB0F11F460FF1BC05B
:101980006F5F7F4F8F4F9F4F16C0882311F096E9EE
:1019900011C0772321F09EE8872F762F05C066239C
:1019A00071F096E8862F70E060E02AF09A95660F55
:1019B000771F881FDAF7880F9695879597F908950E
:1019C00097F99F6780E870E060E008959FEF80ECF2
:1019D000089500240A941616170618060906089595
:1019E00000240A9412161306140605060895092EFB
:1019F0000394000C11F4882352F0BB0F40F4BF2B6A
:101A000011F460FF04C06F5F7F4F8F4F9F4F0895A9
:101A100057FD9058440F551F59F05F3F71F047959F
:101A2000880F97FB991F61F09F3F79F08795089584
:101A3000121613061406551FF2CF4695F1DF08C0A3
:101A4000161617061806991FF1CF869571056105C0
:101A500008940895E894BB2766277727CB0197F968
:101A600008950E94C70D08F48FEF08950E94490D54
:101A70000C94F70C0E94E90C38F00E94F00C20F056
:101A8000952311F00C94E00C0C94E60C11240C94AA
:101A90002B0D0E94080D70F3959FC1F3950F50E038
:101AA000551F629FF001729FBB27F00DB11D639F10
:101AB000AA27F00DB11DAA1F649F6627B00DA11DB6
:101AC000661F829F2227B00DA11D621F739FB00D5C
:101AD000A11D621F839FA00D611D221F749F3327CC
:101AE000A00D611D231F849F600D211D822F762F65
:101AF0006A2F11249F5750409AF0F1F088234AF042
:101B0000EE0FFF1FBB1F661F771F881F91505040AD
:101B1000A9F79E3F510580F00C94E00C0C942B0D1E
:101B20005F3FE4F3983ED4F3869577956795B79534
:101B3000F795E7959F5FC1F7FE2B880F911D96954E
:101B4000879597F908950E94100DE8F09E37E8F008
:101B50009639B8F49E3848F4672F782F8827985F15
:101B6000F9CF86957795679593959539D0F3B62FEC
:101B7000B1706B0F711D811D20F487957795679566
:101B800093950C94EB0D0C94060E0C942B0D990F61
:101B90000008550FAA0BE0E8FEEF16161706E80737
:101BA000F907C0F012161306E407F50798F0621B58
:101BB000730B840B950B39F40A2661F0232B242B2D
:101BC000252B21F408950A2609F4A140A6958FEF4C
:101BD000811D811D0895882371F4772321F0985089
:101BE000872B762F07C0662311F499270DC09051DB
:101BF000862B70E060E02AF09A95660F771F881FA9
:101C0000DAF7880F9695879597F908959F3F31F0F9
:101C1000915020F4879577956795B795880F911D1A
:101C20009695879597F90895882349F080917C00CF
:101C3000806480937C0080917C008F6708C08091D5
:101C40007C00806480937C0080917C008F778093FF
:101C50007C0080917A00876080937A0080917A007E
:101C6000806880937A00089590917C00907F892B02
:101C700080937C0080917A00806480937A008091C8
:101C80007A0086FDFCCF80917800909179000895CC
:101C9000CF93DF93882309F436C0282F22952F7025
:101CA00091F18F7041E050E0FA0102C0EE0FFF1F8A
:101CB0008A95E2F7CF0130E0220F331FF901E05798
:101CC000FF4FA591B491F901EA57FF4FC591D49107
:101CD0002FB7F894613099F050F0623099F49C91EC
:101CE000382F309593239C939881892B06C09C9123
:101CF000809598239C9398818923888303C09C9125
:101D0000892B8C932FBFDF91CF9108958823F1F019
:101D1000E82FE295EF70D1F0282F2F7081E090E04E
:101D200001C0880F2A95EAF7F0E0EE0FFF1FEA578F
:101D3000FF4FA591B4912FB7F8949C91662311F0B1
:101D4000892B02C0809589238C932FBF0895882307
:101D5000C1F0E82FE295EF70A1F0F0E0EE0FFF1F69
:101D6000E458FF4FA591B4913C91282F2F7081E04A
:101D700090E001C0880F2A95EAF7932F982381E01D
:101D800009F480E008951F920F920FB60F9211246C
:101D90002F933F934F935F936F937F938F939F9373
:101DA000AF93BF93EF93FF93E0916002F0916102D4
:101DB000309709F00995FF91EF91BF91AF919F91F5
:101DC0008F917F916F915F914F913F912F910F90E4
:101DD0000FBE0F901F9018951F920F920FB60F9283
:101DE00011242F933F934F935F936F937F938F9320
:101DF0009F93AF93BF93EF93FF93E0916202F091B3
:101E00006302309709F00995FF91EF91BF91AF916F
:101E10009F918F917F916F915F914F913F912F9102
:101E20000F900FBE0F901F9018951F920F920FB634
:101E30000F9211242F933F934F935F936F937F9350
:101E40008F939F93AF93BF93EF93FF93E0916402BF
:101E5000F0916502309709F00995FF91EF91BF91DC
:101E6000AF919F918F917F916F915F914F913F9132
:101E70002F910F900FBE0F901F901895823441F054
:101E8000833421F08232B9F582E003C081E001C0E1
:101E900080E09DB3E82FF0E021E030E001C0220FA8
:101EA0008A95EAF7822F809589238DBBEE0FFF1F5D
:101EB000DF01A05ABD4F6D937C933091690083E0A0
:101EC00090E00E2E01C0880F0A94EAF780958323D4
:101ED0008093690090916900842F8370482F01C01E
:101EE000440FEA95EAF7492B409369008DB3282BFC
:101EF0002DBB81E0089580E0089561E085E40E94B3
:101F0000480E60E085E40C94860E61E085E40E9452
:101F1000480E61E085E40C94860EEF92FF920F93D9
:101F20001F93CF93DF937C018B01C0E0D0E0CE15EF
:101F3000DF051CF51C161D066CF480E090E0081708
:101F4000190741F0E7E8F3E13197F1F700C000002D
:101F50000196F5CF0E947D0F80E090E008171907E9
:101F600041F0E7E8F3E13197F1F700C00000019696
:101F7000F5CF0E94850F2196DACFDF91CF911F9187
:101F80000F91FF90EF9008951F920F920FB60F924E
:101F900011248F939F93AF93BF938091660290918A
:101FA0006702A0916802B09169020196A11DB11D5E
:101FB0008093660290936702A0936802B0936902CF
:101FC000BF91AF919F918F910F900FBE0F901F9077
:101FD00018952FB7F894609166027091670280910E
:101FE0006802909169022FBF0895109266021092C4
:101FF0006702109268021092690289EF90E0909354
:102000008900809388008AE080938100EFE6F0E009
:102010008081826080830895CF93DF93EC010E94DA
:10202000AB1260E080916A020E94860E86E08A957B
:10203000F1F700C0CE010E94B21286E08A95F1F756
:1020400000C061E080916A020E94860EDF91CF910C
:102050000C94CF127F70706390E090E4899F902D74
:1020600088271124862B972B0C940C10E82F082E10
:10207000000CFF0BF0934701E0934601062E000C85
:10208000770B7093450160934401042E000C550BAF
:10209000509343014093420130934101209340010A
:1020A0001E161F06FCF416161706E4F41416150681
:1020B000CCF461E00E94480E61E0809144010E94EE
:1020C000480E60E0809142010E94480E61E08091DC
:1020D00044010E94860E61E0809146010E94860EB6
:1020E00081E0089580E008950F931F93CF93DF93CD
:1020F00061E0809146010E94480E61E080914401B8
:102100000E94480E60E0809142010E94480E60E00B
:10211000809146010E94860E86E08A95F1F700C004
:1021200086E08A95F1F700C000E110E0C0E0D0E061
:1021300060E0809144010E94860E86E08A95F1F766
:1021400000C061E0809144010E94860E86E08A957D
:10215000F1F700C0CC0FDD1F809142010E94A70E55
:102160008111C1600150110919F761E080914601A8
:102170000E94860ECE01DF91CF911F910F9108959D
:1021800080916C028823F9F0E0916E02EE0FFF0B54
:10219000E458FF4FA591B4912C9180916D0230E0ED
:1021A000082E000C990B82239323892B61F08091D8
:1021B000720290917302A0917402B091750201971E
:1021C000A109B1090BC08091720290917302A09194
:1021D0007402B09175020196A11DB11D8093720227
:1021E00090937302A0937402B093750280916F0272
:1021F0008823D9F0E0917102EE0FFF0BE458FF4FF6
:10220000A591B4912C918091700230E0082E000CC1
:10221000990B82239323892B41F010927202109222
:1022200073021092740210927502089580917702E1
:102230008823F9F0E0917902EE0FFF0BE458FF4F8D
:10224000A591B4912C918091780230E0082E000C79
:10225000990B82239323892B61F080917D029091C9
:102260007E02A0917F02B09180020197A109B1097D
:102270000BC080917D0290917E02A0917F02B0916F
:1022800080020196A11DB11D80937D0290937E0274
:10229000A0937F02B093800280917A028823D9F0C4
:1022A000E0917C02EE0FFF0BE458FF4FA591B49133
:1022B0002C9180917B0230E0082E000C990B822338
:1022C0009323892B41F010927D0210927E0210928E
:1022D0007F02109280020895BF92CF92DF92EF9218
:1022E000FF920F931F93CF93DF93CDB7DEB72B975A
:1022F0000FB6F894DEBF0FBECDBF823008F086C0A7
:10230000082F10E019821A821B821C821D821E82F5
:102310001F82188619861A861B868BE0809FF00123
:10232000819FF00D1124DF01A559BD4F7D01FE01F4
:10233000319601900D928A95E1F7F701608366234B
:1023400009F464C0C22ED42EB62E62E08B2D0E94FA
:10235000480EDD20D1F062E08D2D0E94480E2D2D1B
:102360002F7081E090E001C0880F2A95EAF7D7012D
:1023700012968C931297D2942FE0D2221396DC926D
:10238000139781E011968C9302C0F7011182CC2043
:10239000C1F02C2D2F7081E090E001C0880F2A95AC
:1023A000EAF79BE0909FF001919FF00D1124E55911
:1023B000FD4F8583C2949FE0C922C68281E0848359
:1023C0000BC08BE0809FF001819FF00D1124E55937
:1023D000FD4F148216821582000F111FF801E85B71
:1023E000FE4F6081718143E08B2D2B960FB6F894E0
:1023F000DEBF0FBECDBFDF91CF911F910F91FF9038
:10240000EF90DF90CF90BF900C943E0F2B960FB6BD
:10241000F894DEBF0FBECDBFDF91CF911F910F911A
:10242000FF90EF90DF90CF90BF900895EBE6F2E041
:1024300010821182128213821482158216821782F0
:1024400010861186128613861486158616861786C0
:10245000108A118A128A138A148A158A0895813083
:1024600061F028F0823079F0833099F018C066234B
:10247000C1F06130A1F484E208956623A1F06130D7
:1024800071F484E40895662381F0613041F486E4B8
:102490000895662361F0613011F487E2089580E0C9
:1024A000089583E2089585E4089587E4089586E217
:1024B00008950F931F93CF93DF93D82FC62F60E01B
:1024C0000E942F12082F61E08D2F0E942F12182FCB
:1024D00060E0802F0E94860E61E0802F0E94480EEF
:1024E00060E0812F0E94860E61E0812F0E94480EDD
:1024F000DD2369F0D23089F41092B3001092B40059
:1025000081EA8093B000C370C093B10006C017BCCD
:1025100018BC81EA84BDC370C5BDDF91CF911F9106
:102520000F910895882319F0823051F008956623A1
:1025300019F0613019F0089547BD089548BD089518
:10254000662319F0613021F008954093B300089597
:102550004093B4000895809182028CBD80918102E5
:102560008DBD08950CB405FC0DC09EBD00000DB4DA
:1025700007FEFDCF9EB58EBD00000DB407FEFDCF5A
:102580008EB508958EBD00000DB407FEFDCF8EB54B
:102590009EBD00000DB407FEFDCF9EB508950895C1
:1025A0001F920F920FB60F9211242F938F939F9328
:1025B000EF93FF939091C600E091C40281E08E0FEB
:1025C0008F732091C302821731F0F0E0ED57FD4F79
:1025D00090838093C402FF91EF919F918F912F91EF
:1025E0000F900FBE0F901F901895E091C30220919D
:1025F000C402E21789F021E02E0F2093C302F0E01D
:10260000ED57FD4F2081FC0120838091C3028F7321
:102610008093C30281E0089580E00895EF920F93C4
:10262000CF93DF93C42FD22F9B01AC0183E0220F05
:10263000331F441F551F8A95D1F760E07DE281E387
:1026400091E00E9467132150310982E08093C0001D
:10265000DD2311F080E901C080E8011188608093DA
:10266000C100C37080E1C89FA0011124842F866837
:10267000EE2011F0842F8E688093C2003093C50045
:102680002093C400DF91CF910F91EF900895909126
:10269000C00095FFFCCF8093C60008950F931F9351
:1026A000CF93DF93EC018C01060F171FC017D107E2
:1026B00021F089910E944713F9CFDF91CF911F91AB
:1026C0000F9108951092C3021092C4020895A1E2DE
:1026D0001A2EAA1BBB1BFD010DC0AA1FBB1FEE1F9C
:1026E000FF1FA217B307E407F50720F0A21BB30BE7
:1026F000E40BF50B661F771F881F991F1A9469F763
:1027000060957095809590959B01AC01BD01CF01BE
:102710000895EE0FFF1F0590F491E02D0994F894B1
:02272000FFCFE9
:10272200D0078813226C983E000000000000803F12
:10273200EFC933BF00000000D88137409C3336C058
:10274200000000003C4E91BECC5D4B3E00000000FC
:10275200F40172432C3E0A0A10270A0A0AD7233CC4
:0C276200D007120011001000C01016116A
:00000001FF
