:100000000C9452000C941D0F0C94460F0C946F0F1F
:100010000C947A000C947A000C947A000C947A0078
:100020000C947A000C947A000C947A000C947A0068
:100030000C947A000C941E100C947A000C947A00A4
:100040000C947A000C947A000C947A000C947A0048
:100050000C942A130C947A000C947A000C947A0075
:100060000C947A000C947A000C947A000C947A0028
:100070000C947A000C947A000C947A000000200012
:1000800023002600290000002200250028002B0064
:1000900000002100240027002A009101B204770B00
:1000A0007012BC1311241FBECFEFD4E0DEBFCDBF52
:1000B00011E0A0E0B1E0E6EDF7E202C005900D929C
:1000C000A035B107D9F722E0A0E5B1E001C01D924B
:1000D000AD3CB207E1F710E0C2E5D0E004C02197E3
:1000E000FE010E94E313CD34D107C9F70E945801E5
:1000F0000C94E9130C940000CF92DF92EF92FF92E0
:100100000F931F93C0906301D0906401E09065014C
:10011000F0906601C60ED71EE81EF91EC09263015C
:10012000D0926401E0926501F092660100915F0156
:10013000109160012091610130916201061717074B
:100140002807390740F460935F0170936001809342
:1001500061019093620100915B0110915C0120911B
:100160005D0130915E01601771078207930740F4CB
:1001700060935B0170935C0180935D0190935E01DD
:100180008091500190915101A0915201B091530181
:100190000196A11DB11D8093500190935101A09330
:1001A0005201B093530120913C0130913D0140E058
:1001B00050E0281739074A075B0708F072C0109211
:1001C0005001109251011092520110925301C70137
:1001D000B6010E94C11320936301309364014093E0
:1001E0006501509366010E9443106093570170931C
:1001F00058018093590190935A0120915601E4E5EA
:10020000F1E080E030E0AF01445551404217530720
:1002100020F49381890F3196F6CF80936901CC2425
:10022000CA94DC2C7601C0925B01D0925C01E09212
:100230005D01F0925E0110926301109264011092D0
:1002400065011092660110925F0110926001109298
:10025000610110926201109268011092670167E1DA
:1002600070E084E591E00E94A813C0925B01D092F7
:100270005C01E0925D01F0925E01109263011092C8
:100280006401109265011092660110925F01109254
:100290006001109261011092620110926801109247
:1002A00067011F910F91FF90EF90DF90CF9008951D
:1002B000E12C01E021E040E060E271EA87E090E0BB
:1002C0000E9468130E944F10789464E670E083E007
:1002D00090E00E94E70F80E00E9403060E948F05D5
:1002E0000E9443104B015C010E948E0B0E94500241
:1002F0000E94E8040E949C010E9494060E942D0422
:100300000E9443106B017C01C818D908EA08FB0859
:100310000E9443104B015C01C701B6010E947C00A2
:10032000E3CFE4E5F1E089E6808380EA818382E13E
:10033000828386E9868B0895CF92DF92EF92FF92B7
:10034000CF93DF93CDB7DEB72C970FB6F894DEBF0F
:100350000FBECDBF80917301882309F464C00E9451
:1003600043106B017C018091740190917501A09103
:100370007601B0917701B701A601481B590B6A0BB2
:100380007B0B8091440190914501A0E0B0E04817BB
:1003900059076A077B0708F446C0C0927401D092DF
:1003A0007501E0927601F09277010E94CE1029E665
:1003B000298324E92A8327E02B8326E92C872091AF
:1003C0006B012F5F20936B0130913B01321710F5C9
:1003D00010926B01CC82DD82EE82FF829C0196E05E
:1003E000369527959A95E1F7398728878F738A87FD
:1003F000FE0134969E01255F3F4F80E09191890F69
:10040000E217F307D9F78B876CE070E0CE01019615
:100410000E94A81387E0FE013496ACE6B1E001909B
:100420000D928A95E1F72C960FB6F894DEBF0FBEB9
:10043000CDBFDF91CF91FF90EF90DF90CF900895E7
:10044000CF93DF93DC0110929901E1E9F1E0EC0137
:1004500090E01082899187FD02C080839F5F319672
:1004600081E0E939F807A9F79093990118962D9141
:100470003C9119973093010120930001992351F089
:1004800081E01A969C91911101C080E0DF91CF919B
:100490000C946E0EDF91CF910895109299010895FA
:1004A000CF92DF92EF92FF920F931F93CF93DF9340
:1004B000CDB7DEB769970FB6F894DEBF0FBECDBFDC
:1004C00080919901882309F484C00E94431000910F
:1004D0008D0110918E0120918F01309190016B015F
:1004E0007C01C01AD10AE20AF30A97018601409101
:1004F0000001509101016A01E12CF12C0C151D0540
:100500002E053F0508F465C060938D0170938E0140
:1005100080938F019093900189E6898382E98A8391
:1005200084E18B8386E9898FFE013896CE01489657
:1005300011921192E817F907D9F7F12C80919901DE
:10054000F816B0F40F2D10E0F801EF56FE4F808141
:100550000E948E0EF8013296EE0FFF1F21E030E070
:100560002C0F3D1FE20FF31F94838383F394E6CF98
:10057000809178018F5F8093780190913A0198176C
:10058000E8F4109278010E9443106C837D838E837F
:100590009F834B81CE010196FC0120E050E0BF011A
:1005A000681B790B6417750720F43381230F31968C
:1005B000F6CF288F69E170E00E94A813F89484E1D7
:1005C000FE013496A9E7B1E001900D928A95E1F71A
:1005D000789469960FB6F894DEBF0FBECDBFDF9159
:1005E000CF911F910F91FF90EF90DF90CF900895E2
:1005F000CF93DF9300D000D01F92CDB7DEB7FE01BE
:10060000319695E0DF011D929A95E9F799E6998375
:1006100096E99D838A8365E070E0CF010E94A8136C
:100620000F900F900F900F900F90DF91CF91089542
:100630000F931F93CF93DF93CDB7DEB7EA970FB633
:10064000F894DEBF0FBECDBF162FFA01813309F437
:1006500098C098F4823109F43EC028F4882329F127
:10066000813139F1ECC0813209F471C0803309F471
:1006700075C0803209F0E3C052C0823509F4AFC0C2
:1006800050F4813409F4A1C0803509F4A2C080344B
:1006900009F0D5C088C0883509F4AFC0803609F4A8
:1006A000BAC0853509F0CBC0AFC06111B6C080E7D4
:1006B000C7C0623009F0B1C01081018161E0812FB3
:1006C0000E94A20E61E0011101C060E0812F0E9432
:1006D000E00E81E8B5C0613009F09FC0008160E0A4
:1006E000802F0E94A20E802F0E94010F982FFE01E2
:1006F000319687E0DF011D928A95E9F789E68983C3
:1007000082E88A831B8386E98F830C839D83900F05
:100710009E8367E070E0CF010E94A81393C06B3006
:1007200009F07BC0DE0111969E01275F3F4FCD018E
:100730004FEF4D932A173B07E1F72BE0DC010190C7
:100740000D922A95E1F70E94200280E979C061307C
:1007500009F063C00E944D0281E972C0683009F05F
:100760005CC088E0DE01119601900D928A95E1F758
:10077000CE0101960E94CD0481E08093C90180EAF8
:100780005FC084EC99E098878F831D821B82198259
:100790001E821C821A82CE0101960E94CD04109204
:1007A000C90181EA4DC06530C1F5238134814281A0
:1007B000618180810E949010882329F081E08093DC
:1007C000730180EB3DC08CEF3BC01092730181EB55
:1007D00037C0613011F580810E94030633C06A334F
:1007E000E1F48AE3DE01119601900D928A95E1F71A
:1007F000CE0101960E94060625C0623071F4808108
:1008000091810E947B061EC0623039F48081918103
:100810000E946C0617C0663011F08DEF11C086E0A3
:10082000DE01119601900D928A95E1F749815A8176
:100830006B817C818D819E810E94E40503C08EEFD7
:100840000E94F802EA960FB6F894DEBF0FBECDBF45
:10085000DF91CF911F910F910895CF92DF92EF9288
:10086000FF920F931F93CF93DF930E9443106B016E
:100870007C018091A70181110CC080919E01882389
:1008800009F467C010929E010AE911E0C0E0D1E0CE
:1008900056C01092A7010AE911E0C0E0D1E0F801CA
:1008A00086859785A089B1890097A105B105F1F0EA
:1008B000D093A701B701A601481B590B6A0B7B0B0C
:1008C00080919A0190919B01A0919C01B0919D0112
:1008D00084179507A607B70748F416861786108A67
:1008E000118A60E070E08C2F0E948410CF5F0C5F53
:1008F0001F4FC430A1F6C1CFD0939E01B701A6010E
:10090000481B590B6A0B7B0B80919A0190919B01BC
:10091000A0919C01B0919D0184179507A607B70788
:1009200048F4158216821782108640E06C2F80E012
:100930000E94EC12CF5F0C5F1F4FC23051F0F801E4
:1009400085819681A781B0850097A105B10591F3B6
:10095000D3CFDF91CF911F910F91FF90EF90DF9058
:10096000CF900895EAE9F1E088EE93E0A0E0B0E0EE
:1009700080839183A283B3831482158688E0EFE994
:10098000F1E0DF011D928A95E9F780E1E8EAF1E004
:10099000DF011D928A95E9F70895CF93DF93EC016B
:1009A0008E819F8190930301809302012C814A8163
:1009B000688180E00E94C6112D814B81698181E0B0
:1009C0000E94C61181E08093C901DF91CF91089503
:1009D000CF92DF92EF92FF920F931F93CF93DF930B
:1009E000CDB7DEB765970FB6F894DEBF0FBECDBFAB
:1009F0008091C901882309F483C00E9443100091AB
:100A0000CA011091CB012091CC013091CD016B0135
:100A10007C01C01AD10AE20AF30A970186014091CB
:100A20000201509103016A01E12CF12C0C151D0506
:100A30002E053F0508F464C06093CA017093CB0192
:100A40008093CC019093CD0189E6898383E98A83E1
:100A500080E18B8386E98D8B8FB7F89440917A0281
:100A600050917B0260917C0270917D02488759878A
:100A70006A877B8740918502509186026091870248
:100A8000709188024C875D876E877F878FBF0E9439
:100A900043106C837D838E839F83809102019091AC
:100AA0000301A0E0B0E0888B998BAA8BBB8B80916F
:100AB000B8018F5F8093B80190913F019817B8F407
:100AC0001092B8014B81CE010196FC0120E050E06C
:100AD000BF01681B790B6417750720F43381230F5E
:100AE0003196F6CF2C8B65E170E00E94A81380E16F
:100AF000FE013496A9EBB1E001900D928A95E1F7E1
:100B000065960FB6F894DEBF0FBECDBFDF91CF91D3
:100B10001F910F91FF90EF90DF90CF900895CF93AA
:100B2000DF93CDB7DEB72B970FB6F894DEBF0FBEBD
:100B3000CDBF1D821E821C821A8282E4898383E4D7
:100B40008B8388EE93E098878F83CE0101960E9475
:100B5000CD041B86FE013196CE0109962FEF21931D
:100B60008E179F07E1F7198288EE93E09A878987AD
:100B7000CE0101960E94200224E630E042E261E2CA
:100B800080E20E94901081E08093730161E086E42E
:100B90000E94A20E61E082E00E94B31240E061E098
:100BA00082E00E94EC1261E084E40E94A20E60E008
:100BB00084E40E94E00E2B960FB6F894DEBF0FBEC1
:100BC000CDBFDF91CF910895CF93DF9300D000D0B8
:100BD00000D0CDB7DEB749835A836B837C838D8386
:100BE0009E8386E0FE013196AAE3B1E001900D926A
:100BF0008A95E1F726960FB6F894DEBF0FBECDBFFB
:100C0000DF91CF9108958093E30108950F931F938F
:100C1000CF93DF93FC01DC0184E291E008E111E075
:100C20009F01245F3F4F4D915D916D917D91EC014E
:100C30004993599369937993CE0118964D915D919B
:100C40006D917C911B97E80149935993699379932E
:100C50008E01A217B30739F7DF015896C4E0D1E03F
:100C6000CF018C964D915D916D917D9149935993F2
:100C7000699379938A179B07A9F784A995A99093FB
:100C8000F3018093F20186A997A9A0ADB1AD80933D
:100C9000320190933301A0933401B093350180A9C0
:100CA00091A99093DC018093DB0184A595A5909395
:100CB000E0018093DF0182A993A99093DE018093E4
:100CC000DD0186A597A59093E2018093E101DF9174
:100CD000CF911F910F9108959093D8018093D701E0
:100CE0000E9443106093CF017093D0018093D10193
:100CF0009093D20108959093DA018093D9010E94D4
:100D000043106093D3017093D4018093D5019093E5
:100D1000D6010895FC014081518162817381448331
:100D200055836683778308954F925F926F927F9287
:100D30008F929F92AF92BF92CF92DF92EF92FF92EB
:100D40001F93CF93DF93CDB7DEB7E2970FB6F8943A
:100D5000DEBF0FBECDBF0E9443102B013C0180912E
:100D6000E4019091E501A091E601B091E701B301A2
:100D7000A201481B590B6A0B7B0B809130019091AB
:100D80003101A0E0B0E0481759076A077B0708F473
:100D900098C44092E4015092E5016092E60170929D
:100DA000E701F8942091BD013091BE014091BF014F
:100DB0005091C0012BA33CA34DA35EA378948091D6
:100DC0007001909171012091F2013091F301821B29
:100DD000930B2091F0013091F101AC01421B530BB8
:100DE0009A012D5D3B4F2734384020F49093F10158
:100DF0008093F0016BA17CA18DA19EA10E94FF0CAC
:100E000028E33BED4CED5BE30E94B40D6B017C01EC
:100E10006091F0017091F101072E000C880B990B85
:100E20000E94FF0C4B015C012091E8013091E90127
:100E30004091EA015091EB01C701B6010E94E40B19
:100E40009B01AC01C501B4010E94E30B0E94C70CD9
:100E50009B0177FF04C022273327261B370B263040
:100E6000310574F0A7019601C501B4010E94E30B9E
:100E70006093E8017093E9018093EA019093EB019C
:100E80002091E8013091E9014091EA015091EB0194
:100E9000C701B6010E94E40B6B017C016093310233
:100EA0007093320280933302909334028091350222
:100EB00090913602A0913702B09138028FA798AB7B
:100EC000A9ABBAAB20914001309141014091420160
:100ED000509143012F8F38A349A35AA380913D021B
:100EE00090913E02A0913F02B0914002BC01CD0121
:100EF00090582091100130911101409112015091B0
:100F000013010E94B40D4B015C012091140130913A
:100F100015014091160150911701609141027091A5
:100F2000420280914302909144020E94B40D9B01C1
:100F3000AC01C501B4010E94E30B4B015C0160915F
:100F40002D0270912E02072E000C880B990B0E9427
:100F5000FF0C209104013091050140910601509150
:100F600007010E94B40D9B01AC01C501B4010E94B0
:100F7000E40B4B015C0160912F0270913002072E4F
:100F8000000C880B990B0E94FF0C209108013091F6
:100F9000090140910A0150910B010E94B40D9B017F
:100FA000AC01C501B4010E94E40B20910C01309109
:100FB0000D0140910E0150910F010E94550C6FA33D
:100FC00078A789A79AA76093390270933A02809311
:100FD0003B0290933C028091E30181111EC08091FD
:100FE000CF019091D001A091D101B091D201805F49
:100FF000984DAF4FBF4F84159505A605B70520F452
:101000001092D8011092D7018091D7019091D80108
:101010009093260280932502DCC18091D3019091A8
:10102000D401A091D501B091D601805F984DAF4F0A
:10103000BF4F84159505A605B70520F41092DA0177
:101040001092D9016091D9017091DA01072E000C3C
:10105000880B990B0E94FF0C905860931D027093AF
:101060001E0280931F029093200280902102909094
:101070002202A0902302B09024022091EC01309132
:10108000ED014091EE015091EF012BA73CA74DA738
:101090005EA7A50194010E94E30B2F8D38A149A101
:1010A0005AA10E94550C2BA53CA54DA55EA50E94FA
:1010B000AF0D87FD10C02BA53CA54DA55EA5C501B4
:1010C000B4010E94E40B60931D0270931E02809392
:1010D0001F0290932002A701960160911D0270915A
:1010E0001E0280911F02909120020E94E30B6093E8
:1010F000090270930A0280930B0290930C022091D4
:1011000018013091190140911A0150911B010E9460
:10111000B40D2091190230911A0240911B02509196
:101120001C020E94E40B4B015C0120910D023091E6
:101130000E0240910F025091100260911C017091BB
:101140001D0180911E0190911F010E94B40D9B0111
:10115000AC01C501B4010E94E40B4B015C0120917C
:1011600011023091120240911302509114026091C9
:1011700020017091210180912201909123010E9410
:10118000B40D9B01AC01C501B4010E94E40B609356
:1011900015027093160280931702909318022FA1E4
:1011A00038A549A55AA50E94E30B4B015C012FA568
:1011B00038A949A95AA9C701B6010E94E30B2F8D8E
:1011C00038A149A15AA10E94550C209145023091A5
:1011D000460240914702509148020E94E30B9B0156
:1011E000AC01C501B4010E94E30B6093FD01709353
:1011F000FE018093FF019093000220912401309121
:10120000250140912601509127010E94B40D6B01E8
:101210007C016091270270912802072E000C880B38
:10122000990B0E94FF0C9B01AC01C701B6010E9403
:10123000E40B6B017C01209101023091020240918C
:10124000030250910402609128017091290180915C
:101250002A0190912B010E94B40D9B01AC01C701A2
:10126000B6010E94E40B6B017C01209105023091D4
:101270000602409107025091080260912C01709182
:101280002D0180912E0190912F010E94B40D9B01A0
:10129000AC01C701B6010E94E40B0E94C70CE090AC
:1012A000DB01F090DC016E0D7F1D8091DD019091DE
:1012B000DE01680F791F8091DF019091E001680FD6
:1012C000791FE090E101F090E201E60EF71EF09246
:1012D0002602E0922502B7010F2C000C880B990B17
:1012E0000E94FF0C0E94210E9701F7FE04C02227E6
:1012F00033272E193F092F3F31050CF4D9C132E0B5
:10130000E3163FEFF3061CF422E03FEF02C02EEF9E
:1013100030E030932602209325020E94C70C2091D2
:10132000250230912602D901A61BB70BBD01072E5D
:10133000000C880B990B0E94FF0C20913201309118
:10134000330140913401509135010E94550C609356
:10135000F5017093F6018093F7019093F8012091C5
:10136000F9013091FA014091FB015091FC0160912B
:10137000F5017091F6018091F7019091F8010E94BA
:10138000E40B2F8D38A149A15AA10E94B40D6B0125
:101390007C016091250270912602660F771F072E4F
:1013A000000C880B990B0E94FF0C9B01AC01C7013C
:1013B000B6010E94E40B20E030E040E05FE30E94D1
:1013C000B40D0E94210E0E94C70C709326026093F8
:1013D00025028091F401882389F160913102709196
:1013E000320280913302909134020E94C70C9B011B
:1013F00077FF04C022273327261B370BB901330F91
:10140000880B990B0E94FF0C6B017C0120E030E0FF
:1014100048E452E4609136017091370180913801BF
:10142000909139010E94E30B9B01AC0111E0C701CF
:10143000B6010E94AF0D18162CF123C06091310245
:101440007091320280913302909134020E94C70C55
:101450009B0177FF04C022273327261B370BB901D6
:10146000330F880B990B0E94FF0C11E0209136017D
:101470003091370140913801509139010E94AF0DF0
:1014800087FD10E01093F401112361F1C090310247
:10149000D0903202E0903302F090340220E030E04D
:1014A000A901C701B6010E94AF0D181664F480911E
:1014B000250290912602181619062CF41092260285
:1014C000109225020FC020E030E0A901C701B6014B
:1014D0000E94500C87FF06C0809125029091260241
:1014E00097FDECCF8DE192E00E948A0685EF91E0B6
:1014F0000E948A0680910D0290910E02A0910F0227
:10150000B09110028093110290931202A0931302E3
:10151000B09314028091090290910A02A0910B02EB
:10152000B0910C0280930D0290930E02A0930F02D3
:10153000B093100285E192E00E948A068091010238
:1015400090910202A0910302B091040280930502DF
:1015500090930602A0930702B09308028091FD01C8
:101560009091FE01A091FF01B091000280930102D1
:1015700090930202A0930302B093040281E392E0ED
:101580000E948A06E5E4F2E089E392E072916291BA
:101590005291429144835583668377838E179F07C8
:1015A000A9F7EFE2F2E085E292E0329122913383F3
:1015B00022838E179F07C9F7F090260240912502DB
:1015C0005F2D57FF03C051954195510961E082E0BD
:1015D0000E94EC126F2D6095661F6627661F84E4DB
:1015E0000E94E00E89E6898385E98A8389E18B83FD
:1015F00086E98E8F8091CE018F5F8093CE0190918E
:101600003E01981708F05DC01092CE014C825D82B9
:101610006E827F8280912502909126029987888729
:101620008091F0019091F101092E000CAA0BBB0BE7
:101630008E879F87A88BB98B8BA19CA1ADA1BEA1E2
:101640008A879B87AC87BD87809131029091320257
:10165000A0913302B09134028A8B9B8BAC8BBD8BF3
:1016600080917D0190917E019F8B8E8B8091F40102
:10167000888F8091E8019091E901A091EA01B091F1
:10168000EB01898F9A8FAB8FBC8FFE0134969E0140
:10169000235E3F4F80E09191890F2E173F07D9F7C6
:1016A0008D8F6EE170E0CE0101960E94A81309C0F3
:1016B0001092F5011092F6011092F7011092F801C4
:1016C0004ECEE2960FB6F894DEBF0FBECDBFDF91CF
:1016D000CF911F91FF90EF90DF90CF90BF90AF9090
:1016E0009F908F907F906F905F904F900895209182
:1016F000400130914101409142015091430160E02D
:1017000070E08AE793E40E94550C6093EC017093BB
:10171000ED018093EE019093EF010895CF93DF9355
:101720001F92CDB7DEB71982CE0101960E944F13EA
:10173000882309F444C0E09167029981E11106C051
:10174000993621F0109267028BEF2DC081E08E0F49
:1017500080936702F0E0E75BFD4F9083833020F3D6
:1017600090E040914B02242F30E02B5F3F4F8217D7
:101770009307D1F6875B9D4FFC0131972081263975
:1017800009F7ECE4F2E060E020E0641721F0319129
:10179000230F6F5FFACFFC0132978081281731F059
:1017A000109267028AEF0E94F802BECF4CE452E02A
:1017B00080914A020E94180310926702B5CF0F90E1
:1017C000DF91CF9108955058BB27AA270E94FB0BA9
:1017D0000C94750D0E94670D38F00E946E0D20F07C
:1017E00039F49F3F19F426F40C94640D0EF4E0953F
:1017F000E7FB0C945E0DE92F0E94860D58F3BA1793
:10180000620773078407950720F079F4A6F50C9416
:10181000A80D0EF4E0950B2EBA2FA02D0B01B901E7
:1018200090010C01CA01A0011124FF27591B99F056
:10183000593F50F4503E68F11A16F040A22F232F62
:10184000342F4427585FF3CF469537952795A795B2
:10185000F0405395C9F77EF41F16BA0B620B730B59
:10186000840BBAF09150A1F0FF0FBB1F661F771FCA
:10187000881FC2F70EC0BA0F621F731F841F48F47F
:10188000879577956795B795F7959E3F08F0B0CF08
:101890009395880F08F09927EE0F979587950895EF
:1018A0000E943A0D08F481E008950E94690C0C949E
:1018B000750D0E946E0D58F00E94670D40F029F4DE
:1018C0005F3F29F00C945E0D51110C94A90D0C94FE
:1018D000640D0E94860D68F39923B1F3552391F3AB
:1018E000951B550BBB27AA2762177307840738F08F
:1018F0009F5F5F4F220F331F441FAA1FA9F335D0EC
:101900000E2E3AF0E0E832D091505040E695001C9F
:10191000CAF72BD0FE2F29D0660F771F881FBB1F59
:10192000261737074807AB07B0E809F0BB0B802D37
:10193000BF01FF2793585F4F3AF09E3F510578F063
:101940000C945E0D0C94A90D5F3FE4F3983ED4F324
:10195000869577956795B795F7959F5FC9F7880F37
:10196000911D9695879597F90895E1E0660F771F89
:10197000881FBB1F621773078407BA0720F0621B1A
:10198000730B840BBA0BEE1F88F7E09508950E9445
:10199000CE0C6894B1110C94A90D08950E948E0D7F
:1019A00088F09F5798F0B92F9927B751B0F0E1F020
:1019B000660F771F881F991F1AF0BA95C9F714C0D0
:1019C000B13091F00E94A80DB1E008950C94A80DDB
:1019D000672F782F8827B85F39F0B93FCCF3869509
:1019E00077956795B395D9F73EF490958095709566
:1019F00061957F4F8F4F9F4F0895E89409C097FBE3
:101A00003EF490958095709561957F4F8F4F9F4FD5
:101A10009923A9F0F92F96E9BB279395F695879519
:101A200077956795B795F111F8CFFAF4BB0F11F4DC
:101A300060FF1BC06F5F7F4F8F4F9F4F16C0882383
:101A400011F096E911C0772321F09EE8872F762FB9
:101A500005C0662371F096E8862F70E060E02AF0FA
:101A60009A95660F771F881FDAF7880F96958795E6
:101A700097F90895990F0008550FAA0BE0E8FEEFBB
:101A800016161706E807F907C0F012161306E40742
:101A9000F50798F0621B730B840B950B39F40A263B
:101AA00061F0232B242B252B21F408950A2609F419
:101AB000A140A6958FEF811D811D089597F99F671D
:101AC00080E870E060E008959FEF80EC08950024C6
:101AD0000A941616170618060906089500240A9493
:101AE00012161306140605060895092E0394000C19
:101AF00011F4882352F0BB0F40F4BF2B11F460FFA8
:101B000004C06F5F7F4F8F4F9F4F089557FD9058D0
:101B1000440F551F59F05F3F71F04795880F97FBB1
:101B2000991F61F09F3F79F087950895121613066B
:101B30001406551FF2CF4695F1DF08C0161617069A
:101B40001806991FF1CF86957105610508940895CF
:101B5000E894BB2766277727CB0197F908950E9461
:101B60003A0D08F48FEF08950E94C70D0C94750D7F
:101B70000E94670D38F00E946E0D20F0952311F041
:101B80000C945E0D0C94640D11240C94A90D0E940C
:101B9000860D70F3959FC1F3950F50E0551F629F1E
:101BA000F001729FBB27F00DB11D639FAA27F00DB6
:101BB000B11DAA1F649F6627B00DA11D661F829FDD
:101BC0002227B00DA11D621F739FB00DA11D621FC2
:101BD000839FA00D611D221F749F3327A00D611DDF
:101BE000231F849F600D211D822F762F6A2F1124C1
:101BF0009F5750409AF0F1F088234AF0EE0FFF1FF4
:101C0000BB1F661F771F881F91505040A9F79E3F4A
:101C1000510580F00C945E0D0C94A90D5F3FE4F328
:101C2000983ED4F3869577956795B795F795E795A0
:101C30009F5FC1F7FE2B880F911D9695879597F9A9
:101C400008950E948E0DE8F09E37E8F09639B8F4BA
:101C50009E3848F4672F782F8827985FF9CF8695AC
:101C60007795679593959539D0F3B62FB1706B0F33
:101C7000711D811D20F487957795679593950C9438
:101C8000450E0C94600E0C94A90D882371F47723F3
:101C900021F09850872B762F07C0662311F49927DF
:101CA0000DC09051862B70E060E02AF09A95660F87
:101CB000771F881FDAF7880F9695879597F908950B
:101CC0009F3F31F0915020F4879577956795B795B0
:101CD000880F911D9695879597F90895882349F067
:101CE00080917C00806480937C0080917C008F6771
:101CF00008C080917C00806480937C0080917C008F
:101D00008F7780937C0080917A00876080937A003F
:101D100080917A00806880937A00089590917C0089
:101D2000907F892B80937C0080917A0080648093DF
:101D30007A0080917A0086FDFCCF809178009091A6
:101D400079000895CF93DF93882309F436C0282FB4
:101D500022952F7091F18F7041E050E0FA0102C09E
:101D6000EE0FFF1F8A95E2F7CF0130E0220F331FFD
:101D7000F901E057FF4FA591B491F901EA57FF4FE0
:101D8000C591D4912FB7F894613099F050F062303A
:101D900099F49C91382F309593239C939881892BAB
:101DA00006C09C91809598239C9398818923888371
:101DB00003C09C91892B8C932FBFDF91CF91089505
:101DC0008823F1F0E82FE295EF70D1F0282F2F70E3
:101DD00081E090E001C0880F2A95EAF7F0E0EE0F6D
:101DE000FF1FEA57FF4FA591B4912FB7F8949C912C
:101DF000662311F0892B02C0809589238C932FBF15
:101E000008958823C1F0E82FE295EF70A1F0F0E08B
:101E1000EE0FFF1FE458FF4FA591B4913C91282F7E
:101E20002F7081E090E001C0880F2A95EAF7932F88
:101E3000982381E009F480E008951F920F920FB675
:101E40000F9211242F933F934F935F936F937F9340
:101E50008F939F93AF93BF93EF93FF93E0916802AB
:101E6000F0916902309709F00995FF91EF91BF91C8
:101E7000AF919F918F917F916F915F914F913F9122
:101E80002F910F900FBE0F901F9018951F920F92D9
:101E90000FB60F9211242F933F934F935F936F933D
:101EA0007F938F939F93AF93BF93EF93FF93E091B3
:101EB0006A02F0916B02309709F00995FF91EF915A
:101EC000BF91AF919F918F917F916F915F914F9152
:101ED0003F912F910F900FBE0F901F9018951F925A
:101EE0000F920FB60F9211242F933F934F935F934E
:101EF0006F937F938F939F93AF93BF93EF93FF93D2
:101F0000E0916C02F0916D02309709F00995FF9114
:101F1000EF91BF91AF919F918F917F916F915F9161
:101F20004F913F912F910F900FBE0F901F901895DA
:101F3000823441F0833421F08232B9F582E003C06B
:101F400081E001C080E09DB3E82FF0E021E030E0C7
:101F500001C0220F8A95EAF7822F809589238DBBD5
:101F6000EE0FFF1FDF01A859BD4F6D937C93309199
:101F7000690083E090E00E2E01C0880F0A94EAF712
:101F8000809583238093690090916900842F8370EA
:101F9000482F01C0440FEA95EAF7492B40936900A6
:101FA0008DB3282B2DBB81E0089580E0089561E07A
:101FB00085E40E94A20E60E085E40C94E00E61E0EE
:101FC00085E40E94A20E61E085E40C94E00EEF929D
:101FD000FF920F931F93CF93DF937C018B01C0E09F
:101FE000D0E0CE15DF051CF51C161D066CF480E054
:101FF00090E00817190741F0E7E8F3E13197F1F7AE
:1020000000C000000196F5CF0E94D70F80E090E05D
:102010000817190741F0E7E8F3E13197F1F700C03D
:1020200000000196F5CF0E94DF0F2196DACFDF91F5
:10203000CF911F910F91FF90EF9008951F920F92F3
:102040000FB60F9211248F939F93AF93BF938091FC
:102050006E0290916F02A0917002B0917102019690
:10206000A11DB11D80936E0290936F02A093700228
:10207000B0937102BF91AF919F918F910F900FBE5E
:102080000F901F9018952FB7F89460916E02709181
:102090006F0280917002909171022FBF089510928B
:1020A0006E0210926F02109270021092710289EF0C
:1020B00090E090938900809388008AE0809381006B
:1020C000EFE6F0E08081826080830895CF93DF9314
:1020D000EC010E94051360E0809172020E94E00E04
:1020E00086E08A95F1F700C0CE010E940C1386E0CD
:1020F0008A95F1F700C061E0809172020E94E00EC3
:10210000DF91CF910C9429137F70706390E090E47D
:10211000899F902D88271124862B972B0C9466106D
:10212000E82F082E000CFF0BF0934B01E0934A01BF
:10213000062E000C770B7093490160934801042E22
:10214000000C550B509347014093460130934501D5
:10215000209344011E161F06FCF416161706E4F41D
:1021600014161506CCF461E00E94A20E61E0809185
:1021700048010E94A20E60E0809146010E94A20EDA
:1021800061E0809148010E94E00E61E080914A0187
:102190000E94E00E81E0089580E008950F931F9360
:1021A000CF93DF9361E080914A010E94A20E61E02B
:1021B000809148010E94A20E60E0809146010E9439
:1021C000A20E60E080914A010E94E00E86E08A95AE
:1021D000F1F700C086E08A95F1F700C000E110E059
:1021E000C0E0D0E060E0809148010E94E00E86E00F
:1021F0008A95F1F700C061E0809148010E94E00EED
:1022000086E08A95F1F700C0CC0FDD1F8091460172
:102210000E94010F8111C1600150110919F761E09D
:1022200080914A010E94E00ECE01DF91CF911F9173
:102230000F910895809174028823F9F0E09176025D
:10224000EE0FFF0BE458FF4FA591B4912C918091B4
:10225000750230E0082E000C990B82239323892B02
:1022600061F080917A0290917B02A0917C02B09102
:102270007D020197A109B1090BC080917A0290916A
:102280007B02A0917C02B0917D020196A11DB11D3F
:1022900080937A0290937B02A0937C02B0937D029C
:1022A000809177028823D9F0E0917902EE0FFF0B3D
:1022B000E458FF4FA591B4912C918091780230E0C1
:1022C000082E000C990B82239323892B41F0109246
:1022D0007A0210927B0210927C0210927D02089585
:1022E00080917F028823F9F0E0918102EE0FFF0BCD
:1022F000E458FF4FA591B4912C918091800230E079
:10230000082E000C990B82239323892B61F0809176
:10231000850290918602A0918702B0918802019770
:10232000A109B1090BC08091850290918602A0910C
:102330008702B09188020196A11DB11D809385028C
:1023400090938602A0938702B093880280918202C4
:102350008823D9F0E0918402EE0FFF0BE458FF4F81
:10236000A591B4912C918091830230E0082E000C4D
:10237000990B82239323892B41F0109285021092AE
:10238000860210928702109288020895BF92CF921F
:10239000DF92EF92FF920F931F93CF93DF93CDB70E
:1023A000DEB72B970FB6F894DEBF0FBECDBF8230DD
:1023B00008F086C0082F10E019821A821B821C8246
:1023C0001D821E821F82188619861A861B868BE044
:1023D000809FF001819FF00D1124DF01AD58BD4FAA
:1023E0007D01FE01319601900D928A95E1F7F7018A
:1023F0006083662309F464C0C22ED42EB62E62E038
:102400008B2D0E94A20EDD20D1F062E08D2D0E9466
:10241000A20E2D2D2F7081E090E001C0880F2A952B
:10242000EAF7D70112968C931297D2942FE0D2221A
:102430001396DC92139781E011968C9302C0F701FA
:102440001182CC20C1F02C2D2F7081E090E001C0D2
:10245000880F2A95EAF79BE0909FF001919FF00D7D
:102460001124ED58FD4F8583C2949FE0C922C68296
:1024700081E084830BC08BE0809FF001819FF00D91
:102480001124ED58FD4F148216821582000F111F82
:10249000F801E45BFE4F6081718143E08B2D2B9648
:1024A0000FB6F894DEBF0FBECDBFDF91CF911F9165
:1024B0000F91FF90EF90DF90CF90BF900C94980F0A
:1024C0002B960FB6F894DEBF0FBECDBFDF91CF9134
:1024D0001F910F91FF90EF90DF90CF90BF900895E4
:1024E000E3E7F2E0108211821282138214821582D5
:1024F0001682178210861186128613861486158618
:1025000016861786108A118A128A138A148A158AE7
:102510000895813061F028F0823079F0833099F0AD
:1025200018C06623C1F06130A1F484E208956623E7
:10253000A1F0613071F484E40895662381F0613084
:1025400041F486E40895662361F0613011F487E276
:10255000089580E0089583E2089585E4089587E46E
:10256000089586E208950F931F93CF93DF93D82F9A
:10257000C62F60E00E948912082F61E08D2F0E9413
:102580008912182F60E0802F0E94E00E61E0802FFA
:102590000E94A20E60E0812F0E94E00E61E0812F78
:1025A0000E94A20EDD2369F0D23089F41092B300AC
:1025B0001092B40081EA8093B000C370C093B10060
:1025C00006C017BC18BC81EA84BDC370C5BDDF91CD
:1025D000CF911F910F910895882319F0823051F007
:1025E0000895662319F0613019F0089547BD0895E4
:1025F00048BD0895662319F0613021F00895409395
:10260000B30008954093B400089580918A028CBD70
:10261000809189028DBD08950CB405FC0DC09EBD4E
:1026200000000DB407FEFDCF9EB58EBD00000DB4B9
:1026300007FEFDCF8EB508958EBD00000DB407FED8
:10264000FDCF8EB59EBD00000DB407FEFDCF9EB53B
:10265000089508951F920F920FB60F9211242F9391
:102660008F939F93EF93FF939091C600E091CC02DC
:1026700081E08E0F8F732091CB02821731F0F0E052
:10268000E557FD4F90838093CC02FF91EF919F918E
:102690008F912F910F900FBE0F901F901895E09182
:1026A000CB022091CC02E21789F021E02E0F20937B
:1026B000CB02F0E0E557FD4F2081FC0120838091A3
:1026C000CB028F738093CB0281E0089580E0089560
:1026D000EF920F93CF93DF93C42FD22F9B01AC01C6
:1026E00083E0220F331F441F551F8A95D1F760E006
:1026F0007DE281E391E00E94C1132150310982E023
:102700008093C000DD2311F080E901C080E8011151
:1027100088608093C100C37080E1C89FA00111242C
:10272000842F8668EE2011F0842F8E688093C2007B
:102730003093C5002093C400DF91CF910F91EF90AB
:1027400008959091C00095FFFCCF8093C600089536
:102750000F931F93CF93DF93EC018C01060F171F8C
:10276000C017D10721F089910E94A113F9CFDF9101
:10277000CF911F910F9108951092CB021092CC022D
:102780000895A1E21A2EAA1BBB1BFD010DC0AA1FB2
:10279000BB1FEE1FFF1FA217B307E407F50720F0CA
:1027A000A21BB30BE40BF50B661F771F881F991F45
:1027B0001A9469F760957095809590959B01AC018E
:1027C000BD01CF010895EE0FFF1F0590F491E02D9C
:0627D0000994F894FFCF0C
:1027D600D0078813226C983E000000000000803F5E
:1027E600EFC933BF00000000D88137409C3336C0A4
:1027F600000000003C4E91BECC5D4B3E0000000048
:10280600F40172432C3E71BD1D440A0A10270A0AC0
:102816000AD7233CD0071200110010001A117011BC
:00000001FF
