:100000000C9451000C94C00A0C94E90A0C94120B45
:100010000C9479000C9479000C9479000C9479007C
:100020000C9479000C9479000C9479000C9479006C
:100030000C9479000C94C10B0C9479000C94790009
:100040000C9479000C9479000C9479000C9479004C
:100050000C94BF0E0C9479000C9479000C947900E8
:100060000C9479000C9479000C9479000C9479002C
:100070000C9479000C9479000C9479000000200015
:1000800023002600290000002200250028002B0064
:1000900000002100240027002A0093017804A30D0A
:1000A000510F11241FBECFEFD4E0DEBFCDBF11E052
:1000B000A0E0B1E0E0E0FFE102C005900D92A031C8
:1000C000B107D9F722E0A0E1B1E001C01D92AA3644
:1000D000B207E1F710E0C1E5D0E004C02197FE01CE
:1000E0000E94780FCD34D107C9F70E9457010C94B4
:1000F0007E0F0C940000CF92DF92EF92FF920F934D
:100100001F93C0902301D0902401E0902501F0902E
:100110002601C60ED71EE81EF91EC0922301D092FA
:100120002401E0922501F092260100911F01109117
:10013000200120912101309122010617170728077D
:10014000390740F460931F017093200180932101CF
:100150009093220100911B0110911C0120911D011F
:1001600030911E01601771078207930740F4609376
:100170001B0170931C0180931D0190931E018091BF
:10018000100190911101A0911201B09113010196FB
:10019000A11DB11D8093100190931101A093120134
:1001A000B0931301209107013091080140E050E025
:1001B000281739074A075B0708F072C01092100130
:1001C000109211011092120110921301C701B60191
:1001D0000E94560F20932301309324014093250160
:1001E000509326010E94E60B60931701709318014B
:1001F0008093190190931A0120911601E4E1F1E036
:1002000080E030E0AF01445151404217530720F4E1
:100210009381890F3196F6CF80932901CC24CA941B
:10022000DC2C7601C0921B01D0921C01E0921D01D2
:10023000F0921E01109223011092240110922501C8
:100240001092260110921F0110922001109221019C
:1002500010922201109228011092270167E170E0AC
:1002600084E191E00E943D0FC0921B01D0921C01DD
:10027000E0921D01F0921E011092230110922401C0
:10028000109225011092260110921F011092200158
:100290001092210110922201109228011092270140
:1002A0001F910F91FF90EF90DF90CF900895E12C78
:1002B00001E021E040E060E271EA87E090E00E9426
:1002C000FD0E0E94F20B78946AE070E083E090E00B
:1002D0000E948A0B80E00E94CA0580E00E94CD0542
:1002E0000E9455050E94E60B4B015C010E94EB0742
:1002F0000E94CE010E94AE040E946C060E94EA0792
:100300000E94F3030E94E60B6B017C01C818D90818
:10031000EA08FB080E94E60B4B015C01C701B6012D
:100320000E947B00E3CFE4E1F1E089E6808380EA8C
:10033000818382E1828386E9868B0895CF93DF9360
:10034000DC0110924C01E4E4F1E0EC0190E0108259
:10035000899187FD02C080839F5F319681E0EC34F4
:10036000F807A9F790934C0118962D913C91199795
:100370003093010120930001992351F081E01A96F6
:100380009C91911101C080E0DF91CF910C94110AF2
:10039000DF91CF91089510924C010895CF92DF9292
:1003A000EF92FF920F931F93CF93DF93CDB7DEB7FA
:1003B00069970FB6F894DEBF0FBECDBF80914C0198
:1003C000882309F484C00E94E60B0091400110913B
:1003D000410120914201309143016B017C01C01A1F
:1003E000D10AE20AF30A9701860140910001509177
:1003F00001016A01E12CF12C0C151D052E053F05AC
:1004000008F465C0609340017093410180934201FC
:100410009093430189E6898382E98A8384E18B830F
:1004200086E9898FFE013896CE0148961192119285
:10043000E817F907D9F7F12C80914C01F816B0F4C0
:100440000F2D10E0F801EC5BFE4F80810E94310A15
:10045000F8013296EE0FFF1F21E030E02C0F3D1F18
:10046000E20FF31F94838383F394E6CF80912B01F3
:100470008F5F80932B01909106019817E8F41092FA
:100480002B010E94E60B6C837D838E839F834B81BF
:10049000CE010196FC0120E050E0BF01681B790B02
:1004A0006417750720F43381230F3196F6CF288F18
:1004B00069E170E00E943D0FF89484E1FE013496FA
:1004C000ACE2B1E001900D928A95E1F778946996DB
:1004D0000FB6F894DEBF0FBECDBFDF91CF911F9155
:1004E0000F91FF90EF90DF90CF900895CF93DF931F
:1004F00000D000D01F92CDB7DEB7FE01319695E057
:10050000DF011D929A95E9F799E6998396E99D8313
:100510008A8365E070E0CF010E943D0F0F900F903D
:100520000F900F900F90DF91CF910895EF92FF926F
:100530000F931F93CF93DF93CDB7DEB762970FB6BC
:10054000F894DEBF0FBECDBF162FFA01813309F438
:10055000C9C0A8F4823109F46FC038F4803161F168
:1005600008F058C0882321F12EC1813209F4A0C0BF
:10057000803309F4A4C0803209F025C181C08335DD
:1005800009F4F3C048F4813509F4D8C008F0C7C0B5
:10059000803509F4B9C017C1853509F4F8C008F4ED
:1005A000DBC0863509F4EAC0873509F4F9C00BC110
:1005B0006111F8C080E708C1643009F0F3C003811D
:1005C00001701081E180F280FE24EF24FE248091EE
:1005D0004D01811106C084E20E94270C81E08093C6
:1005E0004D01B701812F0E94410C002389F0143086
:1005F00078F481E080935B010E94E60B24E0129F77
:10060000F0011124E25BFE4F66877787808B918B28
:1006100080E8DAC0623009F0C5C01081018161E074
:10062000812F0E94450A61E0011101C060E0812F25
:100630000E94830A81E8C8C0613009F0B3C000811C
:1006400060E0802F0E94450A802F0E94A40A982F04
:10065000FE01319687E0DF011D928A95E9F789E670
:10066000898382E88A831B8386E98F830C839D8339
:10067000900F9E8367E070E0CF010E943D0FA6C0FF
:100680006B3009F08FC0DE0111969E01275F3F4F4E
:10069000CD014FEF4D93A217B307E1F72BE0DC013B
:1006A00001900D922A95E1F70E949E0180E98CC08D
:1006B000613009F077C00E94CB0181E985C06830C4
:1006C00009F070C088E0DE01119601900D928A95C4
:1006D000E1F7CE0101960E94930481E080937D01B1
:1006E00080EA72C084EC99E098878F831D821B8218
:1006F00019821E821C821A82CE0101960E949304E6
:1007000010927D0181EA60C0623009F04BC0108117
:1007100081810E94CA05812F0E94CD0557C0623198
:1007200009F040C082E1DE01119601900D928A9598
:10073000E1F7CE0101960E94D00548C0623191F5E3
:1007400082E1DE01119601900D928A95E1F7CE01CA
:1007500001960E94F8053AC0643021F560817181EC
:10076000828193810E94200631C06430D9F4608177
:100770007181828193810E94330628C0643091F494
:1007800060817181828193810E9446061FC064301E
:1007900049F460817181828193810E94590616C05B
:1007A000653011F08DEF10C085E0DE0111960190EB
:1007B0000D928A95E1F749815A816B817C818D8107
:1007C0000E94AD0503C08EEF0E94760262960FB6BE
:1007D000F894DEBF0FBECDBFDF91CF911F910F9177
:1007E000FF90EF900895CF92DF92EF92FF920F93D8
:1007F0001F93CF93DF930E94E60B6B017C018091E6
:100800005B0181110CC080915201882309F467C0FB
:10081000109252010EE411E0C0E0D1E056C01092F7
:100820005B010EE411E0C0E0D1E0F8018685978518
:10083000A089B1890097A105B105F1F0D0935B01C2
:10084000B701A601481B590B6A0B7B0B80914E0127
:1008500090914F01A0915001B091510184179507DB
:10086000A607B70748F416861786108A118A60E033
:1008700070E08C2F0E94410CCF5F0C5F1F4FC43083
:10088000A1F6C1CFD0935201B701A601481B590B65
:100890006A0B7B0B80914E0190914F01A09150010A
:1008A000B091510184179507A607B70748F4158240
:1008B00016821782108640E06C2F80E00E941F0E87
:1008C000CF5F0C5F1F4FC23051F0F80185819681D8
:1008D000A781B0850097A105B10591F3D3CFDF9132
:1008E000CF911F910F91FF90EF90DF90CF900895DF
:1008F000EEE4F1E088EE93E0A0E0B0E08083918345
:10090000A283B3831482158688E0E3E5F1E0DF017A
:100910001D928A95E9F780E1ECE5F1E0DF011D9297
:100920008A95E9F70895CF93DF93EC018E819F813B
:1009300090930301809302012C814A81688180E0B9
:100940000E94F90C2D814B81698181E00E94F90C94
:1009500081E080937D01DF91CF910895CF92DF9266
:10096000EF92FF920F931F93CF93DF93CDB7DEB734
:1009700065970FB6F894DEBF0FBECDBF80917D01A5
:10098000882309F483C00E94E60B00917E01109138
:100990007F0120918001309181016B017C01C01A9F
:1009A000D10AE20AF30A97018601409102015091AF
:1009B00003016A01E12CF12C0C151D052E053F05E4
:1009C00008F464C060937E0170937F01809380017E
:1009D0009093810189E6898383E98A8380E18B830F
:1009E00086E98D8B8FB7F8944091160250911702CB
:1009F0006091180270911902488759876A877B872E
:100A000040912102509122026091230270912402B0
:100A10004C875D876E877F878FBF0E94E60B6C8354
:100A20007D838E839F838091020190910301A0E0DA
:100A3000B0E0888B998BAA8BBB8B80916C018F5F08
:100A400080936C0190910A019817B8F410926C0190
:100A50004B81CE010196FC0120E050E0BF01681BF4
:100A6000790B6417750720F43381230F3196F6CF85
:100A70002C8B65E170E00E943D0F80E1FE01349611
:100A8000ADE6B1E001900D928A95E1F765960FB65B
:100A9000F894DEBF0FBECDBFDF91CF911F910F91B4
:100AA000FF90EF90DF90CF900895CF93DF93CDB775
:100AB000DEB72B970FB6F894DEBF0FBECDBF1D82F9
:100AC0001E821C821A8282E4898383E48B8388EEEF
:100AD00093E098878F83CE0101960E9493041B8632
:100AE000FE013196CE0109962FEF21938E179F07B5
:100AF000E1F7198282E08A8388EE93E09A878987FA
:100B0000CE0101960E949E0184E20E94270C61E0C2
:100B100086E40E94450A61E082E00E94E60D40E022
:100B200061E082E00E941F0E61E084E40E94450AB9
:100B300060E084E40E94830A61E083E10E94450A48
:100B400060E083E10E94830A2B960FB6F894DEBF23
:100B50000FBECDBFDF91CF910895CF93DF9300D02B
:100B600000D01F92CDB7DEB749835A836B837C8355
:100B70008D8385E0FE013196A6E0B1E001900D92F3
:100B80008A95E1F70F900F900F900F900F90DF91E3
:100B9000CF9108958093C80108958093C701089567
:100BA000CF93DF93FC01EC01ABEBB1E087EC91E07C
:100BB00049915991699179914D935D936D937D938D
:100BC0008A179B07A9F7848595859093B801809330
:100BD000B701868597859093BA018093B901808982
:100BE00091899093B6018093B501DF91CF910895DB
:100BF000CF93DF93FC01EC01A9EAB1E085EB91E032
:100C000049915991699179914D935D936D937D933C
:100C10008A179B07A9F7848595859093A6018093F1
:100C2000A501868597859093A8018093A701808967
:100C300091899093A4018093A301DF91CF910895AE
:100C400060939F017093A0018093A1019093A201F2
:100C50000E94E60B60939B0170939C0180939D0121
:100C600090939E01089560939701709398018093EB
:100C7000990190939A010E94E60B609393017093FF
:100C800094018093950190939601089560938F014C
:100C90007093900180939101909392010E94E60BD2
:100CA00060938B0170938C0180938D0190938E01E2
:100CB00008956093870170938801809389019093D0
:100CC0008A010E94E60B60938301709384018093F4
:100CD00085019093860108954F925F926F927F9263
:100CE0008F929F92AF92BF92CF92DF92EF92FF923C
:100CF0001F93CF93DF93CDB7DEB767970FB6F89406
:100D0000DEBF0FBECDBF0E94E60B4B015C018091A0
:100D1000C9019091CA01A091CB01B091CC01B5015C
:100D2000A401481B590B6A0B7B0B80910401909125
:100D30000501A0E0B0E0481759076A077B0708F4EF
:100D400033C18092C9019092CA01A092CB01B092A6
:100D5000CC01F89440907101509072016090730141
:100D60007090740178948091C801811122C08091A3
:100D70009B0190919C01A0919D01B0919E01805F8B
:100D8000984DAF4FBF4F88159905AA05BB0540F494
:100D900010929F011092A0011092A1011092A20145
:100DA000C0909F01D090A001E090A101F090A2011D
:100DB00029C080918B0190918C01A0918D01B091FF
:100DC0008E01805F984DAF4FBF4F88159905AA05DA
:100DD000BB0540F410928F01109290011092910186
:100DE0001092920120E030E048E451E460918F01DC
:100DF0007091900180919101909192010E9445081B
:100E00006B017C0120E030E040E85FE3C701B60100
:100E10000E949F0918168CF020E030E040E85FEB5C
:100E2000C701B6010E94400887FF0DC0C12CD12C1C
:100E300090E8E92E9FEBF92E06C0C12CD12C80E85A
:100E4000E82E8FE3F82E20E030E040EA50E4C701BE
:100E5000B6010E94A4096093CD017093CE018093E6
:100E6000CF019093D00120E030E0A901C701B60185
:100E70000E944008682F661F6627661F81E10E9456
:100E8000830AC701B6010E94B7089B0177FF04C01F
:100E900022273327261B370BB901330F880B990BF9
:100EA0000E94EF0811E02DEC3CEC4CEC5DE30E945D
:100EB0009F0918160CF010E0612F83E10E94830A4D
:100EC00020E030EF4FE755E46091CD017091CE0105
:100ED0008091CF019091D0010E94A40920E030E0E0
:100EE00040EA50E40E9445080E94B7089B0177FF42
:100EF00004C022273327261B370BB90180E00E944C
:100F0000410CE1EEF1E0B291A29192918291848341
:100F10009583A683B78381E0ED3CF807A1F789E6C6
:100F2000898385E98A8382E18B8386E98F8B80912F
:100F300082018F5F80938201909109019817A0F53B
:100F4000109282018C829D82AE82BF826091CD011F
:100F50007091CE018091CF019091D0010E94BE0886
:100F60007987688780913201909133019D878C87C2
:100F7000488A598A6A8A7B8A80913001909131012E
:100F80009D8B8C8BFE0134969E012A5E3F4F80E044
:100F90009191890FE217F307D9F78E8B67E170E023
:100FA000CE0101960E943D0F67960FB6F894DEBF02
:100FB0000FBECDBFDF91CF911F91FF90EF90DF90DB
:100FC000CF90BF90AF909F908F907F906F905F90E9
:100FD0004F9008950895CF93DF931F92CDB7DEB75A
:100FE0001982CE0101960E94E40E882309F444C0C0
:100FF000E09103029981E11106C0993621F0109227
:1010000003028BEF2DC081E08E0F80930302F0E08E
:10101000EB51FE4F9083833020F390E04091E70145
:10102000242F30E02B5F3F4F82179307D1F68B516F
:101030009E4FFC0131972081263909F7E8EEF1E057
:1010400060E020E0641721F03191230F6F5FFACF49
:10105000FC0132978081281731F0109203028AEF49
:101060000E947602BECF48EE51E08091E6010E94D8
:10107000960210920302B5CF0F90DF91CF910895A1
:101080000E942A0908F481E008950E9459080C94EE
:1010900065090E945E0958F00E94570940F029F442
:1010A0005F3F29F00C944E0951110C9499090C944E
:1010B00054090E94760968F39923B1F3552391F3FB
:1010C000951B550BBB27AA2762177307840738F0B7
:1010D0009F5F5F4F220F331F441FAA1FA9F335D014
:1010E0000E2E3AF0E0E832D091505040E695001CC8
:1010F000CAF72BD0FE2F29D0660F771F881FBB1F82
:10110000261737074807AB07B0E809F0BB0B802D5F
:10111000BF01FF2793585F4F3AF09E3F510578F08B
:101120000C944E090C9499095F3FE4F3983ED4F374
:10113000869577956795B795F7959F5FC9F7880F5F
:10114000911D9695879597F90895E1E0660F771FB1
:10115000881FBB1F621773078407BA0720F0621B42
:10116000730B840BBA0BEE1F88F7E09508950E946D
:10117000BE086894B1110C94990908950E947E09E3
:1011800088F09F5798F0B92F9927B751B0F0E1F048
:10119000660F771F881F991F1AF0BA95C9F714C0F8
:1011A000B13091F00E949809B1E008950C9498092B
:1011B000672F782F8827B85F39F0B93FCCF3869531
:1011C00077956795B395D9F73EF49095809570958E
:1011D00061957F4F8F4F9F4F0895E89409C097FB0B
:1011E0003EF490958095709561957F4F8F4F9F4FFE
:1011F0009923A9F0F92F96E9BB279395F695879542
:1012000077956795B795F111F8CFFAF4BB0F11F404
:1012100060FF1BC06F5F7F4F8F4F9F4F16C08823AB
:1012200011F096E911C0772321F09EE8872F762FE1
:1012300005C0662371F096E8862F70E060E02AF022
:101240009A95660F771F881FDAF7880F969587950E
:1012500097F90895990F0008550FAA0BE0E8FEEFE3
:1012600016161706E807F907C0F012161306E4076A
:10127000F50798F0621B730B840B950B39F40A2663
:1012800061F0232B242B252B21F408950A2609F441
:10129000A140A6958FEF811D811D089597F99F6745
:1012A00080E870E060E008959FEF80EC08950024EE
:1012B0000A941616170618060906089500240A94BB
:1012C00012161306140605060895092E0394000C41
:1012D00011F4882352F0BB0F40F4BF2B11F460FFD0
:1012E00004C06F5F7F4F8F4F9F4F089557FD9058F9
:1012F000440F551F59F05F3F71F04795880F97FBDA
:10130000991F61F09F3F79F0879508951216130693
:101310001406551FF2CF4695F1DF08C016161706C2
:101320001806991FF1CF86957105610508940895F7
:10133000E894BB2766277727CB0197F908950E9489
:101340002A0908F48FEF08950E94B7090C946509E3
:101350000E94570938F00E945E0920F0952311F091
:101360000C944E090C94540911240C9499090E9470
:10137000760970F3959FC1F3950F50E0551F629F5A
:10138000F001729FBB27F00DB11D639FAA27F00DDE
:10139000B11DAA1F649F6627B00DA11D661F829F05
:1013A0002227B00DA11D621F739FB00DA11D621FEA
:1013B000839FA00D611D221F749F3327A00D611D07
:1013C000231F849F600D211D822F762F6A2F1124E9
:1013D0009F5750409AF0F1F088234AF0EE0FFF1F1C
:1013E000BB1F661F771F881F91505040A9F79E3F73
:1013F000510580F00C944E090C9499095F3FE4F379
:10140000983ED4F3869577956795B795F795E795C8
:101410009F5FC1F7FE2B880F911D9695879597F9D1
:101420000895882349F080917C00806480937C003B
:1014300080917C008F6708C080917C0080648093DD
:101440007C0080917C008F7780937C0080917A0073
:10145000876080937A0080917A00806880937A0018
:10146000089590917C00907F892B80937C008091DF
:101470007A00806480937A0080917A0086FDFCCFA8
:1014800080917800909179000895CF93DF9388231D
:1014900009F436C0282F22952F7091F18F7041E00A
:1014A00050E0FA0102C0EE0FFF1F8A95E2F7CF016C
:1014B00030E0220F331FF901E057FF4FA591B4919F
:1014C000F901EA57FF4FC591D4912FB7F8946130D5
:1014D00099F050F0623099F49C91382F3095932315
:1014E0009C939881892B06C09C91809598239C930E
:1014F00098818923888303C09C91892B8C932FBF6B
:10150000DF91CF9108958823F1F0E82FE295EF70F5
:10151000D1F0282F2F7081E090E001C0880F2A952C
:10152000EAF7F0E0EE0FFF1FEA57FF4FA591B491E5
:101530002FB7F8949C91662311F0892B02C08095F7
:1015400089238C932FBF08958823C1F0E82FE2955B
:10155000EF70A1F0F0E0EE0FFF1FE458FF4FA591F0
:10156000B4913C91282F2F7081E090E001C0880F4A
:101570002A95EAF7932F982381E009F480E00895F3
:101580001F920F920FB60F9211242F933F934F93F8
:101590005F936F937F938F939F93AF93BF93EF93DB
:1015A000FF93E0910402F0910502309709F009954C
:1015B000FF91EF91BF91AF919F918F917F916F912B
:1015C0005F914F913F912F910F900FBE0F901F9001
:1015D00018951F920F920FB60F9211242F933F93DD
:1015E0004F935F936F937F938F939F93AF93BF932B
:1015F000EF93FF93E0910602F0910702309709F014
:101600000995FF91EF91BF91AF919F918F917F913C
:101610006F915F914F913F912F910F900FBE0F905F
:101620001F9018951F920F920FB60F9211242F93AF
:101630003F934F935F936F937F938F939F93AF935A
:10164000BF93EF93FF93E0910802F0910902309766
:1016500009F00995FF91EF91BF91AF919F918F9103
:101660007F916F915F914F913F912F910F900FBE9E
:101670000F901F901895823441F0833421F082320C
:10168000B9F582E003C081E001C080E09DB3E82F9E
:10169000F0E021E030E001C0220F8A95EAF7822FC6
:1016A000809589238DBBEE0FFF1FDF01AC5FBD4F1F
:1016B0006D937C933091690083E090E00E2E01C021
:1016C000880F0A94EAF780958323809369009091AC
:1016D0006900842F8370482F01C0440FEA95EAF710
:1016E000492B409369008DB3282B2DBB81E00895D1
:1016F00080E0089561E085E40E94450A60E085E4A9
:101700000C94830A61E085E40E94450A61E085E467
:101710000C94830AEF92FF920F931F93CF93DF9362
:101720007C018B01C0E0D0E0CE15DF051CF51C1656
:101730001D066CF480E090E00817190741F0E7E817
:10174000F3E13197F1F700C000000196F5CF0E9458
:101750007A0B80E090E00817190741F0E7E8F3E121
:101760003197F1F700C000000196F5CF0E94820B7F
:101770002196DACFDF91CF911F910F91FF90EF90DB
:1017800008951F920F920FB60F9211248F939F937B
:10179000AF93BF9380910A0290910B02A0910C022B
:1017A000B0910D020196A11DB11D80930A02909384
:1017B0000B02A0930C02B0930D02BF91AF919F91C9
:1017C0008F910F900FBE0F901F9018952FB7F89420
:1017D00060910A0270910B0280910C0290910D02AF
:1017E0002FBF089510920A0210920B0210920C0261
:1017F00010920D0289EF90E0909389008093880009
:101800008AE080938100EFE6F0E08081826080834F
:101810000895CF93DF93EC010E949A0E60E08091CF
:101820000E020E94830A86E08A95F1F700C0CE017D
:101830000E94A10E86E08A95F1F700C061E08091D8
:101840000E020E94830ADF91CF910C94BE0E80930A
:101850000E020E94670E20E041E060E072E18AE73C
:1018600090E00E94380E61E080910E020E94830A8F
:1018700061E080910E020E94450A80E090E80C949D
:10188000090C7F70706390E090E4899F902D882709
:101890001124862B972B0C94090C8091100288231D
:1018A000F9F0E0911202EE0FFF0BE458FF4FA59103
:1018B000B4912C918091110230E0082E000C990B0C
:1018C00082239323892B61F0809116029091170255
:1018D000A0911802B09119020197A109B1090BC09A
:1018E0008091160290911702A0911802B0911902EE
:1018F0000196A11DB11D8093160290931702A0932B
:101900001802B0931902809113028823D9F0E09154
:101910001502EE0FFF0BE458FF4FA591B4912C91E7
:101920008091140230E0082E000C990B822393233F
:10193000892B41F010921602109217021092180291
:1019400010921902089580911B028823F9F0E0910A
:101950001D02EE0FFF0BE458FF4FA591B4912C919F
:1019600080911C0230E0082E000C990B82239323F7
:10197000892B61F08091210290912202A091230293
:10198000B09124020197A109B1090BC080912102F5
:1019900090912202A0912302B09124020196A11DF0
:1019A000B11D8093210290932202A0932302B09351
:1019B000240280911E028823D9F0E0912002EE0FCC
:1019C000FF0BE458FF4FA591B4912C9180911F0219
:1019D00030E0082E000C990B82239323892B41F0D1
:1019E00010922102109222021092230210922402DD
:1019F0000895BF92CF92DF92EF92FF920F931F93C1
:101A0000CF93DF93CDB7DEB72B970FB6F894DEBF39
:101A10000FBECDBF823008F086C0082F10E01982BB
:101A20001A821B821C821D821E821F8218861986C2
:101A30001A861B868BE0809FF001819FF00D112498
:101A4000DF01A15FBD4F7D01FE01319601900D9236
:101A50008A95E1F7F7016083662309F464C0C22E1A
:101A6000D42EB62E62E08B2D0E94450ADD20D1F0E7
:101A700062E08D2D0E94450A2D2D2F7081E090E0AF
:101A800001C0880F2A95EAF7D70112968C93129716
:101A9000D2942FE0D2221396DC92139781E0119614
:101AA0008C9302C0F7011182CC20C1F02C2D2F7035
:101AB00081E090E001C0880F2A95EAF79BE0909FB3
:101AC000F001919FF00D1124E15FFD4F8583C294D9
:101AD0009FE0C922C68281E084830BC08BE0809F97
:101AE000F001819FF00D1124E15FFD4F14821682F9
:101AF0001582000F111FF801E55FFE4F60817181B3
:101B000043E08B2D2B960FB6F894DEBF0FBECDBFF2
:101B1000DF91CF911F910F91FF90EF90DF90CF90C9
:101B2000BF900C943B0B2B960FB6F894DEBF0FBE04
:101B3000CDBFDF91CF911F910F91FF90EF90DF907C
:101B4000CF90BF900895EFE0F2E0108211821282F0
:101B500013821482158216821782108611861286CD
:101B600013861486158616861786108A118A128A9D
:101B7000138A148A158A0895813061F028F0823022
:101B800079F0833099F018C06623C1F06130A1F478
:101B900084E208956623A1F0613071F484E408952D
:101BA000662381F0613041F486E40895662361F094
:101BB000613011F487E2089580E0089583E208958A
:101BC00085E4089587E4089586E208950F931F93AE
:101BD000CF93DF93D82FC62F60E00E94BC0D082F53
:101BE00061E08D2F0E94BC0D182F60E0802F0E94B5
:101BF000830A61E0802F0E94450A60E0812F0E94E5
:101C0000830A61E0812F0E94450ADD2369F0D2300A
:101C100089F41092B3001092B40081EA8093B0006E
:101C2000C370C093B10006C017BC18BC81EA84BD64
:101C3000C370C5BDDF91CF911F910F910895882387
:101C400019F0823051F00895662319F0613019F0CF
:101C5000089547BD089548BD0895662319F0613081
:101C600021F008954093B30008954093B40008957F
:101C7000CF92DF92EF92FF92E0E8CE2EE6E9DE2EE1
:101C8000E8E9EE2EF12C30E06C157D058E059F0500
:101C900040F4F694E794D794C7943F5F3630A1F7A9
:101CA00037E081E08327442311F090E501C090E7FD
:101CB0002C70382F3695232B292B209326028170E8
:101CC00080932502FF90EF90DF90CF900895CF93FF
:101CD000CFB7F8948091270281111DC0E4E9F0E0AC
:101CE000A591B4918C9184FD04C061E084E20E94CE
:101CF000830A61E084E20E94450A8CB580618CBD54
:101D00008CB580648CBD61E087E20E94450A61E089
:101D100085E20E94450A809127028F5F8093270207
:101D2000CFBF20E041E060E079E08DE390E0CF912B
:101D30000C94380E809126028CBD809125028DBDB9
:101D400008950CB405FC0DC09EBD00000DB407FE47
:101D5000FDCF9EB58EBD00000DB407FEFDCF8EB544
:101D600008958EBD00000DB407FEFDCF8EB59EBD5B
:101D700000000DB407FEFDCF9EB5089508951F9293
:101D80000F920FB60F9211242F938F939F93EF937F
:101D9000FF939091C600E091690281E08E0F8F73EE
:101DA00020916802821731F0F0E0E85DFD4F9083EA
:101DB00080936902FF91EF919F918F912F910F90E6
:101DC0000FBE0F901F901895E09168022091690254
:101DD000E21789F021E02E0F20936802F0E0E85D21
:101DE000FD4F2081FC012083809168028F738093D6
:101DF000680281E0089580E00895EF920F93CF93F9
:101E0000DF93C42FD22F9B01AC0183E0220F331F3D
:101E1000441F551F8A95D1F760E07DE281E391E090
:101E20000E94560F2150310982E08093C000DD23CB
:101E300011F080E901C080E8011188608093C10041
:101E4000C37080E1C89FA0011124842F8668EE2012
:101E500011F0842F8E688093C2003093C5002093C8
:101E6000C400DF91CF910F91EF9008959091C00041
:101E700095FFFCCF8093C60008950F931F93CF93D7
:101E8000DF93EC018C01060F171FC017D10721F05B
:101E900089910E94360FF9CFDF91CF911F910F9159
:101EA000089510926802109269020895A1E21A2E14
:101EB000AA1BBB1BFD010DC0AA1FBB1FEE1FFF1FEE
:101EC000A217B307E407F50720F0A21BB30BE40B3E
:101ED000F50B661F771F881F991F1A9469F7609585
:101EE0007095809590959B01AC01BD01CF0108953F
:101EF000EE0FFF1F0590F491E02D0994F894FFCFA9
:101F0000D0078813F4010A10270A0A4D0CA30C000D
:00000001FF
