:100000000C9451000C947F0B0C94A80B0C94D10B06
:100010000C9479000C9479000C9479000C9479007C
:100020000C9479000C9479000C9479000C9479006C
:100030000C9479000C94800C0C9479000C94790049
:100040000C9479000C9479000C9479000C9479004C
:100050000C940F0E0C9479000C9479000C94790098
:100060000C9479000C9479000C9479000C9479002C
:100070000C9479000C9479000C9479000000200015
:1000800023002600290000002200250028002B0064
:1000900000002100240027002A0093017904A10E0A
:1000A000FC0F11241FBECFEFD4E0DEBFCDBF11E0A7
:1000B000A0E0B1E0EEE7F0E202C005900D92A031C1
:1000C000B107D9F722E0A0E1B1E001C01D92A83745
:1000D000B207E1F710E0C1E5D0E004C02197FE01CE
:1000E0000E943710CD34D107C9F70E9457010C94F4
:1000F0003D100C940000CF92DF92EF92FF920F938D
:100100001F93C0902301D0902401E0902501F0902E
:100110002601C60ED71EE81EF91EC0922301D092FA
:100120002401E0922501F092260100911F01109117
:10013000200120912101309122010617170728077D
:10014000390740F460931F017093200180932101CF
:100150009093220100911B0110911C0120911D011F
:1001600030911E01601771078207930740F4609376
:100170001B0170931C0180931D0190931E018091BF
:10018000100190911101A0911201B09113010196FB
:10019000A11DB11D8093100190931101A093120134
:1001A000B0931301209107013091080140E050E025
:1001B000281739074A075B0708F072C01092100130
:1001C000109211011092120110921301C701B60191
:1001D0000E941510209323013093240140932501A0
:1001E000509326010E94A50C60931701709318018B
:1001F0008093190190931A0120911601E4E1F1E036
:1002000080E030E0AF01445151404217530720F4E1
:100210009381890F3196F6CF80932901CC24CA941B
:10022000DC2C7601C0921B01D0921C01E0921D01D2
:10023000F0921E01109223011092240110922501C8
:100240001092260110921F0110922001109221019C
:1002500010922201109228011092270167E170E0AC
:1002600084E191E00E948D0EC0921B01D0921C018E
:10027000E0921D01F0921E011092230110922401C0
:10028000109225011092260110921F011092200158
:100290001092210110922201109228011092270140
:1002A0001F910F91FF90EF90DF90CF900895E12C78
:1002B00001E021E040E060E271EA87E090E00E9426
:1002C0004D0E0E94B10C789464E670E083E090E0FB
:1002D0000E94490C80E00E94D30580E00E94D60570
:1002E0000E9456050E94A50C4B015C010E94AA08C1
:1002F0000E94CE010E94AF040E9404080E94710671
:100300000E94F4030E94A50C6B017C01C818D90857
:10031000EA08FB080E94A50C4B015C01C701B6016D
:100320000E947B00E3CFE4E1F1E089E6808380EA8C
:10033000818382E1828386E9868B0895CF93DF9360
:10034000DC0110924C01E4E4F1E0EC0190E0108259
:10035000899187FD02C080839F5F319681E0EC34F4
:10036000F807A9F790934C0118962D913C91199795
:100370003093010120930001992351F081E01A96F6
:100380009C91911101C080E0DF91CF910C94D00A33
:10039000DF91CF91089510924C010895CF92DF9292
:1003A000EF92FF920F931F93CF93DF93CDB7DEB7FA
:1003B00069970FB6F894DEBF0FBECDBF80914C0198
:1003C000882309F484C00E94A50C0091400110917B
:1003D000410120914201309143016B017C01C01A1F
:1003E000D10AE20AF30A9701860140910001509177
:1003F00001016A01E12CF12C0C151D052E053F05AC
:1004000008F465C0609340017093410180934201FC
:100410009093430189E6898382E98A8384E18B830F
:1004200086E9898FFE013896CE0148961192119285
:10043000E817F907D9F7F12C80914C01F816B0F4C0
:100440000F2D10E0F801EC5BFE4F80810E94F00A56
:10045000F8013296EE0FFF1F21E030E02C0F3D1F18
:10046000E20FF31F94838383F394E6CF80912B01F3
:100470008F5F80932B01909106019817E8F41092FA
:100480002B010E94A50C6C837D838E839F834B81FF
:10049000CE010196FC0120E050E0BF01681B790B02
:1004A0006417750720F43381230F3196F6CF288F18
:1004B00069E170E00E948D0EF89484E1FE013496AB
:1004C000ACE2B1E001900D928A95E1F778946996DB
:1004D0000FB6F894DEBF0FBECDBFDF91CF911F9155
:1004E0000F91FF90EF90DF90CF900895CF93DF931F
:1004F00000D000D01F92CDB7DEB7FE01319695E057
:10050000DF011D929A95E9F799E6998396E99D8313
:100510008A8365E070E0CF010E948D0E0F900F90EE
:100520000F900F900F90DF91CF910895EF92FF926F
:100530000F931F93CF93DF93CDB7DEB762970FB6BC
:10054000F894DEBF0FBECDBF162FFA01813309F438
:10055000CDC0A8F4823109F473C038F4803181F140
:1005600008F05CC0882341F12FC1813209F4A4C096
:10057000803309F4A8C0803209F026C185C08435D3
:1005800009F4F6C050F4813509F4DBC0833509F471
:10059000CAC0803509F018C1BBC0873509F4F8C05E
:1005A00020F4863509F4DBC00FC1893509F4E7C0B2
:1005B000803609F4F6C008C16111F5C080E705C1B5
:1005C000643009F0F0C0038101701081E180F28095
:1005D000FE24EF24FE2480914D01811106C084E2A7
:1005E0000E94E60C81E080934D01B701812F0E94AB
:1005F000000D002389F0143078F481E080935B01D2
:100600000E94A50C24E0129FF0011124E25BFE4F32
:1006100066877787808B918B80E8D7C0623009F03E
:10062000C2C01081018161E0812F0E94040B61E052
:10063000011101C060E0812F0E94420B81E8C5C01A
:10064000613009F0B0C0008160E0802F0E94040B8F
:10065000802F0E94630B982FFE01319687E0DF0107
:100660001D928A95E9F789E6898382E88A831B834C
:1006700086E98F830C839D83900F9E8367E070E0F3
:10068000CF010E948D0EA3C06B3009F08CC0DE013B
:1006900011969E01275F3F4FCD014FEF4D93A2175B
:1006A000B307E1F72BE0DC0101900D922A95E1F709
:1006B0000E949E0180E989C0613009F074C00E94E7
:1006C000CB0181E982C0683009F06DC088E0DE01AD
:1006D000119601900D928A95E1F7CE0101960E9444
:1006E000940481E080937D0180EA6FC084EC99E0FE
:1006F00098878F831D821B8219821E821C821A8218
:10070000CE0101960E94940410927D0181EA5DC0A1
:10071000623009F048C0108181810E94D305812F89
:100720000E94D60554C06231F1F582E1DE011196D6
:1007300001900D928A95E1F7CE0101960E94D905AC
:1007400046C0623181F582E1DE01119601900D9281
:100750008A95E1F7CE0101960E94010638C0643007
:1007600011F560817181828193810E9429062FC0D9
:100770006230C9F4808191810E943C0628C06430B7
:1007800091F460817181828193810E944B061FC028
:10079000643049F460817181828193810E945E0698
:1007A00016C0653011F08DEF10C085E0DE011196A6
:1007B00001900D928A95E1F749815A816B817C8184
:1007C0008D810E94B60503C08EEF0E94760262966C
:1007D0000FB6F894DEBF0FBECDBFDF91CF911F9152
:1007E0000F91FF90EF900895CF92DF92EF92FF92DA
:1007F0000F931F93CF93DF930E94A50C6B017C0195
:1008000080915B0181110CC080915201882309F411
:1008100067C0109252010EE411E0C0E0D1E056C072
:1008200010925B010EE411E0C0E0D1E0F801868592
:100830009785A089B1890097A105B105F1F0D09302
:100840005B01B701A601481B590B6A0B7B0B80911A
:100850004E0190914F01A0915001B0915101841728
:100860009507A607B70748F416861786108A118AD7
:1008700060E070E08C2F0E94000DCF5F0C5F1F4F77
:10088000C430A1F6C1CFD0935201B701A601481BD5
:10089000590B6A0B7B0B80914E0190914F01A091F7
:1008A0005001B091510184179507A607B70748F486
:1008B000158216821782108640E06C2F80E00E941D
:1008C0006F0DCF5F0C5F1F4FC23051F0F801858173
:1008D0009681A781B0850097A105B10591F3D3CF8B
:1008E000DF91CF911F910F91FF90EF90DF90CF900C
:1008F0000895EEE4F1E088EE93E0A0E0B0E08083BC
:100900009183A283B3831482158688E0E3E5F1E046
:10091000DF011D928A95E9F780E1ECE5F1E0DF0166
:100920001D928A95E9F70895CF93DF93EC018E81AC
:100930009F8190930301809302012C814A816881F9
:1009400080E00E94520F2D814B81698181E00E94DD
:10095000520F81E080937D01DF91CF910895CF9276
:10096000DF92EF92FF920F931F93CF93DF93CDB758
:10097000DEB765970FB6F894DEBF0FBECDBF80918E
:100980007D01882309F483C00E94A50C00917E019B
:1009900010917F0120918001309181016B017C01D8
:1009A000C01AD10AE20AF30A9701860140910201B6
:1009B000509103016A01E12CF12C0C151D052E0547
:1009C0003F0508F464C060937E0170937F018093BB
:1009D00080019093810189E6898383E98A8380E19C
:1009E0008B8386E98D8B8FB7F89440916902509183
:1009F0006A0260916B0270916C02488759876A871E
:100A00007B874091740250917502609176027091DB
:100A100077024C875D876E877F878FBF0E94A50C0A
:100A20006C837D838E839F8380910201909103016B
:100A3000A0E0B0E0888B998BAA8BBB8B80916C0176
:100A40008F5F80936C0190910A019817B8F410920F
:100A50006C014B81CE010196FC0120E050E0BF010A
:100A6000681B790B6417750720F43381230F3196C7
:100A7000F6CF2C8B65E170E00E948D0E80E1FE01C7
:100A80003496ADE6B1E001900D928A95E1F7659656
:100A90000FB6F894DEBF0FBECDBFDF91CF911F918F
:100AA0000F91FF90EF90DF90CF900895CF93DF9359
:100AB000CDB7DEB72B970FB6F894DEBF0FBECDBF14
:100AC0001D821E821C821A8282E4898383E48B83C6
:100AD00088EE93E098878F83CE0101960E9494045C
:100AE0001B86FE013196CE0109962FEF21938E17BA
:100AF0009F07E1F7198282E08A8388EE93E09A8764
:100B00008987CE0101960E949E0184E20E94E60C34
:100B100061E081E10E94040B60E081E10E94420BF0
:100B200061E083E10E94040B60E083E10E94420BDC
:100B300061E086E40E94040B61E082E00E94360DD1
:100B400040E061E082E00E946F0D61E084E40E9479
:100B5000040B60E084E40E94420B2B960FB6F894DD
:100B6000DEBF0FBECDBFDF91CF910895CF93DF934E
:100B700000D000D01F92CDB7DEB749835A836B8374
:100B80007C838D8385E0FE013196A6E0B1E0019083
:100B90000D928A95E1F70F900F900F900F900F90A4
:100BA000DF91CF9108958093C60108958093C50188
:100BB0000895CF93DF93FC01EC01A9EBB1E085EC44
:100BC00091E049915991699179914D935D936D931C
:100BD0007D938A179B07A9F7848595859093B60125
:100BE0008093B501868597859093B8018093B7016E
:100BF000808991899093B4018093B301DF91CF9163
:100C00000895CF93DF93FC01EC01A7EAB1E083EBF9
:100C100091E049915991699179914D935D936D93CB
:100C20007D938A179B07A9F7848595859093A401E6
:100C30008093A301868597859093A6018093A50153
:100C4000808991899093A2018093A101DF91CF9136
:100C5000089560939D0170939E0180939F019093EE
:100C6000A0010E94A50C6093990170939A01809352
:100C70009B0190939C010895909398018093970114
:100C80000E94A50C60939301709394018093950149
:100C900090939601089560938F01709390018093D3
:100CA0009101909392010E94A50C60938B01709327
:100CB0008C0180938D0190938E010895609387013C
:100CC000709388018093890190938A010E94A50CFA
:100CD00060938301709384018093850190938601D2
:100CE00008958F929F92AF92BF92CF92DF92EF9230
:100CF000FF921F93CF93DF93CDB7DEB767970FB601
:100D0000F894DEBF0FBECDBF0E94A50C6B017C0125
:100D10008091CB019091CC01A091CD01B091CE01F9
:100D2000B701A601481B590B6A0B7B0B809104018C
:100D300090910501A0E0B0E0481759076A077B07CA
:100D400008F450C1C092CB01D092CC01E092CD0109
:100D5000F092CE018091C601811126C08091990147
:100D600090919A01A0919B01B0919C01805F984D58
:100D7000AF4FBF4F8C159D05AE05BF0540F41092D7
:100D80009D0110929E0110929F011092A00120E0FF
:100D900030E040EA50E460919D0170919E018091A5
:100DA0009F019091A0012BC080918B0190918C01AB
:100DB000A0918D01B0918E01805F984DAF4FBF4FD4
:100DC0008C159D05AE05BF0540F410928F01109261
:100DD0009001109291011092920120E030E048E4DD
:100DE00051E460918F0170919001809191019091F7
:100DF00092010E94040920E030E040EA50E40E94A1
:100E0000630A6093DB017093DC018093DD019093B2
:100E1000DE018090DB019090DC01A090DD01B090BC
:100E2000DE0120E030E040EA50E4C501B4010E9458
:100E30005E0A18162CF480E090E0A0EAB0E40EC040
:100E400020E030E040EA50ECC501B4010E94FF0808
:100E500087FF0CC080E090E0A0EAB0EC8093DB015B
:100E60009093DC01A093DD01B093DE0120E030E03F
:100E7000A9016091DB017091DC018091DD0190910D
:100E8000DE010E94FF08682F661F6627661F81E14A
:100E90000E94420B6091DB017091DC018091DD01C9
:100EA0009091DE010E9476099B0177FF04C0222702
:100EB0003327261B370BB901330F880B990B0E9480
:100EC000AE0911E02DEC3CEC4CEC5DE30E945E0AB7
:100ED00018160CF010E0612F83E10E94420B20E015
:100EE00030EF4FE755E46091DB017091DC018091B8
:100EF000DD019091DE010E94630A20E030E040EACB
:100F000050E40E9404090E9476099B0177FF04C007
:100F100022273327261B370BB90180E00E94000DE2
:100F2000EFEEF1E0B291A291929182918483958348
:100F3000A683B78381E0EB3DF807A1F789E68983B3
:100F400085E98A8382E18B8386E98F8B8091820198
:100F50008F5F8093820190910901981708F042C039
:100F600010928201CC82DD82EE82FF826091DB01F1
:100F70007091DC018091DD019091DE010E947D097C
:100F8000798768878091CF019091D0019B878A876C
:100F900080913201909133019D878C8780917101FE
:100FA00090917201A0917301B0917401888B998B1B
:100FB000AA8BBB8B80913001909131019D8B8C8BE2
:100FC000FE0134969E012A5E3F4F80E09191890F89
:100FD000E217F307D9F78E8B67E170E0CE01019637
:100FE0000E948D0E67960FB6F894DEBF0FBECDBF80
:100FF000DF91CF911F91FF90EF90DF90CF90BF9046
:10100000AF909F908F900895CF92DF92EF92FF92D2
:101010000F931F93CF930E94A50C0091C7011091CD
:10102000C8012091C9013091CA016B017C01C01A2D
:10103000D10AE20AF30A009104011091050120E0AF
:1010400030E0C016D106E206F30608F47BC06093D8
:10105000C7017093C8018093C9019093CA01F894A5
:1010600078942091C501211120C000919301109125
:1010700094012091950130919601005F184D2F4FFA
:101080003F4F061717072807390720F410929801D9
:101090001092970180919701909198019093D001BF
:1010A0008093CF01E9EDF1E028C000918301109118
:1010B00084012091850130918601005F184D2F4FEA
:1010C0003F4F061717072807390740F4109287018A
:1010D000109288011092890110928A016091870113
:1010E000709188018091890190918A010E9476090E
:1010F0007093D0016093CF01D5CF92918291938369
:10110000828381E0EF3CF807C1F7C091D0014091A4
:10111000CF015C2F57FF03C051954195510961E004
:1011200082E00E946F0D6C2F6095661F6627661F18
:1011300084E4CF911F910F91FF90EF90DF90CF90BB
:101140000C94420BCF911F910F91FF90EF90DF9085
:10115000CF900895CF93DF931F92CDB7DEB719825A
:10116000CE0101960E94340E882309F444C0E09118
:1011700011029981E11106C0993621F010921102F5
:101180008BEF2DC081E08E0F80931102F0E0ED50C7
:10119000FE4F9083833020F390E04091F501242F9F
:1011A00030E02B5F3F4F82179307D1F68D509E4F53
:1011B000FC0131972081263909F7E6EFF1E060E084
:1011C00020E0641721F03191230F6F5FFACFFC010B
:1011D00032978081281731F0109211028AEF0E9415
:1011E0007602BECF46EF51E08091F4010E94960254
:1011F00010921102B5CF0F90DF91CF9108950E9408
:10120000E90908F481E008950E9418090C94240A61
:101210000E941D0A58F00E94160A40F029F45F3F10
:1012200029F00C940D0A51110C94580A0C94130ACD
:101230000E94350A68F39923B1F3552391F3951B66
:10124000550BBB27AA2762177307840738F09F5FE7
:101250005F4F220F331F441FAA1FA9F335D00E2E54
:101260003AF0E0E832D091505040E695001CCAF7C1
:101270002BD0FE2F29D0660F771F881FBB1F261784
:1012800037074807AB07B0E809F0BB0B802DBF015B
:10129000FF2793585F4F3AF09E3F510578F00C942A
:1012A0000D0A0C94580A5F3FE4F3983ED4F38695F8
:1012B00077956795B795F7959F5FC9F7880F911D4B
:1012C0009695879597F90895E1E0660F771F881F37
:1012D000BB1F621773078407BA0720F0621B730BEA
:1012E000840BBA0BEE1F88F7E09508950E947D09E4
:1012F0006894B1110C94580A08950E943D0A88F030
:101300009F5798F0B92F9927B751B0F0E1F0660FC9
:10131000771F881F991F1AF0BA95C9F714C0B1300A
:1013200091F00E94570AB1E008950C94570A672F74
:10133000782F8827B85F39F0B93FCCF38695779539
:101340006795B395D9F73EF4909580957095619522
:101350007F4F8F4F9F4F0895E89409C097FB3EF44D
:1013600090958095709561957F4F8F4F9F4F9923F2
:10137000A9F0F92F96E9BB279395F6958795779570
:101380006795B795F111F8CFFAF4BB0F11F460FF30
:101390001BC06F5F7F4F8F4F9F4F16C0882311F088
:1013A00096E911C0772321F09EE8872F762F05C09C
:1013B000662371F096E8862F70E060E02AF09A9537
:1013C000660F771F881FDAF7880F9695879597F92C
:1013D0000895990F0008550FAA0BE0E8FEEF1616C6
:1013E0001706E807F907C0F012161306E407F50719
:1013F00098F0621B730B840B950B39F40A2661F08D
:10140000232B242B252B21F408950A2609F4A1402F
:10141000A6958FEF811D811D089597F99F6780E83C
:1014200070E060E008959FEF80EC089500240A9436
:101430001616170618060906089500240A941216AF
:101440001306140605060895092E0394000C11F4E2
:10145000882352F0BB0F40F4BF2B11F460FF04C08F
:101460006F5F7F4F8F4F9F4F089557FD9058440FE8
:10147000551F59F05F3F71F04795880F97FB991FF3
:1014800061F09F3F79F087950895121613061406B0
:10149000551FF2CF4695F1DF08C01616170618063D
:1014A000991FF1CF86957105610508940895E89418
:1014B000BB2766277727CB0197F908950E94E90992
:1014C00008F48FEF08950E94760A0C94240A0E9473
:1014D000160A38F00E941D0A20F0952311F00C9492
:1014E0000D0A0C94130A11240C94580A0E94350A10
:1014F00070F3959FC1F3950F50E0551F629FF00167
:10150000729FBB27F00DB11D639FAA27F00DB11D7F
:10151000AA1F649F6627B00DA11D661F829F222708
:10152000B00DA11D621F739FB00DA11D621F839F8F
:10153000A00D611D221F749F3327A00D611D231F65
:10154000849F600D211D822F762F6A2F11249F57B3
:1015500050409AF0F1F088234AF0EE0FFF1FBB1FB6
:10156000661F771F881F91505040A9F79E3F510575
:1015700080F00C940D0A0C94580A5F3FE4F3983EF7
:10158000D4F3869577956795B795F795E7959F5F1F
:10159000C1F7FE2B880F911D9695879597F90895B1
:1015A000882349F080917C00806480937C00809146
:1015B0007C008F6708C080917C00806480937C00F1
:1015C00080917C008F7780937C0080917A00876087
:1015D00080937A0080917A00806880937A000895E1
:1015E00090917C00907F892B80937C0080917A0081
:1015F000806480937A0080917A0086FDFCCF809190
:101600007800909179000895CF93DF93882309F4AF
:1016100036C0282F22952F7091F18F7041E050E055
:10162000FA0102C0EE0FFF1F8A95E2F7CF0130E00A
:10163000220F331FF901E057FF4FA591B491F90133
:10164000EA57FF4FC591D4912FB7F894613099F0C4
:1016500050F0623099F49C91382F309593239C93ED
:101660009881892B06C09C91809598239C939881A2
:101670008923888303C09C91892B8C932FBFDF9192
:10168000CF9108958823F1F0E82FE295EF70D1F023
:10169000282F2F7081E090E001C0880F2A95EAF78B
:1016A000F0E0EE0FFF1FEA57FF4FA591B4912FB75F
:1016B000F8949C91662311F0892B02C080958923B0
:1016C0008C932FBF08958823C1F0E82FE295EF7027
:1016D000A1F0F0E0EE0FFF1FE458FF4FA591B49189
:1016E0003C91282F2F7081E090E001C0880F2A954F
:1016F000EAF7932F982381E009F480E008951F9280
:101700000F920FB60F9211242F933F934F935F9335
:101710006F937F938F939F93AF93BF93EF93FF93B9
:10172000E0911202F0911302309709F00995FF91B0
:10173000EF91BF91AF919F918F917F916F915F9149
:101740004F913F912F910F900FBE0F901F901895C2
:101750001F920F920FB60F9211242F933F934F9326
:101760005F936F937F938F939F93AF93BF93EF9309
:10177000FF93E0911402F0911502309709F009955A
:10178000FF91EF91BF91AF919F918F917F916F9159
:101790005F914F913F912F910F900FBE0F901F902F
:1017A00018951F920F920FB60F9211242F933F930B
:1017B0004F935F936F937F938F939F93AF93BF9359
:1017C000EF93FF93E0911602F0911702309709F022
:1017D0000995FF91EF91BF91AF919F918F917F916B
:1017E0006F915F914F913F912F910F900FBE0F908E
:1017F0001F901895823441F0833421F08232B9F57C
:1018000082E003C081E001C080E09DB3E82FF0E0FA
:1018100021E030E001C0220F8A95EAF7822F8095FF
:1018200089238DBBEE0FFF1FDF01AE5EBD4F6D93B1
:101830007C933091690083E090E00E2E01C0880F08
:101840000A94EAF780958323809369009091690058
:10185000842F8370482F01C0440FEA95EAF7492B83
:10186000409369008DB3282B2DBB81E0089580E063
:10187000089561E085E40E94040B60E085E40C9427
:10188000420B61E085E40E94040B61E085E40C9466
:10189000420BEF92FF920F931F93CF93DF937C0144
:1018A0008B01C0E0D0E0CE15DF051CF51C161D062F
:1018B0006CF480E090E00817190741F0E7E8F3E1E5
:1018C0003197F1F700C000000196F5CF0E94390C66
:1018D00080E090E00817190741F0E7E8F3E131975D
:1018E000F1F700C000000196F5CF0E94410C21964F
:1018F000DACFDF91CF911F910F91FF90EF90089574
:101900001F920F920FB60F9211248F939F93AF9354
:10191000BF938091180290911902A0911A02B09180
:101920001B020196A11DB11D80931802909319020C
:10193000A0931A02B0931B02BF91AF919F918F9118
:101940000F900FBE0F901F9018952FB7F8946091CD
:1019500018027091190280911A0290911B022FBFF8
:101960000895109218021092190210921A02109201
:101970001B0289EF90E090938900809388008AE0B1
:1019800080938100EFE6F0E080818260808308959B
:10199000CF93DF93EC010E94EA0D60E080911C027E
:1019A0000E94420B86E08A95F1F700C0CE010E94AA
:1019B000F10D86E08A95F1F700C061E080911C028C
:1019C0000E94420BDF91CF910C940E0E80931C026B
:1019D0000E94B70D20E041E060E072E18AE790E00C
:1019E0000E94880D61E080911C020E94420B61E020
:1019F00080911C020E94040B80E090E80C94C80CBB
:101A00007F70706390E090E4899F902D8827112467
:101A1000862B972B0C94C80C813061F028F0823013
:101A200079F0833099F018C06623C1F06130A1F4D9
:101A300084E208956623A1F0613071F484E408958E
:101A4000662381F0613041F486E40895662361F0F5
:101A5000613011F487E2089580E0089583E20895EB
:101A600085E4089587E4089586E208950F931F930F
:101A7000CF93DF93D82FC62F60E00E940C0D082F64
:101A800061E08D2F0E940C0D182F60E0802F0E94C6
:101A9000420B61E0802F0E94040B60E0812F0E94C6
:101AA000420B61E0812F0E94040BDD2369F0D230EC
:101AB00089F41092B3001092B40081EA8093B000D0
:101AC000C370C093B10006C017BC18BC81EA84BDC6
:101AD000C370C5BDDF91CF911F910F9108958823E9
:101AE00019F0823051F00895662319F0613019F031
:101AF000089547BD089548BD0895662319F06130E3
:101B000021F008954093B30008954093B4000895E0
:101B1000CF92DF92EF92FF92E0E8CE2EE6E9DE2E42
:101B2000E8E9EE2EF12C30E06C157D058E059F0561
:101B300040F4F694E794D794C7943F5F3630A1F70A
:101B400037E081E08327442311F090E501C090E75E
:101B50002C70382F3695232B292B20931E02817051
:101B600080931D02FF90EF90DF90CF900895CF9368
:101B7000CFB7F89480911F0281111DC0E4E9F0E015
:101B8000A591B4918C9184FD04C061E084E20E942F
:101B9000420B61E084E20E94040B8CB580618CBD35
:101BA0008CB580648CBD61E087E20E94040B61E02B
:101BB00085E20E94040B80911F028F5F80931F02B9
:101BC000CFBF20E041E060E079E08DE390E0CF918D
:101BD0000C94880D80911E028CBD80911D028DBDDC
:101BE00008950CB405FC0DC09EBD00000DB407FEA9
:101BF000FDCF9EB58EBD00000DB407FEFDCF8EB5A6
:101C000008958EBD00000DB407FEFDCF8EB59EBDBC
:101C100000000DB407FEFDCF9EB5089508951F92F4
:101C20000F920FB60F9211242F938F939F93EF93E0
:101C3000FF939091C600E091610281E08E0F8F7357
:101C400020916002821731F0F0E0E05EFD4F90835A
:101C500080936102FF91EF919F918F912F910F904F
:101C60000FBE0F901F901895E091600220916102C5
:101C7000E21789F021E02E0F20936002F0E0E05E91
:101C8000FD4F2081FC012083809160028F7380933F
:101C9000600281E0089580E00895EF920F93CF9362
:101CA000DF93C42FD22F9B01AC0183E0220F331F9F
:101CB000441F551F8A95D1F760E07DE281E391E0F2
:101CC0000E9415102150310982E08093C000DD236D
:101CD00011F080E901C080E8011188608093C100A3
:101CE000C37080E1C89FA0011124842F8668EE2074
:101CF00011F0842F8E688093C2003093C50020932A
:101D0000C400DF91CF910F91EF9008959091C000A2
:101D100095FFFCCF8093C60008950F931F93CF9338
:101D2000DF93EC018C01060F171FC017D10721F0BC
:101D300089910E94860EF9CFDF91CF911F910F916B
:101D400008951092600210926102089580916302DA
:101D50008823F9F0E0916502EE0FFF0BE458FF4F86
:101D6000A591B4912C918091640230E0082E000C72
:101D7000990B82239323892B61F0809169029091C2
:101D80006A02A0916B02B0916C020197A109B1099E
:101D90000BC08091690290916A02A0916B02B09190
:101DA0006C020196A11DB11D8093690290936A0295
:101DB000A0936B02B0936C02809166028823D9F0E5
:101DC000E0916802EE0FFF0BE458FF4FA591B4912C
:101DD0002C918091670230E0082E000C990B822331
:101DE0009323892B41F01092690210926A0210929B
:101DF0006B0210926C02089580916E028823F9F0B4
:101E0000E0917002EE0FFF0BE458FF4FA591B491E3
:101E10002C9180916F0230E0082E000C990B8223E8
:101E20009323892B61F08091740290917502A091A7
:101E30007602B09177020197A109B1090BC0809198
:101E4000740290917502A0917602B091770201968A
:101E5000A11DB11D8093740290937502A093760228
:101E6000B0937702809171028823D9F0E0917302D8
:101E7000EE0FFF0BE458FF4FA591B4912C91809188
:101E8000720230E0082E000C990B82239323892BD9
:101E900041F0109274021092750210927602109224
:101EA00077020895BF92CF92DF92EF92FF920F9345
:101EB0001F93CF93DF93CDB7DEB72B970FB6F89470
:101EC000DEBF0FBECDBF823008F086C0082F10E005
:101ED00019821A821B821C821D821E821F82188612
:101EE00019861A861B868BE0809FF001819FF00D7A
:101EF0001124DF01AE59BD4F7D01FE0131960190E5
:101F00000D928A95E1F7F7016083662309F464C0B6
:101F1000C22ED42EB62E62E08B2D0E94040BDD2043
:101F2000D1F062E08D2D0E94040B2D2D2F7081E0E9
:101F300090E001C0880F2A95EAF7D70112968C939A
:101F40001297D2942FE0D2221396DC92139781E05D
:101F500011968C9302C0F7011182CC20C1F02C2D78
:101F60002F7081E090E001C0880F2A95EAF79BE08E
:101F7000909FF001919FF00D1124EE59FD4F858344
:101F8000C2949FE0C922C68281E084830BC08BE0AB
:101F9000809FF001819FF00D1124EE59FD4F1482B6
:101FA00016821582000F111FF801E55FFE4F608158
:101FB000718143E08B2D2B960FB6F894DEBF0FBED8
:101FC000CDBFDF91CF911F910F91FF90EF90DF90E8
:101FD000CF90BF900C94FA0B2B960FB6F894DEBFFF
:101FE0000FBECDBFDF91CF911F910F91FF90EF906A
:101FF000DF90CF90BF900895E2E6F2E01082118268
:10200000128213821482158216821782108611861C
:10201000128613861486158616861786108A118AEC
:10202000128A138A148A158A0895A1E21A2EAA1B0D
:10203000BB1BFD010DC0AA1FBB1FEE1FFF1FA21778
:10204000B307E407F50720F0A21BB30BE40BF50B75
:10205000661F771F881F991F1A9469F760957095FE
:10206000809590959B01AC01BD01CF010895EE0FC5
:0E207000FF1F0590F491E02D0994F894FFCF26
:10207E00D0078813F4010A10270A0AA60EFC0E00D8
:00000001FF
