:100000000C9492000C9471010C949A010C94C3010D
:100010000C94BA000C94BA000C94BA000C94BA0078
:100020000C94BA000C94BA000C94BA000C94BA0068
:100030000C94BA000C948F020C94BA000C94BA0081
:100040000C94BA000C94BA000C94BA000C94BA0048
:100050000C94F2030C94BA000C94BA000C94BA00FD
:100060000C94BA000C94BA000C94BA000C94BA0028
:100070000C94BA000C94BA000C94BA00C805150789
:100080001507150715071507150715071507150790
:10009000150715071507150715071507D2050E06CD
:1000A0002606150715071507150715071507150760
:1000B0001507150715071507150715074F068406B9
:1000C00015071507150790061507150715071507D6
:1000D000150715071507150715071507C706E006C5
:1000E0001507150715071507150715071507150730
:1000F000150715071507150715071507F4060F0748
:100100000000200023002600290000002200250016
:1001100028002B0000002100240027002A008E0464
:10012000A107590B11241FBECFEFD4E0DEBFCDBF16
:1001300011E0A0E0B1E0E2E3F8E102C005900D9229
:10014000A031B107D9F721E0A0E1B1E001C01D92D3
:10015000AC3CB207E1F710E0C2E9D0E004C021975F
:10016000FE010E94110CCF38D107C9F70E949304F9
:100170000C94170C0C940000882349F0ECE7F0E095
:1001800080818064808380818F67808308C0ECE7F2
:10019000F0E080818064808380818F778083EAE7CC
:1001A000F0E080818760808380818068808308950B
:1001B000ECE7F0E09081907F892B8083EAE7F0E024
:1001C000808180648083808186FDFDCF809178006E
:1001D000909179000895CF93DF93882309F437C075
:1001E000E82FE295EF7099F18F7021E030E002C0C6
:1001F000220F331F8A95E2F78E2F90E0880F991F08
:10020000FC01EC5EFE4FA591B491FC01E65FFE4F50
:10021000C591D4918FB7F8946130A9F018F062308D
:1002200049F014C09C91209592239C939881292396
:1002300028830CC09C91322F309593239C939881F6
:10024000292B288303C09C91292B2C938FBFDF91EE
:10025000CF910895882311F1E82FE295EF70F1F026
:100260008F7021E030E0A90102C0440F551F8A952C
:10027000E2F7CA01F0E0EE0FFF1FE65FFE4FA59127
:10028000B4912FB7F894662321F09C91892B8C931D
:1002900004C09C91809589238C932FBF0895882357
:1002A000E1F0E82FE295EF70D1F0F0E0EE0FFF1FE4
:1002B000E050FF4FA591B4914C918F7021E030E058
:1002C000B90102C0660F771F8A95E2F7CB01942F20
:1002D000982381E029F480E0089580E0089580E08B
:1002E00008951F920F920FB60F9211242F933F93F0
:1002F0004F935F936F937F938F939F93AF93BF932E
:10030000EF93FF93E0911001F0911101309709F004
:100310000995FF91EF91BF91AF919F918F917F913F
:100320006F915F914F913F912F910F900FBE0F9062
:100330001F9018951F920F920FB60F9211242F93B2
:100340003F934F935F936F937F938F939F93AF935D
:10035000BF93EF93FF93E0911201F0911301309757
:1003600009F00995FF91EF91BF91AF919F918F9106
:100370007F916F915F914F913F912F910F900FBEA1
:100380000F901F9018951F920F920FB60F92112485
:100390002F933F934F935F936F937F938F939F938D
:1003A000AF93BF93EF93FF93E0911401F091150188
:1003B000309709F00995FF91EF91BF91AF919F910F
:1003C0008F917F916F915F914F913F912F910F90FE
:1003D0000FBE0F901F901895823449F0833419F0A6
:1003E0008232D1F502C091E003C092E001C090E0FA
:1003F0008DB3E92FF0E021E030E002C0220F331F7F
:100400009A95E2F7922F909589238DBBEE0FFF1FEF
:10041000DF01A05FBE4F6D937C93A9E6B0E03C91F5
:1004200083E090E00E2E02C0880F991F0A94E2F735
:10043000809583238C939C91842F8370482F50E068
:1004400002C0440F551FEA95E2F7492B4C938DB338
:10045000282B2DBB81E0089580E0089561E085E4BC
:100460000E94EB0060E085E40E942A01089561E0AB
:1004700085E40E94EB0061E085E40E942A01089572
:10048000AF92BF92CF92DF92EF92FF920F931F93A2
:10049000CF93DF9318161906BCF57B016C0100E0C1
:1004A00010E05B0181E0A81AB1081016110674F47F
:1004B000E501E114F10429F1C701E7E8F3E131971F
:1004C000F1F700C000000197C1F718C00E942E028A
:1004D000E501E114F10451F087E893E10197F1F7A8
:1004E00000C00000CE012197892BB1F70E9437028E
:1004F0000F5F1F4FC016D106C1F606C00E942E0224
:10050000EBCF0E942E02F2CFDF91CF911F910F917E
:10051000FF90EF90DF90CF90BF90AF9008951F9223
:100520000F920FB60F9211248F939F93AF93BF93A7
:100530008091160190911701A0911801B0911901B5
:100540000196A11DB11D8093160190931701A093F0
:100550001801B0931901BF91AF919F918F910F90A6
:100560000FBE0F901F9018952FB7F8946091160149
:100570007091170180911801909119012FBF089572
:100580001092160110921701109218011092190181
:1005900089EF90E090938900809388008AE08093AF
:1005A0008100EFE6F0E080818260808308958130F1
:1005B00071F028F0823099F08330C9F020C06623B2
:1005C00001F1613011F484E2089580E0089566231A
:1005D000D1F0613011F484E4089580E00895662339
:1005E000A1F0613011F486E4089580E00895662357
:1005F00071F0613011F487E2089580E0089580E0A1
:10060000089583E2089585E4089587E4089586E2D5
:1006100008950F931F93CF93DF93C82F062F60E0A9
:100620000E94D702182F61E08C2F0E94D702D82F8A
:1006300060E0812F0E942A0161E0812F0E94EB007F
:1006400060E08D2F0E942A0161E08D2F0E94EB0057
:10065000CC2319F0C23041F011C017BC18BC81EA9C
:1006600084BD037005BD0AC01092B3001092B4009F
:1006700081EA8093B00003700093B100DF91CF91C5
:100680001F910F910895882319F0823051F0089539
:10069000662319F0613019F0089547BD089548BDEB
:1006A0000895662319F0613021F008954093B30056
:1006B00008954093B40008950F931F93522F60380C
:1006C00026E9720728E982079105B0F4E1E000E429
:1006D0001BE42CE430E0601771078207930740F4B5
:1006E0003695279517950795EF5FE630A1F706C079
:1006F000E63029F4E7E003C0E0E001C0E7E091E084
:100700008E2F8927442311F040E501C040E7282FB0
:1007100030E035952795922F9370252F2C70292B3B
:10072000242B20931B01817080931A011F910F913C
:100730000895CF93CFB7F89480911C0181111DC00B
:10074000E8E1F1E0A591B4918C9184FD04C061E0F1
:1007500084E20E942A0161E084E20E94EB008CB5F1
:1007600080618CBD8CB580648CBD61E087E20E94A5
:10077000EB0061E085E20E94EB0080911C018F5F3D
:1007800080931C01CFBF20E041E060E079E08DE381
:1007900090E00E945C03CF91089580911B018CBD75
:1007A00080911A018DBD08950CB405FC0DC09EBD4D
:1007B00000000DB407FEFDCF9EB58EBD00000DB448
:1007C00007FEFDCF8EB508958EBD00000DB407FE67
:1007D000FDCF8EB59EBD00000DB407FEFDCF9EB5CA
:1007E000089508951F920F920FB60F9211242F9320
:1007F0008F939F93EF93FF932091C600E0915E014A
:1008000081E08E0F8F7390915D01891731F0F0E0D8
:10081000E35EFE4F208380935E01FF91EF919F91F5
:100820008F912F910F900FBE0F901F901895CF931F
:10083000DF93EC01E0915D0190915E01E91779F0A1
:10084000ADE5B1E081E08E0F8C93F0E0E35EFE4F0A
:10085000808188838C918F738C9381E001C080E0CC
:10086000DF91CF910895EF920F93CF93DF93C42F31
:10087000D22FDC01CB01880F991FAA1FBB1F880F45
:10088000991FAA1FBB1F9C01AD01220F331F441FDC
:10089000551F60E07DE281E391E00E94EF0B215063
:1008A000310982E08093C000DD2311F080E901C0AE
:1008B00080E8011188608093C100C37080E1C89F07
:1008C000A00111244668E11048604093C2003093B3
:1008D000C5002093C400DF91CF910F91EF90089550
:1008E000E0ECF0E0908195FFFDCF8093C600089585
:1008F0000F931F93CF93DF936115710551F08C0116
:10090000EC01060F171F89910E947004C017D107D0
:10091000D1F7DF91CF911F910F91089510925D0152
:1009200010925E010895E12C01E021E040E060E2D8
:1009300071EA87E090E00E9433040E94C00278943C
:1009400064E670E083E090E00E9440020E94740B35
:100950000E94F2040E94C70A0E9462080E942607B1
:10096000F5CFCF93DF93EC010E94CD0360E089E0E7
:100970000E942A0186E08A95F1F700C0CE010E940C
:10098000D40386E08A95F1F700C061E089E00E9417
:100990002A010E94F103DF91CF9108950E949903EB
:1009A00020E041E060E072E18AE790E00E945C03B1
:1009B00061E089E00E942A0161E089E00E94EB0089
:1009C00080E090E80E94B10408957F70706390E029
:1009D00090E4899F902D88271124862B972B0E94C5
:1009E000B1040895CF92DF92EF92FF920F931F937D
:1009F000CF93DF93CDB7DEB769970FB6F894DEBF1C
:100A00000FBECDBF80916B01882309F479C00E948D
:100A1000B40200915F011091600120916101309159
:100A200062016B017C01C01AD10AE20AF30A970144
:100A3000860140910001509101016A01E12CF12CE5
:100A40000C151D052E053F0508F45AC060935F0183
:100A500070936001809361019093620189E68983BC
:100A600082E98A8384E18B8386E9898FFE01389647
:100A7000CE01489606C080916B01882309F1F12CC4
:100A800006C0119211928E179F07D9F7F4CF0F2D40
:100A900010E0F801ED59FE4F80810E94D800F80166
:100AA0003296EE0FFF1F21E030E02C0F3D1FE20FCA
:100AB000F31F94838383F39480916B01F81638F3CA
:100AC0000E94B4026C837D838E839F832B8130E0F0
:100AD0002115310569F0FE0134962C0F3D1F2C5F66
:100AE0003F4F80E09191890FE217F307D9F701C0DA
:100AF00080E0888F69E170E0CE0101960E94780461
:100B000069960FB6F894DEBF0FBECDBFDF91CF91CF
:100B10001F910F91FF90EF90DF90CF900895CF93AA
:100B2000DF9300D000D01F92CDB7DEB7FE01319623
:100B300095E0DF011D929A95E9F799E6998396E988
:100B40009D838A8365E070E0CF010E9478040F9056
:100B50000F900F900F900F90DF91CF910895DF923B
:100B6000EF92FF920F931F93CF93DF93CDB7DEB732
:100B70002B970FB6F894DEBF0FBECDBF90E0823446
:100B8000910508F052C1FC01E25CFF4F0C94110C7E
:100B9000662321F08DEF0E948F054AC180E70E94F5
:100BA0008F0546C1643021F08DEF0E948F0540C152
:100BB000DA011396EC901397E0FAEE24E0F8FC903B
:100BC0001196DC90119712961C9180916C01811105
:100BD00005C00E94CE0481E080936C01612F70E01B
:100BE0007D298F2D0E94E504EE20A1F0B3E0BF1512
:100BF00088F081E080937A010E94B402EF2DF0E04A
:100C0000EE0FFF1FEE0FFF1FE359FE4F668777873A
:100C1000808B918B80E80E948F050AC1623021F0A1
:100C20008DEF0E948F0504C1FA01F080118161E00F
:100C30008F2D0E94EB0061E0111101C060E08F2D4B
:100C40000E942A0181E80E948F05F2C0613021F0E4
:100C50008DEF0E948F05ECC0DA011C9160E0812FBE
:100C60000E94EB00812F0E944F01FE01319697E018
:100C7000DF011D929A95E9F799E6998392E89A83A4
:100C800091E09B8396E99F831C838D83912F980F1E
:100C90009E8367E070E0CF010E947804C9C06B308A
:100CA00021F08DEF0E948F05C3C08BE0FA01DE01B9
:100CB000119601900D928A95E1F7FA016085718590
:100CC000428510926B01E3E6F1E0DE0111962BE61E
:100CD00031E090E010828D91882314F080839F5F33
:100CE0003196E217F307B1F790936B01709301010E
:100CF0006093000181E0411101C080E00E94BC00CE
:100D000080E90E948F0594C0613021F08DEF0E9430
:100D10008F058EC010926B0181E90E948F0588C0FB
:100D2000633021F08DEF0E948F0582C0DA011296A8
:100D3000EC901297E0FAEE24E0F8FC9011961C91EA
:100D400061E08F2D0E94EB0061E080E00E940903CA
:100D5000412F6F2D80E00E944303EE20A1F0B1E00F
:100D6000BF1588F081E0809371010E94B402EF2DDD
:100D7000F0E0EE0FFF1FEE0FFF1FE359FE4F6583FC
:100D800076838783908785E90E948F0551C06830FC
:100D900021F08DEF0E948F054BC088E0FA01DE0143
:100DA000119601900D928A95E1F7CE0101960E946D
:100DB000A90981E08093A80180EA0E948F0538C0CC
:100DC00084EC99E098878F831D821B8219821E8292
:100DD0001C821A82CE0101960E94A9091092A801D4
:100DE00081EA0E948F0524C0653021F08DEF0E94BA
:100DF0008F051EC0FA012381348142816181808187
:100E00000E94BC07882339F081E080938B0180EB3E
:100E10000E948F050DC08CEF0E948F0509C01092B3
:100E20008B0181EB0E948F0503C08EEF0E948F051E
:100E30002B960FB6F894DEBF0FBECDBFDF91CF91DA
:100E40001F910F91FF90EF90DF9008958F929F92E6
:100E5000AF92BF92EF92FF920F931F93CF93DF93C6
:100E60000E94B4024B015C0180917A01882369F1F0
:100E700010927A01CDE6D1E010E07E0101E08E858E
:100E80009F85A889B9890097A105B105D1F0F7011F
:100E90000587B501A401481B590B6A0B7B0B8081A8
:100EA0009181A281B38184179507A607B70748F4FB
:100EB0001E861F86188A198A60E070E0812F0E94C2
:100EC000E5041F5F24961430D1F6809171018823C8
:100ED00069F110927101CDE6D1E010E07E0101E0F0
:100EE0008D819E81AF81B8850097A105B105D1F0B4
:100EF000F7010483B501A401481B590B6A0B7B0B56
:100F000080819181A281B38184179507A607B707D5
:100F100048F41D821E821F82188640E0612F80E007
:100F20000E9443031F5F24961230D1F6DF91CF91C8
:100F30001F910F91FF90EF90BF90AF909F908F9077
:100F40000895EDE6F1E088EE93E0A0E0B0E0808364
:100F50009183A283B3831482158688E0E2E7F1E0EF
:100F6000DF011D928A95E9F780E1EBE7F1E0DF010F
:100F70001D928A95E9F70895CF93DF93E82F082E05
:100F8000000CFF0BF0930901E0930801062E000C02
:100F9000770B7093070160930601042E000C550B2C
:100FA0005093050140930401309303012093020103
:100FB0001E161F06FCF416161706F4F41416150672
:100FC000ECF461E00E94EB00C6E0D1E061E08881D2
:100FD0000E94EB0060E0809104010E94EB0061E060
:100FE00088810E942A0161E0809108010E942A0103
:100FF00081E005C080E003C080E001C080E0DF91B7
:10100000CF910895CF92DF92EF92FF920F931F93AB
:10101000CF93DF93C8E0D1E061E088810E94EB00CC
:1010200061E0809106010E94EB0060E08091040184
:101030000E94EB0060E088810E942A0186E08A9588
:10104000F1F700C0E6E0EA95F1F700C000E110E03A
:10105000C0E0D0E00F2EF6E0EF2EF1E0FF2EF02DF5
:101060000F2EF4E0CF2EF1E0DF2EF02D60E0F7013F
:1010700080810E942A01F6E0FA95F1F700C061E054
:10108000F70180810E942A01F6E0FA95F1F700C08D
:10109000CC0FDD1FF60180810E944F018111C160DC
:1010A0000150110919F761E0809108010E942A019D
:1010B000CE01DF91CF911F910F91FF90EF90DF90C4
:1010C000CF900895CF92DF92EF92FF92CF93DF936C
:1010D000CDB7DEB72C970FB6F894DEBF0FBECDBFED
:1010E00080918B01882309F453C00E94B4026B01E4
:1010F0007C0180918C0190918D01A0918E01B09125
:101100008F01B701A601481B590B6A0B7B0B80911D
:10111000020190910301A0E0B0E0481759076A0767
:101120007B07B0F1C0928C01D0928D01E0928E01CC
:10113000F0928F010E94020829E6298324E92A837C
:1011400027E02B8326E92C87CC82DD82EE82FF828A
:101150009C010024220F331F001C220F331F001C90
:10116000232F302D398728878F738A87FE01349685
:101170009E01255F3F4F80E09191890FE217F307B1
:10118000D9F78B876CE070E0CE0101960E9478045D
:101190002C960FB6F894DEBF0FBECDBFDF91CF9176
:1011A000FF90EF90DF90CF900895CF93DF938091E1
:1011B0009101882391F1A0E9B1E01396EC91139786
:1011C000EE0FFF0BE050FF4FC591D491288112968E
:1011D0008C91129730E0082E000C990B82239323F8
:1011E000892B69F0FD0180859185A285B3850197E2
:1011F000A109B10980879187A287B3871BC0E0E965
:10120000F1E080859185A285B3850196A11DB11D70
:1012100080879187A287B3870DC0E0E9F1E08085E0
:101220009185A285B3850196A11DB11D8087918707
:10123000A287B387809194018823F1F0A0E9B1E0FF
:101240001696EC911697EE0FFF0BE050FF4FC591ED
:10125000D491288115968C9130E0082E000C990BC2
:1012600082239323892B41F01092980110929901C7
:1012700010929A0110929B01DF91CF910895CF9324
:10128000DF9380919D01882391F1A0E9B1E01F9641
:10129000EC911F97EE0FFF0BE050FF4FC591D491DB
:1012A00028811E968C911E9730E0082E000C990B19
:1012B00082239323892B69F0FD0184899589A6896E
:1012C000B7890197A109B109848B958BA68BB78B40
:1012D0001BC0E0E9F1E084899589A689B789019668
:1012E000A11DB11D848B958BA68BB78B0DC0E0E93A
:1012F000F1E084899589A689B7890196A11DB11D60
:10130000848B958BA68BB78B8091A0018823F1F0FD
:10131000A0E9B1E05296EC915297EE0FFF0BE0502E
:10132000FF4FC591D491288151968C9130E0082EC1
:10133000000C990B82239323892B41F01092A40176
:101340001092A5011092A6011092A701DF91CF91F2
:1013500008952F923F924F925F926F927F928F9259
:101360009F92AF92BF92CF92DF92EF92FF920F9334
:101370001F93CF93DF93CDB7DEB72C970FB6F894BA
:10138000DEBF0FBECDBFFC012681378130930F0138
:1013900020930E010F2EF0E9AF2EF1E0BF2EF02DBD
:1013A0007C010F2EFAE08F2EF1E09F2EF02D00E051
:1013B00010E02C01F4E04F0E511C3324339422240E
:1013C0002394680119821A821B821C821D821E824C
:1013D0001F82188619861A861B861C868CE0FE01E1
:1013E0003196D50101900D928A95E1F73701F70109
:1013F0008081F801EE0FFF1FE00FF11FEE0FFF1FBE
:10140000EE0FFF1FE057FE4F8083F7018081181613
:101410000CF095C062E00E94EB00F7018281181683
:1014200074F562E00E94EB00F7018281882339F0B5
:101430008F70F22D01C0FF0F8A95EAF78F2FF6010A
:10144000EE0FFF1FEC0DFD1DEE0FFF1FEE0FFF1F38
:10145000E057FE4F8283F3018281882311F0829549
:101460008F70F601EE0FFF1FEC0DFD1DEE0FFF1F3D
:10147000EE0FFF1FE057FE4F838331820CC0F8014F
:10148000EE0FFF1FE00FF11FEE0FFF1FEE0FFF1F0C
:10149000E057FE4F118241145104A9F1F3018481F8
:1014A000882339F08F70F22D01C0FF0F8A95EAF77B
:1014B0008F2FF601EE0FFF1FEC0DFD1DEE0FFF1F2E
:1014C000EE0FFF1FE057FE4F8583F3012481222397
:1014D00011F022952F70C601880F991FFC01EC0DA9
:1014E000FD1DEE0FFF1FEE0FFF1FE057FE4F26837F
:1014F000FC01EC0DFD1DEE0FFF1FEE0FFF1FE0576F
:10150000FE4F348214C0F601EE0FFF1FDF01AC0D59
:10151000BD1DAA0FBB1FAA0FBB1FA057BE4F14961D
:101520001C92149716961C921697FD011582F401D1
:101530006081718143E0F30180810E94EC010F5FC3
:101540001F4FFCE0AF0EB11C2FEFE21AF20A82E04F
:10155000880E911C0230110509F033CF2C960FB67E
:10156000F894DEBF0FBECDBFDF91CF911F910F91D9
:10157000FF90EF90DF90CF90BF90AF909F908F90B3
:101580007F906F905F904F903F902F900895CF92F3
:10159000DF92EF92FF920F931F93CF93DF93CDB71C
:1015A000DEB765970FB6F894DEBF0FBECDBF809152
:1015B000A801882309F46EC00E94B4020091A90119
:1015C0001091AA012091AB013091AC016B017C011B
:1015D000C01AD10AE20AF30A9701860140910E016E
:1015E00050910F016A01E12CF12C0C151D052E05FF
:1015F0003F0508F44FC06093A9017093AA0180933E
:10160000AB019093AC0189E6898383E98A8380E109
:101610008B8386E98D8B8FB7F894E0E9F1E0408504
:10162000518562857385488759876A877B87448996
:101630005589668977894C875D876E877F878FBFDD
:101640000E94B4026C837D838E839F8380910E0100
:1016500090910F01A0E0B0E0888B998BAA8BBB8B97
:101660002B8130E02115310569F0FE0134962C0FF5
:101670003D1F2C5F3F4F80E09191890FE217F307E8
:10168000D9F701C080E08C8B65E170E0CE01019656
:101690000E94780465960FB6F894DEBF0FBECDBFEA
:1016A000DF91CF911F910F91FF90EF90DF90CF903E
:1016B0000895E0E9F1E0108211821282138214820F
:1016C000158216821782108611861286138614865A
:1016D000158616861786108A118A128A138A148A2A
:1016E000158A168A178A0895EF92FF920F931F9317
:1016F000CF93DF931F92CDB7DEB719820DEA11E0C9
:10170000EE24E3940F2EF9E6FF2EF02DCE01019684
:101710000E941704882309F45AC0E091CB01E1111B
:101720000AC08981893609F44DC01092CB018BEF34
:101730000E948F05EBCF81E08E0F8093CB01F0E00C
:10174000E355FE4F99819083833000F390E0F801D8
:101750006281262F30E02B5F3F4F82179307B1F64F
:10176000FC01E455FE4F2081263931F01092CB0167
:101770008BEF0E948F05CACF662371F0E0EBF1E09A
:101780004FEF460F50E04F545E4F20E03191230F52
:10179000E417F507D9F701C020E0FC01E555FE4F3D
:1017A0008081821731F01092CB018AEF0E948F0561
:1017B000ADCF40EB51E0F80181810E94AF0510925E
:1017C000CB01A4CFE092CB01F801F0829FCF0F9024
:1017D000DF91CF911F910F91FF90EF900895A1E2BB
:1017E0001A2EAA1BBB1BFD010DC0AA1FBB1FEE1F9B
:1017F000FF1FA217B307E407F50720F0A21BB30BE6
:10180000E40BF50B661F771F881F991F1A9469F761
:1018100060957095809590959B01AC01BD01CF01BD
:101820000895EE0FFF1F0590F491E02D0994F894B0
:02183000FFCFE8
:10183200D007D007120011001000D5083F09881305
:00000001FF
