:100000000C9451000C943A040C9463040C948C04EA
:100010000C9479000C9479000C9479000C9479007C
:100020000C9479000C9479000C9479000C9479006C
:100030000C9479000C94FC040C9479000C947900D5
:100040000C9479000C9479000C9479000C9479004C
:100050000C9415060C9479000C9479000C9479009A
:100060000C9479000C9479000C9479000C9479002C
:100070000C9479000C9479000C9479000000200015
:1000800023002600290000002200250028002B0064
:1000900000002100240027002A00850178021A03AD
:1000A000A70611241FBECFEFD4E0DEBFCDBF11E005
:1000B000A0E0B1E0ECEAFDE002C005900D92A230B4
:1000C000B107D9F721E0A2E0B1E001C01D92AE3B3B
:1000D000B207E1F710E0C1E5D0E004C02197FE01CE
:1000E0000E94CE06CD34D107C9F70E9457010C9467
:1000F000D4060C940000CF92DF92EF92FF920F9300
:100100001F93C0901501D0901601E0901701F09058
:100110001801C60ED71EE81EF91EC0921501D09216
:100120001601E0921701F09218010091110110914F
:1001300012012091130130911401061717072807A7
:10014000390740F4609311017093120180931301F9
:100150009093140100910D0110910E0120910F0157
:1001600030911001601771078207930740F4609384
:100170000D0170930E0180930F01909310018091F7
:10018000020190910301A0910401B0910501019633
:10019000A11DB11D8093020190930301A09304015E
:1001A000B093050120911F013091200140E050E003
:1001B000281739074A075B0708F072C0109202013E
:1001C000109203011092040110920501C701B601BB
:1001D0000E94AC062093150130931601409317013D
:1001E000509318010E9421056093090170930A0140
:1001F00080930B0190930C0120910801E6E0F1E05F
:1002000080E030E0AF01465051404217530720F4E0
:100210009381890F3196F6CF80931B01CC24CA9429
:10022000DC2C7601C0920D01D0920E01E0920F01FC
:10023000F092100110921501109216011092170100
:1002400010921801109211011092120110921301D4
:100250001092140110921A011092190167E170E0D6
:1002600086E091E00E949306C0920D01D0920E01AB
:10027000E0920F01F09210011092150110921601F8
:100280001092170110921801109211011092120190
:10029000109213011092140110921A011092190178
:1002A0001F910F91FF90EF90DF90CF900895E12C78
:1002B00001E021E040E060E271EA87E090E00E9426
:1002C00053060E942D05789464E670E083E090E088
:1002D0000E94C5040E9490010E9421054B015C010F
:1002E0000E942D030E94C8010E9421056B017C0120
:1002F000C818D908EA08FB080E9421054B015C01D7
:10030000C701B6010E947B00EBCFE6E0F1E089E691
:10031000808380EA818382E1828386E9868B0895E7
:10032000CF93DF93CDB7DEB72D970FB6F894DEBF2E
:100330000FBECDBF83E28C8384E28B8387E2898307
:1003400082E28E8381E28F8380E2888780E18987E1
:1003500081E18A8782E18B8783E18C8784E18D87C5
:1003600085E28A8386E28D83CE0101960E9466052E
:100370002D960FB6F894DEBF0FBECDBFDF91CF91A3
:10038000089560931E0170931F01809320010895CA
:10039000BF92CF92DF92EF92FF920F931F93CF9372
:1003A000DF93CDB7DEB7C154D1090FB6F894DEBFE5
:1003B0000FBECDBF0E9421050091210110912201A5
:1003C00020912301309124016B017C01C01AD10AD4
:1003D000E20AF30A97018601409100015091010160
:1003E0006A01E12CF12C0C151D052E053F0508F4C2
:1003F0006EC060932101709322018093230190933A
:10040000240189E6898382E98A838CE28B8386E9E9
:1004100089ABBFB6F8940E94BC050E94CE05CE0100
:10042000C2960E94D5058E010E5C1F4F7E0188E0AA
:10043000E80EF11C6E01E8E2CE0ED11CF8016191CC
:1004400071918F01072E000C880B990B0E94840379
:10045000F70161937193819391937F01EC15FD05F1
:1004600069F718A619A61AA61BA6BFBE78940E9403
:1004700021056C837D838E839F8380910001909101
:100480000101A0E0B0E08CA79DA7AEA7BFA7809117
:100490001D018F5F80931D0190911E019817B8F484
:1004A00010921D014B81CE010196FC0120E050E02D
:1004B000BF01681B790B6417750720F43381230F84
:1004C0003196F6CF28AB61E370E00E949306CF5BD4
:1004D000DF4F0FB6F894DEBF0FBECDBFDF91CF91D7
:1004E0001F910F91FF90EF90DF90CF90BF900895F4
:1004F000EEE1F1E08AE0808380E197E292838183FC
:100500000895CF93DF9300D000D01F92CDB7DEB710
:10051000FE01319695E0DF011D929A95E9F799E683
:10052000998396E99D838A8365E070E0CF010E94FC
:1005300093060F900F900F900F900F90DF91CF9137
:1005400008950F931F93CF93DF93CDB7DEB727970F
:100550000FB6F894DEBF0FBECDBF162FFA01813162
:1005600031F128F4882369F0803181F055C081325F
:1005700009F444C0803609F445C0803209F04CC00B
:1005800039C0613009F040C080E747C06230E1F512
:100590001081018161E0812F0E94BF0361E00111A0
:1005A00001C060E0812F0E94FD0380E836C0613009
:1005B00059F5008160E0802F0E94BF03802F0E94C8
:1005C0001E04982FFE01319687E0DF011D928A9567
:1005D000E9F789E6898381E88A831B8386E98F832B
:1005E0000C839D83900F9E8367E070E0CF010E9493
:1005F000930615C06A3041F480E90FC0613021F4E0
:1006000081E90BC0633011F08DEF07C0608171810B
:1006100082810E94C10103C08EEF0E948102279651
:100620000FB6F894DEBF0FBECDBFDF91CF911F9103
:100630000F910895E5E2F1E088EE93E0A0E0B0E0EC
:1006400080839183A283B38314828CE1EAE2F1E098
:10065000DF011D928A95E9F70895CF93DF931F92EA
:10066000CDB7DEB71982CE0101960E943A068823E3
:1006700009F444C0E09164019981E11106C0993602
:1006800021F0109264018BEF2DC081E08E0F8093DA
:100690006401F0E0EA5BFE4F9083833020F390E04A
:1006A00040914801242F30E02B5F3F4F8217930782
:1006B000D1F68A5B9E4FFC0131972081263909F7DC
:1006C000E9E4F1E060E020E0641721F03191230FCC
:1006D0006F5FFACFFC0132978081281731F01092BA
:1006E00064018AEF0E948102BECF49E451E080910B
:1006F00047010E94A10210926401B5CF0F90DF91D3
:10070000CF910895E89409C097FB3EF490958095A9
:10071000709561957F4F8F4F9F4F9923A9F0F92FC7
:1007200096E9BB279395F695879577956795B79545
:10073000F111F8CFFAF4BB0F11F460FF1BC06F5F2B
:100740007F4F8F4F9F4F16C0882311F096E911C03D
:10075000772321F09EE8872F762F05C0662371F05E
:1007600096E8862F70E060E02AF09A95660F771F72
:10077000881FDAF7880F9695879597F90895CF9394
:10078000DF93882309F436C0282F22952F7091F12A
:100790008F7041E050E0FA0102C0EE0FFF1F8A9512
:1007A000E2F7CF0130E0220F331FF901E057FF4F8E
:1007B000A591B491F901EA57FF4FC591D4912FB794
:1007C000F894613099F050F0623099F49C91382F90
:1007D000309593239C939881892B06C09C9180959A
:1007E00098239C9398818923888303C09C91892BAB
:1007F0008C932FBFDF91CF9108958823F1F0E82FDC
:10080000E295EF70D1F0282F2F7081E090E001C0C9
:10081000880F2A95EAF7F0E0EE0FFF1FEA57FF4F27
:10082000A591B4912FB7F8949C91662311F0892B70
:1008300002C0809589238C932FBF08958823C1F02F
:10084000E82FE295EF70A1F0F0E0EE0FFF1FE45803
:10085000FF4FA591B4913C91282F2F7081E090E03B
:1008600001C0880F2A95EAF7932F982381E009F4B5
:1008700080E008951F920F920FB60F9211242F93CC
:100880003F934F935F936F937F938F939F93AF9318
:10089000BF93EF93FF93E0916501F091660130976C
:1008A00009F00995FF91EF91BF91AF919F918F91C1
:1008B0007F916F915F914F913F912F910F900FBE5C
:1008C0000F901F9018951F920F920FB60F92112440
:1008D0002F933F934F935F936F937F938F939F9348
:1008E000AF93BF93EF93FF93E0916701F09168019D
:1008F000309709F00995FF91EF91BF91AF919F91CA
:100900008F917F916F915F914F913F912F910F90B8
:100910000FBE0F901F9018951F920F920FB60F9257
:1009200011242F933F934F935F936F937F938F93F4
:100930009F93AF93BF93EF93FF93E0916901F09181
:100940006A01309709F00995FF91EF91BF91AF913E
:100950009F918F917F916F915F914F913F912F91D7
:100960000F900FBE0F901F90189561E085E40E94D4
:10097000BF0360E085E40C94FD0361E085E40E9420
:10098000BF0361E085E40C94FD03EF92FF920F93A7
:100990001F93CF93DF937C018B01C0E0D0E0CE1595
:1009A000DF051CF51C161D066CF480E090E00817AE
:1009B000190741F0E7E8F3E13197F1F700C00000D3
:1009C0000196F5CF0E94B50480E090E00817190762
:1009D00041F0E7E8F3E13197F1F700C0000001963C
:1009E000F5CF0E94BD042196DACFDF91CF911F9100
:1009F0000F91FF90EF9008951F920F920FB60F92F4
:100A000011248F939F93AF93BF9380916B0190912B
:100A10006C01A0916D01B0916E010196A11DB11DF7
:100A200080936B0190936C01A0936D01B0936E0164
:100A3000BF91AF919F918F910F900FBE0F901F901C
:100A400018952FB7F89460916B0170916C018091AB
:100A50006D0190916E012FBF089510926B0110925D
:100A60006C0110926D0110926E0189EF90E09093ED
:100A70008900809388008AE080938100EFE6F0E0AF
:100A80008081826080830895EF92FF921F93CF93BD
:100A9000DF9384E7E82E81E0F82EC0E0D0E010E09C
:100AA000F70181917F010E941E040C2E01C0880F66
:100AB0000A94EAF7182B2196C830D10589F7812FBF
:100AC000DF91CF911F91FF90EF900895EF92FF92E9
:100AD0000F931F93CF93DF93EC018DE0FE01AFE600
:100AE000B1E001900D928A95E1F761E088810E9462
:100AF000BF0361E088810E94FD0361E089810E945B
:100B0000BF0361E089810E94FD0362E08A810E9447
:100B1000BF0362E08B810E94BF038E010B5F1F4FFA
:100B20007E012DE0E20EF11C60E0F80181918F0161
:100B30000E94BF030E151F05B9F760E08C810E946B
:100B4000FD0361E08C810E94BF0361E08C810E9403
:100B5000FD0385E690E0019729F0F6E0FA95F1F7BC
:100B600000C0F9CF60E08C81DF91CF911F910F9190
:100B7000FF90EF900C94FD03CF93DF93CFE6D1E08D
:100B800060E088810E94FD0386E08A95F1F700C04D
:100B900061E08881DF91CF910C94FD038091710118
:100BA0000E941E048111FACF0895EF92FF920F93D5
:100BB0001F93CF93DF938C017C0180E1E80EF11C41
:100BC00060E0809170010E94FD03000000000E941F
:100BD0004405C82F809172010E941E0461E080913B
:100BE00070010E94FD030000000060E08091700130
:100BF0000E94FD03000000000E944405D82F61E020
:100C0000809170010E94FD038C2F90E09D2BF801D4
:100C1000819391938F01EE15FF0591F6DF91CF91AE
:100C20001F910F91FF90EF9008951F920F920FB6B2
:100C30000F9211242F938F939F93EF93FF93909193
:100C4000C600E091BD0181E08E0F8F732091BC0141
:100C5000821731F0F0E0E458FE4F90838093BD019D
:100C6000FF91EF919F918F912F910F900FBE0F9059
:100C70001F901895E091BC012091BD01E21789F009
:100C800021E02E0F2093BC01F0E0E458FE4F2081BC
:100C9000FC0120838091BC018F738093BC0181E0B3
:100CA000089580E00895EF920F93CF93DF93C42FC0
:100CB000D22F9B01AC0183E0220F331F441F551F2D
:100CC0008A95D1F760E07DE281E391E00E94AC0675
:100CD0002150310982E08093C000DD2311F080E9CA
:100CE00001C080E8011188608093C100C37080E179
:100CF000C89FA0011124842F8668EE2011F0842F54
:100D00008E688093C2003093C5002093C400DF91A9
:100D1000CF910F91EF9008959091C00095FFFCCF77
:100D20008093C60008950F931F93CF93DF93EC0138
:100D30008C01060F171FC017D10721F089910E945F
:100D40008C06F9CFDF91CF911F910F9108951092EA
:100D5000BC011092BD010895A1E21A2EAA1BBB1B73
:100D6000FD010DC0AA1FBB1FEE1FFF1FA217B30777
:100D7000E407F50720F0A21BB30BE40BF50B661F8D
:100D8000771F881F991F1A9469F760957095809551
:100D900090959B01AC01BD01CF010895EE0FFF1F9F
:0C0DA0000590F491E02D0994F894FFCF29
:020DAC00D0076E
:00000001FF
